{
  "_format": "hh-sol-artifact-1",
  "contractName": "MockAttacker",
  "sourceName": "contracts/mocks/MockAttacker.sol",
  "abi": [
    {
      "inputs": [
        {
          "internalType": "contract DeFiLiquidityPool",
          "name": "_pool",
          "type": "address"
        },
        {
          "internalType": "contract IERC20",
          "name": "_tokenA",
          "type": "address"
        },
        {
          "internalType": "contract IERC20",
          "name": "_tokenB",
          "type": "address"
        }
      ],
      "stateMutability": "nonpayable",
      "type": "constructor"
    },
    {
      "inputs": [
        {
          "internalType": "address",
          "name": "token",
          "type": "address"
        }
      ],
      "name": "SafeERC20FailedOperation",
      "type": "error"
    },
    {
      "anonymous": false,
      "inputs": [
        {
          "indexed": false,
          "internalType": "uint256",
          "name": "profitA",
          "type": "uint256"
        },
        {
          "indexed": false,
          "internalType": "uint256",
          "name": "profitB",
          "type": "uint256"
        }
      ],
      "name": "FlashLoanAttackCompleted",
      "type": "event"
    },
    {
      "anonymous": false,
      "inputs": [
        {
          "indexed": false,
          "internalType": "uint256",
          "name": "initialPrice",
          "type": "uint256"
        },
        {
          "indexed": false,
          "internalType": "uint256",
          "name": "manipulatedPrice",
          "type": "uint256"
        },
        {
          "indexed": false,
          "internalType": "uint256",
          "name": "swapAmount",
          "type": "uint256"
        }
      ],
      "name": "PriceManipulated",
      "type": "event"
    },
    {
      "anonymous": false,
      "inputs": [
        {
          "indexed": false,
          "internalType": "uint256",
          "name": "initialReserveA",
          "type": "uint256"
        },
        {
          "indexed": false,
          "internalType": "uint256",
          "name": "initialReserveB",
          "type": "uint256"
        },
        {
          "indexed": false,
          "internalType": "uint256",
          "name": "swapAmount",
          "type": "uint256"
        }
      ],
      "name": "RebalanceManipulated",
      "type": "event"
    },
    {
      "anonymous": false,
      "inputs": [
        {
          "indexed": false,
          "internalType": "uint256",
          "name": "victimAmount",
          "type": "uint256"
        },
        {
          "indexed": false,
          "internalType": "uint256",
          "name": "frontRunAmount",
          "type": "uint256"
        }
      ],
      "name": "SandwichAttackExecuted",
      "type": "event"
    },
    {
      "inputs": [],
      "name": "attackInProgress",
      "outputs": [
        {
          "internalType": "bool",
          "name": "",
          "type": "bool"
        }
      ],
      "stateMutability": "view",
      "type": "function"
    },
    {
      "inputs": [
        {
          "internalType": "uint256",
          "name": "amountA",
          "type": "uint256"
        },
        {
          "internalType": "uint256",
          "name": "amountB",
          "type": "uint256"
        }
      ],
      "name": "deposit",
      "outputs": [],
      "stateMutability": "nonpayable",
      "type": "function"
    },
    {
      "inputs": [],
      "name": "flashLoanAmount",
      "outputs": [
        {
          "internalType": "uint256",
          "name": "",
          "type": "uint256"
        }
      ],
      "stateMutability": "view",
      "type": "function"
    },
    {
      "inputs": [
        {
          "internalType": "uint256",
          "name": "amount",
          "type": "uint256"
        },
        {
          "internalType": "bool",
          "name": "isTokenA",
          "type": "bool"
        }
      ],
      "name": "flashLoanAttack",
      "outputs": [],
      "stateMutability": "nonpayable",
      "type": "function"
    },
    {
      "inputs": [],
      "name": "getBalances",
      "outputs": [
        {
          "internalType": "uint256",
          "name": "balanceA",
          "type": "uint256"
        },
        {
          "internalType": "uint256",
          "name": "balanceB",
          "type": "uint256"
        }
      ],
      "stateMutability": "view",
      "type": "function"
    },
    {
      "inputs": [],
      "name": "getLastAttackProfit",
      "outputs": [
        {
          "internalType": "uint256",
          "name": "_profitA",
          "type": "uint256"
        },
        {
          "internalType": "uint256",
          "name": "_profitB",
          "type": "uint256"
        }
      ],
      "stateMutability": "view",
      "type": "function"
    },
    {
      "inputs": [],
      "name": "pool",
      "outputs": [
        {
          "internalType": "contract DeFiLiquidityPool",
          "name": "",
          "type": "address"
        }
      ],
      "stateMutability": "view",
      "type": "function"
    },
    {
      "inputs": [
        {
          "internalType": "uint256",
          "name": "swapAmount",
          "type": "uint256"
        }
      ],
      "name": "priceManipulationAttack",
      "outputs": [],
      "stateMutability": "nonpayable",
      "type": "function"
    },
    {
      "inputs": [],
      "name": "profitA",
      "outputs": [
        {
          "internalType": "uint256",
          "name": "",
          "type": "uint256"
        }
      ],
      "stateMutability": "view",
      "type": "function"
    },
    {
      "inputs": [],
      "name": "profitB",
      "outputs": [
        {
          "internalType": "uint256",
          "name": "",
          "type": "uint256"
        }
      ],
      "stateMutability": "view",
      "type": "function"
    },
    {
      "inputs": [],
      "name": "rebalanceManipulationAttack",
      "outputs": [],
      "stateMutability": "nonpayable",
      "type": "function"
    },
    {
      "inputs": [
        {
          "internalType": "address",
          "name": "token",
          "type": "address"
        },
        {
          "internalType": "uint256",
          "name": "amount",
          "type": "uint256"
        }
      ],
      "name": "receiveFlashLoan",
      "outputs": [],
      "stateMutability": "nonpayable",
      "type": "function"
    },
    {
      "inputs": [
        {
          "internalType": "uint256",
          "name": "victimSwapAmount",
          "type": "uint256"
        }
      ],
      "name": "sandwichAttack",
      "outputs": [],
      "stateMutability": "nonpayable",
      "type": "function"
    },
    {
      "inputs": [],
      "name": "targetTokenA",
      "outputs": [
        {
          "internalType": "bool",
          "name": "",
          "type": "bool"
        }
      ],
      "stateMutability": "view",
      "type": "function"
    },
    {
      "inputs": [],
      "name": "tokenA",
      "outputs": [
        {
          "internalType": "contract IERC20",
          "name": "",
          "type": "address"
        }
      ],
      "stateMutability": "view",
      "type": "function"
    },
    {
      "inputs": [],
      "name": "tokenB",
      "outputs": [
        {
          "internalType": "contract IERC20",
          "name": "",
          "type": "address"
        }
      ],
      "stateMutability": "view",
      "type": "function"
    },
    {
      "inputs": [],
      "name": "withdraw",
      "outputs": [],
      "stateMutability": "nonpayable",
      "type": "function"
    }
  ],
  "bytecode": "0x6080346100a457601f61133d38819003918201601f19168301916001600160401b038311848410176100a9578084926060946040528339810103126100a45780516001600160a01b038082169290918390036100a4578161006e6040610067602085016100bf565b93016100bf565b9160018060a01b031994856000541617600055168360015416176001551690600254161760025560405161126990816100d48239f35b600080fd5b634e487b7160e01b600052604160045260246000fd5b51906001600160a01b03821682036100a45756fe608060408181526004908136101561001657600080fd5b600092833560e01c908162113e0814610f8b575080630fc63d1014610f6257806312badd6b14610eb157806316f0115b14610e895780631a11eddf14610c415780633ccfd60b14610b1b578063405af0c014610899578063479110b21461087b5780635c973a3f146108575780635f64b55b1461082e578063738439621461080f578063818c8c7c146107e85780638968461d14610486578063b8a53b8314610467578063dcb436e014610440578063e2bbb158146103de5763ee31b5bc146100de57600080fd5b3461031957806003193601126103195781359160249182358015158091036103da576002549460ff8660a01c166103985760058190556006805460ff841660ff199190911617905560ff60a01b19868116600160a01b1760025560015484516370a0823160e01b808252308883015292986001600160a01b03959194602094938c9290869088908d9082908c165afa96871561038e579083929189979695949861035a575b5085908c8c8c519b8c9384928a84523090840152165afa97881561035057829861031d575b508582541692833b15610319578a838d956044938d519788968795630321e1fd60e61b87528601528401525af180156102e2576102ec575b509082918189959460015416885196878092858252308d8301525afa9485156102e2578b956102b3575b508190600254998851809581938252308c8301528c165afa9586156102aa57508995610275575b5050808211610262575b505080821161024f575b5050501660025580f35b61025891611110565b9055388080610245565b61026b91611110565b600355388061023b565b9080929550813d83116102a3575b61028d818361107d565b8101031261029e5751923880610231565b600080fd5b503d610283565b513d8b823e3d90fd5b9094508181813d83116102db575b6102cb818361107d565b8101031261029e5751938161020a565b503d6102c1565b87513d8d823e3d90fd5b67ffffffffffffffff819b929b1161030757865298876101e0565b634e487b7160e01b8252604188528882fd5b8280fd5b9097508481813d8311610349575b610335818361107d565b81010312610345575196386101a8565b5080fd5b503d61032b565b89513d84823e3d90fd5b86809299508198503d8311610387575b610374818361107d565b8101031261034557848896519790610183565b503d61036a565b89513d85823e3d90fd5b825162461bcd60e51b8152602081860152601a818701527f41747461636b20616c726561647920696e2070726f67726573730000000000006044820152606490fd5b8580fd5b50346103195736600319011261034557356024359080610420575b5080610403575080f35b60025461041d9190309033906001600160a01b0316611176565b80f35b60015461043a9190309033906001600160a01b0316611176565b386103f9565b50913461046457806003193601126104645750600354905482519182526020820152f35b80fd5b8382346103455781600319360112610345576020906003549051908152f35b509034610319576020806003193601126107095781359260018060a01b03918583600154169483516370a0823160e01b8152308282015283816024818a5afa80156107de57889084906107ad575b6104e0925010156110b5565b84825416958451956375c8e9bf60e11b9788885285888581845afa9788156107a3578598610774575b50865163095ea7b360e01b8082526001600160a01b03909216858201908152600a8c046020820181905294889183919082908a90829060400103925af1801561076a57908693929161074d575b50868284541660648460015416968b51998a938492639f1d0f5960e01b9a8b85528c85015260248401528160448401525af19586156106d557839661071e575b508183541688519a8b52878b8781845afa9a8b1561071457849b6106df575b5060025489519283526001600160a01b03919091168683019081526020810188905288918391829003604001908290879087165af180156106d5579160649391889695936106a8575b508082541690600254169689519788968795865285015260248401528160448401525af1801561069e57610671575b505051908152602081019190915260408101919091527f29dbc10802778113d7ef2cc5b0e39df78ee79c93877cc9f792e9871fe116a8d99080606081015b0390a180f35b813d8311610697575b610684818361107d565b8101031261069357388061062d565b8480fd5b503d61067a565b83513d89823e3d90fd5b6106c790873d89116106ce575b6106bf818361107d565b8101906110f8565b50386105fe565b503d6106b5565b88513d85823e3d90fd5b91909a508782813d831161070d575b6106f8818361107d565b8101031261070957905199866105b5565b8380fd5b503d6106ee565b89513d86823e3d90fd5b9095508681813d8311610746575b610736818361107d565b8101031261031957519438610596565b503d61072c565b61076390883d8a116106ce576106bf818361107d565b5038610556565b88513d88823e3d90fd5b9097508581813d831161079c575b61078c818361107d565b8101031261069357519638610509565b503d610782565b87513d87823e3d90fd5b50508381813d83116107d7575b6107c4818361107d565b8101031261031957876104e091516104d4565b503d6107ba565b85513d85823e3d90fd5b83823461034557816003193601126103455760209060ff60025460a01c1690519015158152f35b8382346103455781600319360112610345576020906005549051908152f35b83823461034557816003193601126103455760025490516001600160a01b039091168152602090f35b83823461034557816003193601126103455760209060ff6006541690519015158152f35b50903461031957826003193601126103195760209250549051908152f35b503461031957602091826003193601126107095760015482516370a0823160e01b815230818401528235926001600160a01b03928792908416908781602481855afa8015610b115786908590610ae0575b6108f6925010156110b5565b8254865163095ea7b360e01b8082529186166001600160a01b0316848201908152600a8804602082018190529692938a9183919082908990829060400103925af18015610ad65790859291610ab9575b5080825416928982600154169460648b5180998193639f1d0f5960e01b998a84528b8401528c60248401528160448401525af195861561038e57908a918497610a86575b5060025484548b5192835284166001600160a01b03168783019081526020810189905291929183918516908290879082906040015b03925af1801561038e5791606493918b969593610a69575b50808254169060025416968a519788968795865285015260248401528160448401525af18015610a5f57610a35575b507fd028dbf6ef633b66119d1483fd5bb0e37a4a633088bf278b00b48303d0af7d06938351928352820152a180f35b8490813d8311610a58575b610a4a818361107d565b810103126106935738610a06565b503d610a40565b84513d88823e3d90fd5b610a7f90873d89116106ce576106bf818361107d565b50386109d7565b8281939298503d8311610ab2575b610a9e818361107d565b8101031261031957519489906109bf61098a565b503d610a94565b610acf908a3d8c116106ce576106bf818361107d565b5038610946565b88513d87823e3d90fd5b50508781813d8311610b0a575b610af7818361107d565b8101031261070957856108f691516108ea565b503d610aed565b87513d86823e3d90fd5b503461031957826003193601126103195760015481516370a0823160e01b80825230828601526001600160a01b0394928516926020908184602481885afa938415610c37578894610c04575b508190602488600254169488519586938492835230908301525afa948515610bfb57508694610bcb575b505080610bb9575b505080610ba4578280f35b610bb391600254163390611133565b38808280f35b610bc4913390611133565b3880610b99565b9080929450813d8311610bf4575b610be3818361107d565b810103126106935751913880610b91565b503d610bd9565b513d88823e3d90fd5b9093508181813d8311610c30575b610c1c818361107d565b81010312610c2c57519281610b67565b8780fd5b503d610c12565b86513d8a823e3d90fd5b503461031957826003193601126103195782548151630240bc6b60e21b81526001600160a01b03929091831681838681845afa938415610e7f5786938795610e48575b50610bb8808502908582041485151715610e355761271090049581600154168451906370a0823160e01b825230838301526020948583602481855afa9283156102e257918a9187938d95610df9575b50610ce383610d199610156110b5565b885163095ea7b360e01b81526001600160a01b03909116868201908152602081019390935293849283918e918391604090910190565b03925af18015610def5790849291610dd2575b506064838a54169360015416918a87519586948593639f1d0f5960e01b85528401528b60248401528160448401525af1801561069e57610da9575b505051908152602081019190915260408101919091527fceaf73c9237c9b992a109885a67f702143f2af272aa119653c8264ab4e5e30cf90806060810161066b565b813d8311610dcb575b610dbc818361107d565b81010312610693573880610d67565b503d610db2565b610de890833d85116106ce576106bf818361107d565b5038610d2c565b85513d8b823e3d90fd5b92509290935081813d8311610e2e575b610e13818361107d565b81010312610e2a57519185918a9190610ce3610cd3565b8a80fd5b503d610e09565b634e487b7160e01b885260118752602488fd5b83809296508195503d8311610e78575b610e62818361107d565b810103126103da57602083519301519338610c84565b503d610e58565b82513d88823e3d90fd5b838234610345578160031936011261034557905490516001600160a01b039091168152602090f35b50346103195780600319360112610319576001600160a01b03823581811603610709578354163303610f2a5760ff60025460a01c1615610eef578280f35b906020606492519162461bcd60e51b835282015260156024820152744e6f2061747461636b20696e2070726f677265737360581b6044820152fd5b906020606492519162461bcd60e51b8352820152601260248201527113db9b1e481c1bdbdb0818d85b8818d85b1b60721b6044820152fd5b83823461034557816003193601126103455760015490516001600160a01b039091168152602090f35b90508383346103455781600319360112610345576001546370a0823160e01b808552308386015260209290916001600160a01b039084908790602490829085165afa9586156107a357859661104d575b509060248492600254169388519485938492835230908301525afa928315611042578093611010575b50508351928352820152f35b909180935082813d831161103b575b611029818361107d565b81010312610464575051908480611004565b503d61101f565b8551903d90823e3d90fd5b9095508381813d8311611076575b611065818361107d565b810103126106935751946024610fdb565b503d61105b565b90601f8019910116810190811067ffffffffffffffff82111761109f57604052565b634e487b7160e01b600052604160045260246000fd5b156110bc57565b60405162461bcd60e51b8152602060048201526014602482015273496e73756666696369656e742062616c616e636560601b6044820152606490fd5b9081602091031261029e5751801515810361029e5790565b9190820391821161111d57565b634e487b7160e01b600052601160045260246000fd5b60405163a9059cbb60e01b60208201526001600160a01b039290921660248301526044808301939093529181526111749161116f60648361107d565b6111cb565b565b6040516323b872dd60e01b60208201526001600160a01b03928316602482015292909116604483015260648083019390935291815260a081019181831067ffffffffffffffff84111761109f57611174926040525b906000602091828151910182855af115611227576000513d61121e57506001600160a01b0381163b155b6111fc5750565b604051635274afe760e01b81526001600160a01b039091166004820152602490fd5b600114156111f5565b6040513d6000823e3d90fdfea2646970667358221220cdf8187e04b922e94f62fe6aad29c9a340a11abac1e7e7fe45296c2826ef07e864736f6c63430008180033",
  "linkReferences": {},
  "deployedLinkReferences": {}
}