{"contracts/DeFiLiquidityPool.sol":{"DeFiLiquidityPool":{"abi":[{"inputs":[{"internalType":"contract IERC20","name":"_tokenA","type":"address"},{"internalType":"contract IERC20","name":"_tokenB","type":"address"},{"internalType":"address","name":"_owner","type":"address"}],"stateMutability":"nonpayable","type":"constructor"},{"inputs":[],"name":"EnforcedPause","type":"error"},{"inputs":[],"name":"ExpectedPause","type":"error"},{"inputs":[{"internalType":"address","name":"owner","type":"address"}],"name":"OwnableInvalidOwner","type":"error"},{"inputs":[{"internalType":"address","name":"account","type":"address"}],"name":"OwnableUnauthorizedAccount","type":"error"},{"inputs":[],"name":"ReentrancyGuardReentrantCall","type":"error"},{"inputs":[{"internalType":"address","name":"token","type":"address"}],"name":"SafeERC20FailedOperation","type":"error"},{"anonymous":false,"inputs":[{"indexed":false,"internalType":"uint256","name":"newFeeRate","type":"uint256"}],"name":"DynamicFeeUpdated","type":"event"},{"anonymous":false,"inputs":[],"name":"EmergencyModeActivated","type":"event"},{"anonymous":false,"inputs":[{"indexed":true,"internalType":"address","name":"provider","type":"address"},{"indexed":false,"internalType":"uint256","name":"amountA","type":"uint256"},{"indexed":false,"internalType":"uint256","name":"amountB","type":"uint256"},{"indexed":false,"internalType":"uint256","name":"liquidity","type":"uint256"}],"name":"LiquidityAdded","type":"event"},{"anonymous":false,"inputs":[{"indexed":true,"internalType":"address","name":"provider","type":"address"},{"indexed":false,"internalType":"uint256","name":"amountA","type":"uint256"},{"indexed":false,"internalType":"uint256","name":"amountB","type":"uint256"},{"indexed":false,"internalType":"uint256","name":"liquidity","type":"uint256"}],"name":"LiquidityRemoved","type":"event"},{"anonymous":false,"inputs":[{"indexed":false,"internalType":"uint256","name":"newPrice","type":"uint256"}],"name":"OraclePriceUpdated","type":"event"},{"anonymous":false,"inputs":[{"indexed":true,"internalType":"address","name":"previousOwner","type":"address"},{"indexed":true,"internalType":"address","name":"newOwner","type":"address"}],"name":"OwnershipTransferred","type":"event"},{"anonymous":false,"inputs":[{"indexed":false,"internalType":"address","name":"account","type":"address"}],"name":"Paused","type":"event"},{"anonymous":false,"inputs":[{"indexed":false,"internalType":"uint256","name":"newReserveA","type":"uint256"},{"indexed":false,"internalType":"uint256","name":"newReserveB","type":"uint256"}],"name":"RebalanceTriggered","type":"event"},{"anonymous":false,"inputs":[{"indexed":true,"internalType":"address","name":"user","type":"address"},{"indexed":false,"internalType":"address","name":"tokenIn","type":"address"},{"indexed":false,"internalType":"address","name":"tokenOut","type":"address"},{"indexed":false,"internalType":"uint256","name":"amountIn","type":"uint256"},{"indexed":false,"internalType":"uint256","name":"amountOut","type":"uint256"}],"name":"Swap","type":"event"},{"anonymous":false,"inputs":[{"indexed":false,"internalType":"address","name":"account","type":"address"}],"name":"Unpaused","type":"event"},{"inputs":[],"name":"FEE_DENOMINATOR","outputs":[{"internalType":"uint256","name":"","type":"uint256"}],"stateMutability":"view","type":"function"},{"inputs":[],"name":"MINIMUM_LIQUIDITY","outputs":[{"internalType":"uint256","name":"","type":"uint256"}],"stateMutability":"view","type":"function"},{"inputs":[],"name":"accumulatedFeesA","outputs":[{"internalType":"uint256","name":"","type":"uint256"}],"stateMutability":"view","type":"function"},{"inputs":[],"name":"accumulatedFeesB","outputs":[{"internalType":"uint256","name":"","type":"uint256"}],"stateMutability":"view","type":"function"},{"inputs":[],"name":"activateEmergencyMode","outputs":[],"stateMutability":"nonpayable","type":"function"},{"inputs":[{"internalType":"uint256","name":"amountA","type":"uint256"},{"internalType":"uint256","name":"amountB","type":"uint256"},{"internalType":"uint256","name":"minLiquidity","type":"uint256"}],"name":"addLiquidity","outputs":[{"internalType":"uint256","name":"liquidity","type":"uint256"}],"stateMutability":"nonpayable","type":"function"},{"inputs":[],"name":"dynamicFeeRate","outputs":[{"internalType":"uint256","name":"","type":"uint256"}],"stateMutability":"view","type":"function"},{"inputs":[],"name":"emergencyMode","outputs":[{"internalType":"bool","name":"","type":"bool"}],"stateMutability":"view","type":"function"},{"inputs":[],"name":"emergencyWithdrawalDelay","outputs":[{"internalType":"uint256","name":"","type":"uint256"}],"stateMutability":"view","type":"function"},{"inputs":[{"internalType":"uint256","name":"amount","type":"uint256"},{"internalType":"bool","name":"isTokenA","type":"bool"}],"name":"flashLoan","outputs":[],"stateMutability":"nonpayable","type":"function"},{"inputs":[],"name":"frontRunProtectionBlocks","outputs":[{"internalType":"uint256","name":"","type":"uint256"}],"stateMutability":"view","type":"function"},{"inputs":[{"internalType":"uint256","name":"amountIn","type":"uint256"},{"internalType":"bool","name":"isTokenA","type":"bool"}],"name":"getAmountOut","outputs":[{"internalType":"uint256","name":"amountOut","type":"uint256"}],"stateMutability":"view","type":"function"},{"inputs":[],"name":"getCurrentPrice","outputs":[{"internalType":"uint256","name":"price","type":"uint256"}],"stateMutability":"view","type":"function"},{"inputs":[],"name":"getReserves","outputs":[{"internalType":"uint256","name":"_reserveA","type":"uint256"},{"internalType":"uint256","name":"_reserveB","type":"uint256"}],"stateMutability":"view","type":"function"},{"inputs":[{"internalType":"address","name":"user","type":"address"}],"name":"getUserInfo","outputs":[{"internalType":"uint256","name":"liquidityBalance","type":"uint256"},{"internalType":"uint256","name":"sharePercentage","type":"uint256"},{"internalType":"uint256","name":"estimatedValueA","type":"uint256"},{"internalType":"uint256","name":"estimatedValueB","type":"uint256"}],"stateMutability":"view","type":"function"},{"inputs":[],"name":"lastRebalanceTime","outputs":[{"internalType":"uint256","name":"","type":"uint256"}],"stateMutability":"view","type":"function"},{"inputs":[{"internalType":"address","name":"","type":"address"}],"name":"lastRewardClaim","outputs":[{"internalType":"uint256","name":"","type":"uint256"}],"stateMutability":"view","type":"function"},{"inputs":[{"internalType":"address","name":"","type":"address"}],"name":"lastTransactionBlock","outputs":[{"internalType":"uint256","name":"","type":"uint256"}],"stateMutability":"view","type":"function"},{"inputs":[{"internalType":"address","name":"","type":"address"}],"name":"liquidityTokens","outputs":[{"internalType":"uint256","name":"","type":"uint256"}],"stateMutability":"view","type":"function"},{"inputs":[],"name":"maxSlippageProtection","outputs":[{"internalType":"uint256","name":"","type":"uint256"}],"stateMutability":"view","type":"function"},{"inputs":[],"name":"oraclePrice","outputs":[{"internalType":"uint256","name":"","type":"uint256"}],"stateMutability":"view","type":"function"},{"inputs":[],"name":"oraclePriceLastUpdate","outputs":[{"internalType":"uint256","name":"","type":"uint256"}],"stateMutability":"view","type":"function"},{"inputs":[],"name":"owner","outputs":[{"internalType":"address","name":"","type":"address"}],"stateMutability":"view","type":"function"},{"inputs":[],"name":"pause","outputs":[],"stateMutability":"nonpayable","type":"function"},{"inputs":[],"name":"paused","outputs":[{"internalType":"bool","name":"","type":"bool"}],"stateMutability":"view","type":"function"},{"inputs":[],"name":"protocolFeeRate","outputs":[{"internalType":"uint256","name":"","type":"uint256"}],"stateMutability":"view","type":"function"},{"inputs":[],"name":"rebalanceInterval","outputs":[{"internalType":"uint256","name":"","type":"uint256"}],"stateMutability":"view","type":"function"},{"inputs":[],"name":"rebalanceThreshold","outputs":[{"internalType":"uint256","name":"","type":"uint256"}],"stateMutability":"view","type":"function"},{"inputs":[{"internalType":"uint256","name":"liquidity","type":"uint256"},{"internalType":"uint256","name":"minAmountA","type":"uint256"},{"internalType":"uint256","name":"minAmountB","type":"uint256"}],"name":"removeLiquidity","outputs":[{"internalType":"uint256","name":"amountA","type":"uint256"},{"internalType":"uint256","name":"amountB","type":"uint256"}],"stateMutability":"nonpayable","type":"function"},{"inputs":[],"name":"renounceOwnership","outputs":[],"stateMutability":"nonpayable","type":"function"},{"inputs":[],"name":"reserveA","outputs":[{"internalType":"uint256","name":"","type":"uint256"}],"stateMutability":"view","type":"function"},{"inputs":[],"name":"reserveB","outputs":[{"internalType":"uint256","name":"","type":"uint256"}],"stateMutability":"view","type":"function"},{"inputs":[{"internalType":"address","name":"tokenIn","type":"address"},{"internalType":"uint256","name":"amountIn","type":"uint256"},{"internalType":"uint256","name":"minAmountOut","type":"uint256"}],"name":"swap","outputs":[{"internalType":"uint256","name":"amountOut","type":"uint256"}],"stateMutability":"nonpayable","type":"function"},{"inputs":[],"name":"tokenA","outputs":[{"internalType":"contract IERC20","name":"","type":"address"}],"stateMutability":"view","type":"function"},{"inputs":[],"name":"tokenB","outputs":[{"internalType":"contract IERC20","name":"","type":"address"}],"stateMutability":"view","type":"function"},{"inputs":[],"name":"totalLiquidityTokens","outputs":[{"internalType":"uint256","name":"","type":"uint256"}],"stateMutability":"view","type":"function"},{"inputs":[{"internalType":"address","name":"newOwner","type":"address"}],"name":"transferOwnership","outputs":[],"stateMutability":"nonpayable","type":"function"},{"inputs":[],"name":"unpause","outputs":[],"stateMutability":"nonpayable","type":"function"},{"inputs":[{"internalType":"uint256","name":"_newPrice","type":"uint256"}],"name":"updateOraclePrice","outputs":[],"stateMutability":"nonpayable","type":"function"},{"inputs":[{"internalType":"address","name":"","type":"address"}],"name":"userRewards","outputs":[{"internalType":"uint256","name":"","type":"uint256"}],"stateMutability":"view","type":"function"},{"inputs":[],"name":"withdrawFees","outputs":[],"stateMutability":"nonpayable","type":"function"}],"evm":{"bytecode":{"linkReferences":{},"object":"60c034620002a057601f6200221138819003918201601f191683019291906001600160401b03841183851017620002a5578160609284926040968752833981010312620002a0576200005181620002bb565b826200006060208401620002bb565b9201516001600160a01b0380821691829003620002a057600160005581156200028857600180546001600160a01b0319811684179091558551929082167f8be0079c531659141344cd1fd0a4f28419497f9722a3daafe3b4186f6b6457e0600080a3601e60085560056009556101f4600a556107d0600b55610e10600d556001600f55670de0b6b3a7640000601255620151806015558083169182156200024657508316908115620002025714620001be5760805260a05242600c554260135551611f409081620002d182396080518181816103ff015281816104530152818161047f0152818161050e0152818161090601528181610e4b0152818161133c015281816113cb01526117b7015260a0518181816105ea01528181610694015281816106cb0152818161074301528181610a7201528181610aa701528181610cc801528181610e76015281816111b60152818161130201526113f70152f35b825162461bcd60e51b815260206004820152601860248201527f546f6b656e73206d75737420626520646966666572656e7400000000000000006044820152606490fd5b845162461bcd60e51b815260206004820152601d60248201527f546f6b656e422063616e6e6f74206265207a65726f20616464726573730000006044820152606490fd5b62461bcd60e51b815260206004820152601d60248201527f546f6b656e412063616e6e6f74206265207a65726f20616464726573730000006044820152606490fd5b8451631e4fbdf760e01b815260006004820152602490fd5b600080fd5b634e487b7160e01b600052604160045260246000fd5b51906001600160a01b0382168203620002a05756fe6080604081815260048036101561001557600080fd5b600092833560e01c9081630660f1e81461182f575080630902f1ac1461180a5780630905f560146117e65780630fc63d10146117a257806311106ee21461172757806316d1d9161461170857806319e36f3b146116e95780631bfd77ab146116ca5780631cb4a351146116ad5780633dfe9f6a1461168e5780633f4ba83a1461161f578063422f104314611385578063455d48f514611366578063476343ee146112b757806358f85880146112985780635c975abb146112715780635ead3c5d146111e55780635f64b55b146111a15780636386c1c7146110e2578063668aa824146110c35780637105c19f146110a4578063715018a6146110475780638456cb5914610fe6578063857620e114610d915780638da5cb5b14610d68578063909feb7114610d305780639f1d0f591461087b578063a707603814610843578063b4f7403114610824578063b81b8c9a14610805578063ba9a7a56146107e8578063c8787f40146103c2578063d009601014610372578063d73792a914610355578063d8ad52311461031d578063d9c018f2146102fe578063d9ca21d5146102df578063dc5fa6c5146102c0578063df463ef1146102a1578063eb91d37e146102795763f2fde38b146101e657600080fd5b34610275576020366003190112610275576101ff611863565b90610208611b37565b6001600160a01b0391821692831561025f575050600154826bffffffffffffffffffffffff60a01b821617600155167f8be0079c531659141344cd1fd0a4f28419497f9722a3daafe3b4186f6b6457e0600080a380f35b51631e4fbdf760e01b8152908101849052602490fd5b8280fd5b50503461029d578160031936011261029d57602090610296611a19565b9051908152f35b5080fd5b50503461029d578160031936011261029d57602090600f549051908152f35b50503461029d578160031936011261029d576020906002549051908152f35b50503461029d578160031936011261029d57602090600c549051908152f35b50503461029d578160031936011261029d576020906008549051908152f35b50503461029d57602036600319011261029d5760209181906001600160a01b03610345611863565b1681526007845220549051908152f35b50503461029d578160031936011261029d57602090516127108152f35b83346103bf57806003193601126103bf5761038b611b37565b600160ff1960145416176014557f9e91804b7b70a36dcecd9afc85507eb02441c485502f58d0e68589aa50b8226a8180a180f35b80fd5b509034610275576103d236611879565b6103da611b63565b81156107b457801561072a5782516370a0823160e01b815230858201526020816024817f00000000000000000000000000000000000000000000000000000000000000006001600160a01b03165afa9081156106885786916106f4575b50915b6104468184101561198f565b81156106c45761047781337f0000000000000000000000000000000000000000000000000000000000000000611c02565b8115610692577f00000000000000000000000000000000000000000000000000000000000000006001600160a01b03169086905b333b1561029d5785516312badd6b60e01b81526001600160a01b03909316878401908152602081019190915282908190604001038183335af180156106885761065a575b50156105d15781516370a0823160e01b815230848201526020816024817f00000000000000000000000000000000000000000000000000000000000000006001600160a01b03165afa9081156105c7578591610590575b505b1061055557826001815580f35b906020606492519162461bcd60e51b83528201526015602482015274119b185cda081b1bd85b881b9bdd081c995c185a59605a1b6044820152fd5b90506020813d6020116105bf575b816105ab602093836119e1565b810103126105ba575138610546565b600080fd5b3d915061059e565b83513d87823e3d90fd5b81516370a0823160e01b815230848201526020816024817f00000000000000000000000000000000000000000000000000000000000000006001600160a01b03165afa9081156105c7578591610628575b50610548565b90506020813d602011610652575b81610643602093836119e1565b810103126105ba575138610622565b3d9150610636565b67ffffffffffffffff819692961161067557835293386104ef565b634e487b7160e01b825260418552602482fd5b84513d88823e3d90fd5b7f00000000000000000000000000000000000000000000000000000000000000006001600160a01b03169086906104ab565b6106ef81337f0000000000000000000000000000000000000000000000000000000000000000611c02565b610477565b90506020813d602011610722575b8161070f602093836119e1565b8101031261071e575138610437565b8580fd5b3d9150610702565b82516370a0823160e01b815230858201526020816024817f00000000000000000000000000000000000000000000000000000000000000006001600160a01b03165afa908115610688578691610782575b509161043a565b90506020813d6020116107ac575b8161079d602093836119e1565b8101031261071e57513861077b565b3d9150610790565b825162461bcd60e51b8152602081860152600e60248201526d125b9d985b1a5908185b5bdd5b9d60921b6044820152606490fd5b50503461029d578160031936011261029d57602090516103e88152f35b50503461029d578160031936011261029d576020906013549051908152f35b50503461029d578160031936011261029d576020906015549051908152f35b50503461029d57602036600319011261029d5760209181906001600160a01b0361086b611863565b168152600e845220549051908152f35b5082346103bf5760603660031901126103bf57610896611863565b926024918235946044956108a8611b63565b6108b0611b86565b6108bf60ff601454161561194b565b338352602095600e87526108d985852054600f54906119d4565b431115610cef57338452600e875243858520556108f78215156118b2565b6001600160a01b0392831692907f0000000000000000000000000000000000000000000000000000000000000000828116918583149190828015610cc4575b15610c9357610943611a19565b9b601254809d818111600014610c84579061095d916118f5565b9c5b6127108e819f8202918183041490151715610c72579061097e9161192b565b605a810290808204605a1490151715610c60576103e89004600a0180600a11610c605760648111610c58575b8c6008548203610c25575b50508315610c1c576002549a5b8415610c13576003548e5b6008548103908111610c01578f8e83916109ea6109f0948e611918565b04611a53565b9c8d843511610bbe578d15610b835790610a0a918a611c43565b600a5410610b4a5750505088600198999a9b610a288730338b611ba7565b610a3460085488611918565b04918315610b0e575050610a4a906010546119d4565b601055610a59846002546119d4565b600255610a68896003546118f5565b600355610a9689337f0000000000000000000000000000000000000000000000000000000000000000611c02565b610a9e611d8e565b15610b095750807f0000000000000000000000000000000000000000000000000000000000000000165b86519384521687830152848201528460608201527fcd3829a3813dc3cdd188fd3d01dcf3268c16be2fdd2dd21d0665418816e4606260803392a25551908152f35b610ac8565b610b1d610b45936011546119d4565b601155610b2c876003546119d4565b600355610b3b826002546118f5565b6002553390611c02565b610a96565b8a5162461bcd60e51b81529283018d9052601590830152740a0e4d2c6ca40d2dae0c2c6e840e8dede40d0d2ced605b1b90820152606490fd5b50508a5162461bcd60e51b81529283018d905260159083015274125b9d985b1a59081bdd5d1c1d5d08185b5bdd5b9d605a1b90820152606490fd5b50508a5162461bcd60e51b81529283018d9052601a908301527f496e73756666696369656e74206f757470757420616d6f756e7400000000000090820152606490fd5b634e487b7160e01b8c5260118552828cfd5b6002548e6109cd565b6003549a6109c2565b817ffa47afdd18075c920714af4959c00b4efbc9e0f219ec97a064cc9a654eeea7e4926008558c51908152a18d8c6109b5565b5060646109aa565b634e487b7160e01b8a52601183528b8afd5b634e487b7160e01b8b52601184528c8bfd5b610c8d916118f5565b9c61095f565b885162461bcd60e51b81529081018b9052600d818b01526c24b73b30b634b2103a37b5b2b760991b818d0152606490fd5b50847f0000000000000000000000000000000000000000000000000000000000000000168714610936565b845162461bcd60e51b8152908101879052601b818701527f46726f6e742d72756e2070726f74656374696f6e20616374697665000000000081890152606490fd5b50503461029d57602036600319011261029d5760209181906001600160a01b03610d58611863565b1681526005845220549051908152f35b50503461029d578160031936011261029d5760015490516001600160a01b039091168152602090f35b5082346103bf57610da136611898565b9391610dae939193611b63565b8015610fa35733825260209260058452818784205410610f6057805495610df0610de388610dde60025487611918565b61192b565b97610dde60035486611918565b958710610f25578510610eea57906001929133835260058552878320610e178382546118f5565b9055610e248282546118f5565b9055610e32866002546118f5565b600255610e41856003546118f5565b600355610e6f86337f0000000000000000000000000000000000000000000000000000000000000000611c02565b610e9a85337f0000000000000000000000000000000000000000000000000000000000000000611c02565b7f1dc8bb69df2b8e91fbdcbfcf93d951b3f0000f085a95fe3f7946d6161439245d875180610edc3394898b846040919493926060820195825260208201520152565b0390a2558351928352820152f35b865162461bcd60e51b8152908101849052601560248201527424b739bab33334b1b4b2b73a1030b6b7bab73a102160591b6044820152606490fd5b875162461bcd60e51b81528083018690526015602482015274496e73756666696369656e7420616d6f756e74204160581b6044820152606490fd5b865162461bcd60e51b8152908101849052601d60248201527f496e73756666696369656e74206c697175696469747920746f6b656e730000006044820152606490fd5b855162461bcd60e51b8152602081850152601860248201527f496e76616c6964206c697175696469747920616d6f756e7400000000000000006044820152606490fd5b50503461029d578160031936011261029d5760207f62e78cea01bee320cd4e420270b5ea74000d11b0c9f74754ebdbfc544b05a25891611024611b37565b61102c611b86565b6001805460ff60a01b1916600160a01b17905551338152a180f35b83346103bf57806003193601126103bf57611060611b37565b600180546001600160a01b0319811690915581906001600160a01b03167f8be0079c531659141344cd1fd0a4f28419497f9722a3daafe3b4186f6b6457e08280a380f35b50503461029d578160031936011261029d576020906011549051908152f35b50503461029d578160031936011261029d576020906012549051908152f35b5091903461029d57602036600319011261029d576110fe611863565b6001600160a01b03168252600560205280822054835490929182918290818161113c575b505060809550815194855260208501528301526060820152f35b9294509250506127109081850291858304148515171561118e575060809450816111659161192b565b9161118661117983610dde60025488611918565b92610dde60035487611918565b923880611122565b634e487b7160e01b815260118652602490fd5b50503461029d578160031936011261029d57517f00000000000000000000000000000000000000000000000000000000000000006001600160a01b03168152602090f35b50903461027557602036600319011261027557813591611203611b37565b821561123f5750816020917f7511727d12158492a54f0c0225028e98b629e19d0d6a25f54b842b70ea624bce936012554260135551908152a180f35b6020606492519162461bcd60e51b8352820152600d60248201526c496e76616c696420707269636560981b6044820152fd5b50503461029d578160031936011261029d5760209060ff60015460a01c1690519015158152f35b50503461029d578160031936011261029d576020906009549051908152f35b83346103bf57806003193601126103bf576112d0611b37565b60105460115490826010558260115580611329575b50806112ef575080f35b60015461132691906001600160a01b03167f0000000000000000000000000000000000000000000000000000000000000000611c02565b80f35b60015461136091906001600160a01b03167f0000000000000000000000000000000000000000000000000000000000000000611c02565b826112e5565b50503461029d578160031936011261029d576020906010549051908152f35b5082346103bf5761139536611898565b9361139e611b63565b6113a6611b86565b6113b560ff601454161561194b565b82151580611616575b156115e1576113ef8330337f0000000000000000000000000000000000000000000000000000000000000000611ba7565b61141b8230337f0000000000000000000000000000000000000000000000000000000000000000611ba7565b80548061159e575061142d8284611918565b8460038211156115905750806001908060011c6001810180911161157d5791905b83831061155d575050505b6103e719810190811161154a57946103e882555b851061150757917f64b83944e79c3ce8d4c297411de637c3e102d064677aac0c163976ebdcd6f50e8560209795936001956114a983151561198f565b33865260058a528786206114be8482546119d4565b90556114cb8382546119d4565b90556114d9846002546119d4565b6002556114e8816003546119d4565b6003558651938452602084015260408301523391606090a25551908152f35b606490602087519162461bcd60e51b8352820152601d60248201527f496e73756666696369656e74206c6971756964697479206d696e7465640000006044820152fd5b634e487b7160e01b855260118252602485fd5b909192506115748361156f818461192b565b6119d4565b821c919061144e565b634e487b7160e01b885260118552602488fd5b901561145957506001611459565b6115ca6115c16115ba6115b18488611918565b6002549061192b565b9285611918565b6003549061192b565b808210156115da57505b9461146d565b90506115d4565b606490602087519162461bcd60e51b8352820152600f60248201526e496e76616c696420616d6f756e747360881b6044820152fd5b508115156113be565b5034610275578260031936011261027557611638611b37565b6001549060ff8260a01c1615611680575060ff60a01b1916600155513381527f5db9ee0a495bf2e6ff9c91a7834c1ba4fdd244a5e8aa4e537bd38aeae4b073aa90602090a180f35b8251638dfc202b60e01b8152fd5b50503461029d578160031936011261029d57602090600b549051908152f35b503461027557826003193601126102755760209250549051908152f35b50503461029d578160031936011261029d57602090600a549051908152f35b50503461029d578160031936011261029d576020906003549051908152f35b50503461029d578160031936011261029d57602090600d549051908152f35b5091346103bf5761173736611879565b906117438115156118b2565b811561179957600254915b1561179057600354925b600854916127109283039183831161177d576020876102968888886109ea8989611918565b634e487b7160e01b815260118852602490fd5b60025492611758565b6003549161174e565b50503461029d578160031936011261029d57517f00000000000000000000000000000000000000000000000000000000000000006001600160a01b03168152602090f35b50503461029d578160031936011261029d5760209060ff6014541690519015158152f35b8284346103bf57806003193601126103bf575060025460035482519182526020820152f35b84908434610275576020366003190112610275576020926001600160a01b03611856611863565b1681526006845220548152f35b600435906001600160a01b03821682036105ba57565b60409060031901126105ba576004359060243580151581036105ba5790565b60609060031901126105ba57600435906024359060443590565b156118b957565b60405162461bcd60e51b8152602060048201526014602482015273125b9d985b1a59081a5b9c1d5d08185b5bdd5b9d60621b6044820152606490fd5b9190820391821161190257565b634e487b7160e01b600052601160045260246000fd5b8181029291811591840414171561190257565b8115611935570490565b634e487b7160e01b600052601260045260246000fd5b1561195257565b60405162461bcd60e51b8152602060048201526015602482015274456d657267656e6379206d6f64652061637469766560581b6044820152606490fd5b1561199657565b60405162461bcd60e51b8152602060048201526016602482015275496e73756666696369656e74206c697175696469747960501b6044820152606490fd5b9190820180921161190257565b90601f8019910116810190811067ffffffffffffffff821117611a0357604052565b634e487b7160e01b600052604160045260246000fd5b6003548015611a4c5760025490670de0b6b3a76400009182810292818404149015171561190257611a499161192b565b90565b5060125490565b918215611ae15781151580611ad8575b15611a855782611a79611a7f92611a4995611918565b926119d4565b9061192b565b60405162461bcd60e51b815260206004820152602560248201527f4c69717569646974794d6174683a20494e53554646494349454e545f4c495155604482015264494449545960d81b6064820152608490fd5b50801515611a63565b60405162461bcd60e51b815260206004820152602860248201527f4c69717569646974794d6174683a20494e53554646494349454e545f494e50556044820152671517d05353d5539560c21b6064820152608490fd5b6001546001600160a01b03163303611b4b57565b60405163118cdaa760e01b8152336004820152602490fd5b600260005414611b74576002600055565b604051633ee5aeb560e01b8152600490fd5b60ff60015460a01c16611b9557565b60405163d93c066560e01b8152600490fd5b6040516323b872dd60e01b60208201526001600160a01b03928316602482015292909116604483015260648083019390935291815260a081019181831067ffffffffffffffff841117611a0357611c0092604052611ea2565b565b60405163a9059cbb60e01b60208201526001600160a01b03929092166024830152604480830193909352918152611c0091611c3e6064836119e1565b611ea2565b9190918015611d495782151580611d40575b15611cfb57670de0b6b3a7640000918281029080820484148115171561190257611c9781611c8687611c9d9561192b565b96611c9186826119d4565b95611a53565b906118f5565b918215611cf1578083029283040361190257611cb89161192b565b81808210611ce757611cc9916118f5565b906127109182810292818404149015171561190257611a499161192b565b90611cc9916118f5565b5050505061271090565b60405162461bcd60e51b815260206004820152601f60248201527f4c69717569646974794d6174683a20494e56414c49445f5245534552564553006044820152606490fd5b50811515611c55565b60405162461bcd60e51b815260206004820152601d60248201527f4c69717569646974794d6174683a20494e56414c49445f414d4f554e540000006044820152606490fd5b611d9d600c54600d54906119d4565b4210611c0057611dab611a19565b50600254670de0b6b3a7640000908181029181830481148215171561190257611dd7600354809461192b565b81811115611e9357670de0b6b3a763ffff19810190811161190257905b600b548082029182040361190257612710900410611e10575050565b81611e7e82611e74611e457f62f3780234ccfc6503993e1d970863448f907aa096ac573c8dc09692652d535d966040966119d4565b600a611e6d8682611e6687611e5a84826119d4565b60011c9660011c6118f5565b04936118f5565b04926119d4565b92836002556119d4565b8060035542600c5582519182526020820152a1565b81038181116119025790611df4565b906000602091828151910182855af115611efe576000513d611ef557506001600160a01b0381163b155b611ed35750565b604051635274afe760e01b81526001600160a01b039091166004820152602490fd5b60011415611ecc565b6040513d6000823e3d90fdfea2646970667358221220fa57f8b5134849703c7e90619bc5b4933e3ed0c8e8c432851af96526282278c964736f6c63430008180033","opcodes":"PUSH1 0xC0 CALLVALUE PUSH3 0x2A0 JUMPI PUSH1 0x1F PUSH3 0x2211 CODESIZE DUP2 SWAP1 SUB SWAP2 DUP3 ADD PUSH1 0x1F NOT AND DUP4 ADD SWAP3 SWAP2 SWAP1 PUSH1 0x1 PUSH1 0x1 PUSH1 0x40 SHL SUB DUP5 GT DUP4 DUP6 LT OR PUSH3 0x2A5 JUMPI DUP2 PUSH1 0x60 SWAP3 DUP5 SWAP3 PUSH1 0x40 SWAP7 DUP8 MSTORE DUP4 CODECOPY DUP2 ADD SUB SLT PUSH3 0x2A0 JUMPI PUSH3 0x51 DUP2 PUSH3 0x2BB JUMP JUMPDEST DUP3 PUSH3 0x60 PUSH1 0x20 DUP5 ADD PUSH3 0x2BB JUMP JUMPDEST SWAP3 ADD MLOAD PUSH1 0x1 PUSH1 0x1 PUSH1 0xA0 SHL SUB DUP1 DUP3 AND SWAP2 DUP3 SWAP1 SUB PUSH3 0x2A0 JUMPI PUSH1 0x1 PUSH1 0x0 SSTORE DUP2 ISZERO PUSH3 0x288 JUMPI PUSH1 0x1 DUP1 SLOAD PUSH1 0x1 PUSH1 0x1 PUSH1 0xA0 SHL SUB NOT DUP2 AND DUP5 OR SWAP1 SWAP2 SSTORE DUP6 MLOAD SWAP3 SWAP1 DUP3 AND PUSH32 0x8BE0079C531659141344CD1FD0A4F28419497F9722A3DAAFE3B4186F6B6457E0 PUSH1 0x0 DUP1 LOG3 PUSH1 0x1E PUSH1 0x8 SSTORE PUSH1 0x5 PUSH1 0x9 SSTORE PUSH2 0x1F4 PUSH1 0xA SSTORE PUSH2 0x7D0 PUSH1 0xB SSTORE PUSH2 0xE10 PUSH1 0xD SSTORE PUSH1 0x1 PUSH1 0xF SSTORE PUSH8 0xDE0B6B3A7640000 PUSH1 0x12 SSTORE PUSH3 0x15180 PUSH1 0x15 SSTORE DUP1 DUP4 AND SWAP2 DUP3 ISZERO PUSH3 0x246 JUMPI POP DUP4 AND SWAP1 DUP2 ISZERO PUSH3 0x202 JUMPI EQ PUSH3 0x1BE JUMPI PUSH1 0x80 MSTORE PUSH1 0xA0 MSTORE TIMESTAMP PUSH1 0xC SSTORE TIMESTAMP PUSH1 0x13 SSTORE MLOAD PUSH2 0x1F40 SWAP1 DUP2 PUSH3 0x2D1 DUP3 CODECOPY PUSH1 0x80 MLOAD DUP2 DUP2 DUP2 PUSH2 0x3FF ADD MSTORE DUP2 DUP2 PUSH2 0x453 ADD MSTORE DUP2 DUP2 PUSH2 0x47F ADD MSTORE DUP2 DUP2 PUSH2 0x50E ADD MSTORE DUP2 DUP2 PUSH2 0x906 ADD MSTORE DUP2 DUP2 PUSH2 0xE4B ADD MSTORE DUP2 DUP2 PUSH2 0x133C ADD MSTORE DUP2 DUP2 PUSH2 0x13CB ADD MSTORE PUSH2 0x17B7 ADD MSTORE PUSH1 0xA0 MLOAD DUP2 DUP2 DUP2 PUSH2 0x5EA ADD MSTORE DUP2 DUP2 PUSH2 0x694 ADD MSTORE DUP2 DUP2 PUSH2 0x6CB ADD MSTORE DUP2 DUP2 PUSH2 0x743 ADD MSTORE DUP2 DUP2 PUSH2 0xA72 ADD MSTORE DUP2 DUP2 PUSH2 0xAA7 ADD MSTORE DUP2 DUP2 PUSH2 0xCC8 ADD MSTORE DUP2 DUP2 PUSH2 0xE76 ADD MSTORE DUP2 DUP2 PUSH2 0x11B6 ADD MSTORE DUP2 DUP2 PUSH2 0x1302 ADD MSTORE PUSH2 0x13F7 ADD MSTORE RETURN JUMPDEST DUP3 MLOAD PUSH3 0x461BCD PUSH1 0xE5 SHL DUP2 MSTORE PUSH1 0x20 PUSH1 0x4 DUP3 ADD MSTORE PUSH1 0x18 PUSH1 0x24 DUP3 ADD MSTORE PUSH32 0x546F6B656E73206D75737420626520646966666572656E740000000000000000 PUSH1 0x44 DUP3 ADD MSTORE PUSH1 0x64 SWAP1 REVERT JUMPDEST DUP5 MLOAD PUSH3 0x461BCD PUSH1 0xE5 SHL DUP2 MSTORE PUSH1 0x20 PUSH1 0x4 DUP3 ADD MSTORE PUSH1 0x1D PUSH1 0x24 DUP3 ADD MSTORE PUSH32 0x546F6B656E422063616E6E6F74206265207A65726F2061646472657373000000 PUSH1 0x44 DUP3 ADD MSTORE PUSH1 0x64 SWAP1 REVERT JUMPDEST PUSH3 0x461BCD PUSH1 0xE5 SHL DUP2 MSTORE PUSH1 0x20 PUSH1 0x4 DUP3 ADD MSTORE PUSH1 0x1D PUSH1 0x24 DUP3 ADD MSTORE PUSH32 0x546F6B656E412063616E6E6F74206265207A65726F2061646472657373000000 PUSH1 0x44 DUP3 ADD MSTORE PUSH1 0x64 SWAP1 REVERT JUMPDEST DUP5 MLOAD PUSH4 0x1E4FBDF7 PUSH1 0xE0 SHL DUP2 MSTORE PUSH1 0x0 PUSH1 0x4 DUP3 ADD MSTORE PUSH1 0x24 SWAP1 REVERT JUMPDEST PUSH1 0x0 DUP1 REVERT JUMPDEST PUSH4 0x4E487B71 PUSH1 0xE0 SHL PUSH1 0x0 MSTORE PUSH1 0x41 PUSH1 0x4 MSTORE PUSH1 0x24 PUSH1 0x0 REVERT JUMPDEST MLOAD SWAP1 PUSH1 0x1 PUSH1 0x1 PUSH1 0xA0 SHL SUB DUP3 AND DUP3 SUB PUSH3 0x2A0 JUMPI JUMP INVALID PUSH1 0x80 PUSH1 0x40 DUP2 DUP2 MSTORE PUSH1 0x4 DUP1 CALLDATASIZE LT ISZERO PUSH2 0x15 JUMPI PUSH1 0x0 DUP1 REVERT JUMPDEST PUSH1 0x0 SWAP3 DUP4 CALLDATALOAD PUSH1 0xE0 SHR SWAP1 DUP2 PUSH4 0x660F1E8 EQ PUSH2 0x182F JUMPI POP DUP1 PUSH4 0x902F1AC EQ PUSH2 0x180A JUMPI DUP1 PUSH4 0x905F560 EQ PUSH2 0x17E6 JUMPI DUP1 PUSH4 0xFC63D10 EQ PUSH2 0x17A2 JUMPI DUP1 PUSH4 0x11106EE2 EQ PUSH2 0x1727 JUMPI DUP1 PUSH4 0x16D1D916 EQ PUSH2 0x1708 JUMPI DUP1 PUSH4 0x19E36F3B EQ PUSH2 0x16E9 JUMPI DUP1 PUSH4 0x1BFD77AB EQ PUSH2 0x16CA JUMPI DUP1 PUSH4 0x1CB4A351 EQ PUSH2 0x16AD JUMPI DUP1 PUSH4 0x3DFE9F6A EQ PUSH2 0x168E JUMPI DUP1 PUSH4 0x3F4BA83A EQ PUSH2 0x161F JUMPI DUP1 PUSH4 0x422F1043 EQ PUSH2 0x1385 JUMPI DUP1 PUSH4 0x455D48F5 EQ PUSH2 0x1366 JUMPI DUP1 PUSH4 0x476343EE EQ PUSH2 0x12B7 JUMPI DUP1 PUSH4 0x58F85880 EQ PUSH2 0x1298 JUMPI DUP1 PUSH4 0x5C975ABB EQ PUSH2 0x1271 JUMPI DUP1 PUSH4 0x5EAD3C5D EQ PUSH2 0x11E5 JUMPI DUP1 PUSH4 0x5F64B55B EQ PUSH2 0x11A1 JUMPI DUP1 PUSH4 0x6386C1C7 EQ PUSH2 0x10E2 JUMPI DUP1 PUSH4 0x668AA824 EQ PUSH2 0x10C3 JUMPI DUP1 PUSH4 0x7105C19F EQ PUSH2 0x10A4 JUMPI DUP1 PUSH4 0x715018A6 EQ PUSH2 0x1047 JUMPI DUP1 PUSH4 0x8456CB59 EQ PUSH2 0xFE6 JUMPI DUP1 PUSH4 0x857620E1 EQ PUSH2 0xD91 JUMPI DUP1 PUSH4 0x8DA5CB5B EQ PUSH2 0xD68 JUMPI DUP1 PUSH4 0x909FEB71 EQ PUSH2 0xD30 JUMPI DUP1 PUSH4 0x9F1D0F59 EQ PUSH2 0x87B JUMPI DUP1 PUSH4 0xA7076038 EQ PUSH2 0x843 JUMPI DUP1 PUSH4 0xB4F74031 EQ PUSH2 0x824 JUMPI DUP1 PUSH4 0xB81B8C9A EQ PUSH2 0x805 JUMPI DUP1 PUSH4 0xBA9A7A56 EQ PUSH2 0x7E8 JUMPI DUP1 PUSH4 0xC8787F40 EQ PUSH2 0x3C2 JUMPI DUP1 PUSH4 0xD0096010 EQ PUSH2 0x372 JUMPI DUP1 PUSH4 0xD73792A9 EQ PUSH2 0x355 JUMPI DUP1 PUSH4 0xD8AD5231 EQ PUSH2 0x31D JUMPI DUP1 PUSH4 0xD9C018F2 EQ PUSH2 0x2FE JUMPI DUP1 PUSH4 0xD9CA21D5 EQ PUSH2 0x2DF JUMPI DUP1 PUSH4 0xDC5FA6C5 EQ PUSH2 0x2C0 JUMPI DUP1 PUSH4 0xDF463EF1 EQ PUSH2 0x2A1 JUMPI DUP1 PUSH4 0xEB91D37E EQ PUSH2 0x279 JUMPI PUSH4 0xF2FDE38B EQ PUSH2 0x1E6 JUMPI PUSH1 0x0 DUP1 REVERT JUMPDEST CALLVALUE PUSH2 0x275 JUMPI PUSH1 0x20 CALLDATASIZE PUSH1 0x3 NOT ADD SLT PUSH2 0x275 JUMPI PUSH2 0x1FF PUSH2 0x1863 JUMP JUMPDEST SWAP1 PUSH2 0x208 PUSH2 0x1B37 JUMP JUMPDEST PUSH1 0x1 PUSH1 0x1 PUSH1 0xA0 SHL SUB SWAP2 DUP3 AND SWAP3 DUP4 ISZERO PUSH2 0x25F JUMPI POP POP PUSH1 0x1 SLOAD DUP3 PUSH12 0xFFFFFFFFFFFFFFFFFFFFFFFF PUSH1 0xA0 SHL DUP3 AND OR PUSH1 0x1 SSTORE AND PUSH32 0x8BE0079C531659141344CD1FD0A4F28419497F9722A3DAAFE3B4186F6B6457E0 PUSH1 0x0 DUP1 LOG3 DUP1 RETURN JUMPDEST MLOAD PUSH4 0x1E4FBDF7 PUSH1 0xE0 SHL DUP2 MSTORE SWAP1 DUP2 ADD DUP5 SWAP1 MSTORE PUSH1 0x24 SWAP1 REVERT JUMPDEST DUP3 DUP1 REVERT JUMPDEST POP POP CALLVALUE PUSH2 0x29D JUMPI DUP2 PUSH1 0x3 NOT CALLDATASIZE ADD SLT PUSH2 0x29D JUMPI PUSH1 0x20 SWAP1 PUSH2 0x296 PUSH2 0x1A19 JUMP JUMPDEST SWAP1 MLOAD SWAP1 DUP2 MSTORE RETURN JUMPDEST POP DUP1 REVERT JUMPDEST POP POP CALLVALUE PUSH2 0x29D JUMPI DUP2 PUSH1 0x3 NOT CALLDATASIZE ADD SLT PUSH2 0x29D JUMPI PUSH1 0x20 SWAP1 PUSH1 0xF SLOAD SWAP1 MLOAD SWAP1 DUP2 MSTORE RETURN JUMPDEST POP POP CALLVALUE PUSH2 0x29D JUMPI DUP2 PUSH1 0x3 NOT CALLDATASIZE ADD SLT PUSH2 0x29D JUMPI PUSH1 0x20 SWAP1 PUSH1 0x2 SLOAD SWAP1 MLOAD SWAP1 DUP2 MSTORE RETURN JUMPDEST POP POP CALLVALUE PUSH2 0x29D JUMPI DUP2 PUSH1 0x3 NOT CALLDATASIZE ADD SLT PUSH2 0x29D JUMPI PUSH1 0x20 SWAP1 PUSH1 0xC SLOAD SWAP1 MLOAD SWAP1 DUP2 MSTORE RETURN JUMPDEST POP POP CALLVALUE PUSH2 0x29D JUMPI DUP2 PUSH1 0x3 NOT CALLDATASIZE ADD SLT PUSH2 0x29D JUMPI PUSH1 0x20 SWAP1 PUSH1 0x8 SLOAD SWAP1 MLOAD SWAP1 DUP2 MSTORE RETURN JUMPDEST POP POP CALLVALUE PUSH2 0x29D JUMPI PUSH1 0x20 CALLDATASIZE PUSH1 0x3 NOT ADD SLT PUSH2 0x29D JUMPI PUSH1 0x20 SWAP2 DUP2 SWAP1 PUSH1 0x1 PUSH1 0x1 PUSH1 0xA0 SHL SUB PUSH2 0x345 PUSH2 0x1863 JUMP JUMPDEST AND DUP2 MSTORE PUSH1 0x7 DUP5 MSTORE KECCAK256 SLOAD SWAP1 MLOAD SWAP1 DUP2 MSTORE RETURN JUMPDEST POP POP CALLVALUE PUSH2 0x29D JUMPI DUP2 PUSH1 0x3 NOT CALLDATASIZE ADD SLT PUSH2 0x29D JUMPI PUSH1 0x20 SWAP1 MLOAD PUSH2 0x2710 DUP2 MSTORE RETURN JUMPDEST DUP4 CALLVALUE PUSH2 0x3BF JUMPI DUP1 PUSH1 0x3 NOT CALLDATASIZE ADD SLT PUSH2 0x3BF JUMPI PUSH2 0x38B PUSH2 0x1B37 JUMP JUMPDEST PUSH1 0x1 PUSH1 0xFF NOT PUSH1 0x14 SLOAD AND OR PUSH1 0x14 SSTORE PUSH32 0x9E91804B7B70A36DCECD9AFC85507EB02441C485502F58D0E68589AA50B8226A DUP2 DUP1 LOG1 DUP1 RETURN JUMPDEST DUP1 REVERT JUMPDEST POP SWAP1 CALLVALUE PUSH2 0x275 JUMPI PUSH2 0x3D2 CALLDATASIZE PUSH2 0x1879 JUMP JUMPDEST PUSH2 0x3DA PUSH2 0x1B63 JUMP JUMPDEST DUP2 ISZERO PUSH2 0x7B4 JUMPI DUP1 ISZERO PUSH2 0x72A JUMPI DUP3 MLOAD PUSH4 0x70A08231 PUSH1 0xE0 SHL DUP2 MSTORE ADDRESS DUP6 DUP3 ADD MSTORE PUSH1 0x20 DUP2 PUSH1 0x24 DUP2 PUSH32 0x0 PUSH1 0x1 PUSH1 0x1 PUSH1 0xA0 SHL SUB AND GAS STATICCALL SWAP1 DUP2 ISZERO PUSH2 0x688 JUMPI DUP7 SWAP2 PUSH2 0x6F4 JUMPI JUMPDEST POP SWAP2 JUMPDEST PUSH2 0x446 DUP2 DUP5 LT ISZERO PUSH2 0x198F JUMP JUMPDEST DUP2 ISZERO PUSH2 0x6C4 JUMPI PUSH2 0x477 DUP2 CALLER PUSH32 0x0 PUSH2 0x1C02 JUMP JUMPDEST DUP2 ISZERO PUSH2 0x692 JUMPI PUSH32 0x0 PUSH1 0x1 PUSH1 0x1 PUSH1 0xA0 SHL SUB AND SWAP1 DUP7 SWAP1 JUMPDEST CALLER EXTCODESIZE ISZERO PUSH2 0x29D JUMPI DUP6 MLOAD PUSH4 0x12BADD6B PUSH1 0xE0 SHL DUP2 MSTORE PUSH1 0x1 PUSH1 0x1 PUSH1 0xA0 SHL SUB SWAP1 SWAP4 AND DUP8 DUP5 ADD SWAP1 DUP2 MSTORE PUSH1 0x20 DUP2 ADD SWAP2 SWAP1 SWAP2 MSTORE DUP3 SWAP1 DUP2 SWAP1 PUSH1 0x40 ADD SUB DUP2 DUP4 CALLER GAS CALL DUP1 ISZERO PUSH2 0x688 JUMPI PUSH2 0x65A JUMPI JUMPDEST POP ISZERO PUSH2 0x5D1 JUMPI DUP2 MLOAD PUSH4 0x70A08231 PUSH1 0xE0 SHL DUP2 MSTORE ADDRESS DUP5 DUP3 ADD MSTORE PUSH1 0x20 DUP2 PUSH1 0x24 DUP2 PUSH32 0x0 PUSH1 0x1 PUSH1 0x1 PUSH1 0xA0 SHL SUB AND GAS STATICCALL SWAP1 DUP2 ISZERO PUSH2 0x5C7 JUMPI DUP6 SWAP2 PUSH2 0x590 JUMPI JUMPDEST POP JUMPDEST LT PUSH2 0x555 JUMPI DUP3 PUSH1 0x1 DUP2 SSTORE DUP1 RETURN JUMPDEST SWAP1 PUSH1 0x20 PUSH1 0x64 SWAP3 MLOAD SWAP2 PUSH3 0x461BCD PUSH1 0xE5 SHL DUP4 MSTORE DUP3 ADD MSTORE PUSH1 0x15 PUSH1 0x24 DUP3 ADD MSTORE PUSH21 0x119B185CDA081B1BD85B881B9BDD081C995C185A59 PUSH1 0x5A SHL PUSH1 0x44 DUP3 ADD MSTORE REVERT JUMPDEST SWAP1 POP PUSH1 0x20 DUP2 RETURNDATASIZE PUSH1 0x20 GT PUSH2 0x5BF JUMPI JUMPDEST DUP2 PUSH2 0x5AB PUSH1 0x20 SWAP4 DUP4 PUSH2 0x19E1 JUMP JUMPDEST DUP2 ADD SUB SLT PUSH2 0x5BA JUMPI MLOAD CODESIZE PUSH2 0x546 JUMP JUMPDEST PUSH1 0x0 DUP1 REVERT JUMPDEST RETURNDATASIZE SWAP2 POP PUSH2 0x59E JUMP JUMPDEST DUP4 MLOAD RETURNDATASIZE DUP8 DUP3 RETURNDATACOPY RETURNDATASIZE SWAP1 REVERT JUMPDEST DUP2 MLOAD PUSH4 0x70A08231 PUSH1 0xE0 SHL DUP2 MSTORE ADDRESS DUP5 DUP3 ADD MSTORE PUSH1 0x20 DUP2 PUSH1 0x24 DUP2 PUSH32 0x0 PUSH1 0x1 PUSH1 0x1 PUSH1 0xA0 SHL SUB AND GAS STATICCALL SWAP1 DUP2 ISZERO PUSH2 0x5C7 JUMPI DUP6 SWAP2 PUSH2 0x628 JUMPI JUMPDEST POP PUSH2 0x548 JUMP JUMPDEST SWAP1 POP PUSH1 0x20 DUP2 RETURNDATASIZE PUSH1 0x20 GT PUSH2 0x652 JUMPI JUMPDEST DUP2 PUSH2 0x643 PUSH1 0x20 SWAP4 DUP4 PUSH2 0x19E1 JUMP JUMPDEST DUP2 ADD SUB SLT PUSH2 0x5BA JUMPI MLOAD CODESIZE PUSH2 0x622 JUMP JUMPDEST RETURNDATASIZE SWAP2 POP PUSH2 0x636 JUMP JUMPDEST PUSH8 0xFFFFFFFFFFFFFFFF DUP2 SWAP7 SWAP3 SWAP7 GT PUSH2 0x675 JUMPI DUP4 MSTORE SWAP4 CODESIZE PUSH2 0x4EF JUMP JUMPDEST PUSH4 0x4E487B71 PUSH1 0xE0 SHL DUP3 MSTORE PUSH1 0x41 DUP6 MSTORE PUSH1 0x24 DUP3 REVERT JUMPDEST DUP5 MLOAD RETURNDATASIZE DUP9 DUP3 RETURNDATACOPY RETURNDATASIZE SWAP1 REVERT JUMPDEST PUSH32 0x0 PUSH1 0x1 PUSH1 0x1 PUSH1 0xA0 SHL SUB AND SWAP1 DUP7 SWAP1 PUSH2 0x4AB JUMP JUMPDEST PUSH2 0x6EF DUP2 CALLER PUSH32 0x0 PUSH2 0x1C02 JUMP JUMPDEST PUSH2 0x477 JUMP JUMPDEST SWAP1 POP PUSH1 0x20 DUP2 RETURNDATASIZE PUSH1 0x20 GT PUSH2 0x722 JUMPI JUMPDEST DUP2 PUSH2 0x70F PUSH1 0x20 SWAP4 DUP4 PUSH2 0x19E1 JUMP JUMPDEST DUP2 ADD SUB SLT PUSH2 0x71E JUMPI MLOAD CODESIZE PUSH2 0x437 JUMP JUMPDEST DUP6 DUP1 REVERT JUMPDEST RETURNDATASIZE SWAP2 POP PUSH2 0x702 JUMP JUMPDEST DUP3 MLOAD PUSH4 0x70A08231 PUSH1 0xE0 SHL DUP2 MSTORE ADDRESS DUP6 DUP3 ADD MSTORE PUSH1 0x20 DUP2 PUSH1 0x24 DUP2 PUSH32 0x0 PUSH1 0x1 PUSH1 0x1 PUSH1 0xA0 SHL SUB AND GAS STATICCALL SWAP1 DUP2 ISZERO PUSH2 0x688 JUMPI DUP7 SWAP2 PUSH2 0x782 JUMPI JUMPDEST POP SWAP2 PUSH2 0x43A JUMP JUMPDEST SWAP1 POP PUSH1 0x20 DUP2 RETURNDATASIZE PUSH1 0x20 GT PUSH2 0x7AC JUMPI JUMPDEST DUP2 PUSH2 0x79D PUSH1 0x20 SWAP4 DUP4 PUSH2 0x19E1 JUMP JUMPDEST DUP2 ADD SUB SLT PUSH2 0x71E JUMPI MLOAD CODESIZE PUSH2 0x77B JUMP JUMPDEST RETURNDATASIZE SWAP2 POP PUSH2 0x790 JUMP JUMPDEST DUP3 MLOAD PUSH3 0x461BCD PUSH1 0xE5 SHL DUP2 MSTORE PUSH1 0x20 DUP2 DUP7 ADD MSTORE PUSH1 0xE PUSH1 0x24 DUP3 ADD MSTORE PUSH14 0x125B9D985B1A5908185B5BDD5B9D PUSH1 0x92 SHL PUSH1 0x44 DUP3 ADD MSTORE PUSH1 0x64 SWAP1 REVERT JUMPDEST POP POP CALLVALUE PUSH2 0x29D JUMPI DUP2 PUSH1 0x3 NOT CALLDATASIZE ADD SLT PUSH2 0x29D JUMPI PUSH1 0x20 SWAP1 MLOAD PUSH2 0x3E8 DUP2 MSTORE RETURN JUMPDEST POP POP CALLVALUE PUSH2 0x29D JUMPI DUP2 PUSH1 0x3 NOT CALLDATASIZE ADD SLT PUSH2 0x29D JUMPI PUSH1 0x20 SWAP1 PUSH1 0x13 SLOAD SWAP1 MLOAD SWAP1 DUP2 MSTORE RETURN JUMPDEST POP POP CALLVALUE PUSH2 0x29D JUMPI DUP2 PUSH1 0x3 NOT CALLDATASIZE ADD SLT PUSH2 0x29D JUMPI PUSH1 0x20 SWAP1 PUSH1 0x15 SLOAD SWAP1 MLOAD SWAP1 DUP2 MSTORE RETURN JUMPDEST POP POP CALLVALUE PUSH2 0x29D JUMPI PUSH1 0x20 CALLDATASIZE PUSH1 0x3 NOT ADD SLT PUSH2 0x29D JUMPI PUSH1 0x20 SWAP2 DUP2 SWAP1 PUSH1 0x1 PUSH1 0x1 PUSH1 0xA0 SHL SUB PUSH2 0x86B PUSH2 0x1863 JUMP JUMPDEST AND DUP2 MSTORE PUSH1 0xE DUP5 MSTORE KECCAK256 SLOAD SWAP1 MLOAD SWAP1 DUP2 MSTORE RETURN JUMPDEST POP DUP3 CALLVALUE PUSH2 0x3BF JUMPI PUSH1 0x60 CALLDATASIZE PUSH1 0x3 NOT ADD SLT PUSH2 0x3BF JUMPI PUSH2 0x896 PUSH2 0x1863 JUMP JUMPDEST SWAP3 PUSH1 0x24 SWAP2 DUP3 CALLDATALOAD SWAP5 PUSH1 0x44 SWAP6 PUSH2 0x8A8 PUSH2 0x1B63 JUMP JUMPDEST PUSH2 0x8B0 PUSH2 0x1B86 JUMP JUMPDEST PUSH2 0x8BF PUSH1 0xFF PUSH1 0x14 SLOAD AND ISZERO PUSH2 0x194B JUMP JUMPDEST CALLER DUP4 MSTORE PUSH1 0x20 SWAP6 PUSH1 0xE DUP8 MSTORE PUSH2 0x8D9 DUP6 DUP6 KECCAK256 SLOAD PUSH1 0xF SLOAD SWAP1 PUSH2 0x19D4 JUMP JUMPDEST NUMBER GT ISZERO PUSH2 0xCEF JUMPI CALLER DUP5 MSTORE PUSH1 0xE DUP8 MSTORE NUMBER DUP6 DUP6 KECCAK256 SSTORE PUSH2 0x8F7 DUP3 ISZERO ISZERO PUSH2 0x18B2 JUMP JUMPDEST PUSH1 0x1 PUSH1 0x1 PUSH1 0xA0 SHL SUB SWAP3 DUP4 AND SWAP3 SWAP1 PUSH32 0x0 DUP3 DUP2 AND SWAP2 DUP6 DUP4 EQ SWAP2 SWAP1 DUP3 DUP1 ISZERO PUSH2 0xCC4 JUMPI JUMPDEST ISZERO PUSH2 0xC93 JUMPI PUSH2 0x943 PUSH2 0x1A19 JUMP JUMPDEST SWAP12 PUSH1 0x12 SLOAD DUP1 SWAP14 DUP2 DUP2 GT PUSH1 0x0 EQ PUSH2 0xC84 JUMPI SWAP1 PUSH2 0x95D SWAP2 PUSH2 0x18F5 JUMP JUMPDEST SWAP13 JUMPDEST PUSH2 0x2710 DUP15 DUP2 SWAP16 DUP3 MUL SWAP2 DUP2 DUP4 DIV EQ SWAP1 ISZERO OR ISZERO PUSH2 0xC72 JUMPI SWAP1 PUSH2 0x97E SWAP2 PUSH2 0x192B JUMP JUMPDEST PUSH1 0x5A DUP2 MUL SWAP1 DUP1 DUP3 DIV PUSH1 0x5A EQ SWAP1 ISZERO OR ISZERO PUSH2 0xC60 JUMPI PUSH2 0x3E8 SWAP1 DIV PUSH1 0xA ADD DUP1 PUSH1 0xA GT PUSH2 0xC60 JUMPI PUSH1 0x64 DUP2 GT PUSH2 0xC58 JUMPI JUMPDEST DUP13 PUSH1 0x8 SLOAD DUP3 SUB PUSH2 0xC25 JUMPI JUMPDEST POP POP DUP4 ISZERO PUSH2 0xC1C JUMPI PUSH1 0x2 SLOAD SWAP11 JUMPDEST DUP5 ISZERO PUSH2 0xC13 JUMPI PUSH1 0x3 SLOAD DUP15 JUMPDEST PUSH1 0x8 SLOAD DUP2 SUB SWAP1 DUP2 GT PUSH2 0xC01 JUMPI DUP16 DUP15 DUP4 SWAP2 PUSH2 0x9EA PUSH2 0x9F0 SWAP5 DUP15 PUSH2 0x1918 JUMP JUMPDEST DIV PUSH2 0x1A53 JUMP JUMPDEST SWAP13 DUP14 DUP5 CALLDATALOAD GT PUSH2 0xBBE JUMPI DUP14 ISZERO PUSH2 0xB83 JUMPI SWAP1 PUSH2 0xA0A SWAP2 DUP11 PUSH2 0x1C43 JUMP JUMPDEST PUSH1 0xA SLOAD LT PUSH2 0xB4A JUMPI POP POP POP DUP9 PUSH1 0x1 SWAP9 SWAP10 SWAP11 SWAP12 PUSH2 0xA28 DUP8 ADDRESS CALLER DUP12 PUSH2 0x1BA7 JUMP JUMPDEST PUSH2 0xA34 PUSH1 0x8 SLOAD DUP9 PUSH2 0x1918 JUMP JUMPDEST DIV SWAP2 DUP4 ISZERO PUSH2 0xB0E JUMPI POP POP PUSH2 0xA4A SWAP1 PUSH1 0x10 SLOAD PUSH2 0x19D4 JUMP JUMPDEST PUSH1 0x10 SSTORE PUSH2 0xA59 DUP5 PUSH1 0x2 SLOAD PUSH2 0x19D4 JUMP JUMPDEST PUSH1 0x2 SSTORE PUSH2 0xA68 DUP10 PUSH1 0x3 SLOAD PUSH2 0x18F5 JUMP JUMPDEST PUSH1 0x3 SSTORE PUSH2 0xA96 DUP10 CALLER PUSH32 0x0 PUSH2 0x1C02 JUMP JUMPDEST PUSH2 0xA9E PUSH2 0x1D8E JUMP JUMPDEST ISZERO PUSH2 0xB09 JUMPI POP DUP1 PUSH32 0x0 AND JUMPDEST DUP7 MLOAD SWAP4 DUP5 MSTORE AND DUP8 DUP4 ADD MSTORE DUP5 DUP3 ADD MSTORE DUP5 PUSH1 0x60 DUP3 ADD MSTORE PUSH32 0xCD3829A3813DC3CDD188FD3D01DCF3268C16BE2FDD2DD21D0665418816E46062 PUSH1 0x80 CALLER SWAP3 LOG2 SSTORE MLOAD SWAP1 DUP2 MSTORE RETURN JUMPDEST PUSH2 0xAC8 JUMP JUMPDEST PUSH2 0xB1D PUSH2 0xB45 SWAP4 PUSH1 0x11 SLOAD PUSH2 0x19D4 JUMP JUMPDEST PUSH1 0x11 SSTORE PUSH2 0xB2C DUP8 PUSH1 0x3 SLOAD PUSH2 0x19D4 JUMP JUMPDEST PUSH1 0x3 SSTORE PUSH2 0xB3B DUP3 PUSH1 0x2 SLOAD PUSH2 0x18F5 JUMP JUMPDEST PUSH1 0x2 SSTORE CALLER SWAP1 PUSH2 0x1C02 JUMP JUMPDEST PUSH2 0xA96 JUMP JUMPDEST DUP11 MLOAD PUSH3 0x461BCD PUSH1 0xE5 SHL DUP2 MSTORE SWAP3 DUP4 ADD DUP14 SWAP1 MSTORE PUSH1 0x15 SWAP1 DUP4 ADD MSTORE PUSH21 0xA0E4D2C6CA40D2DAE0C2C6E840E8DEDE40D0D2CED PUSH1 0x5B SHL SWAP1 DUP3 ADD MSTORE PUSH1 0x64 SWAP1 REVERT JUMPDEST POP POP DUP11 MLOAD PUSH3 0x461BCD PUSH1 0xE5 SHL DUP2 MSTORE SWAP3 DUP4 ADD DUP14 SWAP1 MSTORE PUSH1 0x15 SWAP1 DUP4 ADD MSTORE PUSH21 0x125B9D985B1A59081BDD5D1C1D5D08185B5BDD5B9D PUSH1 0x5A SHL SWAP1 DUP3 ADD MSTORE PUSH1 0x64 SWAP1 REVERT JUMPDEST POP POP DUP11 MLOAD PUSH3 0x461BCD PUSH1 0xE5 SHL DUP2 MSTORE SWAP3 DUP4 ADD DUP14 SWAP1 MSTORE PUSH1 0x1A SWAP1 DUP4 ADD MSTORE PUSH32 0x496E73756666696369656E74206F757470757420616D6F756E74000000000000 SWAP1 DUP3 ADD MSTORE PUSH1 0x64 SWAP1 REVERT JUMPDEST PUSH4 0x4E487B71 PUSH1 0xE0 SHL DUP13 MSTORE PUSH1 0x11 DUP6 MSTORE DUP3 DUP13 REVERT JUMPDEST PUSH1 0x2 SLOAD DUP15 PUSH2 0x9CD JUMP JUMPDEST PUSH1 0x3 SLOAD SWAP11 PUSH2 0x9C2 JUMP JUMPDEST DUP2 PUSH32 0xFA47AFDD18075C920714AF4959C00B4EFBC9E0F219EC97A064CC9A654EEEA7E4 SWAP3 PUSH1 0x8 SSTORE DUP13 MLOAD SWAP1 DUP2 MSTORE LOG1 DUP14 DUP13 PUSH2 0x9B5 JUMP JUMPDEST POP PUSH1 0x64 PUSH2 0x9AA JUMP JUMPDEST PUSH4 0x4E487B71 PUSH1 0xE0 SHL DUP11 MSTORE PUSH1 0x11 DUP4 MSTORE DUP12 DUP11 REVERT JUMPDEST PUSH4 0x4E487B71 PUSH1 0xE0 SHL DUP12 MSTORE PUSH1 0x11 DUP5 MSTORE DUP13 DUP12 REVERT JUMPDEST PUSH2 0xC8D SWAP2 PUSH2 0x18F5 JUMP JUMPDEST SWAP13 PUSH2 0x95F JUMP JUMPDEST DUP9 MLOAD PUSH3 0x461BCD PUSH1 0xE5 SHL DUP2 MSTORE SWAP1 DUP2 ADD DUP12 SWAP1 MSTORE PUSH1 0xD DUP2 DUP12 ADD MSTORE PUSH13 0x24B73B30B634B2103A37B5B2B7 PUSH1 0x99 SHL DUP2 DUP14 ADD MSTORE PUSH1 0x64 SWAP1 REVERT JUMPDEST POP DUP5 PUSH32 0x0 AND DUP8 EQ PUSH2 0x936 JUMP JUMPDEST DUP5 MLOAD PUSH3 0x461BCD PUSH1 0xE5 SHL DUP2 MSTORE SWAP1 DUP2 ADD DUP8 SWAP1 MSTORE PUSH1 0x1B DUP2 DUP8 ADD MSTORE PUSH32 0x46726F6E742D72756E2070726F74656374696F6E206163746976650000000000 DUP2 DUP10 ADD MSTORE PUSH1 0x64 SWAP1 REVERT JUMPDEST POP POP CALLVALUE PUSH2 0x29D JUMPI PUSH1 0x20 CALLDATASIZE PUSH1 0x3 NOT ADD SLT PUSH2 0x29D JUMPI PUSH1 0x20 SWAP2 DUP2 SWAP1 PUSH1 0x1 PUSH1 0x1 PUSH1 0xA0 SHL SUB PUSH2 0xD58 PUSH2 0x1863 JUMP JUMPDEST AND DUP2 MSTORE PUSH1 0x5 DUP5 MSTORE KECCAK256 SLOAD SWAP1 MLOAD SWAP1 DUP2 MSTORE RETURN JUMPDEST POP POP CALLVALUE PUSH2 0x29D JUMPI DUP2 PUSH1 0x3 NOT CALLDATASIZE ADD SLT PUSH2 0x29D JUMPI PUSH1 0x1 SLOAD SWAP1 MLOAD PUSH1 0x1 PUSH1 0x1 PUSH1 0xA0 SHL SUB SWAP1 SWAP2 AND DUP2 MSTORE PUSH1 0x20 SWAP1 RETURN JUMPDEST POP DUP3 CALLVALUE PUSH2 0x3BF JUMPI PUSH2 0xDA1 CALLDATASIZE PUSH2 0x1898 JUMP JUMPDEST SWAP4 SWAP2 PUSH2 0xDAE SWAP4 SWAP2 SWAP4 PUSH2 0x1B63 JUMP JUMPDEST DUP1 ISZERO PUSH2 0xFA3 JUMPI CALLER DUP3 MSTORE PUSH1 0x20 SWAP3 PUSH1 0x5 DUP5 MSTORE DUP2 DUP8 DUP5 KECCAK256 SLOAD LT PUSH2 0xF60 JUMPI DUP1 SLOAD SWAP6 PUSH2 0xDF0 PUSH2 0xDE3 DUP9 PUSH2 0xDDE PUSH1 0x2 SLOAD DUP8 PUSH2 0x1918 JUMP JUMPDEST PUSH2 0x192B JUMP JUMPDEST SWAP8 PUSH2 0xDDE PUSH1 0x3 SLOAD DUP7 PUSH2 0x1918 JUMP JUMPDEST SWAP6 DUP8 LT PUSH2 0xF25 JUMPI DUP6 LT PUSH2 0xEEA JUMPI SWAP1 PUSH1 0x1 SWAP3 SWAP2 CALLER DUP4 MSTORE PUSH1 0x5 DUP6 MSTORE DUP8 DUP4 KECCAK256 PUSH2 0xE17 DUP4 DUP3 SLOAD PUSH2 0x18F5 JUMP JUMPDEST SWAP1 SSTORE PUSH2 0xE24 DUP3 DUP3 SLOAD PUSH2 0x18F5 JUMP JUMPDEST SWAP1 SSTORE PUSH2 0xE32 DUP7 PUSH1 0x2 SLOAD PUSH2 0x18F5 JUMP JUMPDEST PUSH1 0x2 SSTORE PUSH2 0xE41 DUP6 PUSH1 0x3 SLOAD PUSH2 0x18F5 JUMP JUMPDEST PUSH1 0x3 SSTORE PUSH2 0xE6F DUP7 CALLER PUSH32 0x0 PUSH2 0x1C02 JUMP JUMPDEST PUSH2 0xE9A DUP6 CALLER PUSH32 0x0 PUSH2 0x1C02 JUMP JUMPDEST PUSH32 0x1DC8BB69DF2B8E91FBDCBFCF93D951B3F0000F085A95FE3F7946D6161439245D DUP8 MLOAD DUP1 PUSH2 0xEDC CALLER SWAP5 DUP10 DUP12 DUP5 PUSH1 0x40 SWAP2 SWAP5 SWAP4 SWAP3 PUSH1 0x60 DUP3 ADD SWAP6 DUP3 MSTORE PUSH1 0x20 DUP3 ADD MSTORE ADD MSTORE JUMP JUMPDEST SUB SWAP1 LOG2 SSTORE DUP4 MLOAD SWAP3 DUP4 MSTORE DUP3 ADD MSTORE RETURN JUMPDEST DUP7 MLOAD PUSH3 0x461BCD PUSH1 0xE5 SHL DUP2 MSTORE SWAP1 DUP2 ADD DUP5 SWAP1 MSTORE PUSH1 0x15 PUSH1 0x24 DUP3 ADD MSTORE PUSH21 0x24B739BAB33334B1B4B2B73A1030B6B7BAB73A1021 PUSH1 0x59 SHL PUSH1 0x44 DUP3 ADD MSTORE PUSH1 0x64 SWAP1 REVERT JUMPDEST DUP8 MLOAD PUSH3 0x461BCD PUSH1 0xE5 SHL DUP2 MSTORE DUP1 DUP4 ADD DUP7 SWAP1 MSTORE PUSH1 0x15 PUSH1 0x24 DUP3 ADD MSTORE PUSH21 0x496E73756666696369656E7420616D6F756E742041 PUSH1 0x58 SHL PUSH1 0x44 DUP3 ADD MSTORE PUSH1 0x64 SWAP1 REVERT JUMPDEST DUP7 MLOAD PUSH3 0x461BCD PUSH1 0xE5 SHL DUP2 MSTORE SWAP1 DUP2 ADD DUP5 SWAP1 MSTORE PUSH1 0x1D PUSH1 0x24 DUP3 ADD MSTORE PUSH32 0x496E73756666696369656E74206C697175696469747920746F6B656E73000000 PUSH1 0x44 DUP3 ADD MSTORE PUSH1 0x64 SWAP1 REVERT JUMPDEST DUP6 MLOAD PUSH3 0x461BCD PUSH1 0xE5 SHL DUP2 MSTORE PUSH1 0x20 DUP2 DUP6 ADD MSTORE PUSH1 0x18 PUSH1 0x24 DUP3 ADD MSTORE PUSH32 0x496E76616C6964206C697175696469747920616D6F756E740000000000000000 PUSH1 0x44 DUP3 ADD MSTORE PUSH1 0x64 SWAP1 REVERT JUMPDEST POP POP CALLVALUE PUSH2 0x29D JUMPI DUP2 PUSH1 0x3 NOT CALLDATASIZE ADD SLT PUSH2 0x29D JUMPI PUSH1 0x20 PUSH32 0x62E78CEA01BEE320CD4E420270B5EA74000D11B0C9F74754EBDBFC544B05A258 SWAP2 PUSH2 0x1024 PUSH2 0x1B37 JUMP JUMPDEST PUSH2 0x102C PUSH2 0x1B86 JUMP JUMPDEST PUSH1 0x1 DUP1 SLOAD PUSH1 0xFF PUSH1 0xA0 SHL NOT AND PUSH1 0x1 PUSH1 0xA0 SHL OR SWAP1 SSTORE MLOAD CALLER DUP2 MSTORE LOG1 DUP1 RETURN JUMPDEST DUP4 CALLVALUE PUSH2 0x3BF JUMPI DUP1 PUSH1 0x3 NOT CALLDATASIZE ADD SLT PUSH2 0x3BF JUMPI PUSH2 0x1060 PUSH2 0x1B37 JUMP JUMPDEST PUSH1 0x1 DUP1 SLOAD PUSH1 0x1 PUSH1 0x1 PUSH1 0xA0 SHL SUB NOT DUP2 AND SWAP1 SWAP2 SSTORE DUP2 SWAP1 PUSH1 0x1 PUSH1 0x1 PUSH1 0xA0 SHL SUB AND PUSH32 0x8BE0079C531659141344CD1FD0A4F28419497F9722A3DAAFE3B4186F6B6457E0 DUP3 DUP1 LOG3 DUP1 RETURN JUMPDEST POP POP CALLVALUE PUSH2 0x29D JUMPI DUP2 PUSH1 0x3 NOT CALLDATASIZE ADD SLT PUSH2 0x29D JUMPI PUSH1 0x20 SWAP1 PUSH1 0x11 SLOAD SWAP1 MLOAD SWAP1 DUP2 MSTORE RETURN JUMPDEST POP POP CALLVALUE PUSH2 0x29D JUMPI DUP2 PUSH1 0x3 NOT CALLDATASIZE ADD SLT PUSH2 0x29D JUMPI PUSH1 0x20 SWAP1 PUSH1 0x12 SLOAD SWAP1 MLOAD SWAP1 DUP2 MSTORE RETURN JUMPDEST POP SWAP2 SWAP1 CALLVALUE PUSH2 0x29D JUMPI PUSH1 0x20 CALLDATASIZE PUSH1 0x3 NOT ADD SLT PUSH2 0x29D JUMPI PUSH2 0x10FE PUSH2 0x1863 JUMP JUMPDEST PUSH1 0x1 PUSH1 0x1 PUSH1 0xA0 SHL SUB AND DUP3 MSTORE PUSH1 0x5 PUSH1 0x20 MSTORE DUP1 DUP3 KECCAK256 SLOAD DUP4 SLOAD SWAP1 SWAP3 SWAP2 DUP3 SWAP2 DUP3 SWAP1 DUP2 DUP2 PUSH2 0x113C JUMPI JUMPDEST POP POP PUSH1 0x80 SWAP6 POP DUP2 MLOAD SWAP5 DUP6 MSTORE PUSH1 0x20 DUP6 ADD MSTORE DUP4 ADD MSTORE PUSH1 0x60 DUP3 ADD MSTORE RETURN JUMPDEST SWAP3 SWAP5 POP SWAP3 POP POP PUSH2 0x2710 SWAP1 DUP2 DUP6 MUL SWAP2 DUP6 DUP4 DIV EQ DUP6 ISZERO OR ISZERO PUSH2 0x118E JUMPI POP PUSH1 0x80 SWAP5 POP DUP2 PUSH2 0x1165 SWAP2 PUSH2 0x192B JUMP JUMPDEST SWAP2 PUSH2 0x1186 PUSH2 0x1179 DUP4 PUSH2 0xDDE PUSH1 0x2 SLOAD DUP9 PUSH2 0x1918 JUMP JUMPDEST SWAP3 PUSH2 0xDDE PUSH1 0x3 SLOAD DUP8 PUSH2 0x1918 JUMP JUMPDEST SWAP3 CODESIZE DUP1 PUSH2 0x1122 JUMP JUMPDEST PUSH4 0x4E487B71 PUSH1 0xE0 SHL DUP2 MSTORE PUSH1 0x11 DUP7 MSTORE PUSH1 0x24 SWAP1 REVERT JUMPDEST POP POP CALLVALUE PUSH2 0x29D JUMPI DUP2 PUSH1 0x3 NOT CALLDATASIZE ADD SLT PUSH2 0x29D JUMPI MLOAD PUSH32 0x0 PUSH1 0x1 PUSH1 0x1 PUSH1 0xA0 SHL SUB AND DUP2 MSTORE PUSH1 0x20 SWAP1 RETURN JUMPDEST POP SWAP1 CALLVALUE PUSH2 0x275 JUMPI PUSH1 0x20 CALLDATASIZE PUSH1 0x3 NOT ADD SLT PUSH2 0x275 JUMPI DUP2 CALLDATALOAD SWAP2 PUSH2 0x1203 PUSH2 0x1B37 JUMP JUMPDEST DUP3 ISZERO PUSH2 0x123F JUMPI POP DUP2 PUSH1 0x20 SWAP2 PUSH32 0x7511727D12158492A54F0C0225028E98B629E19D0D6A25F54B842B70EA624BCE SWAP4 PUSH1 0x12 SSTORE TIMESTAMP PUSH1 0x13 SSTORE MLOAD SWAP1 DUP2 MSTORE LOG1 DUP1 RETURN JUMPDEST PUSH1 0x20 PUSH1 0x64 SWAP3 MLOAD SWAP2 PUSH3 0x461BCD PUSH1 0xE5 SHL DUP4 MSTORE DUP3 ADD MSTORE PUSH1 0xD PUSH1 0x24 DUP3 ADD MSTORE PUSH13 0x496E76616C6964207072696365 PUSH1 0x98 SHL PUSH1 0x44 DUP3 ADD MSTORE REVERT JUMPDEST POP POP CALLVALUE PUSH2 0x29D JUMPI DUP2 PUSH1 0x3 NOT CALLDATASIZE ADD SLT PUSH2 0x29D JUMPI PUSH1 0x20 SWAP1 PUSH1 0xFF PUSH1 0x1 SLOAD PUSH1 0xA0 SHR AND SWAP1 MLOAD SWAP1 ISZERO ISZERO DUP2 MSTORE RETURN JUMPDEST POP POP CALLVALUE PUSH2 0x29D JUMPI DUP2 PUSH1 0x3 NOT CALLDATASIZE ADD SLT PUSH2 0x29D JUMPI PUSH1 0x20 SWAP1 PUSH1 0x9 SLOAD SWAP1 MLOAD SWAP1 DUP2 MSTORE RETURN JUMPDEST DUP4 CALLVALUE PUSH2 0x3BF JUMPI DUP1 PUSH1 0x3 NOT CALLDATASIZE ADD SLT PUSH2 0x3BF JUMPI PUSH2 0x12D0 PUSH2 0x1B37 JUMP JUMPDEST PUSH1 0x10 SLOAD PUSH1 0x11 SLOAD SWAP1 DUP3 PUSH1 0x10 SSTORE DUP3 PUSH1 0x11 SSTORE DUP1 PUSH2 0x1329 JUMPI JUMPDEST POP DUP1 PUSH2 0x12EF JUMPI POP DUP1 RETURN JUMPDEST PUSH1 0x1 SLOAD PUSH2 0x1326 SWAP2 SWAP1 PUSH1 0x1 PUSH1 0x1 PUSH1 0xA0 SHL SUB AND PUSH32 0x0 PUSH2 0x1C02 JUMP JUMPDEST DUP1 RETURN JUMPDEST PUSH1 0x1 SLOAD PUSH2 0x1360 SWAP2 SWAP1 PUSH1 0x1 PUSH1 0x1 PUSH1 0xA0 SHL SUB AND PUSH32 0x0 PUSH2 0x1C02 JUMP JUMPDEST DUP3 PUSH2 0x12E5 JUMP JUMPDEST POP POP CALLVALUE PUSH2 0x29D JUMPI DUP2 PUSH1 0x3 NOT CALLDATASIZE ADD SLT PUSH2 0x29D JUMPI PUSH1 0x20 SWAP1 PUSH1 0x10 SLOAD SWAP1 MLOAD SWAP1 DUP2 MSTORE RETURN JUMPDEST POP DUP3 CALLVALUE PUSH2 0x3BF JUMPI PUSH2 0x1395 CALLDATASIZE PUSH2 0x1898 JUMP JUMPDEST SWAP4 PUSH2 0x139E PUSH2 0x1B63 JUMP JUMPDEST PUSH2 0x13A6 PUSH2 0x1B86 JUMP JUMPDEST PUSH2 0x13B5 PUSH1 0xFF PUSH1 0x14 SLOAD AND ISZERO PUSH2 0x194B JUMP JUMPDEST DUP3 ISZERO ISZERO DUP1 PUSH2 0x1616 JUMPI JUMPDEST ISZERO PUSH2 0x15E1 JUMPI PUSH2 0x13EF DUP4 ADDRESS CALLER PUSH32 0x0 PUSH2 0x1BA7 JUMP JUMPDEST PUSH2 0x141B DUP3 ADDRESS CALLER PUSH32 0x0 PUSH2 0x1BA7 JUMP JUMPDEST DUP1 SLOAD DUP1 PUSH2 0x159E JUMPI POP PUSH2 0x142D DUP3 DUP5 PUSH2 0x1918 JUMP JUMPDEST DUP5 PUSH1 0x3 DUP3 GT ISZERO PUSH2 0x1590 JUMPI POP DUP1 PUSH1 0x1 SWAP1 DUP1 PUSH1 0x1 SHR PUSH1 0x1 DUP2 ADD DUP1 SWAP2 GT PUSH2 0x157D JUMPI SWAP2 SWAP1 JUMPDEST DUP4 DUP4 LT PUSH2 0x155D JUMPI POP POP POP JUMPDEST PUSH2 0x3E7 NOT DUP2 ADD SWAP1 DUP2 GT PUSH2 0x154A JUMPI SWAP5 PUSH2 0x3E8 DUP3 SSTORE JUMPDEST DUP6 LT PUSH2 0x1507 JUMPI SWAP2 PUSH32 0x64B83944E79C3CE8D4C297411DE637C3E102D064677AAC0C163976EBDCD6F50E DUP6 PUSH1 0x20 SWAP8 SWAP6 SWAP4 PUSH1 0x1 SWAP6 PUSH2 0x14A9 DUP4 ISZERO ISZERO PUSH2 0x198F JUMP JUMPDEST CALLER DUP7 MSTORE PUSH1 0x5 DUP11 MSTORE DUP8 DUP7 KECCAK256 PUSH2 0x14BE DUP5 DUP3 SLOAD PUSH2 0x19D4 JUMP JUMPDEST SWAP1 SSTORE PUSH2 0x14CB DUP4 DUP3 SLOAD PUSH2 0x19D4 JUMP JUMPDEST SWAP1 SSTORE PUSH2 0x14D9 DUP5 PUSH1 0x2 SLOAD PUSH2 0x19D4 JUMP JUMPDEST PUSH1 0x2 SSTORE PUSH2 0x14E8 DUP2 PUSH1 0x3 SLOAD PUSH2 0x19D4 JUMP JUMPDEST PUSH1 0x3 SSTORE DUP7 MLOAD SWAP4 DUP5 MSTORE PUSH1 0x20 DUP5 ADD MSTORE PUSH1 0x40 DUP4 ADD MSTORE CALLER SWAP2 PUSH1 0x60 SWAP1 LOG2 SSTORE MLOAD SWAP1 DUP2 MSTORE RETURN JUMPDEST PUSH1 0x64 SWAP1 PUSH1 0x20 DUP8 MLOAD SWAP2 PUSH3 0x461BCD PUSH1 0xE5 SHL DUP4 MSTORE DUP3 ADD MSTORE PUSH1 0x1D PUSH1 0x24 DUP3 ADD MSTORE PUSH32 0x496E73756666696369656E74206C6971756964697479206D696E746564000000 PUSH1 0x44 DUP3 ADD MSTORE REVERT JUMPDEST PUSH4 0x4E487B71 PUSH1 0xE0 SHL DUP6 MSTORE PUSH1 0x11 DUP3 MSTORE PUSH1 0x24 DUP6 REVERT JUMPDEST SWAP1 SWAP2 SWAP3 POP PUSH2 0x1574 DUP4 PUSH2 0x156F DUP2 DUP5 PUSH2 0x192B JUMP JUMPDEST PUSH2 0x19D4 JUMP JUMPDEST DUP3 SHR SWAP2 SWAP1 PUSH2 0x144E JUMP JUMPDEST PUSH4 0x4E487B71 PUSH1 0xE0 SHL DUP9 MSTORE PUSH1 0x11 DUP6 MSTORE PUSH1 0x24 DUP9 REVERT JUMPDEST SWAP1 ISZERO PUSH2 0x1459 JUMPI POP PUSH1 0x1 PUSH2 0x1459 JUMP JUMPDEST PUSH2 0x15CA PUSH2 0x15C1 PUSH2 0x15BA PUSH2 0x15B1 DUP5 DUP9 PUSH2 0x1918 JUMP JUMPDEST PUSH1 0x2 SLOAD SWAP1 PUSH2 0x192B JUMP JUMPDEST SWAP3 DUP6 PUSH2 0x1918 JUMP JUMPDEST PUSH1 0x3 SLOAD SWAP1 PUSH2 0x192B JUMP JUMPDEST DUP1 DUP3 LT ISZERO PUSH2 0x15DA JUMPI POP JUMPDEST SWAP5 PUSH2 0x146D JUMP JUMPDEST SWAP1 POP PUSH2 0x15D4 JUMP JUMPDEST PUSH1 0x64 SWAP1 PUSH1 0x20 DUP8 MLOAD SWAP2 PUSH3 0x461BCD PUSH1 0xE5 SHL DUP4 MSTORE DUP3 ADD MSTORE PUSH1 0xF PUSH1 0x24 DUP3 ADD MSTORE PUSH15 0x496E76616C696420616D6F756E7473 PUSH1 0x88 SHL PUSH1 0x44 DUP3 ADD MSTORE REVERT JUMPDEST POP DUP2 ISZERO ISZERO PUSH2 0x13BE JUMP JUMPDEST POP CALLVALUE PUSH2 0x275 JUMPI DUP3 PUSH1 0x3 NOT CALLDATASIZE ADD SLT PUSH2 0x275 JUMPI PUSH2 0x1638 PUSH2 0x1B37 JUMP JUMPDEST PUSH1 0x1 SLOAD SWAP1 PUSH1 0xFF DUP3 PUSH1 0xA0 SHR AND ISZERO PUSH2 0x1680 JUMPI POP PUSH1 0xFF PUSH1 0xA0 SHL NOT AND PUSH1 0x1 SSTORE MLOAD CALLER DUP2 MSTORE PUSH32 0x5DB9EE0A495BF2E6FF9C91A7834C1BA4FDD244A5E8AA4E537BD38AEAE4B073AA SWAP1 PUSH1 0x20 SWAP1 LOG1 DUP1 RETURN JUMPDEST DUP3 MLOAD PUSH4 0x8DFC202B PUSH1 0xE0 SHL DUP2 MSTORE REVERT JUMPDEST POP POP CALLVALUE PUSH2 0x29D JUMPI DUP2 PUSH1 0x3 NOT CALLDATASIZE ADD SLT PUSH2 0x29D JUMPI PUSH1 0x20 SWAP1 PUSH1 0xB SLOAD SWAP1 MLOAD SWAP1 DUP2 MSTORE RETURN JUMPDEST POP CALLVALUE PUSH2 0x275 JUMPI DUP3 PUSH1 0x3 NOT CALLDATASIZE ADD SLT PUSH2 0x275 JUMPI PUSH1 0x20 SWAP3 POP SLOAD SWAP1 MLOAD SWAP1 DUP2 MSTORE RETURN JUMPDEST POP POP CALLVALUE PUSH2 0x29D JUMPI DUP2 PUSH1 0x3 NOT CALLDATASIZE ADD SLT PUSH2 0x29D JUMPI PUSH1 0x20 SWAP1 PUSH1 0xA SLOAD SWAP1 MLOAD SWAP1 DUP2 MSTORE RETURN JUMPDEST POP POP CALLVALUE PUSH2 0x29D JUMPI DUP2 PUSH1 0x3 NOT CALLDATASIZE ADD SLT PUSH2 0x29D JUMPI PUSH1 0x20 SWAP1 PUSH1 0x3 SLOAD SWAP1 MLOAD SWAP1 DUP2 MSTORE RETURN JUMPDEST POP POP CALLVALUE PUSH2 0x29D JUMPI DUP2 PUSH1 0x3 NOT CALLDATASIZE ADD SLT PUSH2 0x29D JUMPI PUSH1 0x20 SWAP1 PUSH1 0xD SLOAD SWAP1 MLOAD SWAP1 DUP2 MSTORE RETURN JUMPDEST POP SWAP2 CALLVALUE PUSH2 0x3BF JUMPI PUSH2 0x1737 CALLDATASIZE PUSH2 0x1879 JUMP JUMPDEST SWAP1 PUSH2 0x1743 DUP2 ISZERO ISZERO PUSH2 0x18B2 JUMP JUMPDEST DUP2 ISZERO PUSH2 0x1799 JUMPI PUSH1 0x2 SLOAD SWAP2 JUMPDEST ISZERO PUSH2 0x1790 JUMPI PUSH1 0x3 SLOAD SWAP3 JUMPDEST PUSH1 0x8 SLOAD SWAP2 PUSH2 0x2710 SWAP3 DUP4 SUB SWAP2 DUP4 DUP4 GT PUSH2 0x177D JUMPI PUSH1 0x20 DUP8 PUSH2 0x296 DUP9 DUP9 DUP9 PUSH2 0x9EA DUP10 DUP10 PUSH2 0x1918 JUMP JUMPDEST PUSH4 0x4E487B71 PUSH1 0xE0 SHL DUP2 MSTORE PUSH1 0x11 DUP9 MSTORE PUSH1 0x24 SWAP1 REVERT JUMPDEST PUSH1 0x2 SLOAD SWAP3 PUSH2 0x1758 JUMP JUMPDEST PUSH1 0x3 SLOAD SWAP2 PUSH2 0x174E JUMP JUMPDEST POP POP CALLVALUE PUSH2 0x29D JUMPI DUP2 PUSH1 0x3 NOT CALLDATASIZE ADD SLT PUSH2 0x29D JUMPI MLOAD PUSH32 0x0 PUSH1 0x1 PUSH1 0x1 PUSH1 0xA0 SHL SUB AND DUP2 MSTORE PUSH1 0x20 SWAP1 RETURN JUMPDEST POP POP CALLVALUE PUSH2 0x29D JUMPI DUP2 PUSH1 0x3 NOT CALLDATASIZE ADD SLT PUSH2 0x29D JUMPI PUSH1 0x20 SWAP1 PUSH1 0xFF PUSH1 0x14 SLOAD AND SWAP1 MLOAD SWAP1 ISZERO ISZERO DUP2 MSTORE RETURN JUMPDEST DUP3 DUP5 CALLVALUE PUSH2 0x3BF JUMPI DUP1 PUSH1 0x3 NOT CALLDATASIZE ADD SLT PUSH2 0x3BF JUMPI POP PUSH1 0x2 SLOAD PUSH1 0x3 SLOAD DUP3 MLOAD SWAP2 DUP3 MSTORE PUSH1 0x20 DUP3 ADD MSTORE RETURN JUMPDEST DUP5 SWAP1 DUP5 CALLVALUE PUSH2 0x275 JUMPI PUSH1 0x20 CALLDATASIZE PUSH1 0x3 NOT ADD SLT PUSH2 0x275 JUMPI PUSH1 0x20 SWAP3 PUSH1 0x1 PUSH1 0x1 PUSH1 0xA0 SHL SUB PUSH2 0x1856 PUSH2 0x1863 JUMP JUMPDEST AND DUP2 MSTORE PUSH1 0x6 DUP5 MSTORE KECCAK256 SLOAD DUP2 MSTORE RETURN JUMPDEST PUSH1 0x4 CALLDATALOAD SWAP1 PUSH1 0x1 PUSH1 0x1 PUSH1 0xA0 SHL SUB DUP3 AND DUP3 SUB PUSH2 0x5BA JUMPI JUMP JUMPDEST PUSH1 0x40 SWAP1 PUSH1 0x3 NOT ADD SLT PUSH2 0x5BA JUMPI PUSH1 0x4 CALLDATALOAD SWAP1 PUSH1 0x24 CALLDATALOAD DUP1 ISZERO ISZERO DUP2 SUB PUSH2 0x5BA JUMPI SWAP1 JUMP JUMPDEST PUSH1 0x60 SWAP1 PUSH1 0x3 NOT ADD SLT PUSH2 0x5BA JUMPI PUSH1 0x4 CALLDATALOAD SWAP1 PUSH1 0x24 CALLDATALOAD SWAP1 PUSH1 0x44 CALLDATALOAD SWAP1 JUMP JUMPDEST ISZERO PUSH2 0x18B9 JUMPI JUMP JUMPDEST PUSH1 0x40 MLOAD PUSH3 0x461BCD PUSH1 0xE5 SHL DUP2 MSTORE PUSH1 0x20 PUSH1 0x4 DUP3 ADD MSTORE PUSH1 0x14 PUSH1 0x24 DUP3 ADD MSTORE PUSH20 0x125B9D985B1A59081A5B9C1D5D08185B5BDD5B9D PUSH1 0x62 SHL PUSH1 0x44 DUP3 ADD MSTORE PUSH1 0x64 SWAP1 REVERT JUMPDEST SWAP2 SWAP1 DUP3 SUB SWAP2 DUP3 GT PUSH2 0x1902 JUMPI JUMP JUMPDEST PUSH4 0x4E487B71 PUSH1 0xE0 SHL PUSH1 0x0 MSTORE PUSH1 0x11 PUSH1 0x4 MSTORE PUSH1 0x24 PUSH1 0x0 REVERT JUMPDEST DUP2 DUP2 MUL SWAP3 SWAP2 DUP2 ISZERO SWAP2 DUP5 DIV EQ OR ISZERO PUSH2 0x1902 JUMPI JUMP JUMPDEST DUP2 ISZERO PUSH2 0x1935 JUMPI DIV SWAP1 JUMP JUMPDEST PUSH4 0x4E487B71 PUSH1 0xE0 SHL PUSH1 0x0 MSTORE PUSH1 0x12 PUSH1 0x4 MSTORE PUSH1 0x24 PUSH1 0x0 REVERT JUMPDEST ISZERO PUSH2 0x1952 JUMPI JUMP JUMPDEST PUSH1 0x40 MLOAD PUSH3 0x461BCD PUSH1 0xE5 SHL DUP2 MSTORE PUSH1 0x20 PUSH1 0x4 DUP3 ADD MSTORE PUSH1 0x15 PUSH1 0x24 DUP3 ADD MSTORE PUSH21 0x456D657267656E6379206D6F646520616374697665 PUSH1 0x58 SHL PUSH1 0x44 DUP3 ADD MSTORE PUSH1 0x64 SWAP1 REVERT JUMPDEST ISZERO PUSH2 0x1996 JUMPI JUMP JUMPDEST PUSH1 0x40 MLOAD PUSH3 0x461BCD PUSH1 0xE5 SHL DUP2 MSTORE PUSH1 0x20 PUSH1 0x4 DUP3 ADD MSTORE PUSH1 0x16 PUSH1 0x24 DUP3 ADD MSTORE PUSH22 0x496E73756666696369656E74206C6971756964697479 PUSH1 0x50 SHL PUSH1 0x44 DUP3 ADD MSTORE PUSH1 0x64 SWAP1 REVERT JUMPDEST SWAP2 SWAP1 DUP3 ADD DUP1 SWAP3 GT PUSH2 0x1902 JUMPI JUMP JUMPDEST SWAP1 PUSH1 0x1F DUP1 NOT SWAP2 ADD AND DUP2 ADD SWAP1 DUP2 LT PUSH8 0xFFFFFFFFFFFFFFFF DUP3 GT OR PUSH2 0x1A03 JUMPI PUSH1 0x40 MSTORE JUMP JUMPDEST PUSH4 0x4E487B71 PUSH1 0xE0 SHL PUSH1 0x0 MSTORE PUSH1 0x41 PUSH1 0x4 MSTORE PUSH1 0x24 PUSH1 0x0 REVERT JUMPDEST PUSH1 0x3 SLOAD DUP1 ISZERO PUSH2 0x1A4C JUMPI PUSH1 0x2 SLOAD SWAP1 PUSH8 0xDE0B6B3A7640000 SWAP2 DUP3 DUP2 MUL SWAP3 DUP2 DUP5 DIV EQ SWAP1 ISZERO OR ISZERO PUSH2 0x1902 JUMPI PUSH2 0x1A49 SWAP2 PUSH2 0x192B JUMP JUMPDEST SWAP1 JUMP JUMPDEST POP PUSH1 0x12 SLOAD SWAP1 JUMP JUMPDEST SWAP2 DUP3 ISZERO PUSH2 0x1AE1 JUMPI DUP2 ISZERO ISZERO DUP1 PUSH2 0x1AD8 JUMPI JUMPDEST ISZERO PUSH2 0x1A85 JUMPI DUP3 PUSH2 0x1A79 PUSH2 0x1A7F SWAP3 PUSH2 0x1A49 SWAP6 PUSH2 0x1918 JUMP JUMPDEST SWAP3 PUSH2 0x19D4 JUMP JUMPDEST SWAP1 PUSH2 0x192B JUMP JUMPDEST PUSH1 0x40 MLOAD PUSH3 0x461BCD PUSH1 0xE5 SHL DUP2 MSTORE PUSH1 0x20 PUSH1 0x4 DUP3 ADD MSTORE PUSH1 0x25 PUSH1 0x24 DUP3 ADD MSTORE PUSH32 0x4C69717569646974794D6174683A20494E53554646494349454E545F4C495155 PUSH1 0x44 DUP3 ADD MSTORE PUSH5 0x4944495459 PUSH1 0xD8 SHL PUSH1 0x64 DUP3 ADD MSTORE PUSH1 0x84 SWAP1 REVERT JUMPDEST POP DUP1 ISZERO ISZERO PUSH2 0x1A63 JUMP JUMPDEST PUSH1 0x40 MLOAD PUSH3 0x461BCD PUSH1 0xE5 SHL DUP2 MSTORE PUSH1 0x20 PUSH1 0x4 DUP3 ADD MSTORE PUSH1 0x28 PUSH1 0x24 DUP3 ADD MSTORE PUSH32 0x4C69717569646974794D6174683A20494E53554646494349454E545F494E5055 PUSH1 0x44 DUP3 ADD MSTORE PUSH8 0x1517D05353D55395 PUSH1 0xC2 SHL PUSH1 0x64 DUP3 ADD MSTORE PUSH1 0x84 SWAP1 REVERT JUMPDEST PUSH1 0x1 SLOAD PUSH1 0x1 PUSH1 0x1 PUSH1 0xA0 SHL SUB AND CALLER SUB PUSH2 0x1B4B JUMPI JUMP JUMPDEST PUSH1 0x40 MLOAD PUSH4 0x118CDAA7 PUSH1 0xE0 SHL DUP2 MSTORE CALLER PUSH1 0x4 DUP3 ADD MSTORE PUSH1 0x24 SWAP1 REVERT JUMPDEST PUSH1 0x2 PUSH1 0x0 SLOAD EQ PUSH2 0x1B74 JUMPI PUSH1 0x2 PUSH1 0x0 SSTORE JUMP JUMPDEST PUSH1 0x40 MLOAD PUSH4 0x3EE5AEB5 PUSH1 0xE0 SHL DUP2 MSTORE PUSH1 0x4 SWAP1 REVERT JUMPDEST PUSH1 0xFF PUSH1 0x1 SLOAD PUSH1 0xA0 SHR AND PUSH2 0x1B95 JUMPI JUMP JUMPDEST PUSH1 0x40 MLOAD PUSH4 0xD93C0665 PUSH1 0xE0 SHL DUP2 MSTORE PUSH1 0x4 SWAP1 REVERT JUMPDEST PUSH1 0x40 MLOAD PUSH4 0x23B872DD PUSH1 0xE0 SHL PUSH1 0x20 DUP3 ADD MSTORE PUSH1 0x1 PUSH1 0x1 PUSH1 0xA0 SHL SUB SWAP3 DUP4 AND PUSH1 0x24 DUP3 ADD MSTORE SWAP3 SWAP1 SWAP2 AND PUSH1 0x44 DUP4 ADD MSTORE PUSH1 0x64 DUP1 DUP4 ADD SWAP4 SWAP1 SWAP4 MSTORE SWAP2 DUP2 MSTORE PUSH1 0xA0 DUP2 ADD SWAP2 DUP2 DUP4 LT PUSH8 0xFFFFFFFFFFFFFFFF DUP5 GT OR PUSH2 0x1A03 JUMPI PUSH2 0x1C00 SWAP3 PUSH1 0x40 MSTORE PUSH2 0x1EA2 JUMP JUMPDEST JUMP JUMPDEST PUSH1 0x40 MLOAD PUSH4 0xA9059CBB PUSH1 0xE0 SHL PUSH1 0x20 DUP3 ADD MSTORE PUSH1 0x1 PUSH1 0x1 PUSH1 0xA0 SHL SUB SWAP3 SWAP1 SWAP3 AND PUSH1 0x24 DUP4 ADD MSTORE PUSH1 0x44 DUP1 DUP4 ADD SWAP4 SWAP1 SWAP4 MSTORE SWAP2 DUP2 MSTORE PUSH2 0x1C00 SWAP2 PUSH2 0x1C3E PUSH1 0x64 DUP4 PUSH2 0x19E1 JUMP JUMPDEST PUSH2 0x1EA2 JUMP JUMPDEST SWAP2 SWAP1 SWAP2 DUP1 ISZERO PUSH2 0x1D49 JUMPI DUP3 ISZERO ISZERO DUP1 PUSH2 0x1D40 JUMPI JUMPDEST ISZERO PUSH2 0x1CFB JUMPI PUSH8 0xDE0B6B3A7640000 SWAP2 DUP3 DUP2 MUL SWAP1 DUP1 DUP3 DIV DUP5 EQ DUP2 ISZERO OR ISZERO PUSH2 0x1902 JUMPI PUSH2 0x1C97 DUP2 PUSH2 0x1C86 DUP8 PUSH2 0x1C9D SWAP6 PUSH2 0x192B JUMP JUMPDEST SWAP7 PUSH2 0x1C91 DUP7 DUP3 PUSH2 0x19D4 JUMP JUMPDEST SWAP6 PUSH2 0x1A53 JUMP JUMPDEST SWAP1 PUSH2 0x18F5 JUMP JUMPDEST SWAP2 DUP3 ISZERO PUSH2 0x1CF1 JUMPI DUP1 DUP4 MUL SWAP3 DUP4 DIV SUB PUSH2 0x1902 JUMPI PUSH2 0x1CB8 SWAP2 PUSH2 0x192B JUMP JUMPDEST DUP2 DUP1 DUP3 LT PUSH2 0x1CE7 JUMPI PUSH2 0x1CC9 SWAP2 PUSH2 0x18F5 JUMP JUMPDEST SWAP1 PUSH2 0x2710 SWAP2 DUP3 DUP2 MUL SWAP3 DUP2 DUP5 DIV EQ SWAP1 ISZERO OR ISZERO PUSH2 0x1902 JUMPI PUSH2 0x1A49 SWAP2 PUSH2 0x192B JUMP JUMPDEST SWAP1 PUSH2 0x1CC9 SWAP2 PUSH2 0x18F5 JUMP JUMPDEST POP POP POP POP PUSH2 0x2710 SWAP1 JUMP JUMPDEST PUSH1 0x40 MLOAD PUSH3 0x461BCD PUSH1 0xE5 SHL DUP2 MSTORE PUSH1 0x20 PUSH1 0x4 DUP3 ADD MSTORE PUSH1 0x1F PUSH1 0x24 DUP3 ADD MSTORE PUSH32 0x4C69717569646974794D6174683A20494E56414C49445F524553455256455300 PUSH1 0x44 DUP3 ADD MSTORE PUSH1 0x64 SWAP1 REVERT JUMPDEST POP DUP2 ISZERO ISZERO PUSH2 0x1C55 JUMP JUMPDEST PUSH1 0x40 MLOAD PUSH3 0x461BCD PUSH1 0xE5 SHL DUP2 MSTORE PUSH1 0x20 PUSH1 0x4 DUP3 ADD MSTORE PUSH1 0x1D PUSH1 0x24 DUP3 ADD MSTORE PUSH32 0x4C69717569646974794D6174683A20494E56414C49445F414D4F554E54000000 PUSH1 0x44 DUP3 ADD MSTORE PUSH1 0x64 SWAP1 REVERT JUMPDEST PUSH2 0x1D9D PUSH1 0xC SLOAD PUSH1 0xD SLOAD SWAP1 PUSH2 0x19D4 JUMP JUMPDEST TIMESTAMP LT PUSH2 0x1C00 JUMPI PUSH2 0x1DAB PUSH2 0x1A19 JUMP JUMPDEST POP PUSH1 0x2 SLOAD PUSH8 0xDE0B6B3A7640000 SWAP1 DUP2 DUP2 MUL SWAP2 DUP2 DUP4 DIV DUP2 EQ DUP3 ISZERO OR ISZERO PUSH2 0x1902 JUMPI PUSH2 0x1DD7 PUSH1 0x3 SLOAD DUP1 SWAP5 PUSH2 0x192B JUMP JUMPDEST DUP2 DUP2 GT ISZERO PUSH2 0x1E93 JUMPI PUSH8 0xDE0B6B3A763FFFF NOT DUP2 ADD SWAP1 DUP2 GT PUSH2 0x1902 JUMPI SWAP1 JUMPDEST PUSH1 0xB SLOAD DUP1 DUP3 MUL SWAP2 DUP3 DIV SUB PUSH2 0x1902 JUMPI PUSH2 0x2710 SWAP1 DIV LT PUSH2 0x1E10 JUMPI POP POP JUMP JUMPDEST DUP2 PUSH2 0x1E7E DUP3 PUSH2 0x1E74 PUSH2 0x1E45 PUSH32 0x62F3780234CCFC6503993E1D970863448F907AA096AC573C8DC09692652D535D SWAP7 PUSH1 0x40 SWAP7 PUSH2 0x19D4 JUMP JUMPDEST PUSH1 0xA PUSH2 0x1E6D DUP7 DUP3 PUSH2 0x1E66 DUP8 PUSH2 0x1E5A DUP5 DUP3 PUSH2 0x19D4 JUMP JUMPDEST PUSH1 0x1 SHR SWAP7 PUSH1 0x1 SHR PUSH2 0x18F5 JUMP JUMPDEST DIV SWAP4 PUSH2 0x18F5 JUMP JUMPDEST DIV SWAP3 PUSH2 0x19D4 JUMP JUMPDEST SWAP3 DUP4 PUSH1 0x2 SSTORE PUSH2 0x19D4 JUMP JUMPDEST DUP1 PUSH1 0x3 SSTORE TIMESTAMP PUSH1 0xC SSTORE DUP3 MLOAD SWAP2 DUP3 MSTORE PUSH1 0x20 DUP3 ADD MSTORE LOG1 JUMP JUMPDEST DUP2 SUB DUP2 DUP2 GT PUSH2 0x1902 JUMPI SWAP1 PUSH2 0x1DF4 JUMP JUMPDEST SWAP1 PUSH1 0x0 PUSH1 0x20 SWAP2 DUP3 DUP2 MLOAD SWAP2 ADD DUP3 DUP6 GAS CALL ISZERO PUSH2 0x1EFE JUMPI PUSH1 0x0 MLOAD RETURNDATASIZE PUSH2 0x1EF5 JUMPI POP PUSH1 0x1 PUSH1 0x1 PUSH1 0xA0 SHL SUB DUP2 AND EXTCODESIZE ISZERO JUMPDEST PUSH2 0x1ED3 JUMPI POP JUMP JUMPDEST PUSH1 0x40 MLOAD PUSH4 0x5274AFE7 PUSH1 0xE0 SHL DUP2 MSTORE PUSH1 0x1 PUSH1 0x1 PUSH1 0xA0 SHL SUB SWAP1 SWAP2 AND PUSH1 0x4 DUP3 ADD MSTORE PUSH1 0x24 SWAP1 REVERT JUMPDEST PUSH1 0x1 EQ ISZERO PUSH2 0x1ECC JUMP JUMPDEST PUSH1 0x40 MLOAD RETURNDATASIZE PUSH1 0x0 DUP3 RETURNDATACOPY RETURNDATASIZE SWAP1 REVERT INVALID LOG2 PUSH5 0x6970667358 0x22 SLT KECCAK256 STATICCALL JUMPI 0xF8 0xB5 SGT BASEFEE BLOBHASH PUSH17 0x3C7E90619BC5B4933E3ED0C8E8C432851A 0xF9 PUSH6 0x26282278C964 PUSH20 0x6F6C634300081800330000000000000000000000 "},"methodIdentifiers":{"FEE_DENOMINATOR()":"d73792a9","MINIMUM_LIQUIDITY()":"ba9a7a56","accumulatedFeesA()":"455d48f5","accumulatedFeesB()":"7105c19f","activateEmergencyMode()":"d0096010","addLiquidity(uint256,uint256,uint256)":"422f1043","dynamicFeeRate()":"d9c018f2","emergencyMode()":"0905f560","emergencyWithdrawalDelay()":"b4f74031","flashLoan(uint256,bool)":"c8787f40","frontRunProtectionBlocks()":"df463ef1","getAmountOut(uint256,bool)":"11106ee2","getCurrentPrice()":"eb91d37e","getReserves()":"0902f1ac","getUserInfo(address)":"6386c1c7","lastRebalanceTime()":"d9ca21d5","lastRewardClaim(address)":"d8ad5231","lastTransactionBlock(address)":"a7076038","liquidityTokens(address)":"909feb71","maxSlippageProtection()":"1bfd77ab","oraclePrice()":"668aa824","oraclePriceLastUpdate()":"b81b8c9a","owner()":"8da5cb5b","pause()":"8456cb59","paused()":"5c975abb","protocolFeeRate()":"58f85880","rebalanceInterval()":"16d1d916","rebalanceThreshold()":"3dfe9f6a","removeLiquidity(uint256,uint256,uint256)":"857620e1","renounceOwnership()":"715018a6","reserveA()":"dc5fa6c5","reserveB()":"19e36f3b","swap(address,uint256,uint256)":"9f1d0f59","tokenA()":"0fc63d10","tokenB()":"5f64b55b","totalLiquidityTokens()":"1cb4a351","transferOwnership(address)":"f2fde38b","unpause()":"3f4ba83a","updateOraclePrice(uint256)":"5ead3c5d","userRewards(address)":"0660f1e8","withdrawFees()":"476343ee"}}}}}