{"contracts/mocks/MockAttacker.sol":{"MockAttacker":{"abi":[{"inputs":[{"internalType":"contract DeFiLiquidityPool","name":"_pool","type":"address"},{"internalType":"contract IERC20","name":"_tokenA","type":"address"},{"internalType":"contract IERC20","name":"_tokenB","type":"address"}],"stateMutability":"nonpayable","type":"constructor"},{"inputs":[{"internalType":"address","name":"token","type":"address"}],"name":"SafeERC20FailedOperation","type":"error"},{"anonymous":false,"inputs":[{"indexed":false,"internalType":"uint256","name":"profitA","type":"uint256"},{"indexed":false,"internalType":"uint256","name":"profitB","type":"uint256"}],"name":"FlashLoanAttackCompleted","type":"event"},{"anonymous":false,"inputs":[{"indexed":false,"internalType":"uint256","name":"initialPrice","type":"uint256"},{"indexed":false,"internalType":"uint256","name":"manipulatedPrice","type":"uint256"},{"indexed":false,"internalType":"uint256","name":"swapAmount","type":"uint256"}],"name":"PriceManipulated","type":"event"},{"anonymous":false,"inputs":[{"indexed":false,"internalType":"uint256","name":"initialReserveA","type":"uint256"},{"indexed":false,"internalType":"uint256","name":"initialReserveB","type":"uint256"},{"indexed":false,"internalType":"uint256","name":"swapAmount","type":"uint256"}],"name":"RebalanceManipulated","type":"event"},{"anonymous":false,"inputs":[{"indexed":false,"internalType":"uint256","name":"victimAmount","type":"uint256"},{"indexed":false,"internalType":"uint256","name":"frontRunAmount","type":"uint256"}],"name":"SandwichAttackExecuted","type":"event"},{"inputs":[],"name":"attackInProgress","outputs":[{"internalType":"bool","name":"","type":"bool"}],"stateMutability":"view","type":"function"},{"inputs":[{"internalType":"uint256","name":"amountA","type":"uint256"},{"internalType":"uint256","name":"amountB","type":"uint256"}],"name":"deposit","outputs":[],"stateMutability":"nonpayable","type":"function"},{"inputs":[],"name":"flashLoanAmount","outputs":[{"internalType":"uint256","name":"","type":"uint256"}],"stateMutability":"view","type":"function"},{"inputs":[{"internalType":"uint256","name":"amount","type":"uint256"},{"internalType":"bool","name":"isTokenA","type":"bool"}],"name":"flashLoanAttack","outputs":[],"stateMutability":"nonpayable","type":"function"},{"inputs":[],"name":"getBalances","outputs":[{"internalType":"uint256","name":"balanceA","type":"uint256"},{"internalType":"uint256","name":"balanceB","type":"uint256"}],"stateMutability":"view","type":"function"},{"inputs":[],"name":"getLastAttackProfit","outputs":[{"internalType":"uint256","name":"_profitA","type":"uint256"},{"internalType":"uint256","name":"_profitB","type":"uint256"}],"stateMutability":"view","type":"function"},{"inputs":[],"name":"pool","outputs":[{"internalType":"contract DeFiLiquidityPool","name":"","type":"address"}],"stateMutability":"view","type":"function"},{"inputs":[{"internalType":"uint256","name":"swapAmount","type":"uint256"}],"name":"priceManipulationAttack","outputs":[],"stateMutability":"nonpayable","type":"function"},{"inputs":[],"name":"profitA","outputs":[{"internalType":"uint256","name":"","type":"uint256"}],"stateMutability":"view","type":"function"},{"inputs":[],"name":"profitB","outputs":[{"internalType":"uint256","name":"","type":"uint256"}],"stateMutability":"view","type":"function"},{"inputs":[],"name":"rebalanceManipulationAttack","outputs":[],"stateMutability":"nonpayable","type":"function"},{"inputs":[{"internalType":"address","name":"token","type":"address"},{"internalType":"uint256","name":"amount","type":"uint256"}],"name":"receiveFlashLoan","outputs":[],"stateMutability":"nonpayable","type":"function"},{"inputs":[{"internalType":"uint256","name":"victimSwapAmount","type":"uint256"}],"name":"sandwichAttack","outputs":[],"stateMutability":"nonpayable","type":"function"},{"inputs":[],"name":"targetTokenA","outputs":[{"internalType":"bool","name":"","type":"bool"}],"stateMutability":"view","type":"function"},{"inputs":[],"name":"tokenA","outputs":[{"internalType":"contract IERC20","name":"","type":"address"}],"stateMutability":"view","type":"function"},{"inputs":[],"name":"tokenB","outputs":[{"internalType":"contract IERC20","name":"","type":"address"}],"stateMutability":"view","type":"function"},{"inputs":[],"name":"withdraw","outputs":[],"stateMutability":"nonpayable","type":"function"}],"evm":{"bytecode":{"linkReferences":{},"object":"6080346100a457601f61134c38819003918201601f19168301916001600160401b038311848410176100a9578084926060946040528339810103126100a45780516001600160a01b038082169290918390036100a4578161006e6040610067602085016100bf565b93016100bf565b9160018060a01b031994856000541617600055168360015416176001551690600254161760025560405161127890816100d48239f35b600080fd5b634e487b7160e01b600052604160045260246000fd5b51906001600160a01b03821682036100a45756fe608060408181526004908136101561001657600080fd5b600092833560e01c908162113e0814610f9a575080630fc63d1014610f7157806312badd6b14610eb157806316f0115b14610e895780631a11eddf14610c415780633ccfd60b14610b1b578063405af0c014610899578063479110b21461087b5780635c973a3f146108575780635f64b55b1461082e578063738439621461080f578063818c8c7c146107e85780638968461d14610486578063b8a53b8314610467578063dcb436e014610440578063e2bbb158146103de5763ee31b5bc146100de57600080fd5b3461031957806003193601126103195781359160249182358015158091036103da576002549460ff8660a01c166103985760058190556006805460ff841660ff199190911617905560ff60a01b19868116600160a01b1760025560015484516370a0823160e01b808252308883015292986001600160a01b03959194602094938c9290869088908d9082908c165afa96871561038e579083929189979695949861035a575b5085908c8c8c519b8c9384928a84523090840152165afa97881561035057829861031d575b508582541692833b15610319578a838d956044938d519788968795630321e1fd60e61b87528601528401525af180156102e2576102ec575b509082918189959460015416885196878092858252308d8301525afa9485156102e2578b956102b3575b508190600254998851809581938252308c8301528c165afa9586156102aa57508995610275575b5050808211610262575b505080821161024f575b5050501660025580f35b6102589161111f565b9055388080610245565b61026b9161111f565b600355388061023b565b9080929550813d83116102a3575b61028d818361108c565b8101031261029e5751923880610231565b600080fd5b503d610283565b513d8b823e3d90fd5b9094508181813d83116102db575b6102cb818361108c565b8101031261029e5751938161020a565b503d6102c1565b87513d8d823e3d90fd5b67ffffffffffffffff819b929b1161030757865298876101e0565b634e487b7160e01b8252604188528882fd5b8280fd5b9097508481813d8311610349575b610335818361108c565b81010312610345575196386101a8565b5080fd5b503d61032b565b89513d84823e3d90fd5b86809299508198503d8311610387575b610374818361108c565b8101031261034557848896519790610183565b503d61036a565b89513d85823e3d90fd5b825162461bcd60e51b8152602081860152601a818701527f41747461636b20616c726561647920696e2070726f67726573730000000000006044820152606490fd5b8580fd5b50346103195736600319011261034557356024359080610420575b5080610403575080f35b60025461041d9190309033906001600160a01b0316611185565b80f35b60015461043a9190309033906001600160a01b0316611185565b386103f9565b50913461046457806003193601126104645750600354905482519182526020820152f35b80fd5b8382346103455781600319360112610345576020906003549051908152f35b509034610319576020806003193601126107095781359260018060a01b03918583600154169483516370a0823160e01b8152308282015283816024818a5afa80156107de57889084906107ad575b6104e0925010156110c4565b84825416958451956375c8e9bf60e11b9788885285888581845afa9788156107a3578598610774575b50865163095ea7b360e01b8082526001600160a01b03909216858201908152600a8c046020820181905294889183919082908a90829060400103925af1801561076a57908693929161074d575b50868284541660648460015416968b51998a938492639f1d0f5960e01b9a8b85528c85015260248401528160448401525af19586156106d557839661071e575b508183541688519a8b52878b8781845afa9a8b1561071457849b6106df575b5060025489519283526001600160a01b03919091168683019081526020810188905288918391829003604001908290879087165af180156106d5579160649391889695936106a8575b508082541690600254169689519788968795865285015260248401528160448401525af1801561069e57610671575b505051908152602081019190915260408101919091527f29dbc10802778113d7ef2cc5b0e39df78ee79c93877cc9f792e9871fe116a8d99080606081015b0390a180f35b813d8311610697575b610684818361108c565b8101031261069357388061062d565b8480fd5b503d61067a565b83513d89823e3d90fd5b6106c790873d89116106ce575b6106bf818361108c565b810190611107565b50386105fe565b503d6106b5565b88513d85823e3d90fd5b91909a508782813d831161070d575b6106f8818361108c565b8101031261070957905199866105b5565b8380fd5b503d6106ee565b89513d86823e3d90fd5b9095508681813d8311610746575b610736818361108c565b8101031261031957519438610596565b503d61072c565b61076390883d8a116106ce576106bf818361108c565b5038610556565b88513d88823e3d90fd5b9097508581813d831161079c575b61078c818361108c565b8101031261069357519638610509565b503d610782565b87513d87823e3d90fd5b50508381813d83116107d7575b6107c4818361108c565b8101031261031957876104e091516104d4565b503d6107ba565b85513d85823e3d90fd5b83823461034557816003193601126103455760209060ff60025460a01c1690519015158152f35b8382346103455781600319360112610345576020906005549051908152f35b83823461034557816003193601126103455760025490516001600160a01b039091168152602090f35b83823461034557816003193601126103455760209060ff6006541690519015158152f35b50903461031957826003193601126103195760209250549051908152f35b503461031957602091826003193601126107095760015482516370a0823160e01b815230818401528235926001600160a01b03928792908416908781602481855afa8015610b115786908590610ae0575b6108f6925010156110c4565b8254865163095ea7b360e01b8082529186166001600160a01b0316848201908152600a8804602082018190529692938a9183919082908990829060400103925af18015610ad65790859291610ab9575b5080825416928982600154169460648b5180998193639f1d0f5960e01b998a84528b8401528c60248401528160448401525af195861561038e57908a918497610a86575b5060025484548b5192835284166001600160a01b03168783019081526020810189905291929183918516908290879082906040015b03925af1801561038e5791606493918b969593610a69575b50808254169060025416968a519788968795865285015260248401528160448401525af18015610a5f57610a35575b507fd028dbf6ef633b66119d1483fd5bb0e37a4a633088bf278b00b48303d0af7d06938351928352820152a180f35b8490813d8311610a58575b610a4a818361108c565b810103126106935738610a06565b503d610a40565b84513d88823e3d90fd5b610a7f90873d89116106ce576106bf818361108c565b50386109d7565b8281939298503d8311610ab2575b610a9e818361108c565b8101031261031957519489906109bf61098a565b503d610a94565b610acf908a3d8c116106ce576106bf818361108c565b5038610946565b88513d87823e3d90fd5b50508781813d8311610b0a575b610af7818361108c565b8101031261070957856108f691516108ea565b503d610aed565b87513d86823e3d90fd5b503461031957826003193601126103195760015481516370a0823160e01b80825230828601526001600160a01b0394928516926020908184602481885afa938415610c37578894610c04575b508190602488600254169488519586938492835230908301525afa948515610bfb57508694610bcb575b505080610bb9575b505080610ba4578280f35b610bb391600254163390611142565b38808280f35b610bc4913390611142565b3880610b99565b9080929450813d8311610bf4575b610be3818361108c565b810103126106935751913880610b91565b503d610bd9565b513d88823e3d90fd5b9093508181813d8311610c30575b610c1c818361108c565b81010312610c2c57519281610b67565b8780fd5b503d610c12565b86513d8a823e3d90fd5b503461031957826003193601126103195782548151630240bc6b60e21b81526001600160a01b03929091831681838681845afa938415610e7f5786938795610e48575b50610bb8808502908582041485151715610e355761271090049581600154168451906370a0823160e01b825230838301526020948583602481855afa9283156102e257918a9187938d95610df9575b50610ce383610d199610156110c4565b885163095ea7b360e01b81526001600160a01b03909116868201908152602081019390935293849283918e918391604090910190565b03925af18015610def5790849291610dd2575b506064838a54169360015416918a87519586948593639f1d0f5960e01b85528401528b60248401528160448401525af1801561069e57610da9575b505051908152602081019190915260408101919091527fceaf73c9237c9b992a109885a67f702143f2af272aa119653c8264ab4e5e30cf90806060810161066b565b813d8311610dcb575b610dbc818361108c565b81010312610693573880610d67565b503d610db2565b610de890833d85116106ce576106bf818361108c565b5038610d2c565b85513d8b823e3d90fd5b92509290935081813d8311610e2e575b610e13818361108c565b81010312610e2a57519185918a9190610ce3610cd3565b8a80fd5b503d610e09565b634e487b7160e01b885260118752602488fd5b83809296508195503d8311610e78575b610e62818361108c565b810103126103da57602083519301519338610c84565b503d610e58565b82513d88823e3d90fd5b838234610345578160031936011261034557905490516001600160a01b039091168152602090f35b50903461031957816003193601126103195780356001600160a01b038181169391849003610693578454163303610f395760ff60025460a01c1615610efe578361041d6024353386611142565b906020606492519162461bcd60e51b835282015260156024820152744e6f2061747461636b20696e2070726f677265737360581b6044820152fd5b906020606492519162461bcd60e51b8352820152601260248201527113db9b1e481c1bdbdb0818d85b8818d85b1b60721b6044820152fd5b83823461034557816003193601126103455760015490516001600160a01b039091168152602090f35b90508383346103455781600319360112610345576001546370a0823160e01b808552308386015260209290916001600160a01b039084908790602490829085165afa9586156107a357859661105c575b509060248492600254169388519485938492835230908301525afa92831561105157809361101f575b50508351928352820152f35b909180935082813d831161104a575b611038818361108c565b81010312610464575051908480611013565b503d61102e565b8551903d90823e3d90fd5b9095508381813d8311611085575b611074818361108c565b810103126106935751946024610fea565b503d61106a565b90601f8019910116810190811067ffffffffffffffff8211176110ae57604052565b634e487b7160e01b600052604160045260246000fd5b156110cb57565b60405162461bcd60e51b8152602060048201526014602482015273496e73756666696369656e742062616c616e636560601b6044820152606490fd5b9081602091031261029e5751801515810361029e5790565b9190820391821161112c57565b634e487b7160e01b600052601160045260246000fd5b60405163a9059cbb60e01b60208201526001600160a01b039290921660248301526044808301939093529181526111839161117e60648361108c565b6111da565b565b6040516323b872dd60e01b60208201526001600160a01b03928316602482015292909116604483015260648083019390935291815260a081019181831067ffffffffffffffff8411176110ae57611183926040525b906000602091828151910182855af115611236576000513d61122d57506001600160a01b0381163b155b61120b5750565b604051635274afe760e01b81526001600160a01b039091166004820152602490fd5b60011415611204565b6040513d6000823e3d90fdfea26469706673582212202049b4c05128dd2a68e6b80d28326c501778b3b8ea67876dca7487c9cd76dd9f64736f6c63430008180033","opcodes":"PUSH1 0x80 CALLVALUE PUSH2 0xA4 JUMPI PUSH1 0x1F PUSH2 0x134C CODESIZE DUP2 SWAP1 SUB SWAP2 DUP3 ADD PUSH1 0x1F NOT AND DUP4 ADD SWAP2 PUSH1 0x1 PUSH1 0x1 PUSH1 0x40 SHL SUB DUP4 GT DUP5 DUP5 LT OR PUSH2 0xA9 JUMPI DUP1 DUP5 SWAP3 PUSH1 0x60 SWAP5 PUSH1 0x40 MSTORE DUP4 CODECOPY DUP2 ADD SUB SLT PUSH2 0xA4 JUMPI DUP1 MLOAD PUSH1 0x1 PUSH1 0x1 PUSH1 0xA0 SHL SUB DUP1 DUP3 AND SWAP3 SWAP1 SWAP2 DUP4 SWAP1 SUB PUSH2 0xA4 JUMPI DUP2 PUSH2 0x6E PUSH1 0x40 PUSH2 0x67 PUSH1 0x20 DUP6 ADD PUSH2 0xBF JUMP JUMPDEST SWAP4 ADD PUSH2 0xBF JUMP JUMPDEST SWAP2 PUSH1 0x1 DUP1 PUSH1 0xA0 SHL SUB NOT SWAP5 DUP6 PUSH1 0x0 SLOAD AND OR PUSH1 0x0 SSTORE AND DUP4 PUSH1 0x1 SLOAD AND OR PUSH1 0x1 SSTORE AND SWAP1 PUSH1 0x2 SLOAD AND OR PUSH1 0x2 SSTORE PUSH1 0x40 MLOAD PUSH2 0x1278 SWAP1 DUP2 PUSH2 0xD4 DUP3 CODECOPY RETURN JUMPDEST PUSH1 0x0 DUP1 REVERT JUMPDEST PUSH4 0x4E487B71 PUSH1 0xE0 SHL PUSH1 0x0 MSTORE PUSH1 0x41 PUSH1 0x4 MSTORE PUSH1 0x24 PUSH1 0x0 REVERT JUMPDEST MLOAD SWAP1 PUSH1 0x1 PUSH1 0x1 PUSH1 0xA0 SHL SUB DUP3 AND DUP3 SUB PUSH2 0xA4 JUMPI JUMP INVALID PUSH1 0x80 PUSH1 0x40 DUP2 DUP2 MSTORE PUSH1 0x4 SWAP1 DUP2 CALLDATASIZE LT ISZERO PUSH2 0x16 JUMPI PUSH1 0x0 DUP1 REVERT JUMPDEST PUSH1 0x0 SWAP3 DUP4 CALLDATALOAD PUSH1 0xE0 SHR SWAP1 DUP2 PUSH3 0x113E08 EQ PUSH2 0xF9A JUMPI POP DUP1 PUSH4 0xFC63D10 EQ PUSH2 0xF71 JUMPI DUP1 PUSH4 0x12BADD6B EQ PUSH2 0xEB1 JUMPI DUP1 PUSH4 0x16F0115B EQ PUSH2 0xE89 JUMPI DUP1 PUSH4 0x1A11EDDF EQ PUSH2 0xC41 JUMPI DUP1 PUSH4 0x3CCFD60B EQ PUSH2 0xB1B JUMPI DUP1 PUSH4 0x405AF0C0 EQ PUSH2 0x899 JUMPI DUP1 PUSH4 0x479110B2 EQ PUSH2 0x87B JUMPI DUP1 PUSH4 0x5C973A3F EQ PUSH2 0x857 JUMPI DUP1 PUSH4 0x5F64B55B EQ PUSH2 0x82E JUMPI DUP1 PUSH4 0x73843962 EQ PUSH2 0x80F JUMPI DUP1 PUSH4 0x818C8C7C EQ PUSH2 0x7E8 JUMPI DUP1 PUSH4 0x8968461D EQ PUSH2 0x486 JUMPI DUP1 PUSH4 0xB8A53B83 EQ PUSH2 0x467 JUMPI DUP1 PUSH4 0xDCB436E0 EQ PUSH2 0x440 JUMPI DUP1 PUSH4 0xE2BBB158 EQ PUSH2 0x3DE JUMPI PUSH4 0xEE31B5BC EQ PUSH2 0xDE JUMPI PUSH1 0x0 DUP1 REVERT JUMPDEST CALLVALUE PUSH2 0x319 JUMPI DUP1 PUSH1 0x3 NOT CALLDATASIZE ADD SLT PUSH2 0x319 JUMPI DUP2 CALLDATALOAD SWAP2 PUSH1 0x24 SWAP2 DUP3 CALLDATALOAD DUP1 ISZERO ISZERO DUP1 SWAP2 SUB PUSH2 0x3DA JUMPI PUSH1 0x2 SLOAD SWAP5 PUSH1 0xFF DUP7 PUSH1 0xA0 SHR AND PUSH2 0x398 JUMPI PUSH1 0x5 DUP2 SWAP1 SSTORE PUSH1 0x6 DUP1 SLOAD PUSH1 0xFF DUP5 AND PUSH1 0xFF NOT SWAP2 SWAP1 SWAP2 AND OR SWAP1 SSTORE PUSH1 0xFF PUSH1 0xA0 SHL NOT DUP7 DUP2 AND PUSH1 0x1 PUSH1 0xA0 SHL OR PUSH1 0x2 SSTORE PUSH1 0x1 SLOAD DUP5 MLOAD PUSH4 0x70A08231 PUSH1 0xE0 SHL DUP1 DUP3 MSTORE ADDRESS DUP9 DUP4 ADD MSTORE SWAP3 SWAP9 PUSH1 0x1 PUSH1 0x1 PUSH1 0xA0 SHL SUB SWAP6 SWAP2 SWAP5 PUSH1 0x20 SWAP5 SWAP4 DUP13 SWAP3 SWAP1 DUP7 SWAP1 DUP9 SWAP1 DUP14 SWAP1 DUP3 SWAP1 DUP13 AND GAS STATICCALL SWAP7 DUP8 ISZERO PUSH2 0x38E JUMPI SWAP1 DUP4 SWAP3 SWAP2 DUP10 SWAP8 SWAP7 SWAP6 SWAP5 SWAP9 PUSH2 0x35A JUMPI JUMPDEST POP DUP6 SWAP1 DUP13 DUP13 DUP13 MLOAD SWAP12 DUP13 SWAP4 DUP5 SWAP3 DUP11 DUP5 MSTORE ADDRESS SWAP1 DUP5 ADD MSTORE AND GAS STATICCALL SWAP8 DUP9 ISZERO PUSH2 0x350 JUMPI DUP3 SWAP9 PUSH2 0x31D JUMPI JUMPDEST POP DUP6 DUP3 SLOAD AND SWAP3 DUP4 EXTCODESIZE ISZERO PUSH2 0x319 JUMPI DUP11 DUP4 DUP14 SWAP6 PUSH1 0x44 SWAP4 DUP14 MLOAD SWAP8 DUP9 SWAP7 DUP8 SWAP6 PUSH4 0x321E1FD PUSH1 0xE6 SHL DUP8 MSTORE DUP7 ADD MSTORE DUP5 ADD MSTORE GAS CALL DUP1 ISZERO PUSH2 0x2E2 JUMPI PUSH2 0x2EC JUMPI JUMPDEST POP SWAP1 DUP3 SWAP2 DUP2 DUP10 SWAP6 SWAP5 PUSH1 0x1 SLOAD AND DUP9 MLOAD SWAP7 DUP8 DUP1 SWAP3 DUP6 DUP3 MSTORE ADDRESS DUP14 DUP4 ADD MSTORE GAS STATICCALL SWAP5 DUP6 ISZERO PUSH2 0x2E2 JUMPI DUP12 SWAP6 PUSH2 0x2B3 JUMPI JUMPDEST POP DUP2 SWAP1 PUSH1 0x2 SLOAD SWAP10 DUP9 MLOAD DUP1 SWAP6 DUP2 SWAP4 DUP3 MSTORE ADDRESS DUP13 DUP4 ADD MSTORE DUP13 AND GAS STATICCALL SWAP6 DUP7 ISZERO PUSH2 0x2AA JUMPI POP DUP10 SWAP6 PUSH2 0x275 JUMPI JUMPDEST POP POP DUP1 DUP3 GT PUSH2 0x262 JUMPI JUMPDEST POP POP DUP1 DUP3 GT PUSH2 0x24F JUMPI JUMPDEST POP POP POP AND PUSH1 0x2 SSTORE DUP1 RETURN JUMPDEST PUSH2 0x258 SWAP2 PUSH2 0x111F JUMP JUMPDEST SWAP1 SSTORE CODESIZE DUP1 DUP1 PUSH2 0x245 JUMP JUMPDEST PUSH2 0x26B SWAP2 PUSH2 0x111F JUMP JUMPDEST PUSH1 0x3 SSTORE CODESIZE DUP1 PUSH2 0x23B JUMP JUMPDEST SWAP1 DUP1 SWAP3 SWAP6 POP DUP2 RETURNDATASIZE DUP4 GT PUSH2 0x2A3 JUMPI JUMPDEST PUSH2 0x28D DUP2 DUP4 PUSH2 0x108C JUMP JUMPDEST DUP2 ADD SUB SLT PUSH2 0x29E JUMPI MLOAD SWAP3 CODESIZE DUP1 PUSH2 0x231 JUMP JUMPDEST PUSH1 0x0 DUP1 REVERT JUMPDEST POP RETURNDATASIZE PUSH2 0x283 JUMP JUMPDEST MLOAD RETURNDATASIZE DUP12 DUP3 RETURNDATACOPY RETURNDATASIZE SWAP1 REVERT JUMPDEST SWAP1 SWAP5 POP DUP2 DUP2 DUP2 RETURNDATASIZE DUP4 GT PUSH2 0x2DB JUMPI JUMPDEST PUSH2 0x2CB DUP2 DUP4 PUSH2 0x108C JUMP JUMPDEST DUP2 ADD SUB SLT PUSH2 0x29E JUMPI MLOAD SWAP4 DUP2 PUSH2 0x20A JUMP JUMPDEST POP RETURNDATASIZE PUSH2 0x2C1 JUMP JUMPDEST DUP8 MLOAD RETURNDATASIZE DUP14 DUP3 RETURNDATACOPY RETURNDATASIZE SWAP1 REVERT JUMPDEST PUSH8 0xFFFFFFFFFFFFFFFF DUP2 SWAP12 SWAP3 SWAP12 GT PUSH2 0x307 JUMPI DUP7 MSTORE SWAP9 DUP8 PUSH2 0x1E0 JUMP JUMPDEST PUSH4 0x4E487B71 PUSH1 0xE0 SHL DUP3 MSTORE PUSH1 0x41 DUP9 MSTORE DUP9 DUP3 REVERT JUMPDEST DUP3 DUP1 REVERT JUMPDEST SWAP1 SWAP8 POP DUP5 DUP2 DUP2 RETURNDATASIZE DUP4 GT PUSH2 0x349 JUMPI JUMPDEST PUSH2 0x335 DUP2 DUP4 PUSH2 0x108C JUMP JUMPDEST DUP2 ADD SUB SLT PUSH2 0x345 JUMPI MLOAD SWAP7 CODESIZE PUSH2 0x1A8 JUMP JUMPDEST POP DUP1 REVERT JUMPDEST POP RETURNDATASIZE PUSH2 0x32B JUMP JUMPDEST DUP10 MLOAD RETURNDATASIZE DUP5 DUP3 RETURNDATACOPY RETURNDATASIZE SWAP1 REVERT JUMPDEST DUP7 DUP1 SWAP3 SWAP10 POP DUP2 SWAP9 POP RETURNDATASIZE DUP4 GT PUSH2 0x387 JUMPI JUMPDEST PUSH2 0x374 DUP2 DUP4 PUSH2 0x108C JUMP JUMPDEST DUP2 ADD SUB SLT PUSH2 0x345 JUMPI DUP5 DUP9 SWAP7 MLOAD SWAP8 SWAP1 PUSH2 0x183 JUMP JUMPDEST POP RETURNDATASIZE PUSH2 0x36A JUMP JUMPDEST DUP10 MLOAD RETURNDATASIZE DUP6 DUP3 RETURNDATACOPY RETURNDATASIZE SWAP1 REVERT JUMPDEST DUP3 MLOAD PUSH3 0x461BCD PUSH1 0xE5 SHL DUP2 MSTORE PUSH1 0x20 DUP2 DUP7 ADD MSTORE PUSH1 0x1A DUP2 DUP8 ADD MSTORE PUSH32 0x41747461636B20616C726561647920696E2070726F6772657373000000000000 PUSH1 0x44 DUP3 ADD MSTORE PUSH1 0x64 SWAP1 REVERT JUMPDEST DUP6 DUP1 REVERT JUMPDEST POP CALLVALUE PUSH2 0x319 JUMPI CALLDATASIZE PUSH1 0x3 NOT ADD SLT PUSH2 0x345 JUMPI CALLDATALOAD PUSH1 0x24 CALLDATALOAD SWAP1 DUP1 PUSH2 0x420 JUMPI JUMPDEST POP DUP1 PUSH2 0x403 JUMPI POP DUP1 RETURN JUMPDEST PUSH1 0x2 SLOAD PUSH2 0x41D SWAP2 SWAP1 ADDRESS SWAP1 CALLER SWAP1 PUSH1 0x1 PUSH1 0x1 PUSH1 0xA0 SHL SUB AND PUSH2 0x1185 JUMP JUMPDEST DUP1 RETURN JUMPDEST PUSH1 0x1 SLOAD PUSH2 0x43A SWAP2 SWAP1 ADDRESS SWAP1 CALLER SWAP1 PUSH1 0x1 PUSH1 0x1 PUSH1 0xA0 SHL SUB AND PUSH2 0x1185 JUMP JUMPDEST CODESIZE PUSH2 0x3F9 JUMP JUMPDEST POP SWAP2 CALLVALUE PUSH2 0x464 JUMPI DUP1 PUSH1 0x3 NOT CALLDATASIZE ADD SLT PUSH2 0x464 JUMPI POP PUSH1 0x3 SLOAD SWAP1 SLOAD DUP3 MLOAD SWAP2 DUP3 MSTORE PUSH1 0x20 DUP3 ADD MSTORE RETURN JUMPDEST DUP1 REVERT JUMPDEST DUP4 DUP3 CALLVALUE PUSH2 0x345 JUMPI DUP2 PUSH1 0x3 NOT CALLDATASIZE ADD SLT PUSH2 0x345 JUMPI PUSH1 0x20 SWAP1 PUSH1 0x3 SLOAD SWAP1 MLOAD SWAP1 DUP2 MSTORE RETURN JUMPDEST POP SWAP1 CALLVALUE PUSH2 0x319 JUMPI PUSH1 0x20 DUP1 PUSH1 0x3 NOT CALLDATASIZE ADD SLT PUSH2 0x709 JUMPI DUP2 CALLDATALOAD SWAP3 PUSH1 0x1 DUP1 PUSH1 0xA0 SHL SUB SWAP2 DUP6 DUP4 PUSH1 0x1 SLOAD AND SWAP5 DUP4 MLOAD PUSH4 0x70A08231 PUSH1 0xE0 SHL DUP2 MSTORE ADDRESS DUP3 DUP3 ADD MSTORE DUP4 DUP2 PUSH1 0x24 DUP2 DUP11 GAS STATICCALL DUP1 ISZERO PUSH2 0x7DE JUMPI DUP9 SWAP1 DUP5 SWAP1 PUSH2 0x7AD JUMPI JUMPDEST PUSH2 0x4E0 SWAP3 POP LT ISZERO PUSH2 0x10C4 JUMP JUMPDEST DUP5 DUP3 SLOAD AND SWAP6 DUP5 MLOAD SWAP6 PUSH4 0x75C8E9BF PUSH1 0xE1 SHL SWAP8 DUP9 DUP9 MSTORE DUP6 DUP9 DUP6 DUP2 DUP5 GAS STATICCALL SWAP8 DUP9 ISZERO PUSH2 0x7A3 JUMPI DUP6 SWAP9 PUSH2 0x774 JUMPI JUMPDEST POP DUP7 MLOAD PUSH4 0x95EA7B3 PUSH1 0xE0 SHL DUP1 DUP3 MSTORE PUSH1 0x1 PUSH1 0x1 PUSH1 0xA0 SHL SUB SWAP1 SWAP3 AND DUP6 DUP3 ADD SWAP1 DUP2 MSTORE PUSH1 0xA DUP13 DIV PUSH1 0x20 DUP3 ADD DUP2 SWAP1 MSTORE SWAP5 DUP9 SWAP2 DUP4 SWAP2 SWAP1 DUP3 SWAP1 DUP11 SWAP1 DUP3 SWAP1 PUSH1 0x40 ADD SUB SWAP3 GAS CALL DUP1 ISZERO PUSH2 0x76A JUMPI SWAP1 DUP7 SWAP4 SWAP3 SWAP2 PUSH2 0x74D JUMPI JUMPDEST POP DUP7 DUP3 DUP5 SLOAD AND PUSH1 0x64 DUP5 PUSH1 0x1 SLOAD AND SWAP7 DUP12 MLOAD SWAP10 DUP11 SWAP4 DUP5 SWAP3 PUSH4 0x9F1D0F59 PUSH1 0xE0 SHL SWAP11 DUP12 DUP6 MSTORE DUP13 DUP6 ADD MSTORE PUSH1 0x24 DUP5 ADD MSTORE DUP2 PUSH1 0x44 DUP5 ADD MSTORE GAS CALL SWAP6 DUP7 ISZERO PUSH2 0x6D5 JUMPI DUP4 SWAP7 PUSH2 0x71E JUMPI JUMPDEST POP DUP2 DUP4 SLOAD AND DUP9 MLOAD SWAP11 DUP12 MSTORE DUP8 DUP12 DUP8 DUP2 DUP5 GAS STATICCALL SWAP11 DUP12 ISZERO PUSH2 0x714 JUMPI DUP5 SWAP12 PUSH2 0x6DF JUMPI JUMPDEST POP PUSH1 0x2 SLOAD DUP10 MLOAD SWAP3 DUP4 MSTORE PUSH1 0x1 PUSH1 0x1 PUSH1 0xA0 SHL SUB SWAP2 SWAP1 SWAP2 AND DUP7 DUP4 ADD SWAP1 DUP2 MSTORE PUSH1 0x20 DUP2 ADD DUP9 SWAP1 MSTORE DUP9 SWAP2 DUP4 SWAP2 DUP3 SWAP1 SUB PUSH1 0x40 ADD SWAP1 DUP3 SWAP1 DUP8 SWAP1 DUP8 AND GAS CALL DUP1 ISZERO PUSH2 0x6D5 JUMPI SWAP2 PUSH1 0x64 SWAP4 SWAP2 DUP9 SWAP7 SWAP6 SWAP4 PUSH2 0x6A8 JUMPI JUMPDEST POP DUP1 DUP3 SLOAD AND SWAP1 PUSH1 0x2 SLOAD AND SWAP7 DUP10 MLOAD SWAP8 DUP9 SWAP7 DUP8 SWAP6 DUP7 MSTORE DUP6 ADD MSTORE PUSH1 0x24 DUP5 ADD MSTORE DUP2 PUSH1 0x44 DUP5 ADD MSTORE GAS CALL DUP1 ISZERO PUSH2 0x69E JUMPI PUSH2 0x671 JUMPI JUMPDEST POP POP MLOAD SWAP1 DUP2 MSTORE PUSH1 0x20 DUP2 ADD SWAP2 SWAP1 SWAP2 MSTORE PUSH1 0x40 DUP2 ADD SWAP2 SWAP1 SWAP2 MSTORE PUSH32 0x29DBC10802778113D7EF2CC5B0E39DF78EE79C93877CC9F792E9871FE116A8D9 SWAP1 DUP1 PUSH1 0x60 DUP2 ADD JUMPDEST SUB SWAP1 LOG1 DUP1 RETURN JUMPDEST DUP2 RETURNDATASIZE DUP4 GT PUSH2 0x697 JUMPI JUMPDEST PUSH2 0x684 DUP2 DUP4 PUSH2 0x108C JUMP JUMPDEST DUP2 ADD SUB SLT PUSH2 0x693 JUMPI CODESIZE DUP1 PUSH2 0x62D JUMP JUMPDEST DUP5 DUP1 REVERT JUMPDEST POP RETURNDATASIZE PUSH2 0x67A JUMP JUMPDEST DUP4 MLOAD RETURNDATASIZE DUP10 DUP3 RETURNDATACOPY RETURNDATASIZE SWAP1 REVERT JUMPDEST PUSH2 0x6C7 SWAP1 DUP8 RETURNDATASIZE DUP10 GT PUSH2 0x6CE JUMPI JUMPDEST PUSH2 0x6BF DUP2 DUP4 PUSH2 0x108C JUMP JUMPDEST DUP2 ADD SWAP1 PUSH2 0x1107 JUMP JUMPDEST POP CODESIZE PUSH2 0x5FE JUMP JUMPDEST POP RETURNDATASIZE PUSH2 0x6B5 JUMP JUMPDEST DUP9 MLOAD RETURNDATASIZE DUP6 DUP3 RETURNDATACOPY RETURNDATASIZE SWAP1 REVERT JUMPDEST SWAP2 SWAP1 SWAP11 POP DUP8 DUP3 DUP2 RETURNDATASIZE DUP4 GT PUSH2 0x70D JUMPI JUMPDEST PUSH2 0x6F8 DUP2 DUP4 PUSH2 0x108C JUMP JUMPDEST DUP2 ADD SUB SLT PUSH2 0x709 JUMPI SWAP1 MLOAD SWAP10 DUP7 PUSH2 0x5B5 JUMP JUMPDEST DUP4 DUP1 REVERT JUMPDEST POP RETURNDATASIZE PUSH2 0x6EE JUMP JUMPDEST DUP10 MLOAD RETURNDATASIZE DUP7 DUP3 RETURNDATACOPY RETURNDATASIZE SWAP1 REVERT JUMPDEST SWAP1 SWAP6 POP DUP7 DUP2 DUP2 RETURNDATASIZE DUP4 GT PUSH2 0x746 JUMPI JUMPDEST PUSH2 0x736 DUP2 DUP4 PUSH2 0x108C JUMP JUMPDEST DUP2 ADD SUB SLT PUSH2 0x319 JUMPI MLOAD SWAP5 CODESIZE PUSH2 0x596 JUMP JUMPDEST POP RETURNDATASIZE PUSH2 0x72C JUMP JUMPDEST PUSH2 0x763 SWAP1 DUP9 RETURNDATASIZE DUP11 GT PUSH2 0x6CE JUMPI PUSH2 0x6BF DUP2 DUP4 PUSH2 0x108C JUMP JUMPDEST POP CODESIZE PUSH2 0x556 JUMP JUMPDEST DUP9 MLOAD RETURNDATASIZE DUP9 DUP3 RETURNDATACOPY RETURNDATASIZE SWAP1 REVERT JUMPDEST SWAP1 SWAP8 POP DUP6 DUP2 DUP2 RETURNDATASIZE DUP4 GT PUSH2 0x79C JUMPI JUMPDEST PUSH2 0x78C DUP2 DUP4 PUSH2 0x108C JUMP JUMPDEST DUP2 ADD SUB SLT PUSH2 0x693 JUMPI MLOAD SWAP7 CODESIZE PUSH2 0x509 JUMP JUMPDEST POP RETURNDATASIZE PUSH2 0x782 JUMP JUMPDEST DUP8 MLOAD RETURNDATASIZE DUP8 DUP3 RETURNDATACOPY RETURNDATASIZE SWAP1 REVERT JUMPDEST POP POP DUP4 DUP2 DUP2 RETURNDATASIZE DUP4 GT PUSH2 0x7D7 JUMPI JUMPDEST PUSH2 0x7C4 DUP2 DUP4 PUSH2 0x108C JUMP JUMPDEST DUP2 ADD SUB SLT PUSH2 0x319 JUMPI DUP8 PUSH2 0x4E0 SWAP2 MLOAD PUSH2 0x4D4 JUMP JUMPDEST POP RETURNDATASIZE PUSH2 0x7BA JUMP JUMPDEST DUP6 MLOAD RETURNDATASIZE DUP6 DUP3 RETURNDATACOPY RETURNDATASIZE SWAP1 REVERT JUMPDEST DUP4 DUP3 CALLVALUE PUSH2 0x345 JUMPI DUP2 PUSH1 0x3 NOT CALLDATASIZE ADD SLT PUSH2 0x345 JUMPI PUSH1 0x20 SWAP1 PUSH1 0xFF PUSH1 0x2 SLOAD PUSH1 0xA0 SHR AND SWAP1 MLOAD SWAP1 ISZERO ISZERO DUP2 MSTORE RETURN JUMPDEST DUP4 DUP3 CALLVALUE PUSH2 0x345 JUMPI DUP2 PUSH1 0x3 NOT CALLDATASIZE ADD SLT PUSH2 0x345 JUMPI PUSH1 0x20 SWAP1 PUSH1 0x5 SLOAD SWAP1 MLOAD SWAP1 DUP2 MSTORE RETURN JUMPDEST DUP4 DUP3 CALLVALUE PUSH2 0x345 JUMPI DUP2 PUSH1 0x3 NOT CALLDATASIZE ADD SLT PUSH2 0x345 JUMPI PUSH1 0x2 SLOAD SWAP1 MLOAD PUSH1 0x1 PUSH1 0x1 PUSH1 0xA0 SHL SUB SWAP1 SWAP2 AND DUP2 MSTORE PUSH1 0x20 SWAP1 RETURN JUMPDEST DUP4 DUP3 CALLVALUE PUSH2 0x345 JUMPI DUP2 PUSH1 0x3 NOT CALLDATASIZE ADD SLT PUSH2 0x345 JUMPI PUSH1 0x20 SWAP1 PUSH1 0xFF PUSH1 0x6 SLOAD AND SWAP1 MLOAD SWAP1 ISZERO ISZERO DUP2 MSTORE RETURN JUMPDEST POP SWAP1 CALLVALUE PUSH2 0x319 JUMPI DUP3 PUSH1 0x3 NOT CALLDATASIZE ADD SLT PUSH2 0x319 JUMPI PUSH1 0x20 SWAP3 POP SLOAD SWAP1 MLOAD SWAP1 DUP2 MSTORE RETURN JUMPDEST POP CALLVALUE PUSH2 0x319 JUMPI PUSH1 0x20 SWAP2 DUP3 PUSH1 0x3 NOT CALLDATASIZE ADD SLT PUSH2 0x709 JUMPI PUSH1 0x1 SLOAD DUP3 MLOAD PUSH4 0x70A08231 PUSH1 0xE0 SHL DUP2 MSTORE ADDRESS DUP2 DUP5 ADD MSTORE DUP3 CALLDATALOAD SWAP3 PUSH1 0x1 PUSH1 0x1 PUSH1 0xA0 SHL SUB SWAP3 DUP8 SWAP3 SWAP1 DUP5 AND SWAP1 DUP8 DUP2 PUSH1 0x24 DUP2 DUP6 GAS STATICCALL DUP1 ISZERO PUSH2 0xB11 JUMPI DUP7 SWAP1 DUP6 SWAP1 PUSH2 0xAE0 JUMPI JUMPDEST PUSH2 0x8F6 SWAP3 POP LT ISZERO PUSH2 0x10C4 JUMP JUMPDEST DUP3 SLOAD DUP7 MLOAD PUSH4 0x95EA7B3 PUSH1 0xE0 SHL DUP1 DUP3 MSTORE SWAP2 DUP7 AND PUSH1 0x1 PUSH1 0x1 PUSH1 0xA0 SHL SUB AND DUP5 DUP3 ADD SWAP1 DUP2 MSTORE PUSH1 0xA DUP9 DIV PUSH1 0x20 DUP3 ADD DUP2 SWAP1 MSTORE SWAP7 SWAP3 SWAP4 DUP11 SWAP2 DUP4 SWAP2 SWAP1 DUP3 SWAP1 DUP10 SWAP1 DUP3 SWAP1 PUSH1 0x40 ADD SUB SWAP3 GAS CALL DUP1 ISZERO PUSH2 0xAD6 JUMPI SWAP1 DUP6 SWAP3 SWAP2 PUSH2 0xAB9 JUMPI JUMPDEST POP DUP1 DUP3 SLOAD AND SWAP3 DUP10 DUP3 PUSH1 0x1 SLOAD AND SWAP5 PUSH1 0x64 DUP12 MLOAD DUP1 SWAP10 DUP2 SWAP4 PUSH4 0x9F1D0F59 PUSH1 0xE0 SHL SWAP10 DUP11 DUP5 MSTORE DUP12 DUP5 ADD MSTORE DUP13 PUSH1 0x24 DUP5 ADD MSTORE DUP2 PUSH1 0x44 DUP5 ADD MSTORE GAS CALL SWAP6 DUP7 ISZERO PUSH2 0x38E JUMPI SWAP1 DUP11 SWAP2 DUP5 SWAP8 PUSH2 0xA86 JUMPI JUMPDEST POP PUSH1 0x2 SLOAD DUP5 SLOAD DUP12 MLOAD SWAP3 DUP4 MSTORE DUP5 AND PUSH1 0x1 PUSH1 0x1 PUSH1 0xA0 SHL SUB AND DUP8 DUP4 ADD SWAP1 DUP2 MSTORE PUSH1 0x20 DUP2 ADD DUP10 SWAP1 MSTORE SWAP2 SWAP3 SWAP2 DUP4 SWAP2 DUP6 AND SWAP1 DUP3 SWAP1 DUP8 SWAP1 DUP3 SWAP1 PUSH1 0x40 ADD JUMPDEST SUB SWAP3 GAS CALL DUP1 ISZERO PUSH2 0x38E JUMPI SWAP2 PUSH1 0x64 SWAP4 SWAP2 DUP12 SWAP7 SWAP6 SWAP4 PUSH2 0xA69 JUMPI JUMPDEST POP DUP1 DUP3 SLOAD AND SWAP1 PUSH1 0x2 SLOAD AND SWAP7 DUP11 MLOAD SWAP8 DUP9 SWAP7 DUP8 SWAP6 DUP7 MSTORE DUP6 ADD MSTORE PUSH1 0x24 DUP5 ADD MSTORE DUP2 PUSH1 0x44 DUP5 ADD MSTORE GAS CALL DUP1 ISZERO PUSH2 0xA5F JUMPI PUSH2 0xA35 JUMPI JUMPDEST POP PUSH32 0xD028DBF6EF633B66119D1483FD5BB0E37A4A633088BF278B00B48303D0AF7D06 SWAP4 DUP4 MLOAD SWAP3 DUP4 MSTORE DUP3 ADD MSTORE LOG1 DUP1 RETURN JUMPDEST DUP5 SWAP1 DUP2 RETURNDATASIZE DUP4 GT PUSH2 0xA58 JUMPI JUMPDEST PUSH2 0xA4A DUP2 DUP4 PUSH2 0x108C JUMP JUMPDEST DUP2 ADD SUB SLT PUSH2 0x693 JUMPI CODESIZE PUSH2 0xA06 JUMP JUMPDEST POP RETURNDATASIZE PUSH2 0xA40 JUMP JUMPDEST DUP5 MLOAD RETURNDATASIZE DUP9 DUP3 RETURNDATACOPY RETURNDATASIZE SWAP1 REVERT JUMPDEST PUSH2 0xA7F SWAP1 DUP8 RETURNDATASIZE DUP10 GT PUSH2 0x6CE JUMPI PUSH2 0x6BF DUP2 DUP4 PUSH2 0x108C JUMP JUMPDEST POP CODESIZE PUSH2 0x9D7 JUMP JUMPDEST DUP3 DUP2 SWAP4 SWAP3 SWAP9 POP RETURNDATASIZE DUP4 GT PUSH2 0xAB2 JUMPI JUMPDEST PUSH2 0xA9E DUP2 DUP4 PUSH2 0x108C JUMP JUMPDEST DUP2 ADD SUB SLT PUSH2 0x319 JUMPI MLOAD SWAP5 DUP10 SWAP1 PUSH2 0x9BF PUSH2 0x98A JUMP JUMPDEST POP RETURNDATASIZE PUSH2 0xA94 JUMP JUMPDEST PUSH2 0xACF SWAP1 DUP11 RETURNDATASIZE DUP13 GT PUSH2 0x6CE JUMPI PUSH2 0x6BF DUP2 DUP4 PUSH2 0x108C JUMP JUMPDEST POP CODESIZE PUSH2 0x946 JUMP JUMPDEST DUP9 MLOAD RETURNDATASIZE DUP8 DUP3 RETURNDATACOPY RETURNDATASIZE SWAP1 REVERT JUMPDEST POP POP DUP8 DUP2 DUP2 RETURNDATASIZE DUP4 GT PUSH2 0xB0A JUMPI JUMPDEST PUSH2 0xAF7 DUP2 DUP4 PUSH2 0x108C JUMP JUMPDEST DUP2 ADD SUB SLT PUSH2 0x709 JUMPI DUP6 PUSH2 0x8F6 SWAP2 MLOAD PUSH2 0x8EA JUMP JUMPDEST POP RETURNDATASIZE PUSH2 0xAED JUMP JUMPDEST DUP8 MLOAD RETURNDATASIZE DUP7 DUP3 RETURNDATACOPY RETURNDATASIZE SWAP1 REVERT JUMPDEST POP CALLVALUE PUSH2 0x319 JUMPI DUP3 PUSH1 0x3 NOT CALLDATASIZE ADD SLT PUSH2 0x319 JUMPI PUSH1 0x1 SLOAD DUP2 MLOAD PUSH4 0x70A08231 PUSH1 0xE0 SHL DUP1 DUP3 MSTORE ADDRESS DUP3 DUP7 ADD MSTORE PUSH1 0x1 PUSH1 0x1 PUSH1 0xA0 SHL SUB SWAP5 SWAP3 DUP6 AND SWAP3 PUSH1 0x20 SWAP1 DUP2 DUP5 PUSH1 0x24 DUP2 DUP9 GAS STATICCALL SWAP4 DUP5 ISZERO PUSH2 0xC37 JUMPI DUP9 SWAP5 PUSH2 0xC04 JUMPI JUMPDEST POP DUP2 SWAP1 PUSH1 0x24 DUP9 PUSH1 0x2 SLOAD AND SWAP5 DUP9 MLOAD SWAP6 DUP7 SWAP4 DUP5 SWAP3 DUP4 MSTORE ADDRESS SWAP1 DUP4 ADD MSTORE GAS STATICCALL SWAP5 DUP6 ISZERO PUSH2 0xBFB JUMPI POP DUP7 SWAP5 PUSH2 0xBCB JUMPI JUMPDEST POP POP DUP1 PUSH2 0xBB9 JUMPI JUMPDEST POP POP DUP1 PUSH2 0xBA4 JUMPI DUP3 DUP1 RETURN JUMPDEST PUSH2 0xBB3 SWAP2 PUSH1 0x2 SLOAD AND CALLER SWAP1 PUSH2 0x1142 JUMP JUMPDEST CODESIZE DUP1 DUP3 DUP1 RETURN JUMPDEST PUSH2 0xBC4 SWAP2 CALLER SWAP1 PUSH2 0x1142 JUMP JUMPDEST CODESIZE DUP1 PUSH2 0xB99 JUMP JUMPDEST SWAP1 DUP1 SWAP3 SWAP5 POP DUP2 RETURNDATASIZE DUP4 GT PUSH2 0xBF4 JUMPI JUMPDEST PUSH2 0xBE3 DUP2 DUP4 PUSH2 0x108C JUMP JUMPDEST DUP2 ADD SUB SLT PUSH2 0x693 JUMPI MLOAD SWAP2 CODESIZE DUP1 PUSH2 0xB91 JUMP JUMPDEST POP RETURNDATASIZE PUSH2 0xBD9 JUMP JUMPDEST MLOAD RETURNDATASIZE DUP9 DUP3 RETURNDATACOPY RETURNDATASIZE SWAP1 REVERT JUMPDEST SWAP1 SWAP4 POP DUP2 DUP2 DUP2 RETURNDATASIZE DUP4 GT PUSH2 0xC30 JUMPI JUMPDEST PUSH2 0xC1C DUP2 DUP4 PUSH2 0x108C JUMP JUMPDEST DUP2 ADD SUB SLT PUSH2 0xC2C JUMPI MLOAD SWAP3 DUP2 PUSH2 0xB67 JUMP JUMPDEST DUP8 DUP1 REVERT JUMPDEST POP RETURNDATASIZE PUSH2 0xC12 JUMP JUMPDEST DUP7 MLOAD RETURNDATASIZE DUP11 DUP3 RETURNDATACOPY RETURNDATASIZE SWAP1 REVERT JUMPDEST POP CALLVALUE PUSH2 0x319 JUMPI DUP3 PUSH1 0x3 NOT CALLDATASIZE ADD SLT PUSH2 0x319 JUMPI DUP3 SLOAD DUP2 MLOAD PUSH4 0x240BC6B PUSH1 0xE2 SHL DUP2 MSTORE PUSH1 0x1 PUSH1 0x1 PUSH1 0xA0 SHL SUB SWAP3 SWAP1 SWAP2 DUP4 AND DUP2 DUP4 DUP7 DUP2 DUP5 GAS STATICCALL SWAP4 DUP5 ISZERO PUSH2 0xE7F JUMPI DUP7 SWAP4 DUP8 SWAP6 PUSH2 0xE48 JUMPI JUMPDEST POP PUSH2 0xBB8 DUP1 DUP6 MUL SWAP1 DUP6 DUP3 DIV EQ DUP6 ISZERO OR ISZERO PUSH2 0xE35 JUMPI PUSH2 0x2710 SWAP1 DIV SWAP6 DUP2 PUSH1 0x1 SLOAD AND DUP5 MLOAD SWAP1 PUSH4 0x70A08231 PUSH1 0xE0 SHL DUP3 MSTORE ADDRESS DUP4 DUP4 ADD MSTORE PUSH1 0x20 SWAP5 DUP6 DUP4 PUSH1 0x24 DUP2 DUP6 GAS STATICCALL SWAP3 DUP4 ISZERO PUSH2 0x2E2 JUMPI SWAP2 DUP11 SWAP2 DUP8 SWAP4 DUP14 SWAP6 PUSH2 0xDF9 JUMPI JUMPDEST POP PUSH2 0xCE3 DUP4 PUSH2 0xD19 SWAP7 LT ISZERO PUSH2 0x10C4 JUMP JUMPDEST DUP9 MLOAD PUSH4 0x95EA7B3 PUSH1 0xE0 SHL DUP2 MSTORE PUSH1 0x1 PUSH1 0x1 PUSH1 0xA0 SHL SUB SWAP1 SWAP2 AND DUP7 DUP3 ADD SWAP1 DUP2 MSTORE PUSH1 0x20 DUP2 ADD SWAP4 SWAP1 SWAP4 MSTORE SWAP4 DUP5 SWAP3 DUP4 SWAP2 DUP15 SWAP2 DUP4 SWAP2 PUSH1 0x40 SWAP1 SWAP2 ADD SWAP1 JUMP JUMPDEST SUB SWAP3 GAS CALL DUP1 ISZERO PUSH2 0xDEF JUMPI SWAP1 DUP5 SWAP3 SWAP2 PUSH2 0xDD2 JUMPI JUMPDEST POP PUSH1 0x64 DUP4 DUP11 SLOAD AND SWAP4 PUSH1 0x1 SLOAD AND SWAP2 DUP11 DUP8 MLOAD SWAP6 DUP7 SWAP5 DUP6 SWAP4 PUSH4 0x9F1D0F59 PUSH1 0xE0 SHL DUP6 MSTORE DUP5 ADD MSTORE DUP12 PUSH1 0x24 DUP5 ADD MSTORE DUP2 PUSH1 0x44 DUP5 ADD MSTORE GAS CALL DUP1 ISZERO PUSH2 0x69E JUMPI PUSH2 0xDA9 JUMPI JUMPDEST POP POP MLOAD SWAP1 DUP2 MSTORE PUSH1 0x20 DUP2 ADD SWAP2 SWAP1 SWAP2 MSTORE PUSH1 0x40 DUP2 ADD SWAP2 SWAP1 SWAP2 MSTORE PUSH32 0xCEAF73C9237C9B992A109885A67F702143F2AF272AA119653C8264AB4E5E30CF SWAP1 DUP1 PUSH1 0x60 DUP2 ADD PUSH2 0x66B JUMP JUMPDEST DUP2 RETURNDATASIZE DUP4 GT PUSH2 0xDCB JUMPI JUMPDEST PUSH2 0xDBC DUP2 DUP4 PUSH2 0x108C JUMP JUMPDEST DUP2 ADD SUB SLT PUSH2 0x693 JUMPI CODESIZE DUP1 PUSH2 0xD67 JUMP JUMPDEST POP RETURNDATASIZE PUSH2 0xDB2 JUMP JUMPDEST PUSH2 0xDE8 SWAP1 DUP4 RETURNDATASIZE DUP6 GT PUSH2 0x6CE JUMPI PUSH2 0x6BF DUP2 DUP4 PUSH2 0x108C JUMP JUMPDEST POP CODESIZE PUSH2 0xD2C JUMP JUMPDEST DUP6 MLOAD RETURNDATASIZE DUP12 DUP3 RETURNDATACOPY RETURNDATASIZE SWAP1 REVERT JUMPDEST SWAP3 POP SWAP3 SWAP1 SWAP4 POP DUP2 DUP2 RETURNDATASIZE DUP4 GT PUSH2 0xE2E JUMPI JUMPDEST PUSH2 0xE13 DUP2 DUP4 PUSH2 0x108C JUMP JUMPDEST DUP2 ADD SUB SLT PUSH2 0xE2A JUMPI MLOAD SWAP2 DUP6 SWAP2 DUP11 SWAP2 SWAP1 PUSH2 0xCE3 PUSH2 0xCD3 JUMP JUMPDEST DUP11 DUP1 REVERT JUMPDEST POP RETURNDATASIZE PUSH2 0xE09 JUMP JUMPDEST PUSH4 0x4E487B71 PUSH1 0xE0 SHL DUP9 MSTORE PUSH1 0x11 DUP8 MSTORE PUSH1 0x24 DUP9 REVERT JUMPDEST DUP4 DUP1 SWAP3 SWAP7 POP DUP2 SWAP6 POP RETURNDATASIZE DUP4 GT PUSH2 0xE78 JUMPI JUMPDEST PUSH2 0xE62 DUP2 DUP4 PUSH2 0x108C JUMP JUMPDEST DUP2 ADD SUB SLT PUSH2 0x3DA JUMPI PUSH1 0x20 DUP4 MLOAD SWAP4 ADD MLOAD SWAP4 CODESIZE PUSH2 0xC84 JUMP JUMPDEST POP RETURNDATASIZE PUSH2 0xE58 JUMP JUMPDEST DUP3 MLOAD RETURNDATASIZE DUP9 DUP3 RETURNDATACOPY RETURNDATASIZE SWAP1 REVERT JUMPDEST DUP4 DUP3 CALLVALUE PUSH2 0x345 JUMPI DUP2 PUSH1 0x3 NOT CALLDATASIZE ADD SLT PUSH2 0x345 JUMPI SWAP1 SLOAD SWAP1 MLOAD PUSH1 0x1 PUSH1 0x1 PUSH1 0xA0 SHL SUB SWAP1 SWAP2 AND DUP2 MSTORE PUSH1 0x20 SWAP1 RETURN JUMPDEST POP SWAP1 CALLVALUE PUSH2 0x319 JUMPI DUP2 PUSH1 0x3 NOT CALLDATASIZE ADD SLT PUSH2 0x319 JUMPI DUP1 CALLDATALOAD PUSH1 0x1 PUSH1 0x1 PUSH1 0xA0 SHL SUB DUP2 DUP2 AND SWAP4 SWAP2 DUP5 SWAP1 SUB PUSH2 0x693 JUMPI DUP5 SLOAD AND CALLER SUB PUSH2 0xF39 JUMPI PUSH1 0xFF PUSH1 0x2 SLOAD PUSH1 0xA0 SHR AND ISZERO PUSH2 0xEFE JUMPI DUP4 PUSH2 0x41D PUSH1 0x24 CALLDATALOAD CALLER DUP7 PUSH2 0x1142 JUMP JUMPDEST SWAP1 PUSH1 0x20 PUSH1 0x64 SWAP3 MLOAD SWAP2 PUSH3 0x461BCD PUSH1 0xE5 SHL DUP4 MSTORE DUP3 ADD MSTORE PUSH1 0x15 PUSH1 0x24 DUP3 ADD MSTORE PUSH21 0x4E6F2061747461636B20696E2070726F6772657373 PUSH1 0x58 SHL PUSH1 0x44 DUP3 ADD MSTORE REVERT JUMPDEST SWAP1 PUSH1 0x20 PUSH1 0x64 SWAP3 MLOAD SWAP2 PUSH3 0x461BCD PUSH1 0xE5 SHL DUP4 MSTORE DUP3 ADD MSTORE PUSH1 0x12 PUSH1 0x24 DUP3 ADD MSTORE PUSH18 0x13DB9B1E481C1BDBDB0818D85B8818D85B1B PUSH1 0x72 SHL PUSH1 0x44 DUP3 ADD MSTORE REVERT JUMPDEST DUP4 DUP3 CALLVALUE PUSH2 0x345 JUMPI DUP2 PUSH1 0x3 NOT CALLDATASIZE ADD SLT PUSH2 0x345 JUMPI PUSH1 0x1 SLOAD SWAP1 MLOAD PUSH1 0x1 PUSH1 0x1 PUSH1 0xA0 SHL SUB SWAP1 SWAP2 AND DUP2 MSTORE PUSH1 0x20 SWAP1 RETURN JUMPDEST SWAP1 POP DUP4 DUP4 CALLVALUE PUSH2 0x345 JUMPI DUP2 PUSH1 0x3 NOT CALLDATASIZE ADD SLT PUSH2 0x345 JUMPI PUSH1 0x1 SLOAD PUSH4 0x70A08231 PUSH1 0xE0 SHL DUP1 DUP6 MSTORE ADDRESS DUP4 DUP7 ADD MSTORE PUSH1 0x20 SWAP3 SWAP1 SWAP2 PUSH1 0x1 PUSH1 0x1 PUSH1 0xA0 SHL SUB SWAP1 DUP5 SWAP1 DUP8 SWAP1 PUSH1 0x24 SWAP1 DUP3 SWAP1 DUP6 AND GAS STATICCALL SWAP6 DUP7 ISZERO PUSH2 0x7A3 JUMPI DUP6 SWAP7 PUSH2 0x105C JUMPI JUMPDEST POP SWAP1 PUSH1 0x24 DUP5 SWAP3 PUSH1 0x2 SLOAD AND SWAP4 DUP9 MLOAD SWAP5 DUP6 SWAP4 DUP5 SWAP3 DUP4 MSTORE ADDRESS SWAP1 DUP4 ADD MSTORE GAS STATICCALL SWAP3 DUP4 ISZERO PUSH2 0x1051 JUMPI DUP1 SWAP4 PUSH2 0x101F JUMPI JUMPDEST POP POP DUP4 MLOAD SWAP3 DUP4 MSTORE DUP3 ADD MSTORE RETURN JUMPDEST SWAP1 SWAP2 DUP1 SWAP4 POP DUP3 DUP2 RETURNDATASIZE DUP4 GT PUSH2 0x104A JUMPI JUMPDEST PUSH2 0x1038 DUP2 DUP4 PUSH2 0x108C JUMP JUMPDEST DUP2 ADD SUB SLT PUSH2 0x464 JUMPI POP MLOAD SWAP1 DUP5 DUP1 PUSH2 0x1013 JUMP JUMPDEST POP RETURNDATASIZE PUSH2 0x102E JUMP JUMPDEST DUP6 MLOAD SWAP1 RETURNDATASIZE SWAP1 DUP3 RETURNDATACOPY RETURNDATASIZE SWAP1 REVERT JUMPDEST SWAP1 SWAP6 POP DUP4 DUP2 DUP2 RETURNDATASIZE DUP4 GT PUSH2 0x1085 JUMPI JUMPDEST PUSH2 0x1074 DUP2 DUP4 PUSH2 0x108C JUMP JUMPDEST DUP2 ADD SUB SLT PUSH2 0x693 JUMPI MLOAD SWAP5 PUSH1 0x24 PUSH2 0xFEA JUMP JUMPDEST POP RETURNDATASIZE PUSH2 0x106A JUMP JUMPDEST SWAP1 PUSH1 0x1F DUP1 NOT SWAP2 ADD AND DUP2 ADD SWAP1 DUP2 LT PUSH8 0xFFFFFFFFFFFFFFFF DUP3 GT OR PUSH2 0x10AE JUMPI PUSH1 0x40 MSTORE JUMP JUMPDEST PUSH4 0x4E487B71 PUSH1 0xE0 SHL PUSH1 0x0 MSTORE PUSH1 0x41 PUSH1 0x4 MSTORE PUSH1 0x24 PUSH1 0x0 REVERT JUMPDEST ISZERO PUSH2 0x10CB JUMPI JUMP JUMPDEST PUSH1 0x40 MLOAD PUSH3 0x461BCD PUSH1 0xE5 SHL DUP2 MSTORE PUSH1 0x20 PUSH1 0x4 DUP3 ADD MSTORE PUSH1 0x14 PUSH1 0x24 DUP3 ADD MSTORE PUSH20 0x496E73756666696369656E742062616C616E6365 PUSH1 0x60 SHL PUSH1 0x44 DUP3 ADD MSTORE PUSH1 0x64 SWAP1 REVERT JUMPDEST SWAP1 DUP2 PUSH1 0x20 SWAP2 SUB SLT PUSH2 0x29E JUMPI MLOAD DUP1 ISZERO ISZERO DUP2 SUB PUSH2 0x29E JUMPI SWAP1 JUMP JUMPDEST SWAP2 SWAP1 DUP3 SUB SWAP2 DUP3 GT PUSH2 0x112C JUMPI JUMP JUMPDEST PUSH4 0x4E487B71 PUSH1 0xE0 SHL PUSH1 0x0 MSTORE PUSH1 0x11 PUSH1 0x4 MSTORE PUSH1 0x24 PUSH1 0x0 REVERT JUMPDEST PUSH1 0x40 MLOAD PUSH4 0xA9059CBB PUSH1 0xE0 SHL PUSH1 0x20 DUP3 ADD MSTORE PUSH1 0x1 PUSH1 0x1 PUSH1 0xA0 SHL SUB SWAP3 SWAP1 SWAP3 AND PUSH1 0x24 DUP4 ADD MSTORE PUSH1 0x44 DUP1 DUP4 ADD SWAP4 SWAP1 SWAP4 MSTORE SWAP2 DUP2 MSTORE PUSH2 0x1183 SWAP2 PUSH2 0x117E PUSH1 0x64 DUP4 PUSH2 0x108C JUMP JUMPDEST PUSH2 0x11DA JUMP JUMPDEST JUMP JUMPDEST PUSH1 0x40 MLOAD PUSH4 0x23B872DD PUSH1 0xE0 SHL PUSH1 0x20 DUP3 ADD MSTORE PUSH1 0x1 PUSH1 0x1 PUSH1 0xA0 SHL SUB SWAP3 DUP4 AND PUSH1 0x24 DUP3 ADD MSTORE SWAP3 SWAP1 SWAP2 AND PUSH1 0x44 DUP4 ADD MSTORE PUSH1 0x64 DUP1 DUP4 ADD SWAP4 SWAP1 SWAP4 MSTORE SWAP2 DUP2 MSTORE PUSH1 0xA0 DUP2 ADD SWAP2 DUP2 DUP4 LT PUSH8 0xFFFFFFFFFFFFFFFF DUP5 GT OR PUSH2 0x10AE JUMPI PUSH2 0x1183 SWAP3 PUSH1 0x40 MSTORE JUMPDEST SWAP1 PUSH1 0x0 PUSH1 0x20 SWAP2 DUP3 DUP2 MLOAD SWAP2 ADD DUP3 DUP6 GAS CALL ISZERO PUSH2 0x1236 JUMPI PUSH1 0x0 MLOAD RETURNDATASIZE PUSH2 0x122D JUMPI POP PUSH1 0x1 PUSH1 0x1 PUSH1 0xA0 SHL SUB DUP2 AND EXTCODESIZE ISZERO JUMPDEST PUSH2 0x120B JUMPI POP JUMP JUMPDEST PUSH1 0x40 MLOAD PUSH4 0x5274AFE7 PUSH1 0xE0 SHL DUP2 MSTORE PUSH1 0x1 PUSH1 0x1 PUSH1 0xA0 SHL SUB SWAP1 SWAP2 AND PUSH1 0x4 DUP3 ADD MSTORE PUSH1 0x24 SWAP1 REVERT JUMPDEST PUSH1 0x1 EQ ISZERO PUSH2 0x1204 JUMP JUMPDEST PUSH1 0x40 MLOAD RETURNDATASIZE PUSH1 0x0 DUP3 RETURNDATACOPY RETURNDATASIZE SWAP1 REVERT INVALID LOG2 PUSH5 0x6970667358 0x22 SLT KECCAK256 KECCAK256 BLOBHASH 0xB4 0xC0 MLOAD 0x28 0xDD 0x2A PUSH9 0xE6B80D28326C501778 0xB3 0xB8 0xEA PUSH8 0x876DCA7487C9CD76 0xDD SWAP16 PUSH5 0x736F6C6343 STOP ADDMOD XOR STOP CALLER "},"methodIdentifiers":{"attackInProgress()":"818c8c7c","deposit(uint256,uint256)":"e2bbb158","flashLoanAmount()":"73843962","flashLoanAttack(uint256,bool)":"ee31b5bc","getBalances()":"00113e08","getLastAttackProfit()":"dcb436e0","pool()":"16f0115b","priceManipulationAttack(uint256)":"8968461d","profitA()":"b8a53b83","profitB()":"479110b2","rebalanceManipulationAttack()":"1a11eddf","receiveFlashLoan(address,uint256)":"12badd6b","sandwichAttack(uint256)":"405af0c0","targetTokenA()":"5c973a3f","tokenA()":"0fc63d10","tokenB()":"5f64b55b","withdraw()":"3ccfd60b"}}}}}