{"contracts/DeFiLiquidityPool.sol":{"DeFiLiquidityPool":{"abi":[{"inputs":[{"internalType":"contract IERC20","name":"_tokenA","type":"address"},{"internalType":"contract IERC20","name":"_tokenB","type":"address"},{"internalType":"address","name":"_owner","type":"address"}],"stateMutability":"nonpayable","type":"constructor"},{"inputs":[],"name":"EnforcedPause","type":"error"},{"inputs":[],"name":"ExpectedPause","type":"error"},{"inputs":[{"internalType":"address","name":"owner","type":"address"}],"name":"OwnableInvalidOwner","type":"error"},{"inputs":[{"internalType":"address","name":"account","type":"address"}],"name":"OwnableUnauthorizedAccount","type":"error"},{"inputs":[],"name":"ReentrancyGuardReentrantCall","type":"error"},{"inputs":[{"internalType":"address","name":"token","type":"address"}],"name":"SafeERC20FailedOperation","type":"error"},{"anonymous":false,"inputs":[{"indexed":false,"internalType":"uint256","name":"newFeeRate","type":"uint256"}],"name":"DynamicFeeUpdated","type":"event"},{"anonymous":false,"inputs":[],"name":"EmergencyModeActivated","type":"event"},{"anonymous":false,"inputs":[{"indexed":true,"internalType":"address","name":"provider","type":"address"},{"indexed":false,"internalType":"uint256","name":"amountA","type":"uint256"},{"indexed":false,"internalType":"uint256","name":"amountB","type":"uint256"},{"indexed":false,"internalType":"uint256","name":"liquidity","type":"uint256"}],"name":"LiquidityAdded","type":"event"},{"anonymous":false,"inputs":[{"indexed":true,"internalType":"address","name":"provider","type":"address"},{"indexed":false,"internalType":"uint256","name":"amountA","type":"uint256"},{"indexed":false,"internalType":"uint256","name":"amountB","type":"uint256"},{"indexed":false,"internalType":"uint256","name":"liquidity","type":"uint256"}],"name":"LiquidityRemoved","type":"event"},{"anonymous":false,"inputs":[{"indexed":false,"internalType":"uint256","name":"newPrice","type":"uint256"}],"name":"OraclePriceUpdated","type":"event"},{"anonymous":false,"inputs":[{"indexed":true,"internalType":"address","name":"previousOwner","type":"address"},{"indexed":true,"internalType":"address","name":"newOwner","type":"address"}],"name":"OwnershipTransferred","type":"event"},{"anonymous":false,"inputs":[{"indexed":false,"internalType":"address","name":"account","type":"address"}],"name":"Paused","type":"event"},{"anonymous":false,"inputs":[{"indexed":false,"internalType":"uint256","name":"newReserveA","type":"uint256"},{"indexed":false,"internalType":"uint256","name":"newReserveB","type":"uint256"}],"name":"RebalanceTriggered","type":"event"},{"anonymous":false,"inputs":[{"indexed":true,"internalType":"address","name":"user","type":"address"},{"indexed":false,"internalType":"address","name":"tokenIn","type":"address"},{"indexed":false,"internalType":"address","name":"tokenOut","type":"address"},{"indexed":false,"internalType":"uint256","name":"amountIn","type":"uint256"},{"indexed":false,"internalType":"uint256","name":"amountOut","type":"uint256"}],"name":"Swap","type":"event"},{"anonymous":false,"inputs":[{"indexed":false,"internalType":"address","name":"account","type":"address"}],"name":"Unpaused","type":"event"},{"inputs":[],"name":"FEE_DENOMINATOR","outputs":[{"internalType":"uint256","name":"","type":"uint256"}],"stateMutability":"view","type":"function"},{"inputs":[],"name":"MINIMUM_LIQUIDITY","outputs":[{"internalType":"uint256","name":"","type":"uint256"}],"stateMutability":"view","type":"function"},{"inputs":[],"name":"accumulatedFeesA","outputs":[{"internalType":"uint256","name":"","type":"uint256"}],"stateMutability":"view","type":"function"},{"inputs":[],"name":"accumulatedFeesB","outputs":[{"internalType":"uint256","name":"","type":"uint256"}],"stateMutability":"view","type":"function"},{"inputs":[],"name":"activateEmergencyMode","outputs":[],"stateMutability":"nonpayable","type":"function"},{"inputs":[{"internalType":"uint256","name":"amountA","type":"uint256"},{"internalType":"uint256","name":"amountB","type":"uint256"},{"internalType":"uint256","name":"minLiquidity","type":"uint256"}],"name":"addLiquidity","outputs":[{"internalType":"uint256","name":"liquidity","type":"uint256"}],"stateMutability":"nonpayable","type":"function"},{"inputs":[],"name":"dynamicFeeRate","outputs":[{"internalType":"uint256","name":"","type":"uint256"}],"stateMutability":"view","type":"function"},{"inputs":[],"name":"emergencyMode","outputs":[{"internalType":"bool","name":"","type":"bool"}],"stateMutability":"view","type":"function"},{"inputs":[{"internalType":"uint256","name":"amount","type":"uint256"},{"internalType":"bool","name":"isTokenA","type":"bool"}],"name":"flashLoan","outputs":[],"stateMutability":"nonpayable","type":"function"},{"inputs":[],"name":"frontRunProtectionBlocks","outputs":[{"internalType":"uint256","name":"","type":"uint256"}],"stateMutability":"view","type":"function"},{"inputs":[{"internalType":"uint256","name":"amountIn","type":"uint256"},{"internalType":"bool","name":"isTokenA","type":"bool"}],"name":"getAmountOut","outputs":[{"internalType":"uint256","name":"amountOut","type":"uint256"}],"stateMutability":"view","type":"function"},{"inputs":[],"name":"getCurrentPrice","outputs":[{"internalType":"uint256","name":"price","type":"uint256"}],"stateMutability":"view","type":"function"},{"inputs":[],"name":"getReserves","outputs":[{"internalType":"uint256","name":"_reserveA","type":"uint256"},{"internalType":"uint256","name":"_reserveB","type":"uint256"}],"stateMutability":"view","type":"function"},{"inputs":[{"internalType":"address","name":"user","type":"address"}],"name":"getUserInfo","outputs":[{"internalType":"uint256","name":"liquidityBalance","type":"uint256"},{"internalType":"uint256","name":"sharePercentage","type":"uint256"},{"internalType":"uint256","name":"estimatedValueA","type":"uint256"},{"internalType":"uint256","name":"estimatedValueB","type":"uint256"}],"stateMutability":"view","type":"function"},{"inputs":[],"name":"lastRebalanceTime","outputs":[{"internalType":"uint256","name":"","type":"uint256"}],"stateMutability":"view","type":"function"},{"inputs":[{"internalType":"address","name":"","type":"address"}],"name":"lastTransactionBlock","outputs":[{"internalType":"uint256","name":"","type":"uint256"}],"stateMutability":"view","type":"function"},{"inputs":[{"internalType":"address","name":"","type":"address"}],"name":"liquidityTokens","outputs":[{"internalType":"uint256","name":"","type":"uint256"}],"stateMutability":"view","type":"function"},{"inputs":[],"name":"maxSlippageProtection","outputs":[{"internalType":"uint256","name":"","type":"uint256"}],"stateMutability":"view","type":"function"},{"inputs":[],"name":"oraclePrice","outputs":[{"internalType":"uint256","name":"","type":"uint256"}],"stateMutability":"view","type":"function"},{"inputs":[],"name":"oraclePriceLastUpdate","outputs":[{"internalType":"uint256","name":"","type":"uint256"}],"stateMutability":"view","type":"function"},{"inputs":[],"name":"owner","outputs":[{"internalType":"address","name":"","type":"address"}],"stateMutability":"view","type":"function"},{"inputs":[],"name":"pause","outputs":[],"stateMutability":"nonpayable","type":"function"},{"inputs":[],"name":"paused","outputs":[{"internalType":"bool","name":"","type":"bool"}],"stateMutability":"view","type":"function"},{"inputs":[],"name":"rebalanceInterval","outputs":[{"internalType":"uint256","name":"","type":"uint256"}],"stateMutability":"view","type":"function"},{"inputs":[],"name":"rebalanceThreshold","outputs":[{"internalType":"uint256","name":"","type":"uint256"}],"stateMutability":"view","type":"function"},{"inputs":[{"internalType":"uint256","name":"liquidity","type":"uint256"},{"internalType":"uint256","name":"minAmountA","type":"uint256"},{"internalType":"uint256","name":"minAmountB","type":"uint256"}],"name":"removeLiquidity","outputs":[{"internalType":"uint256","name":"amountA","type":"uint256"},{"internalType":"uint256","name":"amountB","type":"uint256"}],"stateMutability":"nonpayable","type":"function"},{"inputs":[],"name":"renounceOwnership","outputs":[],"stateMutability":"nonpayable","type":"function"},{"inputs":[],"name":"reserveA","outputs":[{"internalType":"uint256","name":"","type":"uint256"}],"stateMutability":"view","type":"function"},{"inputs":[],"name":"reserveB","outputs":[{"internalType":"uint256","name":"","type":"uint256"}],"stateMutability":"view","type":"function"},{"inputs":[{"internalType":"uint256","name":"_maxSlippage","type":"uint256"},{"internalType":"uint256","name":"_frontRunBlocks","type":"uint256"}],"name":"setMEVProtection","outputs":[],"stateMutability":"nonpayable","type":"function"},{"inputs":[{"internalType":"address","name":"tokenIn","type":"address"},{"internalType":"uint256","name":"amountIn","type":"uint256"},{"internalType":"uint256","name":"minAmountOut","type":"uint256"}],"name":"swap","outputs":[{"internalType":"uint256","name":"amountOut","type":"uint256"}],"stateMutability":"nonpayable","type":"function"},{"inputs":[],"name":"tokenA","outputs":[{"internalType":"contract IERC20","name":"","type":"address"}],"stateMutability":"view","type":"function"},{"inputs":[],"name":"tokenB","outputs":[{"internalType":"contract IERC20","name":"","type":"address"}],"stateMutability":"view","type":"function"},{"inputs":[],"name":"totalLiquidityTokens","outputs":[{"internalType":"uint256","name":"","type":"uint256"}],"stateMutability":"view","type":"function"},{"inputs":[{"internalType":"address","name":"newOwner","type":"address"}],"name":"transferOwnership","outputs":[],"stateMutability":"nonpayable","type":"function"},{"inputs":[],"name":"unpause","outputs":[],"stateMutability":"nonpayable","type":"function"},{"inputs":[{"internalType":"uint256","name":"_newPrice","type":"uint256"}],"name":"updateOraclePrice","outputs":[],"stateMutability":"nonpayable","type":"function"},{"inputs":[],"name":"withdrawFees","outputs":[],"stateMutability":"nonpayable","type":"function"}],"evm":{"bytecode":{"linkReferences":{},"object":"60c0346200029257601f6200216138819003918201601f191683019291906001600160401b038411838510176200029757816060928492604096875283398101031262000292576200005181620002ad565b826200006060208401620002ad565b9201516001600160a01b03808216918290036200029257600160005581156200027a57600180546001600160a01b0319811684179091558551929082167f8be0079c531659141344cd1fd0a4f28419497f9722a3daafe3b4186f6b6457e0600080a3601e6006556107d080600755600855610e10600a556000600c55670de0b6b3a7640000600f558083169182156200023857508316908115620001f45714620001b05760805260a052426009554260105551611e9e9081620002c382396080518181816103a6015281816103fa01528181610426015281816104b50152818161087a01528181610de0015281816112d8015281816113670152611753015260a0518181816105910152818161063b01528181610672015281816106ea015281816109e601528181610a1b01528181610c3c01528181610e0b015281816111710152818161129e01526113930152f35b825162461bcd60e51b815260206004820152601860248201527f546f6b656e73206d75737420626520646966666572656e7400000000000000006044820152606490fd5b845162461bcd60e51b815260206004820152601d60248201527f546f6b656e422063616e6e6f74206265207a65726f20616464726573730000006044820152606490fd5b62461bcd60e51b815260206004820152601d60248201527f546f6b656e412063616e6e6f74206265207a65726f20616464726573730000006044820152606490fd5b8451631e4fbdf760e01b815260006004820152602490fd5b600080fd5b634e487b7160e01b600052604160045260246000fd5b51906001600160a01b0382168203620002925756fe6080604081815260048036101561001557600080fd5b600092833560e01c9081630902f1ac146117a6575080630905f560146117825780630fc63d101461173e57806311106ee2146116c357806316d1d916146116a457806319e36f3b146116855780631bfd77ab146116665780631cb4a351146116495780633dfe9f6a1461162a5780633f4ba83a146115bb578063422f104314611321578063455d48f514611302578063476343ee146112535780635c975abb1461122c5780635ead3c5d146111a05780635f64b55b1461115c57806362b80f2f146111365780636386c1c714611077578063668aa824146110585780637105c19f14611039578063715018a614610fdc5780638456cb5914610f7b578063857620e114610d265780638da5cb5b14610cfd578063909feb7114610cc55780639f1d0f5914610803578063a7076038146107cb578063b81b8c9a146107ac578063ba9a7a561461078f578063c8787f4014610369578063d009601014610319578063d73792a9146102fc578063d9c018f2146102dd578063d9ca21d5146102be578063dc5fa6c51461029f578063df463ef114610280578063eb91d37e146102585763f2fde38b146101c557600080fd5b34610254576020366003190112610254576101de611803565b906101e7611a9e565b6001600160a01b0391821692831561023e575050600154826bffffffffffffffffffffffff60a01b821617600155167f8be0079c531659141344cd1fd0a4f28419497f9722a3daafe3b4186f6b6457e0600080a380f35b51631e4fbdf760e01b8152908101849052602490fd5b8280fd5b50503461027c578160031936011261027c57602090610275611980565b9051908152f35b5080fd5b50503461027c578160031936011261027c57602090600c549051908152f35b50503461027c578160031936011261027c576020906002549051908152f35b50503461027c578160031936011261027c576020906009549051908152f35b50503461027c578160031936011261027c576020906006549051908152f35b50503461027c578160031936011261027c57602090516127108152f35b8334610366578060031936011261036657610332611a9e565b600160ff1960115416176011557f9e91804b7b70a36dcecd9afc85507eb02441c485502f58d0e68589aa50b8226a8180a180f35b80fd5b50903461025457610379366117ca565b610381611aca565b811561075b5780156106d15782516370a0823160e01b815230858201526020816024817f00000000000000000000000000000000000000000000000000000000000000006001600160a01b03165afa90811561062f57869161069b575b50915b6103ed818410156118f6565b811561066b5761041e81337f0000000000000000000000000000000000000000000000000000000000000000611b69565b8115610639577f00000000000000000000000000000000000000000000000000000000000000006001600160a01b03169086905b333b1561027c5785516312badd6b60e01b81526001600160a01b03909316878401908152602081019190915282908190604001038183335af1801561062f57610601575b50156105785781516370a0823160e01b815230848201526020816024817f00000000000000000000000000000000000000000000000000000000000000006001600160a01b03165afa90811561056e578591610537575b505b106104fc57826001815580f35b906020606492519162461bcd60e51b83528201526015602482015274119b185cda081b1bd85b881b9bdd081c995c185a59605a1b6044820152fd5b90506020813d602011610566575b8161055260209383611948565b810103126105615751386104ed565b600080fd5b3d9150610545565b83513d87823e3d90fd5b81516370a0823160e01b815230848201526020816024817f00000000000000000000000000000000000000000000000000000000000000006001600160a01b03165afa90811561056e5785916105cf575b506104ef565b90506020813d6020116105f9575b816105ea60209383611948565b810103126105615751386105c9565b3d91506105dd565b67ffffffffffffffff819692961161061c5783529338610496565b634e487b7160e01b825260418552602482fd5b84513d88823e3d90fd5b7f00000000000000000000000000000000000000000000000000000000000000006001600160a01b0316908690610452565b61069681337f0000000000000000000000000000000000000000000000000000000000000000611b69565b61041e565b90506020813d6020116106c9575b816106b660209383611948565b810103126106c55751386103de565b8580fd5b3d91506106a9565b82516370a0823160e01b815230858201526020816024817f00000000000000000000000000000000000000000000000000000000000000006001600160a01b03165afa90811561062f578691610729575b50916103e1565b90506020813d602011610753575b8161074460209383611948565b810103126106c5575138610722565b3d9150610737565b825162461bcd60e51b8152602081860152600e60248201526d125b9d985b1a5908185b5bdd5b9d60921b6044820152606490fd5b50503461027c578160031936011261027c57602090516103e88152f35b50503461027c578160031936011261027c576020906010549051908152f35b50503461027c57602036600319011261027c5760209181906001600160a01b036107f3611803565b168152600b845220549051908152f35b5082346103665760603660031901126103665761081e611803565b92602491823594604495610830611aca565b610838611aed565b61084760ff60115416156118b2565b600c5480610c63575b50338352602095600b8752438585205561086b821515611819565b6001600160a01b0392831692907f0000000000000000000000000000000000000000000000000000000000000000828116918583149190828015610c38575b15610c07576108b7611980565b9b600f54809d818111600014610bf857906108d19161185c565b9c5b6127108e819f8202918183041490151715610be657906108f291611892565b605a810290808204605a1490151715610bd4576103e89004600a0180600a11610bd45760648111610bcc575b8c6006548203610b99575b50508315610b90576002549a5b8415610b87576003548e5b6006548103908111610b75578f8e839161095e610964948e61187f565b046119ba565b9c8d843511610b32578d15610af7579061097e918a611baa565b60075410610abe5750505088600198999a9b61099c8730338b611b0e565b6109a86006548861187f565b04918315610a825750506109be90600d5461193b565b600d556109cd8460025461193b565b6002556109dc8960035461185c565b600355610a0a89337f0000000000000000000000000000000000000000000000000000000000000000611b69565b610a12611cf5565b15610a7d5750807f0000000000000000000000000000000000000000000000000000000000000000165b86519384521687830152848201528460608201527fcd3829a3813dc3cdd188fd3d01dcf3268c16be2fdd2dd21d0665418816e4606260803392a25551908152f35b610a3c565b610a91610ab993600e5461193b565b600e55610aa08760035461193b565b600355610aaf8260025461185c565b6002553390611b69565b610a0a565b8a5162461bcd60e51b81529283018d9052601590830152740a0e4d2c6ca40d2dae0c2c6e840e8dede40d0d2ced605b1b90820152606490fd5b50508a5162461bcd60e51b81529283018d905260159083015274125b9d985b1a59081bdd5d1c1d5d08185b5bdd5b9d605a1b90820152606490fd5b50508a5162461bcd60e51b81529283018d9052601a908301527f496e73756666696369656e74206f757470757420616d6f756e7400000000000090820152606490fd5b634e487b7160e01b8c5260118552828cfd5b6002548e610941565b6003549a610936565b817ffa47afdd18075c920714af4959c00b4efbc9e0f219ec97a064cc9a654eeea7e4926006558c51908152a18d8c610929565b50606461091e565b634e487b7160e01b8a52601183528b8afd5b634e487b7160e01b8b52601184528c8bfd5b610c019161185c565b9c6108d3565b885162461bcd60e51b81529081018b9052600d818b01526c24b73b30b634b2103a37b5b2b760991b818d0152606490fd5b50847f00000000000000000000000000000000000000000000000000000000000000001687146108aa565b610c7890338552600b6020528585205461193b565b4310610c845787610850565b835162461bcd60e51b8152602081880152601b818701527f46726f6e742d72756e2070726f74656374696f6e20616374697665000000000081890152606490fd5b50503461027c57602036600319011261027c5760209181906001600160a01b03610ced611803565b1681526005845220549051908152f35b50503461027c578160031936011261027c5760015490516001600160a01b039091168152602090f35b50823461036657610d36366117e9565b9391610d43939193611aca565b8015610f385733825260209260058452818784205410610ef557805495610d85610d7888610d736002548761187f565b611892565b97610d736003548661187f565b958710610eba578510610e7f57906001929133835260058552878320610dac83825461185c565b9055610db982825461185c565b9055610dc78660025461185c565b600255610dd68560035461185c565b600355610e0486337f0000000000000000000000000000000000000000000000000000000000000000611b69565b610e2f85337f0000000000000000000000000000000000000000000000000000000000000000611b69565b7f1dc8bb69df2b8e91fbdcbfcf93d951b3f0000f085a95fe3f7946d6161439245d875180610e713394898b846040919493926060820195825260208201520152565b0390a2558351928352820152f35b865162461bcd60e51b8152908101849052601560248201527424b739bab33334b1b4b2b73a1030b6b7bab73a102160591b6044820152606490fd5b875162461bcd60e51b81528083018690526015602482015274496e73756666696369656e7420616d6f756e74204160581b6044820152606490fd5b865162461bcd60e51b8152908101849052601d60248201527f496e73756666696369656e74206c697175696469747920746f6b656e730000006044820152606490fd5b855162461bcd60e51b8152602081850152601860248201527f496e76616c6964206c697175696469747920616d6f756e7400000000000000006044820152606490fd5b50503461027c578160031936011261027c5760207f62e78cea01bee320cd4e420270b5ea74000d11b0c9f74754ebdbfc544b05a25891610fb9611a9e565b610fc1611aed565b6001805460ff60a01b1916600160a01b17905551338152a180f35b8334610366578060031936011261036657610ff5611a9e565b600180546001600160a01b0319811690915581906001600160a01b03167f8be0079c531659141344cd1fd0a4f28419497f9722a3daafe3b4186f6b6457e08280a380f35b50503461027c578160031936011261027c57602090600e549051908152f35b50503461027c578160031936011261027c57602090600f549051908152f35b5091903461027c57602036600319011261027c57611093611803565b6001600160a01b0316825260056020528082205483549092918291829081816110d1575b505060809550815194855260208501528301526060820152f35b92945092505061271090818502918583041485151715611123575060809450816110fa91611892565b9161111b61110e83610d736002548861187f565b92610d736003548761187f565b9238806110b7565b634e487b7160e01b815260118652602490fd5b5090346102545736600319011261027c5761114f611a9e565b35600755602435600c5580f35b50503461027c578160031936011261027c57517f00000000000000000000000000000000000000000000000000000000000000006001600160a01b03168152602090f35b509034610254576020366003190112610254578135916111be611a9e565b82156111fa5750816020917f7511727d12158492a54f0c0225028e98b629e19d0d6a25f54b842b70ea624bce93600f554260105551908152a180f35b6020606492519162461bcd60e51b8352820152600d60248201526c496e76616c696420707269636560981b6044820152fd5b50503461027c578160031936011261027c5760209060ff60015460a01c1690519015158152f35b833461036657806003193601126103665761126c611a9e565b600d54600e549082600d5582600e55806112c5575b508061128b575080f35b6001546112c291906001600160a01b03167f0000000000000000000000000000000000000000000000000000000000000000611b69565b80f35b6001546112fc91906001600160a01b03167f0000000000000000000000000000000000000000000000000000000000000000611b69565b82611281565b50503461027c578160031936011261027c57602090600d549051908152f35b50823461036657611331366117e9565b9361133a611aca565b611342611aed565b61135160ff60115416156118b2565b821515806115b2575b1561157d5761138b8330337f0000000000000000000000000000000000000000000000000000000000000000611b0e565b6113b78230337f0000000000000000000000000000000000000000000000000000000000000000611b0e565b80548061153a57506113c9828461187f565b84600382111561152c5750806001908060011c600181018091116115195791905b8383106114f9575050505b6103e71981019081116114e657946103e882555b85106114a357917f64b83944e79c3ce8d4c297411de637c3e102d064677aac0c163976ebdcd6f50e8560209795936001956114458315156118f6565b33865260058a5287862061145a84825461193b565b905561146783825461193b565b90556114758460025461193b565b6002556114848160035461193b565b6003558651938452602084015260408301523391606090a25551908152f35b606490602087519162461bcd60e51b8352820152601d60248201527f496e73756666696369656e74206c6971756964697479206d696e7465640000006044820152fd5b634e487b7160e01b855260118252602485fd5b909192506115108361150b8184611892565b61193b565b821c91906113ea565b634e487b7160e01b885260118552602488fd5b90156113f5575060016113f5565b61156661155d61155661154d848861187f565b60025490611892565b928561187f565b60035490611892565b8082101561157657505b94611409565b9050611570565b606490602087519162461bcd60e51b8352820152600f60248201526e496e76616c696420616d6f756e747360881b6044820152fd5b5081151561135a565b50346102545782600319360112610254576115d4611a9e565b6001549060ff8260a01c161561161c575060ff60a01b1916600155513381527f5db9ee0a495bf2e6ff9c91a7834c1ba4fdd244a5e8aa4e537bd38aeae4b073aa90602090a180f35b8251638dfc202b60e01b8152fd5b50503461027c578160031936011261027c576020906008549051908152f35b503461025457826003193601126102545760209250549051908152f35b50503461027c578160031936011261027c576020906007549051908152f35b50503461027c578160031936011261027c576020906003549051908152f35b50503461027c578160031936011261027c57602090600a549051908152f35b509134610366576116d3366117ca565b906116df811515611819565b811561173557600254915b1561172c57600354925b60065491612710928303918383116117195760208761027588888861095e898961187f565b634e487b7160e01b815260118852602490fd5b600254926116f4565b600354916116ea565b50503461027c578160031936011261027c57517f00000000000000000000000000000000000000000000000000000000000000006001600160a01b03168152602090f35b50503461027c578160031936011261027c5760209060ff6011541690519015158152f35b83908534610366578060031936011261036657506002546003549082526020820152f35b6040906003190112610561576004359060243580151581036105615790565b606090600319011261056157600435906024359060443590565b600435906001600160a01b038216820361056157565b1561182057565b60405162461bcd60e51b8152602060048201526014602482015273125b9d985b1a59081a5b9c1d5d08185b5bdd5b9d60621b6044820152606490fd5b9190820391821161186957565b634e487b7160e01b600052601160045260246000fd5b8181029291811591840414171561186957565b811561189c570490565b634e487b7160e01b600052601260045260246000fd5b156118b957565b60405162461bcd60e51b8152602060048201526015602482015274456d657267656e6379206d6f64652061637469766560581b6044820152606490fd5b156118fd57565b60405162461bcd60e51b8152602060048201526016602482015275496e73756666696369656e74206c697175696469747960501b6044820152606490fd5b9190820180921161186957565b90601f8019910116810190811067ffffffffffffffff82111761196a57604052565b634e487b7160e01b600052604160045260246000fd5b60035480156119b35760025490670de0b6b3a764000091828102928184041490151715611869576119b091611892565b90565b50600f5490565b918215611a485781151580611a3f575b156119ec57826119e06119e6926119b09561187f565b9261193b565b90611892565b60405162461bcd60e51b815260206004820152602560248201527f4c69717569646974794d6174683a20494e53554646494349454e545f4c495155604482015264494449545960d81b6064820152608490fd5b508015156119ca565b60405162461bcd60e51b815260206004820152602860248201527f4c69717569646974794d6174683a20494e53554646494349454e545f494e50556044820152671517d05353d5539560c21b6064820152608490fd5b6001546001600160a01b03163303611ab257565b60405163118cdaa760e01b8152336004820152602490fd5b600260005414611adb576002600055565b604051633ee5aeb560e01b8152600490fd5b60ff60015460a01c16611afc57565b60405163d93c066560e01b8152600490fd5b6040516323b872dd60e01b60208201526001600160a01b03928316602482015292909116604483015260648083019390935291815260a081019181831067ffffffffffffffff84111761196a57611b6792604052611e00565b565b60405163a9059cbb60e01b60208201526001600160a01b03929092166024830152604480830193909352918152611b6791611ba5606483611948565b611e00565b9190918015611cb05782151580611ca7575b15611c6257670de0b6b3a7640000918281029080820484148115171561186957611bfe81611bed87611c0495611892565b96611bf8868261193b565b956119ba565b9061185c565b918215611c58578083029283040361186957611c1f91611892565b81808210611c4e57611c309161185c565b9061271091828102928184041490151715611869576119b091611892565b90611c309161185c565b5050505061271090565b60405162461bcd60e51b815260206004820152601f60248201527f4c69717569646974794d6174683a20494e56414c49445f5245534552564553006044820152606490fd5b50811515611bbc565b60405162461bcd60e51b815260206004820152601d60248201527f4c69717569646974794d6174683a20494e56414c49445f414d4f554e540000006044820152606490fd5b611d04600954600a549061193b565b4210611b6757600254670de0b6b3a7640000908181029181830481148215171561186957611d356003548094611892565b81811115611df157670de0b6b3a763ffff19810190811161186957905b6008548082029182040361186957612710900410611d6e575050565b81611ddc82611dd2611da37f62f3780234ccfc6503993e1d970863448f907aa096ac573c8dc09692652d535d9660409661193b565b600a611dcb8682611dc487611db8848261193b565b60011c9660011c61185c565b049361185c565b049261193b565b928360025561193b565b806003554260095582519182526020820152a1565b81038181116118695790611d52565b906000602091828151910182855af115611e5c576000513d611e5357506001600160a01b0381163b155b611e315750565b604051635274afe760e01b81526001600160a01b039091166004820152602490fd5b60011415611e2a565b6040513d6000823e3d90fdfea2646970667358221220eefab7e07b04dd792ce3a00fb8cfce405daf316e6ac6ba494edcdcb5a853338964736f6c63430008180033","opcodes":"PUSH1 0xC0 CALLVALUE PUSH3 0x292 JUMPI PUSH1 0x1F PUSH3 0x2161 CODESIZE DUP2 SWAP1 SUB SWAP2 DUP3 ADD PUSH1 0x1F NOT AND DUP4 ADD SWAP3 SWAP2 SWAP1 PUSH1 0x1 PUSH1 0x1 PUSH1 0x40 SHL SUB DUP5 GT DUP4 DUP6 LT OR PUSH3 0x297 JUMPI DUP2 PUSH1 0x60 SWAP3 DUP5 SWAP3 PUSH1 0x40 SWAP7 DUP8 MSTORE DUP4 CODECOPY DUP2 ADD SUB SLT PUSH3 0x292 JUMPI PUSH3 0x51 DUP2 PUSH3 0x2AD JUMP JUMPDEST DUP3 PUSH3 0x60 PUSH1 0x20 DUP5 ADD PUSH3 0x2AD JUMP JUMPDEST SWAP3 ADD MLOAD PUSH1 0x1 PUSH1 0x1 PUSH1 0xA0 SHL SUB DUP1 DUP3 AND SWAP2 DUP3 SWAP1 SUB PUSH3 0x292 JUMPI PUSH1 0x1 PUSH1 0x0 SSTORE DUP2 ISZERO PUSH3 0x27A JUMPI PUSH1 0x1 DUP1 SLOAD PUSH1 0x1 PUSH1 0x1 PUSH1 0xA0 SHL SUB NOT DUP2 AND DUP5 OR SWAP1 SWAP2 SSTORE DUP6 MLOAD SWAP3 SWAP1 DUP3 AND PUSH32 0x8BE0079C531659141344CD1FD0A4F28419497F9722A3DAAFE3B4186F6B6457E0 PUSH1 0x0 DUP1 LOG3 PUSH1 0x1E PUSH1 0x6 SSTORE PUSH2 0x7D0 DUP1 PUSH1 0x7 SSTORE PUSH1 0x8 SSTORE PUSH2 0xE10 PUSH1 0xA SSTORE PUSH1 0x0 PUSH1 0xC SSTORE PUSH8 0xDE0B6B3A7640000 PUSH1 0xF SSTORE DUP1 DUP4 AND SWAP2 DUP3 ISZERO PUSH3 0x238 JUMPI POP DUP4 AND SWAP1 DUP2 ISZERO PUSH3 0x1F4 JUMPI EQ PUSH3 0x1B0 JUMPI PUSH1 0x80 MSTORE PUSH1 0xA0 MSTORE TIMESTAMP PUSH1 0x9 SSTORE TIMESTAMP PUSH1 0x10 SSTORE MLOAD PUSH2 0x1E9E SWAP1 DUP2 PUSH3 0x2C3 DUP3 CODECOPY PUSH1 0x80 MLOAD DUP2 DUP2 DUP2 PUSH2 0x3A6 ADD MSTORE DUP2 DUP2 PUSH2 0x3FA ADD MSTORE DUP2 DUP2 PUSH2 0x426 ADD MSTORE DUP2 DUP2 PUSH2 0x4B5 ADD MSTORE DUP2 DUP2 PUSH2 0x87A ADD MSTORE DUP2 DUP2 PUSH2 0xDE0 ADD MSTORE DUP2 DUP2 PUSH2 0x12D8 ADD MSTORE DUP2 DUP2 PUSH2 0x1367 ADD MSTORE PUSH2 0x1753 ADD MSTORE PUSH1 0xA0 MLOAD DUP2 DUP2 DUP2 PUSH2 0x591 ADD MSTORE DUP2 DUP2 PUSH2 0x63B ADD MSTORE DUP2 DUP2 PUSH2 0x672 ADD MSTORE DUP2 DUP2 PUSH2 0x6EA ADD MSTORE DUP2 DUP2 PUSH2 0x9E6 ADD MSTORE DUP2 DUP2 PUSH2 0xA1B ADD MSTORE DUP2 DUP2 PUSH2 0xC3C ADD MSTORE DUP2 DUP2 PUSH2 0xE0B ADD MSTORE DUP2 DUP2 PUSH2 0x1171 ADD MSTORE DUP2 DUP2 PUSH2 0x129E ADD MSTORE PUSH2 0x1393 ADD MSTORE RETURN JUMPDEST DUP3 MLOAD PUSH3 0x461BCD PUSH1 0xE5 SHL DUP2 MSTORE PUSH1 0x20 PUSH1 0x4 DUP3 ADD MSTORE PUSH1 0x18 PUSH1 0x24 DUP3 ADD MSTORE PUSH32 0x546F6B656E73206D75737420626520646966666572656E740000000000000000 PUSH1 0x44 DUP3 ADD MSTORE PUSH1 0x64 SWAP1 REVERT JUMPDEST DUP5 MLOAD PUSH3 0x461BCD PUSH1 0xE5 SHL DUP2 MSTORE PUSH1 0x20 PUSH1 0x4 DUP3 ADD MSTORE PUSH1 0x1D PUSH1 0x24 DUP3 ADD MSTORE PUSH32 0x546F6B656E422063616E6E6F74206265207A65726F2061646472657373000000 PUSH1 0x44 DUP3 ADD MSTORE PUSH1 0x64 SWAP1 REVERT JUMPDEST PUSH3 0x461BCD PUSH1 0xE5 SHL DUP2 MSTORE PUSH1 0x20 PUSH1 0x4 DUP3 ADD MSTORE PUSH1 0x1D PUSH1 0x24 DUP3 ADD MSTORE PUSH32 0x546F6B656E412063616E6E6F74206265207A65726F2061646472657373000000 PUSH1 0x44 DUP3 ADD MSTORE PUSH1 0x64 SWAP1 REVERT JUMPDEST DUP5 MLOAD PUSH4 0x1E4FBDF7 PUSH1 0xE0 SHL DUP2 MSTORE PUSH1 0x0 PUSH1 0x4 DUP3 ADD MSTORE PUSH1 0x24 SWAP1 REVERT JUMPDEST PUSH1 0x0 DUP1 REVERT JUMPDEST PUSH4 0x4E487B71 PUSH1 0xE0 SHL PUSH1 0x0 MSTORE PUSH1 0x41 PUSH1 0x4 MSTORE PUSH1 0x24 PUSH1 0x0 REVERT JUMPDEST MLOAD SWAP1 PUSH1 0x1 PUSH1 0x1 PUSH1 0xA0 SHL SUB DUP3 AND DUP3 SUB PUSH3 0x292 JUMPI JUMP INVALID PUSH1 0x80 PUSH1 0x40 DUP2 DUP2 MSTORE PUSH1 0x4 DUP1 CALLDATASIZE LT ISZERO PUSH2 0x15 JUMPI PUSH1 0x0 DUP1 REVERT JUMPDEST PUSH1 0x0 SWAP3 DUP4 CALLDATALOAD PUSH1 0xE0 SHR SWAP1 DUP2 PUSH4 0x902F1AC EQ PUSH2 0x17A6 JUMPI POP DUP1 PUSH4 0x905F560 EQ PUSH2 0x1782 JUMPI DUP1 PUSH4 0xFC63D10 EQ PUSH2 0x173E JUMPI DUP1 PUSH4 0x11106EE2 EQ PUSH2 0x16C3 JUMPI DUP1 PUSH4 0x16D1D916 EQ PUSH2 0x16A4 JUMPI DUP1 PUSH4 0x19E36F3B EQ PUSH2 0x1685 JUMPI DUP1 PUSH4 0x1BFD77AB EQ PUSH2 0x1666 JUMPI DUP1 PUSH4 0x1CB4A351 EQ PUSH2 0x1649 JUMPI DUP1 PUSH4 0x3DFE9F6A EQ PUSH2 0x162A JUMPI DUP1 PUSH4 0x3F4BA83A EQ PUSH2 0x15BB JUMPI DUP1 PUSH4 0x422F1043 EQ PUSH2 0x1321 JUMPI DUP1 PUSH4 0x455D48F5 EQ PUSH2 0x1302 JUMPI DUP1 PUSH4 0x476343EE EQ PUSH2 0x1253 JUMPI DUP1 PUSH4 0x5C975ABB EQ PUSH2 0x122C JUMPI DUP1 PUSH4 0x5EAD3C5D EQ PUSH2 0x11A0 JUMPI DUP1 PUSH4 0x5F64B55B EQ PUSH2 0x115C JUMPI DUP1 PUSH4 0x62B80F2F EQ PUSH2 0x1136 JUMPI DUP1 PUSH4 0x6386C1C7 EQ PUSH2 0x1077 JUMPI DUP1 PUSH4 0x668AA824 EQ PUSH2 0x1058 JUMPI DUP1 PUSH4 0x7105C19F EQ PUSH2 0x1039 JUMPI DUP1 PUSH4 0x715018A6 EQ PUSH2 0xFDC JUMPI DUP1 PUSH4 0x8456CB59 EQ PUSH2 0xF7B JUMPI DUP1 PUSH4 0x857620E1 EQ PUSH2 0xD26 JUMPI DUP1 PUSH4 0x8DA5CB5B EQ PUSH2 0xCFD JUMPI DUP1 PUSH4 0x909FEB71 EQ PUSH2 0xCC5 JUMPI DUP1 PUSH4 0x9F1D0F59 EQ PUSH2 0x803 JUMPI DUP1 PUSH4 0xA7076038 EQ PUSH2 0x7CB JUMPI DUP1 PUSH4 0xB81B8C9A EQ PUSH2 0x7AC JUMPI DUP1 PUSH4 0xBA9A7A56 EQ PUSH2 0x78F JUMPI DUP1 PUSH4 0xC8787F40 EQ PUSH2 0x369 JUMPI DUP1 PUSH4 0xD0096010 EQ PUSH2 0x319 JUMPI DUP1 PUSH4 0xD73792A9 EQ PUSH2 0x2FC JUMPI DUP1 PUSH4 0xD9C018F2 EQ PUSH2 0x2DD JUMPI DUP1 PUSH4 0xD9CA21D5 EQ PUSH2 0x2BE JUMPI DUP1 PUSH4 0xDC5FA6C5 EQ PUSH2 0x29F JUMPI DUP1 PUSH4 0xDF463EF1 EQ PUSH2 0x280 JUMPI DUP1 PUSH4 0xEB91D37E EQ PUSH2 0x258 JUMPI PUSH4 0xF2FDE38B EQ PUSH2 0x1C5 JUMPI PUSH1 0x0 DUP1 REVERT JUMPDEST CALLVALUE PUSH2 0x254 JUMPI PUSH1 0x20 CALLDATASIZE PUSH1 0x3 NOT ADD SLT PUSH2 0x254 JUMPI PUSH2 0x1DE PUSH2 0x1803 JUMP JUMPDEST SWAP1 PUSH2 0x1E7 PUSH2 0x1A9E JUMP JUMPDEST PUSH1 0x1 PUSH1 0x1 PUSH1 0xA0 SHL SUB SWAP2 DUP3 AND SWAP3 DUP4 ISZERO PUSH2 0x23E JUMPI POP POP PUSH1 0x1 SLOAD DUP3 PUSH12 0xFFFFFFFFFFFFFFFFFFFFFFFF PUSH1 0xA0 SHL DUP3 AND OR PUSH1 0x1 SSTORE AND PUSH32 0x8BE0079C531659141344CD1FD0A4F28419497F9722A3DAAFE3B4186F6B6457E0 PUSH1 0x0 DUP1 LOG3 DUP1 RETURN JUMPDEST MLOAD PUSH4 0x1E4FBDF7 PUSH1 0xE0 SHL DUP2 MSTORE SWAP1 DUP2 ADD DUP5 SWAP1 MSTORE PUSH1 0x24 SWAP1 REVERT JUMPDEST DUP3 DUP1 REVERT JUMPDEST POP POP CALLVALUE PUSH2 0x27C JUMPI DUP2 PUSH1 0x3 NOT CALLDATASIZE ADD SLT PUSH2 0x27C JUMPI PUSH1 0x20 SWAP1 PUSH2 0x275 PUSH2 0x1980 JUMP JUMPDEST SWAP1 MLOAD SWAP1 DUP2 MSTORE RETURN JUMPDEST POP DUP1 REVERT JUMPDEST POP POP CALLVALUE PUSH2 0x27C JUMPI DUP2 PUSH1 0x3 NOT CALLDATASIZE ADD SLT PUSH2 0x27C JUMPI PUSH1 0x20 SWAP1 PUSH1 0xC SLOAD SWAP1 MLOAD SWAP1 DUP2 MSTORE RETURN JUMPDEST POP POP CALLVALUE PUSH2 0x27C JUMPI DUP2 PUSH1 0x3 NOT CALLDATASIZE ADD SLT PUSH2 0x27C JUMPI PUSH1 0x20 SWAP1 PUSH1 0x2 SLOAD SWAP1 MLOAD SWAP1 DUP2 MSTORE RETURN JUMPDEST POP POP CALLVALUE PUSH2 0x27C JUMPI DUP2 PUSH1 0x3 NOT CALLDATASIZE ADD SLT PUSH2 0x27C JUMPI PUSH1 0x20 SWAP1 PUSH1 0x9 SLOAD SWAP1 MLOAD SWAP1 DUP2 MSTORE RETURN JUMPDEST POP POP CALLVALUE PUSH2 0x27C JUMPI DUP2 PUSH1 0x3 NOT CALLDATASIZE ADD SLT PUSH2 0x27C JUMPI PUSH1 0x20 SWAP1 PUSH1 0x6 SLOAD SWAP1 MLOAD SWAP1 DUP2 MSTORE RETURN JUMPDEST POP POP CALLVALUE PUSH2 0x27C JUMPI DUP2 PUSH1 0x3 NOT CALLDATASIZE ADD SLT PUSH2 0x27C JUMPI PUSH1 0x20 SWAP1 MLOAD PUSH2 0x2710 DUP2 MSTORE RETURN JUMPDEST DUP4 CALLVALUE PUSH2 0x366 JUMPI DUP1 PUSH1 0x3 NOT CALLDATASIZE ADD SLT PUSH2 0x366 JUMPI PUSH2 0x332 PUSH2 0x1A9E JUMP JUMPDEST PUSH1 0x1 PUSH1 0xFF NOT PUSH1 0x11 SLOAD AND OR PUSH1 0x11 SSTORE PUSH32 0x9E91804B7B70A36DCECD9AFC85507EB02441C485502F58D0E68589AA50B8226A DUP2 DUP1 LOG1 DUP1 RETURN JUMPDEST DUP1 REVERT JUMPDEST POP SWAP1 CALLVALUE PUSH2 0x254 JUMPI PUSH2 0x379 CALLDATASIZE PUSH2 0x17CA JUMP JUMPDEST PUSH2 0x381 PUSH2 0x1ACA JUMP JUMPDEST DUP2 ISZERO PUSH2 0x75B JUMPI DUP1 ISZERO PUSH2 0x6D1 JUMPI DUP3 MLOAD PUSH4 0x70A08231 PUSH1 0xE0 SHL DUP2 MSTORE ADDRESS DUP6 DUP3 ADD MSTORE PUSH1 0x20 DUP2 PUSH1 0x24 DUP2 PUSH32 0x0 PUSH1 0x1 PUSH1 0x1 PUSH1 0xA0 SHL SUB AND GAS STATICCALL SWAP1 DUP2 ISZERO PUSH2 0x62F JUMPI DUP7 SWAP2 PUSH2 0x69B JUMPI JUMPDEST POP SWAP2 JUMPDEST PUSH2 0x3ED DUP2 DUP5 LT ISZERO PUSH2 0x18F6 JUMP JUMPDEST DUP2 ISZERO PUSH2 0x66B JUMPI PUSH2 0x41E DUP2 CALLER PUSH32 0x0 PUSH2 0x1B69 JUMP JUMPDEST DUP2 ISZERO PUSH2 0x639 JUMPI PUSH32 0x0 PUSH1 0x1 PUSH1 0x1 PUSH1 0xA0 SHL SUB AND SWAP1 DUP7 SWAP1 JUMPDEST CALLER EXTCODESIZE ISZERO PUSH2 0x27C JUMPI DUP6 MLOAD PUSH4 0x12BADD6B PUSH1 0xE0 SHL DUP2 MSTORE PUSH1 0x1 PUSH1 0x1 PUSH1 0xA0 SHL SUB SWAP1 SWAP4 AND DUP8 DUP5 ADD SWAP1 DUP2 MSTORE PUSH1 0x20 DUP2 ADD SWAP2 SWAP1 SWAP2 MSTORE DUP3 SWAP1 DUP2 SWAP1 PUSH1 0x40 ADD SUB DUP2 DUP4 CALLER GAS CALL DUP1 ISZERO PUSH2 0x62F JUMPI PUSH2 0x601 JUMPI JUMPDEST POP ISZERO PUSH2 0x578 JUMPI DUP2 MLOAD PUSH4 0x70A08231 PUSH1 0xE0 SHL DUP2 MSTORE ADDRESS DUP5 DUP3 ADD MSTORE PUSH1 0x20 DUP2 PUSH1 0x24 DUP2 PUSH32 0x0 PUSH1 0x1 PUSH1 0x1 PUSH1 0xA0 SHL SUB AND GAS STATICCALL SWAP1 DUP2 ISZERO PUSH2 0x56E JUMPI DUP6 SWAP2 PUSH2 0x537 JUMPI JUMPDEST POP JUMPDEST LT PUSH2 0x4FC JUMPI DUP3 PUSH1 0x1 DUP2 SSTORE DUP1 RETURN JUMPDEST SWAP1 PUSH1 0x20 PUSH1 0x64 SWAP3 MLOAD SWAP2 PUSH3 0x461BCD PUSH1 0xE5 SHL DUP4 MSTORE DUP3 ADD MSTORE PUSH1 0x15 PUSH1 0x24 DUP3 ADD MSTORE PUSH21 0x119B185CDA081B1BD85B881B9BDD081C995C185A59 PUSH1 0x5A SHL PUSH1 0x44 DUP3 ADD MSTORE REVERT JUMPDEST SWAP1 POP PUSH1 0x20 DUP2 RETURNDATASIZE PUSH1 0x20 GT PUSH2 0x566 JUMPI JUMPDEST DUP2 PUSH2 0x552 PUSH1 0x20 SWAP4 DUP4 PUSH2 0x1948 JUMP JUMPDEST DUP2 ADD SUB SLT PUSH2 0x561 JUMPI MLOAD CODESIZE PUSH2 0x4ED JUMP JUMPDEST PUSH1 0x0 DUP1 REVERT JUMPDEST RETURNDATASIZE SWAP2 POP PUSH2 0x545 JUMP JUMPDEST DUP4 MLOAD RETURNDATASIZE DUP8 DUP3 RETURNDATACOPY RETURNDATASIZE SWAP1 REVERT JUMPDEST DUP2 MLOAD PUSH4 0x70A08231 PUSH1 0xE0 SHL DUP2 MSTORE ADDRESS DUP5 DUP3 ADD MSTORE PUSH1 0x20 DUP2 PUSH1 0x24 DUP2 PUSH32 0x0 PUSH1 0x1 PUSH1 0x1 PUSH1 0xA0 SHL SUB AND GAS STATICCALL SWAP1 DUP2 ISZERO PUSH2 0x56E JUMPI DUP6 SWAP2 PUSH2 0x5CF JUMPI JUMPDEST POP PUSH2 0x4EF JUMP JUMPDEST SWAP1 POP PUSH1 0x20 DUP2 RETURNDATASIZE PUSH1 0x20 GT PUSH2 0x5F9 JUMPI JUMPDEST DUP2 PUSH2 0x5EA PUSH1 0x20 SWAP4 DUP4 PUSH2 0x1948 JUMP JUMPDEST DUP2 ADD SUB SLT PUSH2 0x561 JUMPI MLOAD CODESIZE PUSH2 0x5C9 JUMP JUMPDEST RETURNDATASIZE SWAP2 POP PUSH2 0x5DD JUMP JUMPDEST PUSH8 0xFFFFFFFFFFFFFFFF DUP2 SWAP7 SWAP3 SWAP7 GT PUSH2 0x61C JUMPI DUP4 MSTORE SWAP4 CODESIZE PUSH2 0x496 JUMP JUMPDEST PUSH4 0x4E487B71 PUSH1 0xE0 SHL DUP3 MSTORE PUSH1 0x41 DUP6 MSTORE PUSH1 0x24 DUP3 REVERT JUMPDEST DUP5 MLOAD RETURNDATASIZE DUP9 DUP3 RETURNDATACOPY RETURNDATASIZE SWAP1 REVERT JUMPDEST PUSH32 0x0 PUSH1 0x1 PUSH1 0x1 PUSH1 0xA0 SHL SUB AND SWAP1 DUP7 SWAP1 PUSH2 0x452 JUMP JUMPDEST PUSH2 0x696 DUP2 CALLER PUSH32 0x0 PUSH2 0x1B69 JUMP JUMPDEST PUSH2 0x41E JUMP JUMPDEST SWAP1 POP PUSH1 0x20 DUP2 RETURNDATASIZE PUSH1 0x20 GT PUSH2 0x6C9 JUMPI JUMPDEST DUP2 PUSH2 0x6B6 PUSH1 0x20 SWAP4 DUP4 PUSH2 0x1948 JUMP JUMPDEST DUP2 ADD SUB SLT PUSH2 0x6C5 JUMPI MLOAD CODESIZE PUSH2 0x3DE JUMP JUMPDEST DUP6 DUP1 REVERT JUMPDEST RETURNDATASIZE SWAP2 POP PUSH2 0x6A9 JUMP JUMPDEST DUP3 MLOAD PUSH4 0x70A08231 PUSH1 0xE0 SHL DUP2 MSTORE ADDRESS DUP6 DUP3 ADD MSTORE PUSH1 0x20 DUP2 PUSH1 0x24 DUP2 PUSH32 0x0 PUSH1 0x1 PUSH1 0x1 PUSH1 0xA0 SHL SUB AND GAS STATICCALL SWAP1 DUP2 ISZERO PUSH2 0x62F JUMPI DUP7 SWAP2 PUSH2 0x729 JUMPI JUMPDEST POP SWAP2 PUSH2 0x3E1 JUMP JUMPDEST SWAP1 POP PUSH1 0x20 DUP2 RETURNDATASIZE PUSH1 0x20 GT PUSH2 0x753 JUMPI JUMPDEST DUP2 PUSH2 0x744 PUSH1 0x20 SWAP4 DUP4 PUSH2 0x1948 JUMP JUMPDEST DUP2 ADD SUB SLT PUSH2 0x6C5 JUMPI MLOAD CODESIZE PUSH2 0x722 JUMP JUMPDEST RETURNDATASIZE SWAP2 POP PUSH2 0x737 JUMP JUMPDEST DUP3 MLOAD PUSH3 0x461BCD PUSH1 0xE5 SHL DUP2 MSTORE PUSH1 0x20 DUP2 DUP7 ADD MSTORE PUSH1 0xE PUSH1 0x24 DUP3 ADD MSTORE PUSH14 0x125B9D985B1A5908185B5BDD5B9D PUSH1 0x92 SHL PUSH1 0x44 DUP3 ADD MSTORE PUSH1 0x64 SWAP1 REVERT JUMPDEST POP POP CALLVALUE PUSH2 0x27C JUMPI DUP2 PUSH1 0x3 NOT CALLDATASIZE ADD SLT PUSH2 0x27C JUMPI PUSH1 0x20 SWAP1 MLOAD PUSH2 0x3E8 DUP2 MSTORE RETURN JUMPDEST POP POP CALLVALUE PUSH2 0x27C JUMPI DUP2 PUSH1 0x3 NOT CALLDATASIZE ADD SLT PUSH2 0x27C JUMPI PUSH1 0x20 SWAP1 PUSH1 0x10 SLOAD SWAP1 MLOAD SWAP1 DUP2 MSTORE RETURN JUMPDEST POP POP CALLVALUE PUSH2 0x27C JUMPI PUSH1 0x20 CALLDATASIZE PUSH1 0x3 NOT ADD SLT PUSH2 0x27C JUMPI PUSH1 0x20 SWAP2 DUP2 SWAP1 PUSH1 0x1 PUSH1 0x1 PUSH1 0xA0 SHL SUB PUSH2 0x7F3 PUSH2 0x1803 JUMP JUMPDEST AND DUP2 MSTORE PUSH1 0xB DUP5 MSTORE KECCAK256 SLOAD SWAP1 MLOAD SWAP1 DUP2 MSTORE RETURN JUMPDEST POP DUP3 CALLVALUE PUSH2 0x366 JUMPI PUSH1 0x60 CALLDATASIZE PUSH1 0x3 NOT ADD SLT PUSH2 0x366 JUMPI PUSH2 0x81E PUSH2 0x1803 JUMP JUMPDEST SWAP3 PUSH1 0x24 SWAP2 DUP3 CALLDATALOAD SWAP5 PUSH1 0x44 SWAP6 PUSH2 0x830 PUSH2 0x1ACA JUMP JUMPDEST PUSH2 0x838 PUSH2 0x1AED JUMP JUMPDEST PUSH2 0x847 PUSH1 0xFF PUSH1 0x11 SLOAD AND ISZERO PUSH2 0x18B2 JUMP JUMPDEST PUSH1 0xC SLOAD DUP1 PUSH2 0xC63 JUMPI JUMPDEST POP CALLER DUP4 MSTORE PUSH1 0x20 SWAP6 PUSH1 0xB DUP8 MSTORE NUMBER DUP6 DUP6 KECCAK256 SSTORE PUSH2 0x86B DUP3 ISZERO ISZERO PUSH2 0x1819 JUMP JUMPDEST PUSH1 0x1 PUSH1 0x1 PUSH1 0xA0 SHL SUB SWAP3 DUP4 AND SWAP3 SWAP1 PUSH32 0x0 DUP3 DUP2 AND SWAP2 DUP6 DUP4 EQ SWAP2 SWAP1 DUP3 DUP1 ISZERO PUSH2 0xC38 JUMPI JUMPDEST ISZERO PUSH2 0xC07 JUMPI PUSH2 0x8B7 PUSH2 0x1980 JUMP JUMPDEST SWAP12 PUSH1 0xF SLOAD DUP1 SWAP14 DUP2 DUP2 GT PUSH1 0x0 EQ PUSH2 0xBF8 JUMPI SWAP1 PUSH2 0x8D1 SWAP2 PUSH2 0x185C JUMP JUMPDEST SWAP13 JUMPDEST PUSH2 0x2710 DUP15 DUP2 SWAP16 DUP3 MUL SWAP2 DUP2 DUP4 DIV EQ SWAP1 ISZERO OR ISZERO PUSH2 0xBE6 JUMPI SWAP1 PUSH2 0x8F2 SWAP2 PUSH2 0x1892 JUMP JUMPDEST PUSH1 0x5A DUP2 MUL SWAP1 DUP1 DUP3 DIV PUSH1 0x5A EQ SWAP1 ISZERO OR ISZERO PUSH2 0xBD4 JUMPI PUSH2 0x3E8 SWAP1 DIV PUSH1 0xA ADD DUP1 PUSH1 0xA GT PUSH2 0xBD4 JUMPI PUSH1 0x64 DUP2 GT PUSH2 0xBCC JUMPI JUMPDEST DUP13 PUSH1 0x6 SLOAD DUP3 SUB PUSH2 0xB99 JUMPI JUMPDEST POP POP DUP4 ISZERO PUSH2 0xB90 JUMPI PUSH1 0x2 SLOAD SWAP11 JUMPDEST DUP5 ISZERO PUSH2 0xB87 JUMPI PUSH1 0x3 SLOAD DUP15 JUMPDEST PUSH1 0x6 SLOAD DUP2 SUB SWAP1 DUP2 GT PUSH2 0xB75 JUMPI DUP16 DUP15 DUP4 SWAP2 PUSH2 0x95E PUSH2 0x964 SWAP5 DUP15 PUSH2 0x187F JUMP JUMPDEST DIV PUSH2 0x19BA JUMP JUMPDEST SWAP13 DUP14 DUP5 CALLDATALOAD GT PUSH2 0xB32 JUMPI DUP14 ISZERO PUSH2 0xAF7 JUMPI SWAP1 PUSH2 0x97E SWAP2 DUP11 PUSH2 0x1BAA JUMP JUMPDEST PUSH1 0x7 SLOAD LT PUSH2 0xABE JUMPI POP POP POP DUP9 PUSH1 0x1 SWAP9 SWAP10 SWAP11 SWAP12 PUSH2 0x99C DUP8 ADDRESS CALLER DUP12 PUSH2 0x1B0E JUMP JUMPDEST PUSH2 0x9A8 PUSH1 0x6 SLOAD DUP9 PUSH2 0x187F JUMP JUMPDEST DIV SWAP2 DUP4 ISZERO PUSH2 0xA82 JUMPI POP POP PUSH2 0x9BE SWAP1 PUSH1 0xD SLOAD PUSH2 0x193B JUMP JUMPDEST PUSH1 0xD SSTORE PUSH2 0x9CD DUP5 PUSH1 0x2 SLOAD PUSH2 0x193B JUMP JUMPDEST PUSH1 0x2 SSTORE PUSH2 0x9DC DUP10 PUSH1 0x3 SLOAD PUSH2 0x185C JUMP JUMPDEST PUSH1 0x3 SSTORE PUSH2 0xA0A DUP10 CALLER PUSH32 0x0 PUSH2 0x1B69 JUMP JUMPDEST PUSH2 0xA12 PUSH2 0x1CF5 JUMP JUMPDEST ISZERO PUSH2 0xA7D JUMPI POP DUP1 PUSH32 0x0 AND JUMPDEST DUP7 MLOAD SWAP4 DUP5 MSTORE AND DUP8 DUP4 ADD MSTORE DUP5 DUP3 ADD MSTORE DUP5 PUSH1 0x60 DUP3 ADD MSTORE PUSH32 0xCD3829A3813DC3CDD188FD3D01DCF3268C16BE2FDD2DD21D0665418816E46062 PUSH1 0x80 CALLER SWAP3 LOG2 SSTORE MLOAD SWAP1 DUP2 MSTORE RETURN JUMPDEST PUSH2 0xA3C JUMP JUMPDEST PUSH2 0xA91 PUSH2 0xAB9 SWAP4 PUSH1 0xE SLOAD PUSH2 0x193B JUMP JUMPDEST PUSH1 0xE SSTORE PUSH2 0xAA0 DUP8 PUSH1 0x3 SLOAD PUSH2 0x193B JUMP JUMPDEST PUSH1 0x3 SSTORE PUSH2 0xAAF DUP3 PUSH1 0x2 SLOAD PUSH2 0x185C JUMP JUMPDEST PUSH1 0x2 SSTORE CALLER SWAP1 PUSH2 0x1B69 JUMP JUMPDEST PUSH2 0xA0A JUMP JUMPDEST DUP11 MLOAD PUSH3 0x461BCD PUSH1 0xE5 SHL DUP2 MSTORE SWAP3 DUP4 ADD DUP14 SWAP1 MSTORE PUSH1 0x15 SWAP1 DUP4 ADD MSTORE PUSH21 0xA0E4D2C6CA40D2DAE0C2C6E840E8DEDE40D0D2CED PUSH1 0x5B SHL SWAP1 DUP3 ADD MSTORE PUSH1 0x64 SWAP1 REVERT JUMPDEST POP POP DUP11 MLOAD PUSH3 0x461BCD PUSH1 0xE5 SHL DUP2 MSTORE SWAP3 DUP4 ADD DUP14 SWAP1 MSTORE PUSH1 0x15 SWAP1 DUP4 ADD MSTORE PUSH21 0x125B9D985B1A59081BDD5D1C1D5D08185B5BDD5B9D PUSH1 0x5A SHL SWAP1 DUP3 ADD MSTORE PUSH1 0x64 SWAP1 REVERT JUMPDEST POP POP DUP11 MLOAD PUSH3 0x461BCD PUSH1 0xE5 SHL DUP2 MSTORE SWAP3 DUP4 ADD DUP14 SWAP1 MSTORE PUSH1 0x1A SWAP1 DUP4 ADD MSTORE PUSH32 0x496E73756666696369656E74206F757470757420616D6F756E74000000000000 SWAP1 DUP3 ADD MSTORE PUSH1 0x64 SWAP1 REVERT JUMPDEST PUSH4 0x4E487B71 PUSH1 0xE0 SHL DUP13 MSTORE PUSH1 0x11 DUP6 MSTORE DUP3 DUP13 REVERT JUMPDEST PUSH1 0x2 SLOAD DUP15 PUSH2 0x941 JUMP JUMPDEST PUSH1 0x3 SLOAD SWAP11 PUSH2 0x936 JUMP JUMPDEST DUP2 PUSH32 0xFA47AFDD18075C920714AF4959C00B4EFBC9E0F219EC97A064CC9A654EEEA7E4 SWAP3 PUSH1 0x6 SSTORE DUP13 MLOAD SWAP1 DUP2 MSTORE LOG1 DUP14 DUP13 PUSH2 0x929 JUMP JUMPDEST POP PUSH1 0x64 PUSH2 0x91E JUMP JUMPDEST PUSH4 0x4E487B71 PUSH1 0xE0 SHL DUP11 MSTORE PUSH1 0x11 DUP4 MSTORE DUP12 DUP11 REVERT JUMPDEST PUSH4 0x4E487B71 PUSH1 0xE0 SHL DUP12 MSTORE PUSH1 0x11 DUP5 MSTORE DUP13 DUP12 REVERT JUMPDEST PUSH2 0xC01 SWAP2 PUSH2 0x185C JUMP JUMPDEST SWAP13 PUSH2 0x8D3 JUMP JUMPDEST DUP9 MLOAD PUSH3 0x461BCD PUSH1 0xE5 SHL DUP2 MSTORE SWAP1 DUP2 ADD DUP12 SWAP1 MSTORE PUSH1 0xD DUP2 DUP12 ADD MSTORE PUSH13 0x24B73B30B634B2103A37B5B2B7 PUSH1 0x99 SHL DUP2 DUP14 ADD MSTORE PUSH1 0x64 SWAP1 REVERT JUMPDEST POP DUP5 PUSH32 0x0 AND DUP8 EQ PUSH2 0x8AA JUMP JUMPDEST PUSH2 0xC78 SWAP1 CALLER DUP6 MSTORE PUSH1 0xB PUSH1 0x20 MSTORE DUP6 DUP6 KECCAK256 SLOAD PUSH2 0x193B JUMP JUMPDEST NUMBER LT PUSH2 0xC84 JUMPI DUP8 PUSH2 0x850 JUMP JUMPDEST DUP4 MLOAD PUSH3 0x461BCD PUSH1 0xE5 SHL DUP2 MSTORE PUSH1 0x20 DUP2 DUP9 ADD MSTORE PUSH1 0x1B DUP2 DUP8 ADD MSTORE PUSH32 0x46726F6E742D72756E2070726F74656374696F6E206163746976650000000000 DUP2 DUP10 ADD MSTORE PUSH1 0x64 SWAP1 REVERT JUMPDEST POP POP CALLVALUE PUSH2 0x27C JUMPI PUSH1 0x20 CALLDATASIZE PUSH1 0x3 NOT ADD SLT PUSH2 0x27C JUMPI PUSH1 0x20 SWAP2 DUP2 SWAP1 PUSH1 0x1 PUSH1 0x1 PUSH1 0xA0 SHL SUB PUSH2 0xCED PUSH2 0x1803 JUMP JUMPDEST AND DUP2 MSTORE PUSH1 0x5 DUP5 MSTORE KECCAK256 SLOAD SWAP1 MLOAD SWAP1 DUP2 MSTORE RETURN JUMPDEST POP POP CALLVALUE PUSH2 0x27C JUMPI DUP2 PUSH1 0x3 NOT CALLDATASIZE ADD SLT PUSH2 0x27C JUMPI PUSH1 0x1 SLOAD SWAP1 MLOAD PUSH1 0x1 PUSH1 0x1 PUSH1 0xA0 SHL SUB SWAP1 SWAP2 AND DUP2 MSTORE PUSH1 0x20 SWAP1 RETURN JUMPDEST POP DUP3 CALLVALUE PUSH2 0x366 JUMPI PUSH2 0xD36 CALLDATASIZE PUSH2 0x17E9 JUMP JUMPDEST SWAP4 SWAP2 PUSH2 0xD43 SWAP4 SWAP2 SWAP4 PUSH2 0x1ACA JUMP JUMPDEST DUP1 ISZERO PUSH2 0xF38 JUMPI CALLER DUP3 MSTORE PUSH1 0x20 SWAP3 PUSH1 0x5 DUP5 MSTORE DUP2 DUP8 DUP5 KECCAK256 SLOAD LT PUSH2 0xEF5 JUMPI DUP1 SLOAD SWAP6 PUSH2 0xD85 PUSH2 0xD78 DUP9 PUSH2 0xD73 PUSH1 0x2 SLOAD DUP8 PUSH2 0x187F JUMP JUMPDEST PUSH2 0x1892 JUMP JUMPDEST SWAP8 PUSH2 0xD73 PUSH1 0x3 SLOAD DUP7 PUSH2 0x187F JUMP JUMPDEST SWAP6 DUP8 LT PUSH2 0xEBA JUMPI DUP6 LT PUSH2 0xE7F JUMPI SWAP1 PUSH1 0x1 SWAP3 SWAP2 CALLER DUP4 MSTORE PUSH1 0x5 DUP6 MSTORE DUP8 DUP4 KECCAK256 PUSH2 0xDAC DUP4 DUP3 SLOAD PUSH2 0x185C JUMP JUMPDEST SWAP1 SSTORE PUSH2 0xDB9 DUP3 DUP3 SLOAD PUSH2 0x185C JUMP JUMPDEST SWAP1 SSTORE PUSH2 0xDC7 DUP7 PUSH1 0x2 SLOAD PUSH2 0x185C JUMP JUMPDEST PUSH1 0x2 SSTORE PUSH2 0xDD6 DUP6 PUSH1 0x3 SLOAD PUSH2 0x185C JUMP JUMPDEST PUSH1 0x3 SSTORE PUSH2 0xE04 DUP7 CALLER PUSH32 0x0 PUSH2 0x1B69 JUMP JUMPDEST PUSH2 0xE2F DUP6 CALLER PUSH32 0x0 PUSH2 0x1B69 JUMP JUMPDEST PUSH32 0x1DC8BB69DF2B8E91FBDCBFCF93D951B3F0000F085A95FE3F7946D6161439245D DUP8 MLOAD DUP1 PUSH2 0xE71 CALLER SWAP5 DUP10 DUP12 DUP5 PUSH1 0x40 SWAP2 SWAP5 SWAP4 SWAP3 PUSH1 0x60 DUP3 ADD SWAP6 DUP3 MSTORE PUSH1 0x20 DUP3 ADD MSTORE ADD MSTORE JUMP JUMPDEST SUB SWAP1 LOG2 SSTORE DUP4 MLOAD SWAP3 DUP4 MSTORE DUP3 ADD MSTORE RETURN JUMPDEST DUP7 MLOAD PUSH3 0x461BCD PUSH1 0xE5 SHL DUP2 MSTORE SWAP1 DUP2 ADD DUP5 SWAP1 MSTORE PUSH1 0x15 PUSH1 0x24 DUP3 ADD MSTORE PUSH21 0x24B739BAB33334B1B4B2B73A1030B6B7BAB73A1021 PUSH1 0x59 SHL PUSH1 0x44 DUP3 ADD MSTORE PUSH1 0x64 SWAP1 REVERT JUMPDEST DUP8 MLOAD PUSH3 0x461BCD PUSH1 0xE5 SHL DUP2 MSTORE DUP1 DUP4 ADD DUP7 SWAP1 MSTORE PUSH1 0x15 PUSH1 0x24 DUP3 ADD MSTORE PUSH21 0x496E73756666696369656E7420616D6F756E742041 PUSH1 0x58 SHL PUSH1 0x44 DUP3 ADD MSTORE PUSH1 0x64 SWAP1 REVERT JUMPDEST DUP7 MLOAD PUSH3 0x461BCD PUSH1 0xE5 SHL DUP2 MSTORE SWAP1 DUP2 ADD DUP5 SWAP1 MSTORE PUSH1 0x1D PUSH1 0x24 DUP3 ADD MSTORE PUSH32 0x496E73756666696369656E74206C697175696469747920746F6B656E73000000 PUSH1 0x44 DUP3 ADD MSTORE PUSH1 0x64 SWAP1 REVERT JUMPDEST DUP6 MLOAD PUSH3 0x461BCD PUSH1 0xE5 SHL DUP2 MSTORE PUSH1 0x20 DUP2 DUP6 ADD MSTORE PUSH1 0x18 PUSH1 0x24 DUP3 ADD MSTORE PUSH32 0x496E76616C6964206C697175696469747920616D6F756E740000000000000000 PUSH1 0x44 DUP3 ADD MSTORE PUSH1 0x64 SWAP1 REVERT JUMPDEST POP POP CALLVALUE PUSH2 0x27C JUMPI DUP2 PUSH1 0x3 NOT CALLDATASIZE ADD SLT PUSH2 0x27C JUMPI PUSH1 0x20 PUSH32 0x62E78CEA01BEE320CD4E420270B5EA74000D11B0C9F74754EBDBFC544B05A258 SWAP2 PUSH2 0xFB9 PUSH2 0x1A9E JUMP JUMPDEST PUSH2 0xFC1 PUSH2 0x1AED JUMP JUMPDEST PUSH1 0x1 DUP1 SLOAD PUSH1 0xFF PUSH1 0xA0 SHL NOT AND PUSH1 0x1 PUSH1 0xA0 SHL OR SWAP1 SSTORE MLOAD CALLER DUP2 MSTORE LOG1 DUP1 RETURN JUMPDEST DUP4 CALLVALUE PUSH2 0x366 JUMPI DUP1 PUSH1 0x3 NOT CALLDATASIZE ADD SLT PUSH2 0x366 JUMPI PUSH2 0xFF5 PUSH2 0x1A9E JUMP JUMPDEST PUSH1 0x1 DUP1 SLOAD PUSH1 0x1 PUSH1 0x1 PUSH1 0xA0 SHL SUB NOT DUP2 AND SWAP1 SWAP2 SSTORE DUP2 SWAP1 PUSH1 0x1 PUSH1 0x1 PUSH1 0xA0 SHL SUB AND PUSH32 0x8BE0079C531659141344CD1FD0A4F28419497F9722A3DAAFE3B4186F6B6457E0 DUP3 DUP1 LOG3 DUP1 RETURN JUMPDEST POP POP CALLVALUE PUSH2 0x27C JUMPI DUP2 PUSH1 0x3 NOT CALLDATASIZE ADD SLT PUSH2 0x27C JUMPI PUSH1 0x20 SWAP1 PUSH1 0xE SLOAD SWAP1 MLOAD SWAP1 DUP2 MSTORE RETURN JUMPDEST POP POP CALLVALUE PUSH2 0x27C JUMPI DUP2 PUSH1 0x3 NOT CALLDATASIZE ADD SLT PUSH2 0x27C JUMPI PUSH1 0x20 SWAP1 PUSH1 0xF SLOAD SWAP1 MLOAD SWAP1 DUP2 MSTORE RETURN JUMPDEST POP SWAP2 SWAP1 CALLVALUE PUSH2 0x27C JUMPI PUSH1 0x20 CALLDATASIZE PUSH1 0x3 NOT ADD SLT PUSH2 0x27C JUMPI PUSH2 0x1093 PUSH2 0x1803 JUMP JUMPDEST PUSH1 0x1 PUSH1 0x1 PUSH1 0xA0 SHL SUB AND DUP3 MSTORE PUSH1 0x5 PUSH1 0x20 MSTORE DUP1 DUP3 KECCAK256 SLOAD DUP4 SLOAD SWAP1 SWAP3 SWAP2 DUP3 SWAP2 DUP3 SWAP1 DUP2 DUP2 PUSH2 0x10D1 JUMPI JUMPDEST POP POP PUSH1 0x80 SWAP6 POP DUP2 MLOAD SWAP5 DUP6 MSTORE PUSH1 0x20 DUP6 ADD MSTORE DUP4 ADD MSTORE PUSH1 0x60 DUP3 ADD MSTORE RETURN JUMPDEST SWAP3 SWAP5 POP SWAP3 POP POP PUSH2 0x2710 SWAP1 DUP2 DUP6 MUL SWAP2 DUP6 DUP4 DIV EQ DUP6 ISZERO OR ISZERO PUSH2 0x1123 JUMPI POP PUSH1 0x80 SWAP5 POP DUP2 PUSH2 0x10FA SWAP2 PUSH2 0x1892 JUMP JUMPDEST SWAP2 PUSH2 0x111B PUSH2 0x110E DUP4 PUSH2 0xD73 PUSH1 0x2 SLOAD DUP9 PUSH2 0x187F JUMP JUMPDEST SWAP3 PUSH2 0xD73 PUSH1 0x3 SLOAD DUP8 PUSH2 0x187F JUMP JUMPDEST SWAP3 CODESIZE DUP1 PUSH2 0x10B7 JUMP JUMPDEST PUSH4 0x4E487B71 PUSH1 0xE0 SHL DUP2 MSTORE PUSH1 0x11 DUP7 MSTORE PUSH1 0x24 SWAP1 REVERT JUMPDEST POP SWAP1 CALLVALUE PUSH2 0x254 JUMPI CALLDATASIZE PUSH1 0x3 NOT ADD SLT PUSH2 0x27C JUMPI PUSH2 0x114F PUSH2 0x1A9E JUMP JUMPDEST CALLDATALOAD PUSH1 0x7 SSTORE PUSH1 0x24 CALLDATALOAD PUSH1 0xC SSTORE DUP1 RETURN JUMPDEST POP POP CALLVALUE PUSH2 0x27C JUMPI DUP2 PUSH1 0x3 NOT CALLDATASIZE ADD SLT PUSH2 0x27C JUMPI MLOAD PUSH32 0x0 PUSH1 0x1 PUSH1 0x1 PUSH1 0xA0 SHL SUB AND DUP2 MSTORE PUSH1 0x20 SWAP1 RETURN JUMPDEST POP SWAP1 CALLVALUE PUSH2 0x254 JUMPI PUSH1 0x20 CALLDATASIZE PUSH1 0x3 NOT ADD SLT PUSH2 0x254 JUMPI DUP2 CALLDATALOAD SWAP2 PUSH2 0x11BE PUSH2 0x1A9E JUMP JUMPDEST DUP3 ISZERO PUSH2 0x11FA JUMPI POP DUP2 PUSH1 0x20 SWAP2 PUSH32 0x7511727D12158492A54F0C0225028E98B629E19D0D6A25F54B842B70EA624BCE SWAP4 PUSH1 0xF SSTORE TIMESTAMP PUSH1 0x10 SSTORE MLOAD SWAP1 DUP2 MSTORE LOG1 DUP1 RETURN JUMPDEST PUSH1 0x20 PUSH1 0x64 SWAP3 MLOAD SWAP2 PUSH3 0x461BCD PUSH1 0xE5 SHL DUP4 MSTORE DUP3 ADD MSTORE PUSH1 0xD PUSH1 0x24 DUP3 ADD MSTORE PUSH13 0x496E76616C6964207072696365 PUSH1 0x98 SHL PUSH1 0x44 DUP3 ADD MSTORE REVERT JUMPDEST POP POP CALLVALUE PUSH2 0x27C JUMPI DUP2 PUSH1 0x3 NOT CALLDATASIZE ADD SLT PUSH2 0x27C JUMPI PUSH1 0x20 SWAP1 PUSH1 0xFF PUSH1 0x1 SLOAD PUSH1 0xA0 SHR AND SWAP1 MLOAD SWAP1 ISZERO ISZERO DUP2 MSTORE RETURN JUMPDEST DUP4 CALLVALUE PUSH2 0x366 JUMPI DUP1 PUSH1 0x3 NOT CALLDATASIZE ADD SLT PUSH2 0x366 JUMPI PUSH2 0x126C PUSH2 0x1A9E JUMP JUMPDEST PUSH1 0xD SLOAD PUSH1 0xE SLOAD SWAP1 DUP3 PUSH1 0xD SSTORE DUP3 PUSH1 0xE SSTORE DUP1 PUSH2 0x12C5 JUMPI JUMPDEST POP DUP1 PUSH2 0x128B JUMPI POP DUP1 RETURN JUMPDEST PUSH1 0x1 SLOAD PUSH2 0x12C2 SWAP2 SWAP1 PUSH1 0x1 PUSH1 0x1 PUSH1 0xA0 SHL SUB AND PUSH32 0x0 PUSH2 0x1B69 JUMP JUMPDEST DUP1 RETURN JUMPDEST PUSH1 0x1 SLOAD PUSH2 0x12FC SWAP2 SWAP1 PUSH1 0x1 PUSH1 0x1 PUSH1 0xA0 SHL SUB AND PUSH32 0x0 PUSH2 0x1B69 JUMP JUMPDEST DUP3 PUSH2 0x1281 JUMP JUMPDEST POP POP CALLVALUE PUSH2 0x27C JUMPI DUP2 PUSH1 0x3 NOT CALLDATASIZE ADD SLT PUSH2 0x27C JUMPI PUSH1 0x20 SWAP1 PUSH1 0xD SLOAD SWAP1 MLOAD SWAP1 DUP2 MSTORE RETURN JUMPDEST POP DUP3 CALLVALUE PUSH2 0x366 JUMPI PUSH2 0x1331 CALLDATASIZE PUSH2 0x17E9 JUMP JUMPDEST SWAP4 PUSH2 0x133A PUSH2 0x1ACA JUMP JUMPDEST PUSH2 0x1342 PUSH2 0x1AED JUMP JUMPDEST PUSH2 0x1351 PUSH1 0xFF PUSH1 0x11 SLOAD AND ISZERO PUSH2 0x18B2 JUMP JUMPDEST DUP3 ISZERO ISZERO DUP1 PUSH2 0x15B2 JUMPI JUMPDEST ISZERO PUSH2 0x157D JUMPI PUSH2 0x138B DUP4 ADDRESS CALLER PUSH32 0x0 PUSH2 0x1B0E JUMP JUMPDEST PUSH2 0x13B7 DUP3 ADDRESS CALLER PUSH32 0x0 PUSH2 0x1B0E JUMP JUMPDEST DUP1 SLOAD DUP1 PUSH2 0x153A JUMPI POP PUSH2 0x13C9 DUP3 DUP5 PUSH2 0x187F JUMP JUMPDEST DUP5 PUSH1 0x3 DUP3 GT ISZERO PUSH2 0x152C JUMPI POP DUP1 PUSH1 0x1 SWAP1 DUP1 PUSH1 0x1 SHR PUSH1 0x1 DUP2 ADD DUP1 SWAP2 GT PUSH2 0x1519 JUMPI SWAP2 SWAP1 JUMPDEST DUP4 DUP4 LT PUSH2 0x14F9 JUMPI POP POP POP JUMPDEST PUSH2 0x3E7 NOT DUP2 ADD SWAP1 DUP2 GT PUSH2 0x14E6 JUMPI SWAP5 PUSH2 0x3E8 DUP3 SSTORE JUMPDEST DUP6 LT PUSH2 0x14A3 JUMPI SWAP2 PUSH32 0x64B83944E79C3CE8D4C297411DE637C3E102D064677AAC0C163976EBDCD6F50E DUP6 PUSH1 0x20 SWAP8 SWAP6 SWAP4 PUSH1 0x1 SWAP6 PUSH2 0x1445 DUP4 ISZERO ISZERO PUSH2 0x18F6 JUMP JUMPDEST CALLER DUP7 MSTORE PUSH1 0x5 DUP11 MSTORE DUP8 DUP7 KECCAK256 PUSH2 0x145A DUP5 DUP3 SLOAD PUSH2 0x193B JUMP JUMPDEST SWAP1 SSTORE PUSH2 0x1467 DUP4 DUP3 SLOAD PUSH2 0x193B JUMP JUMPDEST SWAP1 SSTORE PUSH2 0x1475 DUP5 PUSH1 0x2 SLOAD PUSH2 0x193B JUMP JUMPDEST PUSH1 0x2 SSTORE PUSH2 0x1484 DUP2 PUSH1 0x3 SLOAD PUSH2 0x193B JUMP JUMPDEST PUSH1 0x3 SSTORE DUP7 MLOAD SWAP4 DUP5 MSTORE PUSH1 0x20 DUP5 ADD MSTORE PUSH1 0x40 DUP4 ADD MSTORE CALLER SWAP2 PUSH1 0x60 SWAP1 LOG2 SSTORE MLOAD SWAP1 DUP2 MSTORE RETURN JUMPDEST PUSH1 0x64 SWAP1 PUSH1 0x20 DUP8 MLOAD SWAP2 PUSH3 0x461BCD PUSH1 0xE5 SHL DUP4 MSTORE DUP3 ADD MSTORE PUSH1 0x1D PUSH1 0x24 DUP3 ADD MSTORE PUSH32 0x496E73756666696369656E74206C6971756964697479206D696E746564000000 PUSH1 0x44 DUP3 ADD MSTORE REVERT JUMPDEST PUSH4 0x4E487B71 PUSH1 0xE0 SHL DUP6 MSTORE PUSH1 0x11 DUP3 MSTORE PUSH1 0x24 DUP6 REVERT JUMPDEST SWAP1 SWAP2 SWAP3 POP PUSH2 0x1510 DUP4 PUSH2 0x150B DUP2 DUP5 PUSH2 0x1892 JUMP JUMPDEST PUSH2 0x193B JUMP JUMPDEST DUP3 SHR SWAP2 SWAP1 PUSH2 0x13EA JUMP JUMPDEST PUSH4 0x4E487B71 PUSH1 0xE0 SHL DUP9 MSTORE PUSH1 0x11 DUP6 MSTORE PUSH1 0x24 DUP9 REVERT JUMPDEST SWAP1 ISZERO PUSH2 0x13F5 JUMPI POP PUSH1 0x1 PUSH2 0x13F5 JUMP JUMPDEST PUSH2 0x1566 PUSH2 0x155D PUSH2 0x1556 PUSH2 0x154D DUP5 DUP9 PUSH2 0x187F JUMP JUMPDEST PUSH1 0x2 SLOAD SWAP1 PUSH2 0x1892 JUMP JUMPDEST SWAP3 DUP6 PUSH2 0x187F JUMP JUMPDEST PUSH1 0x3 SLOAD SWAP1 PUSH2 0x1892 JUMP JUMPDEST DUP1 DUP3 LT ISZERO PUSH2 0x1576 JUMPI POP JUMPDEST SWAP5 PUSH2 0x1409 JUMP JUMPDEST SWAP1 POP PUSH2 0x1570 JUMP JUMPDEST PUSH1 0x64 SWAP1 PUSH1 0x20 DUP8 MLOAD SWAP2 PUSH3 0x461BCD PUSH1 0xE5 SHL DUP4 MSTORE DUP3 ADD MSTORE PUSH1 0xF PUSH1 0x24 DUP3 ADD MSTORE PUSH15 0x496E76616C696420616D6F756E7473 PUSH1 0x88 SHL PUSH1 0x44 DUP3 ADD MSTORE REVERT JUMPDEST POP DUP2 ISZERO ISZERO PUSH2 0x135A JUMP JUMPDEST POP CALLVALUE PUSH2 0x254 JUMPI DUP3 PUSH1 0x3 NOT CALLDATASIZE ADD SLT PUSH2 0x254 JUMPI PUSH2 0x15D4 PUSH2 0x1A9E JUMP JUMPDEST PUSH1 0x1 SLOAD SWAP1 PUSH1 0xFF DUP3 PUSH1 0xA0 SHR AND ISZERO PUSH2 0x161C JUMPI POP PUSH1 0xFF PUSH1 0xA0 SHL NOT AND PUSH1 0x1 SSTORE MLOAD CALLER DUP2 MSTORE PUSH32 0x5DB9EE0A495BF2E6FF9C91A7834C1BA4FDD244A5E8AA4E537BD38AEAE4B073AA SWAP1 PUSH1 0x20 SWAP1 LOG1 DUP1 RETURN JUMPDEST DUP3 MLOAD PUSH4 0x8DFC202B PUSH1 0xE0 SHL DUP2 MSTORE REVERT JUMPDEST POP POP CALLVALUE PUSH2 0x27C JUMPI DUP2 PUSH1 0x3 NOT CALLDATASIZE ADD SLT PUSH2 0x27C JUMPI PUSH1 0x20 SWAP1 PUSH1 0x8 SLOAD SWAP1 MLOAD SWAP1 DUP2 MSTORE RETURN JUMPDEST POP CALLVALUE PUSH2 0x254 JUMPI DUP3 PUSH1 0x3 NOT CALLDATASIZE ADD SLT PUSH2 0x254 JUMPI PUSH1 0x20 SWAP3 POP SLOAD SWAP1 MLOAD SWAP1 DUP2 MSTORE RETURN JUMPDEST POP POP CALLVALUE PUSH2 0x27C JUMPI DUP2 PUSH1 0x3 NOT CALLDATASIZE ADD SLT PUSH2 0x27C JUMPI PUSH1 0x20 SWAP1 PUSH1 0x7 SLOAD SWAP1 MLOAD SWAP1 DUP2 MSTORE RETURN JUMPDEST POP POP CALLVALUE PUSH2 0x27C JUMPI DUP2 PUSH1 0x3 NOT CALLDATASIZE ADD SLT PUSH2 0x27C JUMPI PUSH1 0x20 SWAP1 PUSH1 0x3 SLOAD SWAP1 MLOAD SWAP1 DUP2 MSTORE RETURN JUMPDEST POP POP CALLVALUE PUSH2 0x27C JUMPI DUP2 PUSH1 0x3 NOT CALLDATASIZE ADD SLT PUSH2 0x27C JUMPI PUSH1 0x20 SWAP1 PUSH1 0xA SLOAD SWAP1 MLOAD SWAP1 DUP2 MSTORE RETURN JUMPDEST POP SWAP2 CALLVALUE PUSH2 0x366 JUMPI PUSH2 0x16D3 CALLDATASIZE PUSH2 0x17CA JUMP JUMPDEST SWAP1 PUSH2 0x16DF DUP2 ISZERO ISZERO PUSH2 0x1819 JUMP JUMPDEST DUP2 ISZERO PUSH2 0x1735 JUMPI PUSH1 0x2 SLOAD SWAP2 JUMPDEST ISZERO PUSH2 0x172C JUMPI PUSH1 0x3 SLOAD SWAP3 JUMPDEST PUSH1 0x6 SLOAD SWAP2 PUSH2 0x2710 SWAP3 DUP4 SUB SWAP2 DUP4 DUP4 GT PUSH2 0x1719 JUMPI PUSH1 0x20 DUP8 PUSH2 0x275 DUP9 DUP9 DUP9 PUSH2 0x95E DUP10 DUP10 PUSH2 0x187F JUMP JUMPDEST PUSH4 0x4E487B71 PUSH1 0xE0 SHL DUP2 MSTORE PUSH1 0x11 DUP9 MSTORE PUSH1 0x24 SWAP1 REVERT JUMPDEST PUSH1 0x2 SLOAD SWAP3 PUSH2 0x16F4 JUMP JUMPDEST PUSH1 0x3 SLOAD SWAP2 PUSH2 0x16EA JUMP JUMPDEST POP POP CALLVALUE PUSH2 0x27C JUMPI DUP2 PUSH1 0x3 NOT CALLDATASIZE ADD SLT PUSH2 0x27C JUMPI MLOAD PUSH32 0x0 PUSH1 0x1 PUSH1 0x1 PUSH1 0xA0 SHL SUB AND DUP2 MSTORE PUSH1 0x20 SWAP1 RETURN JUMPDEST POP POP CALLVALUE PUSH2 0x27C JUMPI DUP2 PUSH1 0x3 NOT CALLDATASIZE ADD SLT PUSH2 0x27C JUMPI PUSH1 0x20 SWAP1 PUSH1 0xFF PUSH1 0x11 SLOAD AND SWAP1 MLOAD SWAP1 ISZERO ISZERO DUP2 MSTORE RETURN JUMPDEST DUP4 SWAP1 DUP6 CALLVALUE PUSH2 0x366 JUMPI DUP1 PUSH1 0x3 NOT CALLDATASIZE ADD SLT PUSH2 0x366 JUMPI POP PUSH1 0x2 SLOAD PUSH1 0x3 SLOAD SWAP1 DUP3 MSTORE PUSH1 0x20 DUP3 ADD MSTORE RETURN JUMPDEST PUSH1 0x40 SWAP1 PUSH1 0x3 NOT ADD SLT PUSH2 0x561 JUMPI PUSH1 0x4 CALLDATALOAD SWAP1 PUSH1 0x24 CALLDATALOAD DUP1 ISZERO ISZERO DUP2 SUB PUSH2 0x561 JUMPI SWAP1 JUMP JUMPDEST PUSH1 0x60 SWAP1 PUSH1 0x3 NOT ADD SLT PUSH2 0x561 JUMPI PUSH1 0x4 CALLDATALOAD SWAP1 PUSH1 0x24 CALLDATALOAD SWAP1 PUSH1 0x44 CALLDATALOAD SWAP1 JUMP JUMPDEST PUSH1 0x4 CALLDATALOAD SWAP1 PUSH1 0x1 PUSH1 0x1 PUSH1 0xA0 SHL SUB DUP3 AND DUP3 SUB PUSH2 0x561 JUMPI JUMP JUMPDEST ISZERO PUSH2 0x1820 JUMPI JUMP JUMPDEST PUSH1 0x40 MLOAD PUSH3 0x461BCD PUSH1 0xE5 SHL DUP2 MSTORE PUSH1 0x20 PUSH1 0x4 DUP3 ADD MSTORE PUSH1 0x14 PUSH1 0x24 DUP3 ADD MSTORE PUSH20 0x125B9D985B1A59081A5B9C1D5D08185B5BDD5B9D PUSH1 0x62 SHL PUSH1 0x44 DUP3 ADD MSTORE PUSH1 0x64 SWAP1 REVERT JUMPDEST SWAP2 SWAP1 DUP3 SUB SWAP2 DUP3 GT PUSH2 0x1869 JUMPI JUMP JUMPDEST PUSH4 0x4E487B71 PUSH1 0xE0 SHL PUSH1 0x0 MSTORE PUSH1 0x11 PUSH1 0x4 MSTORE PUSH1 0x24 PUSH1 0x0 REVERT JUMPDEST DUP2 DUP2 MUL SWAP3 SWAP2 DUP2 ISZERO SWAP2 DUP5 DIV EQ OR ISZERO PUSH2 0x1869 JUMPI JUMP JUMPDEST DUP2 ISZERO PUSH2 0x189C JUMPI DIV SWAP1 JUMP JUMPDEST PUSH4 0x4E487B71 PUSH1 0xE0 SHL PUSH1 0x0 MSTORE PUSH1 0x12 PUSH1 0x4 MSTORE PUSH1 0x24 PUSH1 0x0 REVERT JUMPDEST ISZERO PUSH2 0x18B9 JUMPI JUMP JUMPDEST PUSH1 0x40 MLOAD PUSH3 0x461BCD PUSH1 0xE5 SHL DUP2 MSTORE PUSH1 0x20 PUSH1 0x4 DUP3 ADD MSTORE PUSH1 0x15 PUSH1 0x24 DUP3 ADD MSTORE PUSH21 0x456D657267656E6379206D6F646520616374697665 PUSH1 0x58 SHL PUSH1 0x44 DUP3 ADD MSTORE PUSH1 0x64 SWAP1 REVERT JUMPDEST ISZERO PUSH2 0x18FD JUMPI JUMP JUMPDEST PUSH1 0x40 MLOAD PUSH3 0x461BCD PUSH1 0xE5 SHL DUP2 MSTORE PUSH1 0x20 PUSH1 0x4 DUP3 ADD MSTORE PUSH1 0x16 PUSH1 0x24 DUP3 ADD MSTORE PUSH22 0x496E73756666696369656E74206C6971756964697479 PUSH1 0x50 SHL PUSH1 0x44 DUP3 ADD MSTORE PUSH1 0x64 SWAP1 REVERT JUMPDEST SWAP2 SWAP1 DUP3 ADD DUP1 SWAP3 GT PUSH2 0x1869 JUMPI JUMP JUMPDEST SWAP1 PUSH1 0x1F DUP1 NOT SWAP2 ADD AND DUP2 ADD SWAP1 DUP2 LT PUSH8 0xFFFFFFFFFFFFFFFF DUP3 GT OR PUSH2 0x196A JUMPI PUSH1 0x40 MSTORE JUMP JUMPDEST PUSH4 0x4E487B71 PUSH1 0xE0 SHL PUSH1 0x0 MSTORE PUSH1 0x41 PUSH1 0x4 MSTORE PUSH1 0x24 PUSH1 0x0 REVERT JUMPDEST PUSH1 0x3 SLOAD DUP1 ISZERO PUSH2 0x19B3 JUMPI PUSH1 0x2 SLOAD SWAP1 PUSH8 0xDE0B6B3A7640000 SWAP2 DUP3 DUP2 MUL SWAP3 DUP2 DUP5 DIV EQ SWAP1 ISZERO OR ISZERO PUSH2 0x1869 JUMPI PUSH2 0x19B0 SWAP2 PUSH2 0x1892 JUMP JUMPDEST SWAP1 JUMP JUMPDEST POP PUSH1 0xF SLOAD SWAP1 JUMP JUMPDEST SWAP2 DUP3 ISZERO PUSH2 0x1A48 JUMPI DUP2 ISZERO ISZERO DUP1 PUSH2 0x1A3F JUMPI JUMPDEST ISZERO PUSH2 0x19EC JUMPI DUP3 PUSH2 0x19E0 PUSH2 0x19E6 SWAP3 PUSH2 0x19B0 SWAP6 PUSH2 0x187F JUMP JUMPDEST SWAP3 PUSH2 0x193B JUMP JUMPDEST SWAP1 PUSH2 0x1892 JUMP JUMPDEST PUSH1 0x40 MLOAD PUSH3 0x461BCD PUSH1 0xE5 SHL DUP2 MSTORE PUSH1 0x20 PUSH1 0x4 DUP3 ADD MSTORE PUSH1 0x25 PUSH1 0x24 DUP3 ADD MSTORE PUSH32 0x4C69717569646974794D6174683A20494E53554646494349454E545F4C495155 PUSH1 0x44 DUP3 ADD MSTORE PUSH5 0x4944495459 PUSH1 0xD8 SHL PUSH1 0x64 DUP3 ADD MSTORE PUSH1 0x84 SWAP1 REVERT JUMPDEST POP DUP1 ISZERO ISZERO PUSH2 0x19CA JUMP JUMPDEST PUSH1 0x40 MLOAD PUSH3 0x461BCD PUSH1 0xE5 SHL DUP2 MSTORE PUSH1 0x20 PUSH1 0x4 DUP3 ADD MSTORE PUSH1 0x28 PUSH1 0x24 DUP3 ADD MSTORE PUSH32 0x4C69717569646974794D6174683A20494E53554646494349454E545F494E5055 PUSH1 0x44 DUP3 ADD MSTORE PUSH8 0x1517D05353D55395 PUSH1 0xC2 SHL PUSH1 0x64 DUP3 ADD MSTORE PUSH1 0x84 SWAP1 REVERT JUMPDEST PUSH1 0x1 SLOAD PUSH1 0x1 PUSH1 0x1 PUSH1 0xA0 SHL SUB AND CALLER SUB PUSH2 0x1AB2 JUMPI JUMP JUMPDEST PUSH1 0x40 MLOAD PUSH4 0x118CDAA7 PUSH1 0xE0 SHL DUP2 MSTORE CALLER PUSH1 0x4 DUP3 ADD MSTORE PUSH1 0x24 SWAP1 REVERT JUMPDEST PUSH1 0x2 PUSH1 0x0 SLOAD EQ PUSH2 0x1ADB JUMPI PUSH1 0x2 PUSH1 0x0 SSTORE JUMP JUMPDEST PUSH1 0x40 MLOAD PUSH4 0x3EE5AEB5 PUSH1 0xE0 SHL DUP2 MSTORE PUSH1 0x4 SWAP1 REVERT JUMPDEST PUSH1 0xFF PUSH1 0x1 SLOAD PUSH1 0xA0 SHR AND PUSH2 0x1AFC JUMPI JUMP JUMPDEST PUSH1 0x40 MLOAD PUSH4 0xD93C0665 PUSH1 0xE0 SHL DUP2 MSTORE PUSH1 0x4 SWAP1 REVERT JUMPDEST PUSH1 0x40 MLOAD PUSH4 0x23B872DD PUSH1 0xE0 SHL PUSH1 0x20 DUP3 ADD MSTORE PUSH1 0x1 PUSH1 0x1 PUSH1 0xA0 SHL SUB SWAP3 DUP4 AND PUSH1 0x24 DUP3 ADD MSTORE SWAP3 SWAP1 SWAP2 AND PUSH1 0x44 DUP4 ADD MSTORE PUSH1 0x64 DUP1 DUP4 ADD SWAP4 SWAP1 SWAP4 MSTORE SWAP2 DUP2 MSTORE PUSH1 0xA0 DUP2 ADD SWAP2 DUP2 DUP4 LT PUSH8 0xFFFFFFFFFFFFFFFF DUP5 GT OR PUSH2 0x196A JUMPI PUSH2 0x1B67 SWAP3 PUSH1 0x40 MSTORE PUSH2 0x1E00 JUMP JUMPDEST JUMP JUMPDEST PUSH1 0x40 MLOAD PUSH4 0xA9059CBB PUSH1 0xE0 SHL PUSH1 0x20 DUP3 ADD MSTORE PUSH1 0x1 PUSH1 0x1 PUSH1 0xA0 SHL SUB SWAP3 SWAP1 SWAP3 AND PUSH1 0x24 DUP4 ADD MSTORE PUSH1 0x44 DUP1 DUP4 ADD SWAP4 SWAP1 SWAP4 MSTORE SWAP2 DUP2 MSTORE PUSH2 0x1B67 SWAP2 PUSH2 0x1BA5 PUSH1 0x64 DUP4 PUSH2 0x1948 JUMP JUMPDEST PUSH2 0x1E00 JUMP JUMPDEST SWAP2 SWAP1 SWAP2 DUP1 ISZERO PUSH2 0x1CB0 JUMPI DUP3 ISZERO ISZERO DUP1 PUSH2 0x1CA7 JUMPI JUMPDEST ISZERO PUSH2 0x1C62 JUMPI PUSH8 0xDE0B6B3A7640000 SWAP2 DUP3 DUP2 MUL SWAP1 DUP1 DUP3 DIV DUP5 EQ DUP2 ISZERO OR ISZERO PUSH2 0x1869 JUMPI PUSH2 0x1BFE DUP2 PUSH2 0x1BED DUP8 PUSH2 0x1C04 SWAP6 PUSH2 0x1892 JUMP JUMPDEST SWAP7 PUSH2 0x1BF8 DUP7 DUP3 PUSH2 0x193B JUMP JUMPDEST SWAP6 PUSH2 0x19BA JUMP JUMPDEST SWAP1 PUSH2 0x185C JUMP JUMPDEST SWAP2 DUP3 ISZERO PUSH2 0x1C58 JUMPI DUP1 DUP4 MUL SWAP3 DUP4 DIV SUB PUSH2 0x1869 JUMPI PUSH2 0x1C1F SWAP2 PUSH2 0x1892 JUMP JUMPDEST DUP2 DUP1 DUP3 LT PUSH2 0x1C4E JUMPI PUSH2 0x1C30 SWAP2 PUSH2 0x185C JUMP JUMPDEST SWAP1 PUSH2 0x2710 SWAP2 DUP3 DUP2 MUL SWAP3 DUP2 DUP5 DIV EQ SWAP1 ISZERO OR ISZERO PUSH2 0x1869 JUMPI PUSH2 0x19B0 SWAP2 PUSH2 0x1892 JUMP JUMPDEST SWAP1 PUSH2 0x1C30 SWAP2 PUSH2 0x185C JUMP JUMPDEST POP POP POP POP PUSH2 0x2710 SWAP1 JUMP JUMPDEST PUSH1 0x40 MLOAD PUSH3 0x461BCD PUSH1 0xE5 SHL DUP2 MSTORE PUSH1 0x20 PUSH1 0x4 DUP3 ADD MSTORE PUSH1 0x1F PUSH1 0x24 DUP3 ADD MSTORE PUSH32 0x4C69717569646974794D6174683A20494E56414C49445F524553455256455300 PUSH1 0x44 DUP3 ADD MSTORE PUSH1 0x64 SWAP1 REVERT JUMPDEST POP DUP2 ISZERO ISZERO PUSH2 0x1BBC JUMP JUMPDEST PUSH1 0x40 MLOAD PUSH3 0x461BCD PUSH1 0xE5 SHL DUP2 MSTORE PUSH1 0x20 PUSH1 0x4 DUP3 ADD MSTORE PUSH1 0x1D PUSH1 0x24 DUP3 ADD MSTORE PUSH32 0x4C69717569646974794D6174683A20494E56414C49445F414D4F554E54000000 PUSH1 0x44 DUP3 ADD MSTORE PUSH1 0x64 SWAP1 REVERT JUMPDEST PUSH2 0x1D04 PUSH1 0x9 SLOAD PUSH1 0xA SLOAD SWAP1 PUSH2 0x193B JUMP JUMPDEST TIMESTAMP LT PUSH2 0x1B67 JUMPI PUSH1 0x2 SLOAD PUSH8 0xDE0B6B3A7640000 SWAP1 DUP2 DUP2 MUL SWAP2 DUP2 DUP4 DIV DUP2 EQ DUP3 ISZERO OR ISZERO PUSH2 0x1869 JUMPI PUSH2 0x1D35 PUSH1 0x3 SLOAD DUP1 SWAP5 PUSH2 0x1892 JUMP JUMPDEST DUP2 DUP2 GT ISZERO PUSH2 0x1DF1 JUMPI PUSH8 0xDE0B6B3A763FFFF NOT DUP2 ADD SWAP1 DUP2 GT PUSH2 0x1869 JUMPI SWAP1 JUMPDEST PUSH1 0x8 SLOAD DUP1 DUP3 MUL SWAP2 DUP3 DIV SUB PUSH2 0x1869 JUMPI PUSH2 0x2710 SWAP1 DIV LT PUSH2 0x1D6E JUMPI POP POP JUMP JUMPDEST DUP2 PUSH2 0x1DDC DUP3 PUSH2 0x1DD2 PUSH2 0x1DA3 PUSH32 0x62F3780234CCFC6503993E1D970863448F907AA096AC573C8DC09692652D535D SWAP7 PUSH1 0x40 SWAP7 PUSH2 0x193B JUMP JUMPDEST PUSH1 0xA PUSH2 0x1DCB DUP7 DUP3 PUSH2 0x1DC4 DUP8 PUSH2 0x1DB8 DUP5 DUP3 PUSH2 0x193B JUMP JUMPDEST PUSH1 0x1 SHR SWAP7 PUSH1 0x1 SHR PUSH2 0x185C JUMP JUMPDEST DIV SWAP4 PUSH2 0x185C JUMP JUMPDEST DIV SWAP3 PUSH2 0x193B JUMP JUMPDEST SWAP3 DUP4 PUSH1 0x2 SSTORE PUSH2 0x193B JUMP JUMPDEST DUP1 PUSH1 0x3 SSTORE TIMESTAMP PUSH1 0x9 SSTORE DUP3 MLOAD SWAP2 DUP3 MSTORE PUSH1 0x20 DUP3 ADD MSTORE LOG1 JUMP JUMPDEST DUP2 SUB DUP2 DUP2 GT PUSH2 0x1869 JUMPI SWAP1 PUSH2 0x1D52 JUMP JUMPDEST SWAP1 PUSH1 0x0 PUSH1 0x20 SWAP2 DUP3 DUP2 MLOAD SWAP2 ADD DUP3 DUP6 GAS CALL ISZERO PUSH2 0x1E5C JUMPI PUSH1 0x0 MLOAD RETURNDATASIZE PUSH2 0x1E53 JUMPI POP PUSH1 0x1 PUSH1 0x1 PUSH1 0xA0 SHL SUB DUP2 AND EXTCODESIZE ISZERO JUMPDEST PUSH2 0x1E31 JUMPI POP JUMP JUMPDEST PUSH1 0x40 MLOAD PUSH4 0x5274AFE7 PUSH1 0xE0 SHL DUP2 MSTORE PUSH1 0x1 PUSH1 0x1 PUSH1 0xA0 SHL SUB SWAP1 SWAP2 AND PUSH1 0x4 DUP3 ADD MSTORE PUSH1 0x24 SWAP1 REVERT JUMPDEST PUSH1 0x1 EQ ISZERO PUSH2 0x1E2A JUMP JUMPDEST PUSH1 0x40 MLOAD RETURNDATASIZE PUSH1 0x0 DUP3 RETURNDATACOPY RETURNDATASIZE SWAP1 REVERT INVALID LOG2 PUSH5 0x6970667358 0x22 SLT KECCAK256 0xEE STATICCALL 0xB7 0xE0 PUSH28 0x4DD792CE3A00FB8CFCE405DAF316E6AC6BA494EDCDCB5A853338964 PUSH20 0x6F6C634300081800330000000000000000000000 "},"methodIdentifiers":{"FEE_DENOMINATOR()":"d73792a9","MINIMUM_LIQUIDITY()":"ba9a7a56","accumulatedFeesA()":"455d48f5","accumulatedFeesB()":"7105c19f","activateEmergencyMode()":"d0096010","addLiquidity(uint256,uint256,uint256)":"422f1043","dynamicFeeRate()":"d9c018f2","emergencyMode()":"0905f560","flashLoan(uint256,bool)":"c8787f40","frontRunProtectionBlocks()":"df463ef1","getAmountOut(uint256,bool)":"11106ee2","getCurrentPrice()":"eb91d37e","getReserves()":"0902f1ac","getUserInfo(address)":"6386c1c7","lastRebalanceTime()":"d9ca21d5","lastTransactionBlock(address)":"a7076038","liquidityTokens(address)":"909feb71","maxSlippageProtection()":"1bfd77ab","oraclePrice()":"668aa824","oraclePriceLastUpdate()":"b81b8c9a","owner()":"8da5cb5b","pause()":"8456cb59","paused()":"5c975abb","rebalanceInterval()":"16d1d916","rebalanceThreshold()":"3dfe9f6a","removeLiquidity(uint256,uint256,uint256)":"857620e1","renounceOwnership()":"715018a6","reserveA()":"dc5fa6c5","reserveB()":"19e36f3b","setMEVProtection(uint256,uint256)":"62b80f2f","swap(address,uint256,uint256)":"9f1d0f59","tokenA()":"0fc63d10","tokenB()":"5f64b55b","totalLiquidityTokens()":"1cb4a351","transferOwnership(address)":"f2fde38b","unpause()":"3f4ba83a","updateOraclePrice(uint256)":"5ead3c5d","withdrawFees()":"476343ee"}}}}}