{
  "_format": "hh-sol-artifact-1",
  "contractName": "DeFiLiquidityPool",
  "sourceName": "contracts/DeFiLiquidityPool.sol",
  "abi": [
    {
      "inputs": [
        {
          "internalType": "contract IERC20",
          "name": "_tokenA",
          "type": "address"
        },
        {
          "internalType": "contract IERC20",
          "name": "_tokenB",
          "type": "address"
        },
        {
          "internalType": "address",
          "name": "_owner",
          "type": "address"
        }
      ],
      "stateMutability": "nonpayable",
      "type": "constructor"
    },
    {
      "inputs": [],
      "name": "EnforcedPause",
      "type": "error"
    },
    {
      "inputs": [],
      "name": "ExpectedPause",
      "type": "error"
    },
    {
      "inputs": [
        {
          "internalType": "address",
          "name": "owner",
          "type": "address"
        }
      ],
      "name": "OwnableInvalidOwner",
      "type": "error"
    },
    {
      "inputs": [
        {
          "internalType": "address",
          "name": "account",
          "type": "address"
        }
      ],
      "name": "OwnableUnauthorizedAccount",
      "type": "error"
    },
    {
      "inputs": [],
      "name": "ReentrancyGuardReentrantCall",
      "type": "error"
    },
    {
      "inputs": [
        {
          "internalType": "address",
          "name": "token",
          "type": "address"
        }
      ],
      "name": "SafeERC20FailedOperation",
      "type": "error"
    },
    {
      "anonymous": false,
      "inputs": [
        {
          "indexed": false,
          "internalType": "uint256",
          "name": "newFeeRate",
          "type": "uint256"
        }
      ],
      "name": "DynamicFeeUpdated",
      "type": "event"
    },
    {
      "anonymous": false,
      "inputs": [],
      "name": "EmergencyModeActivated",
      "type": "event"
    },
    {
      "anonymous": false,
      "inputs": [
        {
          "indexed": true,
          "internalType": "address",
          "name": "provider",
          "type": "address"
        },
        {
          "indexed": false,
          "internalType": "uint256",
          "name": "amountA",
          "type": "uint256"
        },
        {
          "indexed": false,
          "internalType": "uint256",
          "name": "amountB",
          "type": "uint256"
        },
        {
          "indexed": false,
          "internalType": "uint256",
          "name": "liquidity",
          "type": "uint256"
        }
      ],
      "name": "LiquidityAdded",
      "type": "event"
    },
    {
      "anonymous": false,
      "inputs": [
        {
          "indexed": true,
          "internalType": "address",
          "name": "provider",
          "type": "address"
        },
        {
          "indexed": false,
          "internalType": "uint256",
          "name": "amountA",
          "type": "uint256"
        },
        {
          "indexed": false,
          "internalType": "uint256",
          "name": "amountB",
          "type": "uint256"
        },
        {
          "indexed": false,
          "internalType": "uint256",
          "name": "liquidity",
          "type": "uint256"
        }
      ],
      "name": "LiquidityRemoved",
      "type": "event"
    },
    {
      "anonymous": false,
      "inputs": [
        {
          "indexed": false,
          "internalType": "uint256",
          "name": "newPrice",
          "type": "uint256"
        }
      ],
      "name": "OraclePriceUpdated",
      "type": "event"
    },
    {
      "anonymous": false,
      "inputs": [
        {
          "indexed": true,
          "internalType": "address",
          "name": "previousOwner",
          "type": "address"
        },
        {
          "indexed": true,
          "internalType": "address",
          "name": "newOwner",
          "type": "address"
        }
      ],
      "name": "OwnershipTransferred",
      "type": "event"
    },
    {
      "anonymous": false,
      "inputs": [
        {
          "indexed": false,
          "internalType": "address",
          "name": "account",
          "type": "address"
        }
      ],
      "name": "Paused",
      "type": "event"
    },
    {
      "anonymous": false,
      "inputs": [
        {
          "indexed": false,
          "internalType": "uint256",
          "name": "newReserveA",
          "type": "uint256"
        },
        {
          "indexed": false,
          "internalType": "uint256",
          "name": "newReserveB",
          "type": "uint256"
        }
      ],
      "name": "RebalanceTriggered",
      "type": "event"
    },
    {
      "anonymous": false,
      "inputs": [
        {
          "indexed": true,
          "internalType": "address",
          "name": "user",
          "type": "address"
        },
        {
          "indexed": false,
          "internalType": "address",
          "name": "tokenIn",
          "type": "address"
        },
        {
          "indexed": false,
          "internalType": "address",
          "name": "tokenOut",
          "type": "address"
        },
        {
          "indexed": false,
          "internalType": "uint256",
          "name": "amountIn",
          "type": "uint256"
        },
        {
          "indexed": false,
          "internalType": "uint256",
          "name": "amountOut",
          "type": "uint256"
        }
      ],
      "name": "Swap",
      "type": "event"
    },
    {
      "anonymous": false,
      "inputs": [
        {
          "indexed": false,
          "internalType": "address",
          "name": "account",
          "type": "address"
        }
      ],
      "name": "Unpaused",
      "type": "event"
    },
    {
      "inputs": [],
      "name": "FEE_DENOMINATOR",
      "outputs": [
        {
          "internalType": "uint256",
          "name": "",
          "type": "uint256"
        }
      ],
      "stateMutability": "view",
      "type": "function"
    },
    {
      "inputs": [],
      "name": "MINIMUM_LIQUIDITY",
      "outputs": [
        {
          "internalType": "uint256",
          "name": "",
          "type": "uint256"
        }
      ],
      "stateMutability": "view",
      "type": "function"
    },
    {
      "inputs": [],
      "name": "accumulatedFeesA",
      "outputs": [
        {
          "internalType": "uint256",
          "name": "",
          "type": "uint256"
        }
      ],
      "stateMutability": "view",
      "type": "function"
    },
    {
      "inputs": [],
      "name": "accumulatedFeesB",
      "outputs": [
        {
          "internalType": "uint256",
          "name": "",
          "type": "uint256"
        }
      ],
      "stateMutability": "view",
      "type": "function"
    },
    {
      "inputs": [],
      "name": "activateEmergencyMode",
      "outputs": [],
      "stateMutability": "nonpayable",
      "type": "function"
    },
    {
      "inputs": [
        {
          "internalType": "uint256",
          "name": "amountA",
          "type": "uint256"
        },
        {
          "internalType": "uint256",
          "name": "amountB",
          "type": "uint256"
        },
        {
          "internalType": "uint256",
          "name": "minLiquidity",
          "type": "uint256"
        }
      ],
      "name": "addLiquidity",
      "outputs": [
        {
          "internalType": "uint256",
          "name": "liquidity",
          "type": "uint256"
        }
      ],
      "stateMutability": "nonpayable",
      "type": "function"
    },
    {
      "inputs": [],
      "name": "dynamicFeeRate",
      "outputs": [
        {
          "internalType": "uint256",
          "name": "",
          "type": "uint256"
        }
      ],
      "stateMutability": "view",
      "type": "function"
    },
    {
      "inputs": [],
      "name": "emergencyMode",
      "outputs": [
        {
          "internalType": "bool",
          "name": "",
          "type": "bool"
        }
      ],
      "stateMutability": "view",
      "type": "function"
    },
    {
      "inputs": [],
      "name": "emergencyWithdrawalDelay",
      "outputs": [
        {
          "internalType": "uint256",
          "name": "",
          "type": "uint256"
        }
      ],
      "stateMutability": "view",
      "type": "function"
    },
    {
      "inputs": [
        {
          "internalType": "uint256",
          "name": "amount",
          "type": "uint256"
        },
        {
          "internalType": "bool",
          "name": "isTokenA",
          "type": "bool"
        }
      ],
      "name": "flashLoan",
      "outputs": [],
      "stateMutability": "nonpayable",
      "type": "function"
    },
    {
      "inputs": [],
      "name": "frontRunProtectionBlocks",
      "outputs": [
        {
          "internalType": "uint256",
          "name": "",
          "type": "uint256"
        }
      ],
      "stateMutability": "view",
      "type": "function"
    },
    {
      "inputs": [
        {
          "internalType": "uint256",
          "name": "amountIn",
          "type": "uint256"
        },
        {
          "internalType": "bool",
          "name": "isTokenA",
          "type": "bool"
        }
      ],
      "name": "getAmountOut",
      "outputs": [
        {
          "internalType": "uint256",
          "name": "amountOut",
          "type": "uint256"
        }
      ],
      "stateMutability": "view",
      "type": "function"
    },
    {
      "inputs": [],
      "name": "getCurrentPrice",
      "outputs": [
        {
          "internalType": "uint256",
          "name": "price",
          "type": "uint256"
        }
      ],
      "stateMutability": "view",
      "type": "function"
    },
    {
      "inputs": [],
      "name": "getReserves",
      "outputs": [
        {
          "internalType": "uint256",
          "name": "_reserveA",
          "type": "uint256"
        },
        {
          "internalType": "uint256",
          "name": "_reserveB",
          "type": "uint256"
        }
      ],
      "stateMutability": "view",
      "type": "function"
    },
    {
      "inputs": [
        {
          "internalType": "address",
          "name": "user",
          "type": "address"
        }
      ],
      "name": "getUserInfo",
      "outputs": [
        {
          "internalType": "uint256",
          "name": "liquidityBalance",
          "type": "uint256"
        },
        {
          "internalType": "uint256",
          "name": "sharePercentage",
          "type": "uint256"
        },
        {
          "internalType": "uint256",
          "name": "estimatedValueA",
          "type": "uint256"
        },
        {
          "internalType": "uint256",
          "name": "estimatedValueB",
          "type": "uint256"
        }
      ],
      "stateMutability": "view",
      "type": "function"
    },
    {
      "inputs": [],
      "name": "lastRebalanceTime",
      "outputs": [
        {
          "internalType": "uint256",
          "name": "",
          "type": "uint256"
        }
      ],
      "stateMutability": "view",
      "type": "function"
    },
    {
      "inputs": [
        {
          "internalType": "address",
          "name": "",
          "type": "address"
        }
      ],
      "name": "lastRewardClaim",
      "outputs": [
        {
          "internalType": "uint256",
          "name": "",
          "type": "uint256"
        }
      ],
      "stateMutability": "view",
      "type": "function"
    },
    {
      "inputs": [
        {
          "internalType": "address",
          "name": "",
          "type": "address"
        }
      ],
      "name": "lastTransactionBlock",
      "outputs": [
        {
          "internalType": "uint256",
          "name": "",
          "type": "uint256"
        }
      ],
      "stateMutability": "view",
      "type": "function"
    },
    {
      "inputs": [
        {
          "internalType": "address",
          "name": "",
          "type": "address"
        }
      ],
      "name": "liquidityTokens",
      "outputs": [
        {
          "internalType": "uint256",
          "name": "",
          "type": "uint256"
        }
      ],
      "stateMutability": "view",
      "type": "function"
    },
    {
      "inputs": [],
      "name": "maxSlippageProtection",
      "outputs": [
        {
          "internalType": "uint256",
          "name": "",
          "type": "uint256"
        }
      ],
      "stateMutability": "view",
      "type": "function"
    },
    {
      "inputs": [],
      "name": "oraclePrice",
      "outputs": [
        {
          "internalType": "uint256",
          "name": "",
          "type": "uint256"
        }
      ],
      "stateMutability": "view",
      "type": "function"
    },
    {
      "inputs": [],
      "name": "oraclePriceLastUpdate",
      "outputs": [
        {
          "internalType": "uint256",
          "name": "",
          "type": "uint256"
        }
      ],
      "stateMutability": "view",
      "type": "function"
    },
    {
      "inputs": [],
      "name": "owner",
      "outputs": [
        {
          "internalType": "address",
          "name": "",
          "type": "address"
        }
      ],
      "stateMutability": "view",
      "type": "function"
    },
    {
      "inputs": [],
      "name": "pause",
      "outputs": [],
      "stateMutability": "nonpayable",
      "type": "function"
    },
    {
      "inputs": [],
      "name": "paused",
      "outputs": [
        {
          "internalType": "bool",
          "name": "",
          "type": "bool"
        }
      ],
      "stateMutability": "view",
      "type": "function"
    },
    {
      "inputs": [],
      "name": "protocolFeeRate",
      "outputs": [
        {
          "internalType": "uint256",
          "name": "",
          "type": "uint256"
        }
      ],
      "stateMutability": "view",
      "type": "function"
    },
    {
      "inputs": [],
      "name": "rebalanceInterval",
      "outputs": [
        {
          "internalType": "uint256",
          "name": "",
          "type": "uint256"
        }
      ],
      "stateMutability": "view",
      "type": "function"
    },
    {
      "inputs": [],
      "name": "rebalanceThreshold",
      "outputs": [
        {
          "internalType": "uint256",
          "name": "",
          "type": "uint256"
        }
      ],
      "stateMutability": "view",
      "type": "function"
    },
    {
      "inputs": [
        {
          "internalType": "uint256",
          "name": "liquidity",
          "type": "uint256"
        },
        {
          "internalType": "uint256",
          "name": "minAmountA",
          "type": "uint256"
        },
        {
          "internalType": "uint256",
          "name": "minAmountB",
          "type": "uint256"
        }
      ],
      "name": "removeLiquidity",
      "outputs": [
        {
          "internalType": "uint256",
          "name": "amountA",
          "type": "uint256"
        },
        {
          "internalType": "uint256",
          "name": "amountB",
          "type": "uint256"
        }
      ],
      "stateMutability": "nonpayable",
      "type": "function"
    },
    {
      "inputs": [],
      "name": "renounceOwnership",
      "outputs": [],
      "stateMutability": "nonpayable",
      "type": "function"
    },
    {
      "inputs": [],
      "name": "reserveA",
      "outputs": [
        {
          "internalType": "uint256",
          "name": "",
          "type": "uint256"
        }
      ],
      "stateMutability": "view",
      "type": "function"
    },
    {
      "inputs": [],
      "name": "reserveB",
      "outputs": [
        {
          "internalType": "uint256",
          "name": "",
          "type": "uint256"
        }
      ],
      "stateMutability": "view",
      "type": "function"
    },
    {
      "inputs": [
        {
          "internalType": "address",
          "name": "tokenIn",
          "type": "address"
        },
        {
          "internalType": "uint256",
          "name": "amountIn",
          "type": "uint256"
        },
        {
          "internalType": "uint256",
          "name": "minAmountOut",
          "type": "uint256"
        }
      ],
      "name": "swap",
      "outputs": [
        {
          "internalType": "uint256",
          "name": "amountOut",
          "type": "uint256"
        }
      ],
      "stateMutability": "nonpayable",
      "type": "function"
    },
    {
      "inputs": [],
      "name": "tokenA",
      "outputs": [
        {
          "internalType": "contract IERC20",
          "name": "",
          "type": "address"
        }
      ],
      "stateMutability": "view",
      "type": "function"
    },
    {
      "inputs": [],
      "name": "tokenB",
      "outputs": [
        {
          "internalType": "contract IERC20",
          "name": "",
          "type": "address"
        }
      ],
      "stateMutability": "view",
      "type": "function"
    },
    {
      "inputs": [],
      "name": "totalLiquidityTokens",
      "outputs": [
        {
          "internalType": "uint256",
          "name": "",
          "type": "uint256"
        }
      ],
      "stateMutability": "view",
      "type": "function"
    },
    {
      "inputs": [
        {
          "internalType": "address",
          "name": "newOwner",
          "type": "address"
        }
      ],
      "name": "transferOwnership",
      "outputs": [],
      "stateMutability": "nonpayable",
      "type": "function"
    },
    {
      "inputs": [],
      "name": "unpause",
      "outputs": [],
      "stateMutability": "nonpayable",
      "type": "function"
    },
    {
      "inputs": [
        {
          "internalType": "uint256",
          "name": "_newPrice",
          "type": "uint256"
        }
      ],
      "name": "updateOraclePrice",
      "outputs": [],
      "stateMutability": "nonpayable",
      "type": "function"
    },
    {
      "inputs": [
        {
          "internalType": "address",
          "name": "",
          "type": "address"
        }
      ],
      "name": "userRewards",
      "outputs": [
        {
          "internalType": "uint256",
          "name": "",
          "type": "uint256"
        }
      ],
      "stateMutability": "view",
      "type": "function"
    },
    {
      "inputs": [],
      "name": "withdrawFees",
      "outputs": [],
      "stateMutability": "nonpayable",
      "type": "function"
    }
  ],
  "bytecode": "0x60c034620002a057601f6200221138819003918201601f191683019291906001600160401b03841183851017620002a5578160609284926040968752833981010312620002a0576200005181620002bb565b826200006060208401620002bb565b9201516001600160a01b0380821691829003620002a057600160005581156200028857600180546001600160a01b0319811684179091558551929082167f8be0079c531659141344cd1fd0a4f28419497f9722a3daafe3b4186f6b6457e0600080a3601e60085560056009556101f4600a556107d0600b55610e10600d556001600f55670de0b6b3a7640000601255620151806015558083169182156200024657508316908115620002025714620001be5760805260a05242600c554260135551611f409081620002d182396080518181816103ff015281816104530152818161047f0152818161050e0152818161090601528181610e4b0152818161133c015281816113cb01526117b7015260a0518181816105ea01528181610694015281816106cb0152818161074301528181610a7201528181610aa701528181610cc801528181610e76015281816111b60152818161130201526113f70152f35b825162461bcd60e51b815260206004820152601860248201527f546f6b656e73206d75737420626520646966666572656e7400000000000000006044820152606490fd5b845162461bcd60e51b815260206004820152601d60248201527f546f6b656e422063616e6e6f74206265207a65726f20616464726573730000006044820152606490fd5b62461bcd60e51b815260206004820152601d60248201527f546f6b656e412063616e6e6f74206265207a65726f20616464726573730000006044820152606490fd5b8451631e4fbdf760e01b815260006004820152602490fd5b600080fd5b634e487b7160e01b600052604160045260246000fd5b51906001600160a01b0382168203620002a05756fe6080604081815260048036101561001557600080fd5b600092833560e01c9081630660f1e81461182f575080630902f1ac1461180a5780630905f560146117e65780630fc63d10146117a257806311106ee21461172757806316d1d9161461170857806319e36f3b146116e95780631bfd77ab146116ca5780631cb4a351146116ad5780633dfe9f6a1461168e5780633f4ba83a1461161f578063422f104314611385578063455d48f514611366578063476343ee146112b757806358f85880146112985780635c975abb146112715780635ead3c5d146111e55780635f64b55b146111a15780636386c1c7146110e2578063668aa824146110c35780637105c19f146110a4578063715018a6146110475780638456cb5914610fe6578063857620e114610d915780638da5cb5b14610d68578063909feb7114610d305780639f1d0f591461087b578063a707603814610843578063b4f7403114610824578063b81b8c9a14610805578063ba9a7a56146107e8578063c8787f40146103c2578063d009601014610372578063d73792a914610355578063d8ad52311461031d578063d9c018f2146102fe578063d9ca21d5146102df578063dc5fa6c5146102c0578063df463ef1146102a1578063eb91d37e146102795763f2fde38b146101e657600080fd5b34610275576020366003190112610275576101ff611863565b90610208611b37565b6001600160a01b0391821692831561025f575050600154826bffffffffffffffffffffffff60a01b821617600155167f8be0079c531659141344cd1fd0a4f28419497f9722a3daafe3b4186f6b6457e0600080a380f35b51631e4fbdf760e01b8152908101849052602490fd5b8280fd5b50503461029d578160031936011261029d57602090610296611a19565b9051908152f35b5080fd5b50503461029d578160031936011261029d57602090600f549051908152f35b50503461029d578160031936011261029d576020906002549051908152f35b50503461029d578160031936011261029d57602090600c549051908152f35b50503461029d578160031936011261029d576020906008549051908152f35b50503461029d57602036600319011261029d5760209181906001600160a01b03610345611863565b1681526007845220549051908152f35b50503461029d578160031936011261029d57602090516127108152f35b83346103bf57806003193601126103bf5761038b611b37565b600160ff1960145416176014557f9e91804b7b70a36dcecd9afc85507eb02441c485502f58d0e68589aa50b8226a8180a180f35b80fd5b509034610275576103d236611879565b6103da611b63565b81156107b457801561072a5782516370a0823160e01b815230858201526020816024817f00000000000000000000000000000000000000000000000000000000000000006001600160a01b03165afa9081156106885786916106f4575b50915b6104468184101561198f565b81156106c45761047781337f0000000000000000000000000000000000000000000000000000000000000000611c02565b8115610692577f00000000000000000000000000000000000000000000000000000000000000006001600160a01b03169086905b333b1561029d5785516312badd6b60e01b81526001600160a01b03909316878401908152602081019190915282908190604001038183335af180156106885761065a575b50156105d15781516370a0823160e01b815230848201526020816024817f00000000000000000000000000000000000000000000000000000000000000006001600160a01b03165afa9081156105c7578591610590575b505b1061055557826001815580f35b906020606492519162461bcd60e51b83528201526015602482015274119b185cda081b1bd85b881b9bdd081c995c185a59605a1b6044820152fd5b90506020813d6020116105bf575b816105ab602093836119e1565b810103126105ba575138610546565b600080fd5b3d915061059e565b83513d87823e3d90fd5b81516370a0823160e01b815230848201526020816024817f00000000000000000000000000000000000000000000000000000000000000006001600160a01b03165afa9081156105c7578591610628575b50610548565b90506020813d602011610652575b81610643602093836119e1565b810103126105ba575138610622565b3d9150610636565b67ffffffffffffffff819692961161067557835293386104ef565b634e487b7160e01b825260418552602482fd5b84513d88823e3d90fd5b7f00000000000000000000000000000000000000000000000000000000000000006001600160a01b03169086906104ab565b6106ef81337f0000000000000000000000000000000000000000000000000000000000000000611c02565b610477565b90506020813d602011610722575b8161070f602093836119e1565b8101031261071e575138610437565b8580fd5b3d9150610702565b82516370a0823160e01b815230858201526020816024817f00000000000000000000000000000000000000000000000000000000000000006001600160a01b03165afa908115610688578691610782575b509161043a565b90506020813d6020116107ac575b8161079d602093836119e1565b8101031261071e57513861077b565b3d9150610790565b825162461bcd60e51b8152602081860152600e60248201526d125b9d985b1a5908185b5bdd5b9d60921b6044820152606490fd5b50503461029d578160031936011261029d57602090516103e88152f35b50503461029d578160031936011261029d576020906013549051908152f35b50503461029d578160031936011261029d576020906015549051908152f35b50503461029d57602036600319011261029d5760209181906001600160a01b0361086b611863565b168152600e845220549051908152f35b5082346103bf5760603660031901126103bf57610896611863565b926024918235946044956108a8611b63565b6108b0611b86565b6108bf60ff601454161561194b565b338352602095600e87526108d985852054600f54906119d4565b431115610cef57338452600e875243858520556108f78215156118b2565b6001600160a01b0392831692907f0000000000000000000000000000000000000000000000000000000000000000828116918583149190828015610cc4575b15610c9357610943611a19565b9b601254809d818111600014610c84579061095d916118f5565b9c5b6127108e819f8202918183041490151715610c72579061097e9161192b565b605a810290808204605a1490151715610c60576103e89004600a0180600a11610c605760648111610c58575b8c6008548203610c25575b50508315610c1c576002549a5b8415610c13576003548e5b6008548103908111610c01578f8e83916109ea6109f0948e611918565b04611a53565b9c8d843511610bbe578d15610b835790610a0a918a611c43565b600a5410610b4a5750505088600198999a9b610a288730338b611ba7565b610a3460085488611918565b04918315610b0e575050610a4a906010546119d4565b601055610a59846002546119d4565b600255610a68896003546118f5565b600355610a9689337f0000000000000000000000000000000000000000000000000000000000000000611c02565b610a9e611d8e565b15610b095750807f0000000000000000000000000000000000000000000000000000000000000000165b86519384521687830152848201528460608201527fcd3829a3813dc3cdd188fd3d01dcf3268c16be2fdd2dd21d0665418816e4606260803392a25551908152f35b610ac8565b610b1d610b45936011546119d4565b601155610b2c876003546119d4565b600355610b3b826002546118f5565b6002553390611c02565b610a96565b8a5162461bcd60e51b81529283018d9052601590830152740a0e4d2c6ca40d2dae0c2c6e840e8dede40d0d2ced605b1b90820152606490fd5b50508a5162461bcd60e51b81529283018d905260159083015274125b9d985b1a59081bdd5d1c1d5d08185b5bdd5b9d605a1b90820152606490fd5b50508a5162461bcd60e51b81529283018d9052601a908301527f496e73756666696369656e74206f757470757420616d6f756e7400000000000090820152606490fd5b634e487b7160e01b8c5260118552828cfd5b6002548e6109cd565b6003549a6109c2565b817ffa47afdd18075c920714af4959c00b4efbc9e0f219ec97a064cc9a654eeea7e4926008558c51908152a18d8c6109b5565b5060646109aa565b634e487b7160e01b8a52601183528b8afd5b634e487b7160e01b8b52601184528c8bfd5b610c8d916118f5565b9c61095f565b885162461bcd60e51b81529081018b9052600d818b01526c24b73b30b634b2103a37b5b2b760991b818d0152606490fd5b50847f0000000000000000000000000000000000000000000000000000000000000000168714610936565b845162461bcd60e51b8152908101879052601b818701527f46726f6e742d72756e2070726f74656374696f6e20616374697665000000000081890152606490fd5b50503461029d57602036600319011261029d5760209181906001600160a01b03610d58611863565b1681526005845220549051908152f35b50503461029d578160031936011261029d5760015490516001600160a01b039091168152602090f35b5082346103bf57610da136611898565b9391610dae939193611b63565b8015610fa35733825260209260058452818784205410610f6057805495610df0610de388610dde60025487611918565b61192b565b97610dde60035486611918565b958710610f25578510610eea57906001929133835260058552878320610e178382546118f5565b9055610e248282546118f5565b9055610e32866002546118f5565b600255610e41856003546118f5565b600355610e6f86337f0000000000000000000000000000000000000000000000000000000000000000611c02565b610e9a85337f0000000000000000000000000000000000000000000000000000000000000000611c02565b7f1dc8bb69df2b8e91fbdcbfcf93d951b3f0000f085a95fe3f7946d6161439245d875180610edc3394898b846040919493926060820195825260208201520152565b0390a2558351928352820152f35b865162461bcd60e51b8152908101849052601560248201527424b739bab33334b1b4b2b73a1030b6b7bab73a102160591b6044820152606490fd5b875162461bcd60e51b81528083018690526015602482015274496e73756666696369656e7420616d6f756e74204160581b6044820152606490fd5b865162461bcd60e51b8152908101849052601d60248201527f496e73756666696369656e74206c697175696469747920746f6b656e730000006044820152606490fd5b855162461bcd60e51b8152602081850152601860248201527f496e76616c6964206c697175696469747920616d6f756e7400000000000000006044820152606490fd5b50503461029d578160031936011261029d5760207f62e78cea01bee320cd4e420270b5ea74000d11b0c9f74754ebdbfc544b05a25891611024611b37565b61102c611b86565b6001805460ff60a01b1916600160a01b17905551338152a180f35b83346103bf57806003193601126103bf57611060611b37565b600180546001600160a01b0319811690915581906001600160a01b03167f8be0079c531659141344cd1fd0a4f28419497f9722a3daafe3b4186f6b6457e08280a380f35b50503461029d578160031936011261029d576020906011549051908152f35b50503461029d578160031936011261029d576020906012549051908152f35b5091903461029d57602036600319011261029d576110fe611863565b6001600160a01b03168252600560205280822054835490929182918290818161113c575b505060809550815194855260208501528301526060820152f35b9294509250506127109081850291858304148515171561118e575060809450816111659161192b565b9161118661117983610dde60025488611918565b92610dde60035487611918565b923880611122565b634e487b7160e01b815260118652602490fd5b50503461029d578160031936011261029d57517f00000000000000000000000000000000000000000000000000000000000000006001600160a01b03168152602090f35b50903461027557602036600319011261027557813591611203611b37565b821561123f5750816020917f7511727d12158492a54f0c0225028e98b629e19d0d6a25f54b842b70ea624bce936012554260135551908152a180f35b6020606492519162461bcd60e51b8352820152600d60248201526c496e76616c696420707269636560981b6044820152fd5b50503461029d578160031936011261029d5760209060ff60015460a01c1690519015158152f35b50503461029d578160031936011261029d576020906009549051908152f35b83346103bf57806003193601126103bf576112d0611b37565b60105460115490826010558260115580611329575b50806112ef575080f35b60015461132691906001600160a01b03167f0000000000000000000000000000000000000000000000000000000000000000611c02565b80f35b60015461136091906001600160a01b03167f0000000000000000000000000000000000000000000000000000000000000000611c02565b826112e5565b50503461029d578160031936011261029d576020906010549051908152f35b5082346103bf5761139536611898565b9361139e611b63565b6113a6611b86565b6113b560ff601454161561194b565b82151580611616575b156115e1576113ef8330337f0000000000000000000000000000000000000000000000000000000000000000611ba7565b61141b8230337f0000000000000000000000000000000000000000000000000000000000000000611ba7565b80548061159e575061142d8284611918565b8460038211156115905750806001908060011c6001810180911161157d5791905b83831061155d575050505b6103e719810190811161154a57946103e882555b851061150757917f64b83944e79c3ce8d4c297411de637c3e102d064677aac0c163976ebdcd6f50e8560209795936001956114a983151561198f565b33865260058a528786206114be8482546119d4565b90556114cb8382546119d4565b90556114d9846002546119d4565b6002556114e8816003546119d4565b6003558651938452602084015260408301523391606090a25551908152f35b606490602087519162461bcd60e51b8352820152601d60248201527f496e73756666696369656e74206c6971756964697479206d696e7465640000006044820152fd5b634e487b7160e01b855260118252602485fd5b909192506115748361156f818461192b565b6119d4565b821c919061144e565b634e487b7160e01b885260118552602488fd5b901561145957506001611459565b6115ca6115c16115ba6115b18488611918565b6002549061192b565b9285611918565b6003549061192b565b808210156115da57505b9461146d565b90506115d4565b606490602087519162461bcd60e51b8352820152600f60248201526e496e76616c696420616d6f756e747360881b6044820152fd5b508115156113be565b5034610275578260031936011261027557611638611b37565b6001549060ff8260a01c1615611680575060ff60a01b1916600155513381527f5db9ee0a495bf2e6ff9c91a7834c1ba4fdd244a5e8aa4e537bd38aeae4b073aa90602090a180f35b8251638dfc202b60e01b8152fd5b50503461029d578160031936011261029d57602090600b549051908152f35b503461027557826003193601126102755760209250549051908152f35b50503461029d578160031936011261029d57602090600a549051908152f35b50503461029d578160031936011261029d576020906003549051908152f35b50503461029d578160031936011261029d57602090600d549051908152f35b5091346103bf5761173736611879565b906117438115156118b2565b811561179957600254915b1561179057600354925b600854916127109283039183831161177d576020876102968888886109ea8989611918565b634e487b7160e01b815260118852602490fd5b60025492611758565b6003549161174e565b50503461029d578160031936011261029d57517f00000000000000000000000000000000000000000000000000000000000000006001600160a01b03168152602090f35b50503461029d578160031936011261029d5760209060ff6014541690519015158152f35b8284346103bf57806003193601126103bf575060025460035482519182526020820152f35b84908434610275576020366003190112610275576020926001600160a01b03611856611863565b1681526006845220548152f35b600435906001600160a01b03821682036105ba57565b60409060031901126105ba576004359060243580151581036105ba5790565b60609060031901126105ba57600435906024359060443590565b156118b957565b60405162461bcd60e51b8152602060048201526014602482015273125b9d985b1a59081a5b9c1d5d08185b5bdd5b9d60621b6044820152606490fd5b9190820391821161190257565b634e487b7160e01b600052601160045260246000fd5b8181029291811591840414171561190257565b8115611935570490565b634e487b7160e01b600052601260045260246000fd5b1561195257565b60405162461bcd60e51b8152602060048201526015602482015274456d657267656e6379206d6f64652061637469766560581b6044820152606490fd5b1561199657565b60405162461bcd60e51b8152602060048201526016602482015275496e73756666696369656e74206c697175696469747960501b6044820152606490fd5b9190820180921161190257565b90601f8019910116810190811067ffffffffffffffff821117611a0357604052565b634e487b7160e01b600052604160045260246000fd5b6003548015611a4c5760025490670de0b6b3a76400009182810292818404149015171561190257611a499161192b565b90565b5060125490565b918215611ae15781151580611ad8575b15611a855782611a79611a7f92611a4995611918565b926119d4565b9061192b565b60405162461bcd60e51b815260206004820152602560248201527f4c69717569646974794d6174683a20494e53554646494349454e545f4c495155604482015264494449545960d81b6064820152608490fd5b50801515611a63565b60405162461bcd60e51b815260206004820152602860248201527f4c69717569646974794d6174683a20494e53554646494349454e545f494e50556044820152671517d05353d5539560c21b6064820152608490fd5b6001546001600160a01b03163303611b4b57565b60405163118cdaa760e01b8152336004820152602490fd5b600260005414611b74576002600055565b604051633ee5aeb560e01b8152600490fd5b60ff60015460a01c16611b9557565b60405163d93c066560e01b8152600490fd5b6040516323b872dd60e01b60208201526001600160a01b03928316602482015292909116604483015260648083019390935291815260a081019181831067ffffffffffffffff841117611a0357611c0092604052611ea2565b565b60405163a9059cbb60e01b60208201526001600160a01b03929092166024830152604480830193909352918152611c0091611c3e6064836119e1565b611ea2565b9190918015611d495782151580611d40575b15611cfb57670de0b6b3a7640000918281029080820484148115171561190257611c9781611c8687611c9d9561192b565b96611c9186826119d4565b95611a53565b906118f5565b918215611cf1578083029283040361190257611cb89161192b565b81808210611ce757611cc9916118f5565b906127109182810292818404149015171561190257611a499161192b565b90611cc9916118f5565b5050505061271090565b60405162461bcd60e51b815260206004820152601f60248201527f4c69717569646974794d6174683a20494e56414c49445f5245534552564553006044820152606490fd5b50811515611c55565b60405162461bcd60e51b815260206004820152601d60248201527f4c69717569646974794d6174683a20494e56414c49445f414d4f554e540000006044820152606490fd5b611d9d600c54600d54906119d4565b4210611c0057611dab611a19565b50600254670de0b6b3a7640000908181029181830481148215171561190257611dd7600354809461192b565b81811115611e9357670de0b6b3a763ffff19810190811161190257905b600b548082029182040361190257612710900410611e10575050565b81611e7e82611e74611e457f62f3780234ccfc6503993e1d970863448f907aa096ac573c8dc09692652d535d966040966119d4565b600a611e6d8682611e6687611e5a84826119d4565b60011c9660011c6118f5565b04936118f5565b04926119d4565b92836002556119d4565b8060035542600c5582519182526020820152a1565b81038181116119025790611df4565b906000602091828151910182855af115611efe576000513d611ef557506001600160a01b0381163b155b611ed35750565b604051635274afe760e01b81526001600160a01b039091166004820152602490fd5b60011415611ecc565b6040513d6000823e3d90fdfea2646970667358221220fa57f8b5134849703c7e90619bc5b4933e3ed0c8e8c432851af96526282278c964736f6c63430008180033",
  "linkReferences": {},
  "deployedLinkReferences": {}
}