{"abi":[{"type":"constructor","inputs":[{"name":"_tokenA","type":"address","internalType":"contract IERC20"},{"name":"_tokenB","type":"address","internalType":"contract IERC20"},{"name":"_owner","type":"address","internalType":"address"}],"stateMutability":"nonpayable"},{"type":"function","name":"FEE_DENOMINATOR","inputs":[],"outputs":[{"name":"","type":"uint256","internalType":"uint256"}],"stateMutability":"view"},{"type":"function","name":"MINIMUM_LIQUIDITY","inputs":[],"outputs":[{"name":"","type":"uint256","internalType":"uint256"}],"stateMutability":"view"},{"type":"function","name":"accumulatedFeesA","inputs":[],"outputs":[{"name":"","type":"uint256","internalType":"uint256"}],"stateMutability":"view"},{"type":"function","name":"accumulatedFeesB","inputs":[],"outputs":[{"name":"","type":"uint256","internalType":"uint256"}],"stateMutability":"view"},{"type":"function","name":"activateEmergencyMode","inputs":[],"outputs":[],"stateMutability":"nonpayable"},{"type":"function","name":"addLiquidity","inputs":[{"name":"amountA","type":"uint256","internalType":"uint256"},{"name":"amountB","type":"uint256","internalType":"uint256"},{"name":"minLiquidity","type":"uint256","internalType":"uint256"}],"outputs":[{"name":"liquidity","type":"uint256","internalType":"uint256"}],"stateMutability":"nonpayable"},{"type":"function","name":"dynamicFeeRate","inputs":[],"outputs":[{"name":"","type":"uint256","internalType":"uint256"}],"stateMutability":"view"},{"type":"function","name":"emergencyMode","inputs":[],"outputs":[{"name":"","type":"bool","internalType":"bool"}],"stateMutability":"view"},{"type":"function","name":"flashLoan","inputs":[{"name":"amount","type":"uint256","internalType":"uint256"},{"name":"isTokenA","type":"bool","internalType":"bool"}],"outputs":[],"stateMutability":"nonpayable"},{"type":"function","name":"frontRunProtectionBlocks","inputs":[],"outputs":[{"name":"","type":"uint256","internalType":"uint256"}],"stateMutability":"view"},{"type":"function","name":"getAmountOut","inputs":[{"name":"amountIn","type":"uint256","internalType":"uint256"},{"name":"isTokenA","type":"bool","internalType":"bool"}],"outputs":[{"name":"amountOut","type":"uint256","internalType":"uint256"}],"stateMutability":"view"},{"type":"function","name":"getCurrentPrice","inputs":[],"outputs":[{"name":"price","type":"uint256","internalType":"uint256"}],"stateMutability":"view"},{"type":"function","name":"getReserves","inputs":[],"outputs":[{"name":"_reserveA","type":"uint256","internalType":"uint256"},{"name":"_reserveB","type":"uint256","internalType":"uint256"}],"stateMutability":"view"},{"type":"function","name":"getUserInfo","inputs":[{"name":"user","type":"address","internalType":"address"}],"outputs":[{"name":"liquidityBalance","type":"uint256","internalType":"uint256"},{"name":"sharePercentage","type":"uint256","internalType":"uint256"},{"name":"estimatedValueA","type":"uint256","internalType":"uint256"},{"name":"estimatedValueB","type":"uint256","internalType":"uint256"}],"stateMutability":"view"},{"type":"function","name":"lastRebalanceTime","inputs":[],"outputs":[{"name":"","type":"uint256","internalType":"uint256"}],"stateMutability":"view"},{"type":"function","name":"lastTransactionBlock","inputs":[{"name":"","type":"address","internalType":"address"}],"outputs":[{"name":"","type":"uint256","internalType":"uint256"}],"stateMutability":"view"},{"type":"function","name":"liquidityTokens","inputs":[{"name":"","type":"address","internalType":"address"}],"outputs":[{"name":"","type":"uint256","internalType":"uint256"}],"stateMutability":"view"},{"type":"function","name":"maxSlippageProtection","inputs":[],"outputs":[{"name":"","type":"uint256","internalType":"uint256"}],"stateMutability":"view"},{"type":"function","name":"oraclePrice","inputs":[],"outputs":[{"name":"","type":"uint256","internalType":"uint256"}],"stateMutability":"view"},{"type":"function","name":"oraclePriceLastUpdate","inputs":[],"outputs":[{"name":"","type":"uint256","internalType":"uint256"}],"stateMutability":"view"},{"type":"function","name":"owner","inputs":[],"outputs":[{"name":"","type":"address","internalType":"address"}],"stateMutability":"view"},{"type":"function","name":"pause","inputs":[],"outputs":[],"stateMutability":"nonpayable"},{"type":"function","name":"paused","inputs":[],"outputs":[{"name":"","type":"bool","internalType":"bool"}],"stateMutability":"view"},{"type":"function","name":"rebalanceInterval","inputs":[],"outputs":[{"name":"","type":"uint256","internalType":"uint256"}],"stateMutability":"view"},{"type":"function","name":"rebalanceThreshold","inputs":[],"outputs":[{"name":"","type":"uint256","internalType":"uint256"}],"stateMutability":"view"},{"type":"function","name":"removeLiquidity","inputs":[{"name":"liquidity","type":"uint256","internalType":"uint256"},{"name":"minAmountA","type":"uint256","internalType":"uint256"},{"name":"minAmountB","type":"uint256","internalType":"uint256"}],"outputs":[{"name":"amountA","type":"uint256","internalType":"uint256"},{"name":"amountB","type":"uint256","internalType":"uint256"}],"stateMutability":"nonpayable"},{"type":"function","name":"renounceOwnership","inputs":[],"outputs":[],"stateMutability":"nonpayable"},{"type":"function","name":"reserveA","inputs":[],"outputs":[{"name":"","type":"uint256","internalType":"uint256"}],"stateMutability":"view"},{"type":"function","name":"reserveB","inputs":[],"outputs":[{"name":"","type":"uint256","internalType":"uint256"}],"stateMutability":"view"},{"type":"function","name":"setMEVProtection","inputs":[{"name":"_maxSlippage","type":"uint256","internalType":"uint256"},{"name":"_frontRunBlocks","type":"uint256","internalType":"uint256"}],"outputs":[],"stateMutability":"nonpayable"},{"type":"function","name":"swap","inputs":[{"name":"tokenIn","type":"address","internalType":"address"},{"name":"amountIn","type":"uint256","internalType":"uint256"},{"name":"minAmountOut","type":"uint256","internalType":"uint256"}],"outputs":[{"name":"amountOut","type":"uint256","internalType":"uint256"}],"stateMutability":"nonpayable"},{"type":"function","name":"tokenA","inputs":[],"outputs":[{"name":"","type":"address","internalType":"contract IERC20"}],"stateMutability":"view"},{"type":"function","name":"tokenB","inputs":[],"outputs":[{"name":"","type":"address","internalType":"contract IERC20"}],"stateMutability":"view"},{"type":"function","name":"totalLiquidityTokens","inputs":[],"outputs":[{"name":"","type":"uint256","internalType":"uint256"}],"stateMutability":"view"},{"type":"function","name":"transferOwnership","inputs":[{"name":"newOwner","type":"address","internalType":"address"}],"outputs":[],"stateMutability":"nonpayable"},{"type":"function","name":"unpause","inputs":[],"outputs":[],"stateMutability":"nonpayable"},{"type":"function","name":"updateOraclePrice","inputs":[{"name":"_newPrice","type":"uint256","internalType":"uint256"}],"outputs":[],"stateMutability":"nonpayable"},{"type":"function","name":"withdrawFees","inputs":[],"outputs":[],"stateMutability":"nonpayable"},{"type":"event","name":"DynamicFeeUpdated","inputs":[{"name":"newFeeRate","type":"uint256","indexed":false,"internalType":"uint256"}],"anonymous":false},{"type":"event","name":"EmergencyModeActivated","inputs":[],"anonymous":false},{"type":"event","name":"LiquidityAdded","inputs":[{"name":"provider","type":"address","indexed":true,"internalType":"address"},{"name":"amountA","type":"uint256","indexed":false,"internalType":"uint256"},{"name":"amountB","type":"uint256","indexed":false,"internalType":"uint256"},{"name":"liquidity","type":"uint256","indexed":false,"internalType":"uint256"}],"anonymous":false},{"type":"event","name":"LiquidityRemoved","inputs":[{"name":"provider","type":"address","indexed":true,"internalType":"address"},{"name":"amountA","type":"uint256","indexed":false,"internalType":"uint256"},{"name":"amountB","type":"uint256","indexed":false,"internalType":"uint256"},{"name":"liquidity","type":"uint256","indexed":false,"internalType":"uint256"}],"anonymous":false},{"type":"event","name":"OraclePriceUpdated","inputs":[{"name":"newPrice","type":"uint256","indexed":false,"internalType":"uint256"}],"anonymous":false},{"type":"event","name":"OwnershipTransferred","inputs":[{"name":"previousOwner","type":"address","indexed":true,"internalType":"address"},{"name":"newOwner","type":"address","indexed":true,"internalType":"address"}],"anonymous":false},{"type":"event","name":"Paused","inputs":[{"name":"account","type":"address","indexed":false,"internalType":"address"}],"anonymous":false},{"type":"event","name":"RebalanceTriggered","inputs":[{"name":"newReserveA","type":"uint256","indexed":false,"internalType":"uint256"},{"name":"newReserveB","type":"uint256","indexed":false,"internalType":"uint256"}],"anonymous":false},{"type":"event","name":"Swap","inputs":[{"name":"user","type":"address","indexed":true,"internalType":"address"},{"name":"tokenIn","type":"address","indexed":false,"internalType":"address"},{"name":"tokenOut","type":"address","indexed":false,"internalType":"address"},{"name":"amountIn","type":"uint256","indexed":false,"internalType":"uint256"},{"name":"amountOut","type":"uint256","indexed":false,"internalType":"uint256"}],"anonymous":false},{"type":"event","name":"Unpaused","inputs":[{"name":"account","type":"address","indexed":false,"internalType":"address"}],"anonymous":false},{"type":"error","name":"EnforcedPause","inputs":[]},{"type":"error","name":"ExpectedPause","inputs":[]},{"type":"error","name":"OwnableInvalidOwner","inputs":[{"name":"owner","type":"address","internalType":"address"}]},{"type":"error","name":"OwnableUnauthorizedAccount","inputs":[{"name":"account","type":"address","internalType":"address"}]},{"type":"error","name":"ReentrancyGuardReentrantCall","inputs":[]},{"type":"error","name":"SafeERC20FailedOperation","inputs":[{"name":"token","type":"address","internalType":"address"}]}],"bytecode":{"object":"0x60c0604052601e6006556107d06007556107d0600855610e10600a555f600c55670de0b6b3a7640000600f55348015610036575f5ffd5b50604051613c76380380613c7683398181016040528101906100589190610404565b8060015f819055505f73ffffffffffffffffffffffffffffffffffffffff168173ffffffffffffffffffffffffffffffffffffffff16036100d0575f6040517f1e4fbdf70000000000000000000000000000000000000000000000000000000081526004016100c79190610463565b60405180910390fd5b6100df816102a860201b60201c565b505f73ffffffffffffffffffffffffffffffffffffffff168373ffffffffffffffffffffffffffffffffffffffff160361014e576040517f08c379a0000000000000000000000000000000000000000000000000000000008152600401610145906104d6565b60405180910390fd5b5f73ffffffffffffffffffffffffffffffffffffffff168273ffffffffffffffffffffffffffffffffffffffff16036101bc576040517f08c379a00000000000000000000000000000000000000000000000000000000081526004016101b39061053e565b60405180910390fd5b8173ffffffffffffffffffffffffffffffffffffffff168373ffffffffffffffffffffffffffffffffffffffff160361022a576040517f08c379a0000000000000000000000000000000000000000000000000000000008152600401610221906105a6565b60405180910390fd5b8273ffffffffffffffffffffffffffffffffffffffff1660808173ffffffffffffffffffffffffffffffffffffffff16815250508173ffffffffffffffffffffffffffffffffffffffff1660a08173ffffffffffffffffffffffffffffffffffffffff168152505042600981905550426010819055505050506105c4565b5f60015f9054906101000a900473ffffffffffffffffffffffffffffffffffffffff1690508160015f6101000a81548173ffffffffffffffffffffffffffffffffffffffff021916908373ffffffffffffffffffffffffffffffffffffffff1602179055508173ffffffffffffffffffffffffffffffffffffffff168173ffffffffffffffffffffffffffffffffffffffff167f8be0079c531659141344cd1fd0a4f28419497f9722a3daafe3b4186f6b6457e060405160405180910390a35050565b5f5ffd5b5f73ffffffffffffffffffffffffffffffffffffffff82169050919050565b5f6103988261036f565b9050919050565b5f6103a98261038e565b9050919050565b6103b98161039f565b81146103c3575f5ffd5b50565b5f815190506103d4816103b0565b92915050565b6103e38161038e565b81146103ed575f5ffd5b50565b5f815190506103fe816103da565b92915050565b5f5f5f6060848603121561041b5761041a61036b565b5b5f610428868287016103c6565b9350506020610439868287016103c6565b925050604061044a868287016103f0565b9150509250925092565b61045d8161038e565b82525050565b5f6020820190506104765f830184610454565b92915050565b5f82825260208201905092915050565b7f546f6b656e412063616e6e6f74206265207a65726f20616464726573730000005f82015250565b5f6104c0601d8361047c565b91506104cb8261048c565b602082019050919050565b5f6020820190508181035f8301526104ed816104b4565b9050919050565b7f546f6b656e422063616e6e6f74206265207a65726f20616464726573730000005f82015250565b5f610528601d8361047c565b9150610533826104f4565b602082019050919050565b5f6020820190508181035f8301526105558161051c565b9050919050565b7f546f6b656e73206d75737420626520646966666572656e7400000000000000005f82015250565b5f61059060188361047c565b915061059b8261055c565b602082019050919050565b5f6020820190508181035f8301526105bd81610584565b9050919050565b60805160a0516135fe6106785f395f81816108e301528181610bbd01528181610cb001528181611045015281816112fc015281816115bb01528181611706015281816117c80152818161199e01528181611a060152611a9f01525f81816106e30152818161089601528181610b6201528181610ffa015281816112a70152818161139401528181611653015281816116e0015281816118650152818161194e01528181611a2c0152611b3c01526135fe5ff3fe608060405234801561000f575f5ffd5b5060043610610230575f3560e01c80637105c19f1161012e578063ba9a7a56116100b6578063d9ca21d51161007a578063d9ca21d51461062b578063dc5fa6c514610649578063df463ef114610667578063eb91d37e14610685578063f2fde38b146106a357610230565b8063ba9a7a56146105ab578063c8787f40146105c9578063d0096010146105e5578063d73792a9146105ef578063d9c018f21461060d57610230565b80638da5cb5b116100fd5780638da5cb5b146104df578063909feb71146104fd5780639f1d0f591461052d578063a70760381461055d578063b81b8c9a1461058d57610230565b80637105c19f1461047c578063715018a61461049a5780638456cb59146104a4578063857620e1146104ae57610230565b80633f4ba83a116101bc5780635ead3c5d116101805780635ead3c5d146103d55780635f64b55b146103f157806362b80f2f1461040f5780636386c1c71461042b578063668aa8241461045e57610230565b80633f4ba83a14610355578063422f10431461035f578063455d48f51461038f578063476343ee146103ad5780635c975abb146103b757610230565b806316d1d9161161020357806316d1d916146102bf57806319e36f3b146102dd5780631bfd77ab146102fb5780631cb4a351146103195780633dfe9f6a1461033757610230565b80630902f1ac146102345780630905f560146102535780630fc63d101461027157806311106ee21461028f575b5f5ffd5b61023c6106bf565b60405161024a92919061272a565b60405180910390f35b61025b6106cf565b604051610268919061276b565b60405180910390f35b6102796106e1565b60405161028691906127fe565b60405180910390f35b6102a960048036038101906102a4919061286f565b610705565b6040516102b691906128ad565b60405180910390f35b6102c76107b1565b6040516102d491906128ad565b60405180910390f35b6102e56107b7565b6040516102f291906128ad565b60405180910390f35b6103036107bd565b60405161031091906128ad565b60405180910390f35b6103216107c3565b60405161032e91906128ad565b60405180910390f35b61033f6107c9565b60405161034c91906128ad565b60405180910390f35b61035d6107cf565b005b610379600480360381019061037491906128c6565b6107e1565b60405161038691906128ad565b60405180910390f35b610397610b24565b6040516103a491906128ad565b60405180910390f35b6103b5610b2a565b005b6103bf610c06565b6040516103cc919061276b565b60405180910390f35b6103ef60048036038101906103ea9190612916565b610c1c565b005b6103f9610cae565b60405161040691906127fe565b60405180910390f35b61042960048036038101906104249190612941565b610cd2565b005b610445600480360381019061044091906129ba565b610cec565b60405161045594939291906129e5565b60405180910390f35b610466610d99565b60405161047391906128ad565b60405180910390f35b610484610d9f565b60405161049191906128ad565b60405180910390f35b6104a2610da5565b005b6104ac610db8565b005b6104c860048036038101906104c391906128c6565b610dca565b6040516104d692919061272a565b60405180910390f35b6104e76110ec565b6040516104f49190612a37565b60405180910390f35b610517600480360381019061051291906129ba565b611114565b60405161052491906128ad565b60405180910390f35b61054760048036038101906105429190612a50565b611129565b60405161055491906128ad565b60405180910390f35b610577600480360381019061057291906129ba565b611755565b60405161058491906128ad565b60405180910390f35b61059561176a565b6040516105a291906128ad565b60405180910390f35b6105b3611770565b6040516105c091906128ad565b60405180910390f35b6105e360048036038101906105de919061286f565b611776565b005b6105ed611c26565b005b6105f7611c76565b60405161060491906128ad565b60405180910390f35b610615611c7c565b60405161062291906128ad565b60405180910390f35b610633611c82565b60405161064091906128ad565b60405180910390f35b610651611c88565b60405161065e91906128ad565b60405180910390f35b61066f611c8e565b60405161067c91906128ad565b60405180910390f35b61068d611c94565b60405161069a91906128ad565b60405180910390f35b6106bd60048036038101906106b891906129ba565b611cd1565b005b5f5f600254600354915091509091565b60115f9054906101000a900460ff1681565b7f000000000000000000000000000000000000000000000000000000000000000081565b5f5f8311610748576040517f08c379a000000000000000000000000000000000000000000000000000000000815260040161073f90612afa565b60405180910390fd5b5f826107565760035461075a565b6002545b90505f8361076a5760025461076e565b6003545b90505f6127106006546127106107849190612b45565b8761078f9190612b78565b6107999190612be6565b90506107a6818484611d55565b935050505092915050565b600a5481565b60035481565b60075481565b60045481565b60085481565b6107d7611e1a565b6107df611ea1565b565b5f6107ea611f03565b6107f2611f47565b60115f9054906101000a900460ff1615610841576040517f08c379a000000000000000000000000000000000000000000000000000000000815260040161083890612c60565b60405180910390fd5b5f8411801561084f57505f83115b61088e576040517f08c379a000000000000000000000000000000000000000000000000000000000815260040161088590612cc8565b60405180910390fd5b6108db3330867f000000000000000000000000000000000000000000000000000000000000000073ffffffffffffffffffffffffffffffffffffffff16611f88909392919063ffffffff16565b6109283330857f000000000000000000000000000000000000000000000000000000000000000073ffffffffffffffffffffffffffffffffffffffff16611f88909392919063ffffffff16565b5f60045403610962576103e861094884866109439190612b78565b61200a565b6109529190612b45565b90506103e86004819055506109a3565b6109a0600254600454866109769190612b78565b6109809190612be6565b600354600454866109919190612b78565b61099b9190612be6565b612081565b90505b818110156109e6576040517f08c379a00000000000000000000000000000000000000000000000000000000081526004016109dd90612d30565b60405180910390fd5b5f8111610a28576040517f08c379a0000000000000000000000000000000000000000000000000000000008152600401610a1f90612d98565b60405180910390fd5b8060055f3373ffffffffffffffffffffffffffffffffffffffff1673ffffffffffffffffffffffffffffffffffffffff1681526020019081526020015f205f828254610a749190612db6565b925050819055508060045f828254610a8c9190612db6565b925050819055508360025f828254610aa49190612db6565b925050819055508260035f828254610abc9190612db6565b925050819055503373ffffffffffffffffffffffffffffffffffffffff167f64b83944e79c3ce8d4c297411de637c3e102d064677aac0c163976ebdcd6f50e858584604051610b0d93929190612de9565b60405180910390a2610b1d612099565b9392505050565b600d5481565b610b32611e1a565b5f600d5490505f600e5490505f600d819055505f600e819055505f821115610ba757610ba6610b5f6110ec565b837f000000000000000000000000000000000000000000000000000000000000000073ffffffffffffffffffffffffffffffffffffffff166120a29092919063ffffffff16565b5b5f811115610c0257610c01610bba6110ec565b827f000000000000000000000000000000000000000000000000000000000000000073ffffffffffffffffffffffffffffffffffffffff166120a29092919063ffffffff16565b5b5050565b5f600160149054906101000a900460ff16905090565b610c24611e1a565b5f8111610c66576040517f08c379a0000000000000000000000000000000000000000000000000000000008152600401610c5d90612e68565b60405180910390fd5b80600f81905550426010819055507f7511727d12158492a54f0c0225028e98b629e19d0d6a25f54b842b70ea624bce81604051610ca391906128ad565b60405180910390a150565b7f000000000000000000000000000000000000000000000000000000000000000081565b610cda611e1a565b8160078190555080600c819055505050565b5f5f5f5f60055f8673ffffffffffffffffffffffffffffffffffffffff1673ffffffffffffffffffffffffffffffffffffffff1681526020019081526020015f205493505f6004541115610d925760045461271085610d4b9190612b78565b610d559190612be6565b925060045460025485610d689190612b78565b610d729190612be6565b915060045460035485610d859190612b78565b610d8f9190612be6565b90505b9193509193565b600f5481565b600e5481565b610dad611e1a565b610db65f612121565b565b610dc0611e1a565b610dc86121e4565b565b5f5f610dd4611f03565b5f8511610e16576040517f08c379a0000000000000000000000000000000000000000000000000000000008152600401610e0d90612ed0565b60405180910390fd5b8460055f3373ffffffffffffffffffffffffffffffffffffffff1673ffffffffffffffffffffffffffffffffffffffff1681526020019081526020015f20541015610e96576040517f08c379a0000000000000000000000000000000000000000000000000000000008152600401610e8d90612f38565b60405180910390fd5b5f60045490508060025487610eab9190612b78565b610eb59190612be6565b92508060035487610ec69190612b78565b610ed09190612be6565b915084831015610f15576040517f08c379a0000000000000000000000000000000000000000000000000000000008152600401610f0c90612fa0565b60405180910390fd5b83821015610f58576040517f08c379a0000000000000000000000000000000000000000000000000000000008152600401610f4f90613008565b60405180910390fd5b8560055f3373ffffffffffffffffffffffffffffffffffffffff1673ffffffffffffffffffffffffffffffffffffffff1681526020019081526020015f205f828254610fa49190612b45565b925050819055508560045f828254610fbc9190612b45565b925050819055508260025f828254610fd49190612b45565b925050819055508160035f828254610fec9190612b45565b9250508190555061103e33847f000000000000000000000000000000000000000000000000000000000000000073ffffffffffffffffffffffffffffffffffffffff166120a29092919063ffffffff16565b61108933837f000000000000000000000000000000000000000000000000000000000000000073ffffffffffffffffffffffffffffffffffffffff166120a29092919063ffffffff16565b3373ffffffffffffffffffffffffffffffffffffffff167f1dc8bb69df2b8e91fbdcbfcf93d951b3f0000f085a95fe3f7946d6161439245d8484896040516110d393929190612de9565b60405180910390a2506110e4612099565b935093915050565b5f60015f9054906101000a900473ffffffffffffffffffffffffffffffffffffffff16905090565b6005602052805f5260405f205f915090505481565b5f611132611f03565b61113a611f47565b60115f9054906101000a900460ff1615611189576040517f08c379a000000000000000000000000000000000000000000000000000000000815260040161118090612c60565b60405180910390fd5b5f600c5411156112215743600c54600b5f3373ffffffffffffffffffffffffffffffffffffffff1673ffffffffffffffffffffffffffffffffffffffff1681526020019081526020015f20546111df9190612db6565b1115611220576040517f08c379a000000000000000000000000000000000000000000000000000000000815260040161121790613070565b60405180910390fd5b5b43600b5f3373ffffffffffffffffffffffffffffffffffffffff1673ffffffffffffffffffffffffffffffffffffffff1681526020019081526020015f20819055505f83116112a5576040517f08c379a000000000000000000000000000000000000000000000000000000000815260040161129c90612afa565b60405180910390fd5b7f000000000000000000000000000000000000000000000000000000000000000073ffffffffffffffffffffffffffffffffffffffff168473ffffffffffffffffffffffffffffffffffffffff16148061134a57507f000000000000000000000000000000000000000000000000000000000000000073ffffffffffffffffffffffffffffffffffffffff168473ffffffffffffffffffffffffffffffffffffffff16145b611389576040517f08c379a0000000000000000000000000000000000000000000000000000000008152600401611380906130d8565b60405180910390fd5b611391612246565b5f7f000000000000000000000000000000000000000000000000000000000000000073ffffffffffffffffffffffffffffffffffffffff168573ffffffffffffffffffffffffffffffffffffffff161490505f816113f1576003546113f5565b6002545b90505f8261140557600254611409565b6003545b90505f61271060065461271061141f9190612b45565b8861142a9190612b78565b6114349190612be6565b9050611441818484611d55565b945085851015611486576040517f08c379a000000000000000000000000000000000000000000000000000000000815260040161147d90613140565b60405180910390fd5b5f85116114c8576040517f08c379a00000000000000000000000000000000000000000000000000000000081526004016114bf906131a8565b60405180910390fd5b5f6114d4888585612322565b905060075481111561151b576040517f08c379a000000000000000000000000000000000000000000000000000000000815260040161151290613210565b60405180910390fd5b61154833308a8c73ffffffffffffffffffffffffffffffffffffffff16611f88909392919063ffffffff16565b5f6127106006548a61155a9190612b78565b6115649190612be6565b905085156116045780600d5f82825461157d9190612db6565b925050819055508860025f8282546115959190612db6565b925050819055508660035f8282546115ad9190612b45565b925050819055506115ff33887f000000000000000000000000000000000000000000000000000000000000000073ffffffffffffffffffffffffffffffffffffffff166120a29092919063ffffffff16565b611698565b80600e5f8282546116159190612db6565b925050819055508860035f82825461162d9190612db6565b925050819055508660025f8282546116459190612b45565b9250508190555061169733887f000000000000000000000000000000000000000000000000000000000000000073ffffffffffffffffffffffffffffffffffffffff166120a29092919063ffffffff16565b5b6116a061249d565b3373ffffffffffffffffffffffffffffffffffffffff167fcd3829a3813dc3cdd188fd3d01dcf3268c16be2fdd2dd21d0665418816e460628b88611704577f0000000000000000000000000000000000000000000000000000000000000000611726565b7f00000000000000000000000000000000000000000000000000000000000000005b8c8b604051611738949392919061322e565b60405180910390a250505050505061174e612099565b9392505050565b600b602052805f5260405f205f915090505481565b60105481565b6103e881565b61177e611f03565b5f82116117c0576040517f08c379a00000000000000000000000000000000000000000000000000000000081526004016117b7906132bb565b60405180910390fd5b5f81611863577f000000000000000000000000000000000000000000000000000000000000000073ffffffffffffffffffffffffffffffffffffffff166370a08231306040518263ffffffff1660e01b815260040161181f9190612a37565b602060405180830381865afa15801561183a573d5f5f3e3d5ffd5b505050506040513d601f19601f8201168201806040525081019061185e91906132ed565b6118fc565b7f000000000000000000000000000000000000000000000000000000000000000073ffffffffffffffffffffffffffffffffffffffff166370a08231306040518263ffffffff1660e01b81526004016118bc9190612a37565b602060405180830381865afa1580156118d7573d5f5f3e3d5ffd5b505050506040513d601f19601f820116820180604052508101906118fb91906132ed565b5b905082811015611941576040517f08c379a000000000000000000000000000000000000000000000000000000000815260040161193890612d98565b60405180910390fd5b81156119975761199233847f000000000000000000000000000000000000000000000000000000000000000073ffffffffffffffffffffffffffffffffffffffff166120a29092919063ffffffff16565b6119e3565b6119e233847f000000000000000000000000000000000000000000000000000000000000000073ffffffffffffffffffffffffffffffffffffffff166120a29092919063ffffffff16565b5b3373ffffffffffffffffffffffffffffffffffffffff166312badd6b83611a2a577f0000000000000000000000000000000000000000000000000000000000000000611a4c565b7f00000000000000000000000000000000000000000000000000000000000000005b856040518363ffffffff1660e01b8152600401611a6a929190613318565b5f604051808303815f87803b158015611a81575f5ffd5b505af1158015611a93573d5f5f3e3d5ffd5b505050505f82611b3a577f000000000000000000000000000000000000000000000000000000000000000073ffffffffffffffffffffffffffffffffffffffff166370a08231306040518263ffffffff1660e01b8152600401611af69190612a37565b602060405180830381865afa158015611b11573d5f5f3e3d5ffd5b505050506040513d601f19601f82011682018060405250810190611b3591906132ed565b611bd3565b7f000000000000000000000000000000000000000000000000000000000000000073ffffffffffffffffffffffffffffffffffffffff166370a08231306040518263ffffffff1660e01b8152600401611b939190612a37565b602060405180830381865afa158015611bae573d5f5f3e3d5ffd5b505050506040513d601f19601f82011682018060405250810190611bd291906132ed565b5b905081811015611c18576040517f08c379a0000000000000000000000000000000000000000000000000000000008152600401611c0f90613389565b60405180910390fd5b5050611c22612099565b5050565b611c2e611e1a565b600160115f6101000a81548160ff0219169083151502179055507f9e91804b7b70a36dcecd9afc85507eb02441c485502f58d0e68589aa50b8226a60405160405180910390a1565b61271081565b60065481565b60095481565b60025481565b600c5481565b5f5f60035403611ca857600f549050611cce565b600354670de0b6b3a7640000600254611cc19190612b78565b611ccb9190612be6565b90505b90565b611cd9611e1a565b5f73ffffffffffffffffffffffffffffffffffffffff168173ffffffffffffffffffffffffffffffffffffffff1603611d49575f6040517f1e4fbdf7000000000000000000000000000000000000000000000000000000008152600401611d409190612a37565b60405180910390fd5b611d5281612121565b50565b5f5f8411611d98576040517f08c379a0000000000000000000000000000000000000000000000000000000008152600401611d8f90613417565b60405180910390fd5b5f83118015611da657505f82115b611de5576040517f08c379a0000000000000000000000000000000000000000000000000000000008152600401611ddc906134a5565b60405180910390fd5b5f8285611df29190612b78565b90505f8585611e019190612db6565b90508082611e0f9190612be6565b925050509392505050565b611e2261253e565b73ffffffffffffffffffffffffffffffffffffffff16611e406110ec565b73ffffffffffffffffffffffffffffffffffffffff1614611e9f57611e6361253e565b6040517f118cdaa7000000000000000000000000000000000000000000000000000000008152600401611e969190612a37565b60405180910390fd5b565b611ea9612545565b5f600160146101000a81548160ff0219169083151502179055507f5db9ee0a495bf2e6ff9c91a7834c1ba4fdd244a5e8aa4e537bd38aeae4b073aa611eec61253e565b604051611ef99190612a37565b60405180910390a1565b60025f5403611f3e576040517f3ee5aeb500000000000000000000000000000000000000000000000000000000815260040160405180910390fd5b60025f81905550565b611f4f610c06565b15611f86576040517fd93c066500000000000000000000000000000000000000000000000000000000815260040160405180910390fd5b565b612004848573ffffffffffffffffffffffffffffffffffffffff166323b872dd868686604051602401611fbd939291906134c3565b604051602081830303815290604052915060e01b6020820180517bffffffffffffffffffffffffffffffffffffffffffffffffffffffff8381831617835250505050612585565b50505050565b5f600382111561206f578190505f60016002846120279190612be6565b6120319190612db6565b90505b8181101561206957809150600281828561204e9190612be6565b6120589190612db6565b6120629190612be6565b9050612034565b5061207c565b5f821461207b57600190505b5b919050565b5f81831061208f5781612091565b825b905092915050565b60015f81905550565b61211c838473ffffffffffffffffffffffffffffffffffffffff1663a9059cbb85856040516024016120d5929190613318565b604051602081830303815290604052915060e01b6020820180517bffffffffffffffffffffffffffffffffffffffffffffffffffffffff8381831617835250505050612585565b505050565b5f60015f9054906101000a900473ffffffffffffffffffffffffffffffffffffffff1690508160015f6101000a81548173ffffffffffffffffffffffffffffffffffffffff021916908373ffffffffffffffffffffffffffffffffffffffff1602179055508173ffffffffffffffffffffffffffffffffffffffff168173ffffffffffffffffffffffffffffffffffffffff167f8be0079c531659141344cd1fd0a4f28419497f9722a3daafe3b4186f6b6457e060405160405180910390a35050565b6121ec611f47565b60018060146101000a81548160ff0219169083151502179055507f62e78cea01bee320cd4e420270b5ea74000d11b0c9f74754ebdbfc544b05a25861222f61253e565b60405161223c9190612a37565b60405180910390a1565b5f61224f611c94565b90505f600f54821161226e5781600f546122699190612b45565b61227d565b600f548261227c9190612b45565b5b90505f600f54612710836122919190612b78565b61229b9190612be6565b90505f6103e8605a836122ae9190612b78565b6122b89190612be6565b600a6122c49190612db6565b905060648111156122d457606490505b600654811461231c57806006819055507ffa47afdd18075c920714af4959c00b4efbc9e0f219ec97a064cc9a654eeea7e48160405161231391906128ad565b60405180910390a15b50505050565b5f5f8411612365576040517f08c379a000000000000000000000000000000000000000000000000000000000815260040161235c90613542565b60405180910390fd5b5f8311801561237357505f82115b6123b2576040517f08c379a00000000000000000000000000000000000000000000000000000000081526004016123a9906135aa565b60405180910390fd5b5f83670de0b6b3a7640000846123c89190612b78565b6123d29190612be6565b90505f85856123e19190612db6565b90505f6123ef878787611d55565b90505f81866123fe9190612b45565b90505f810361241557612710945050505050612496565b5f83670de0b6b3a76400008361242b9190612b78565b6124359190612be6565b90508481106124695784612710868361244e9190612b45565b6124589190612b78565b6124629190612be6565b9550612490565b8461271082876124799190612b45565b6124839190612b78565b61248d9190612be6565b95505b50505050505b9392505050565b600a546009546124ad9190612db6565b421061253c575f670de0b6b3a764000090505f600354670de0b6b3a76400006002546124d99190612b78565b6124e39190612be6565b90505f8282116124fe5781836124f99190612b45565b61250b565b828261250a9190612b45565b5b90506127106008548461251e9190612b78565b6125289190612be6565b81111561253857612537612620565b5b5050505b565b5f33905090565b61254d610c06565b612583576040517f8dfc202b00000000000000000000000000000000000000000000000000000000815260040160405180910390fd5b565b5f5f60205f8451602086015f885af1806125a4576040513d5f823e3d81fd5b3d92505f519150505f82146125bd5760018114156125d8565b5f8473ffffffffffffffffffffffffffffffffffffffff163b145b1561261a57836040517f5274afe70000000000000000000000000000000000000000000000000000000081526004016126119190612a37565b60405180910390fd5b50505050565b5f60026003546002546126339190612db6565b61263d9190612be6565b90505f60026003546002546126529190612db6565b61265c9190612be6565b90505f600a6002548461266f9190612b45565b6126799190612be6565b90505f600a6003548461268c9190612b45565b6126969190612be6565b90508160025f8282546126a99190612db6565b925050819055508060035f8282546126c19190612db6565b92505081905550426009819055507f62f3780234ccfc6503993e1d970863448f907aa096ac573c8dc09692652d535d60025460035460405161270492919061272a565b60405180910390a150505050565b5f819050919050565b61272481612712565b82525050565b5f60408201905061273d5f83018561271b565b61274a602083018461271b565b9392505050565b5f8115159050919050565b61276581612751565b82525050565b5f60208201905061277e5f83018461275c565b92915050565b5f73ffffffffffffffffffffffffffffffffffffffff82169050919050565b5f819050919050565b5f6127c66127c16127bc84612784565b6127a3565b612784565b9050919050565b5f6127d7826127ac565b9050919050565b5f6127e8826127cd565b9050919050565b6127f8816127de565b82525050565b5f6020820190506128115f8301846127ef565b92915050565b5f5ffd5b61282481612712565b811461282e575f5ffd5b50565b5f8135905061283f8161281b565b92915050565b61284e81612751565b8114612858575f5ffd5b50565b5f8135905061286981612845565b92915050565b5f5f6040838503121561288557612884612817565b5b5f61289285828601612831565b92505060206128a38582860161285b565b9150509250929050565b5f6020820190506128c05f83018461271b565b92915050565b5f5f5f606084860312156128dd576128dc612817565b5b5f6128ea86828701612831565b93505060206128fb86828701612831565b925050604061290c86828701612831565b9150509250925092565b5f6020828403121561292b5761292a612817565b5b5f61293884828501612831565b91505092915050565b5f5f6040838503121561295757612956612817565b5b5f61296485828601612831565b925050602061297585828601612831565b9150509250929050565b5f61298982612784565b9050919050565b6129998161297f565b81146129a3575f5ffd5b50565b5f813590506129b481612990565b92915050565b5f602082840312156129cf576129ce612817565b5b5f6129dc848285016129a6565b91505092915050565b5f6080820190506129f85f83018761271b565b612a05602083018661271b565b612a12604083018561271b565b612a1f606083018461271b565b95945050505050565b612a318161297f565b82525050565b5f602082019050612a4a5f830184612a28565b92915050565b5f5f5f60608486031215612a6757612a66612817565b5b5f612a74868287016129a6565b9350506020612a8586828701612831565b9250506040612a9686828701612831565b9150509250925092565b5f82825260208201905092915050565b7f496e76616c696420696e70757420616d6f756e740000000000000000000000005f82015250565b5f612ae4601483612aa0565b9150612aef82612ab0565b602082019050919050565b5f6020820190508181035f830152612b1181612ad8565b9050919050565b7f4e487b71000000000000000000000000000000000000000000000000000000005f52601160045260245ffd5b5f612b4f82612712565b9150612b5a83612712565b9250828203905081811115612b7257612b71612b18565b5b92915050565b5f612b8282612712565b9150612b8d83612712565b9250828202612b9b81612712565b91508282048414831517612bb257612bb1612b18565b5b5092915050565b7f4e487b71000000000000000000000000000000000000000000000000000000005f52601260045260245ffd5b5f612bf082612712565b9150612bfb83612712565b925082612c0b57612c0a612bb9565b5b828204905092915050565b7f456d657267656e6379206d6f64652061637469766500000000000000000000005f82015250565b5f612c4a601583612aa0565b9150612c5582612c16565b602082019050919050565b5f6020820190508181035f830152612c7781612c3e565b9050919050565b7f496e76616c696420616d6f756e747300000000000000000000000000000000005f82015250565b5f612cb2600f83612aa0565b9150612cbd82612c7e565b602082019050919050565b5f6020820190508181035f830152612cdf81612ca6565b9050919050565b7f496e73756666696369656e74206c6971756964697479206d696e7465640000005f82015250565b5f612d1a601d83612aa0565b9150612d2582612ce6565b602082019050919050565b5f6020820190508181035f830152612d4781612d0e565b9050919050565b7f496e73756666696369656e74206c6971756964697479000000000000000000005f82015250565b5f612d82601683612aa0565b9150612d8d82612d4e565b602082019050919050565b5f6020820190508181035f830152612daf81612d76565b9050919050565b5f612dc082612712565b9150612dcb83612712565b9250828201905080821115612de357612de2612b18565b5b92915050565b5f606082019050612dfc5f83018661271b565b612e09602083018561271b565b612e16604083018461271b565b949350505050565b7f496e76616c6964207072696365000000000000000000000000000000000000005f82015250565b5f612e52600d83612aa0565b9150612e5d82612e1e565b602082019050919050565b5f6020820190508181035f830152612e7f81612e46565b9050919050565b7f496e76616c6964206c697175696469747920616d6f756e7400000000000000005f82015250565b5f612eba601883612aa0565b9150612ec582612e86565b602082019050919050565b5f6020820190508181035f830152612ee781612eae565b9050919050565b7f496e73756666696369656e74206c697175696469747920746f6b656e730000005f82015250565b5f612f22601d83612aa0565b9150612f2d82612eee565b602082019050919050565b5f6020820190508181035f830152612f4f81612f16565b9050919050565b7f496e73756666696369656e7420616d6f756e74204100000000000000000000005f82015250565b5f612f8a601583612aa0565b9150612f9582612f56565b602082019050919050565b5f6020820190508181035f830152612fb781612f7e565b9050919050565b7f496e73756666696369656e7420616d6f756e74204200000000000000000000005f82015250565b5f612ff2601583612aa0565b9150612ffd82612fbe565b602082019050919050565b5f6020820190508181035f83015261301f81612fe6565b9050919050565b7f46726f6e742d72756e2070726f74656374696f6e2061637469766500000000005f82015250565b5f61305a601b83612aa0565b915061306582613026565b602082019050919050565b5f6020820190508181035f8301526130878161304e565b9050919050565b7f496e76616c696420746f6b656e000000000000000000000000000000000000005f82015250565b5f6130c2600d83612aa0565b91506130cd8261308e565b602082019050919050565b5f6020820190508181035f8301526130ef816130b6565b9050919050565b7f496e73756666696369656e74206f757470757420616d6f756e740000000000005f82015250565b5f61312a601a83612aa0565b9150613135826130f6565b602082019050919050565b5f6020820190508181035f8301526131578161311e565b9050919050565b7f496e76616c6964206f757470757420616d6f756e7400000000000000000000005f82015250565b5f613192601583612aa0565b915061319d8261315e565b602082019050919050565b5f6020820190508181035f8301526131bf81613186565b9050919050565b7f507269636520696d7061637420746f6f206869676800000000000000000000005f82015250565b5f6131fa601583612aa0565b9150613205826131c6565b602082019050919050565b5f6020820190508181035f830152613227816131ee565b9050919050565b5f6080820190506132415f830187612a28565b61324e6020830186612a28565b61325b604083018561271b565b613268606083018461271b565b95945050505050565b7f496e76616c696420616d6f756e740000000000000000000000000000000000005f82015250565b5f6132a5600e83612aa0565b91506132b082613271565b602082019050919050565b5f6020820190508181035f8301526132d281613299565b9050919050565b5f815190506132e78161281b565b92915050565b5f6020828403121561330257613301612817565b5b5f61330f848285016132d9565b91505092915050565b5f60408201905061332b5f830185612a28565b613338602083018461271b565b9392505050565b7f466c617368206c6f616e206e6f742072657061696400000000000000000000005f82015250565b5f613373601583612aa0565b915061337e8261333f565b602082019050919050565b5f6020820190508181035f8301526133a081613367565b9050919050565b7f4c69717569646974794d6174683a20494e53554646494349454e545f494e50555f8201527f545f414d4f554e54000000000000000000000000000000000000000000000000602082015250565b5f613401602883612aa0565b915061340c826133a7565b604082019050919050565b5f6020820190508181035f83015261342e816133f5565b9050919050565b7f4c69717569646974794d6174683a20494e53554646494349454e545f4c4951555f8201527f4944495459000000000000000000000000000000000000000000000000000000602082015250565b5f61348f602583612aa0565b915061349a82613435565b604082019050919050565b5f6020820190508181035f8301526134bc81613483565b9050919050565b5f6060820190506134d65f830186612a28565b6134e36020830185612a28565b6134f0604083018461271b565b949350505050565b7f4c69717569646974794d6174683a20494e56414c49445f414d4f554e540000005f82015250565b5f61352c601d83612aa0565b9150613537826134f8565b602082019050919050565b5f6020820190508181035f83015261355981613520565b9050919050565b7f4c69717569646974794d6174683a20494e56414c49445f5245534552564553005f82015250565b5f613594601f83612aa0565b915061359f82613560565b602082019050919050565b5f6020820190508181035f8301526135c181613588565b905091905056fea264697066735822122081f90e687cc87a959194bcdef3bd15c93f129c9d296393986174feccb2757b0f64736f6c634300081e0033","linkReferences":{}},"methodIdentifiers":{"FEE_DENOMINATOR()":"d73792a9","MINIMUM_LIQUIDITY()":"ba9a7a56","accumulatedFeesA()":"455d48f5","accumulatedFeesB()":"7105c19f","activateEmergencyMode()":"d0096010","addLiquidity(uint256,uint256,uint256)":"422f1043","dynamicFeeRate()":"d9c018f2","emergencyMode()":"0905f560","flashLoan(uint256,bool)":"c8787f40","frontRunProtectionBlocks()":"df463ef1","getAmountOut(uint256,bool)":"11106ee2","getCurrentPrice()":"eb91d37e","getReserves()":"0902f1ac","getUserInfo(address)":"6386c1c7","lastRebalanceTime()":"d9ca21d5","lastTransactionBlock(address)":"a7076038","liquidityTokens(address)":"909feb71","maxSlippageProtection()":"1bfd77ab","oraclePrice()":"668aa824","oraclePriceLastUpdate()":"b81b8c9a","owner()":"8da5cb5b","pause()":"8456cb59","paused()":"5c975abb","rebalanceInterval()":"16d1d916","rebalanceThreshold()":"3dfe9f6a","removeLiquidity(uint256,uint256,uint256)":"857620e1","renounceOwnership()":"715018a6","reserveA()":"dc5fa6c5","reserveB()":"19e36f3b","setMEVProtection(uint256,uint256)":"62b80f2f","swap(address,uint256,uint256)":"9f1d0f59","tokenA()":"0fc63d10","tokenB()":"5f64b55b","totalLiquidityTokens()":"1cb4a351","transferOwnership(address)":"f2fde38b","unpause()":"3f4ba83a","updateOraclePrice(uint256)":"5ead3c5d","withdrawFees()":"476343ee"},"id":0}