{"abi":[{"type":"constructor","inputs":[{"name":"name","type":"string","internalType":"string"},{"name":"symbol","type":"string","internalType":"string"},{"name":"decimals_","type":"uint8","internalType":"uint8"},{"name":"initialSupply","type":"uint256","internalType":"uint256"},{"name":"owner","type":"address","internalType":"address"}],"stateMutability":"nonpayable"},{"type":"function","name":"allowance","inputs":[{"name":"owner","type":"address","internalType":"address"},{"name":"spender","type":"address","internalType":"address"}],"outputs":[{"name":"","type":"uint256","internalType":"uint256"}],"stateMutability":"view"},{"type":"function","name":"approve","inputs":[{"name":"spender","type":"address","internalType":"address"},{"name":"value","type":"uint256","internalType":"uint256"}],"outputs":[{"name":"","type":"bool","internalType":"bool"}],"stateMutability":"nonpayable"},{"type":"function","name":"balanceOf","inputs":[{"name":"account","type":"address","internalType":"address"}],"outputs":[{"name":"","type":"uint256","internalType":"uint256"}],"stateMutability":"view"},{"type":"function","name":"burn","inputs":[{"name":"from","type":"address","internalType":"address"},{"name":"amount","type":"uint256","internalType":"uint256"}],"outputs":[],"stateMutability":"nonpayable"},{"type":"function","name":"decimals","inputs":[],"outputs":[{"name":"","type":"uint8","internalType":"uint8"}],"stateMutability":"view"},{"type":"function","name":"mint","inputs":[{"name":"to","type":"address","internalType":"address"},{"name":"amount","type":"uint256","internalType":"uint256"}],"outputs":[],"stateMutability":"nonpayable"},{"type":"function","name":"mintToSelf","inputs":[{"name":"amount","type":"uint256","internalType":"uint256"}],"outputs":[],"stateMutability":"nonpayable"},{"type":"function","name":"name","inputs":[],"outputs":[{"name":"","type":"string","internalType":"string"}],"stateMutability":"view"},{"type":"function","name":"owner","inputs":[],"outputs":[{"name":"","type":"address","internalType":"address"}],"stateMutability":"view"},{"type":"function","name":"renounceOwnership","inputs":[],"outputs":[],"stateMutability":"nonpayable"},{"type":"function","name":"setBalance","inputs":[{"name":"account","type":"address","internalType":"address"},{"name":"amount","type":"uint256","internalType":"uint256"}],"outputs":[],"stateMutability":"nonpayable"},{"type":"function","name":"setTransfersShouldFail","inputs":[{"name":"shouldFail","type":"bool","internalType":"bool"}],"outputs":[],"stateMutability":"nonpayable"},{"type":"function","name":"symbol","inputs":[],"outputs":[{"name":"","type":"string","internalType":"string"}],"stateMutability":"view"},{"type":"function","name":"totalSupply","inputs":[],"outputs":[{"name":"","type":"uint256","internalType":"uint256"}],"stateMutability":"view"},{"type":"function","name":"transfer","inputs":[{"name":"to","type":"address","internalType":"address"},{"name":"amount","type":"uint256","internalType":"uint256"}],"outputs":[{"name":"","type":"bool","internalType":"bool"}],"stateMutability":"nonpayable"},{"type":"function","name":"transferFrom","inputs":[{"name":"from","type":"address","internalType":"address"},{"name":"to","type":"address","internalType":"address"},{"name":"amount","type":"uint256","internalType":"uint256"}],"outputs":[{"name":"","type":"bool","internalType":"bool"}],"stateMutability":"nonpayable"},{"type":"function","name":"transferOwnership","inputs":[{"name":"newOwner","type":"address","internalType":"address"}],"outputs":[],"stateMutability":"nonpayable"},{"type":"function","name":"transferOwnershipAndMint","inputs":[{"name":"newOwner","type":"address","internalType":"address"},{"name":"mintAmount","type":"uint256","internalType":"uint256"}],"outputs":[],"stateMutability":"nonpayable"},{"type":"function","name":"transfersShouldFail","inputs":[],"outputs":[{"name":"","type":"bool","internalType":"bool"}],"stateMutability":"view"},{"type":"event","name":"Approval","inputs":[{"name":"owner","type":"address","indexed":true,"internalType":"address"},{"name":"spender","type":"address","indexed":true,"internalType":"address"},{"name":"value","type":"uint256","indexed":false,"internalType":"uint256"}],"anonymous":false},{"type":"event","name":"OwnershipTransferred","inputs":[{"name":"previousOwner","type":"address","indexed":true,"internalType":"address"},{"name":"newOwner","type":"address","indexed":true,"internalType":"address"}],"anonymous":false},{"type":"event","name":"Transfer","inputs":[{"name":"from","type":"address","indexed":true,"internalType":"address"},{"name":"to","type":"address","indexed":true,"internalType":"address"},{"name":"value","type":"uint256","indexed":false,"internalType":"uint256"}],"anonymous":false},{"type":"error","name":"ERC20InsufficientAllowance","inputs":[{"name":"spender","type":"address","internalType":"address"},{"name":"allowance","type":"uint256","internalType":"uint256"},{"name":"needed","type":"uint256","internalType":"uint256"}]},{"type":"error","name":"ERC20InsufficientBalance","inputs":[{"name":"sender","type":"address","internalType":"address"},{"name":"balance","type":"uint256","internalType":"uint256"},{"name":"needed","type":"uint256","internalType":"uint256"}]},{"type":"error","name":"ERC20InvalidApprover","inputs":[{"name":"approver","type":"address","internalType":"address"}]},{"type":"error","name":"ERC20InvalidReceiver","inputs":[{"name":"receiver","type":"address","internalType":"address"}]},{"type":"error","name":"ERC20InvalidSender","inputs":[{"name":"sender","type":"address","internalType":"address"}]},{"type":"error","name":"ERC20InvalidSpender","inputs":[{"name":"spender","type":"address","internalType":"address"}]},{"type":"error","name":"OwnableInvalidOwner","inputs":[{"name":"owner","type":"address","internalType":"address"}]},{"type":"error","name":"OwnableUnauthorizedAccount","inputs":[{"name":"account","type":"address","internalType":"address"}]}],"bytecode":{"object":"0x60806040525f600560156101000a81548160ff021916908315150217905550348015610029575f5ffd5b50604051612098380380612098833981810160405281019061004b9190610696565b808585816003908161005d919061094c565b50806004908161006d919061094c565b5050505f73ffffffffffffffffffffffffffffffffffffffff168173ffffffffffffffffffffffffffffffffffffffff16036100e0575f6040517f1e4fbdf70000000000000000000000000000000000000000000000000000000081526004016100d79190610a2a565b60405180910390fd5b6100ef8161012560201b60201c565b5082600560146101000a81548160ff021916908360ff16021790555061011b81836101e860201b60201c565b5050505050610b00565b5f60055f9054906101000a900473ffffffffffffffffffffffffffffffffffffffff1690508160055f6101000a81548173ffffffffffffffffffffffffffffffffffffffff021916908373ffffffffffffffffffffffffffffffffffffffff1602179055508173ffffffffffffffffffffffffffffffffffffffff168173ffffffffffffffffffffffffffffffffffffffff167f8be0079c531659141344cd1fd0a4f28419497f9722a3daafe3b4186f6b6457e060405160405180910390a35050565b5f73ffffffffffffffffffffffffffffffffffffffff168273ffffffffffffffffffffffffffffffffffffffff1603610258575f6040517fec442f0500000000000000000000000000000000000000000000000000000000815260040161024f9190610a2a565b60405180910390fd5b6102695f838361026d60201b60201c565b5050565b5f73ffffffffffffffffffffffffffffffffffffffff168373ffffffffffffffffffffffffffffffffffffffff16036102bd578060025f8282546102b19190610a70565b9250508190555061038b565b5f5f5f8573ffffffffffffffffffffffffffffffffffffffff1673ffffffffffffffffffffffffffffffffffffffff1681526020019081526020015f2054905081811015610346578381836040517fe450d38c00000000000000000000000000000000000000000000000000000000815260040161033d93929190610ab2565b60405180910390fd5b8181035f5f8673ffffffffffffffffffffffffffffffffffffffff1673ffffffffffffffffffffffffffffffffffffffff1681526020019081526020015f2081905550505b5f73ffffffffffffffffffffffffffffffffffffffff168273ffffffffffffffffffffffffffffffffffffffff16036103d2578060025f828254039250508190555061041c565b805f5f8473ffffffffffffffffffffffffffffffffffffffff1673ffffffffffffffffffffffffffffffffffffffff1681526020019081526020015f205f82825401925050819055505b8173ffffffffffffffffffffffffffffffffffffffff168373ffffffffffffffffffffffffffffffffffffffff167fddf252ad1be2c89b69c2b068fc378daa952ba7f163c4a11628f55a4df523b3ef836040516104799190610ae7565b60405180910390a3505050565b5f604051905090565b5f5ffd5b5f5ffd5b5f5ffd5b5f5ffd5b5f601f19601f8301169050919050565b7f4e487b71000000000000000000000000000000000000000000000000000000005f52604160045260245ffd5b6104e58261049f565b810181811067ffffffffffffffff82111715610504576105036104af565b5b80604052505050565b5f610516610486565b905061052282826104dc565b919050565b5f67ffffffffffffffff821115610541576105406104af565b5b61054a8261049f565b9050602081019050919050565b8281835e5f83830152505050565b5f61057761057284610527565b61050d565b9050828152602081018484840111156105935761059261049b565b5b61059e848285610557565b509392505050565b5f82601f8301126105ba576105b9610497565b5b81516105ca848260208601610565565b91505092915050565b5f60ff82169050919050565b6105e8816105d3565b81146105f2575f5ffd5b50565b5f81519050610603816105df565b92915050565b5f819050919050565b61061b81610609565b8114610625575f5ffd5b50565b5f8151905061063681610612565b92915050565b5f73ffffffffffffffffffffffffffffffffffffffff82169050919050565b5f6106658261063c565b9050919050565b6106758161065b565b811461067f575f5ffd5b50565b5f815190506106908161066c565b92915050565b5f5f5f5f5f60a086880312156106af576106ae61048f565b5b5f86015167ffffffffffffffff8111156106cc576106cb610493565b5b6106d8888289016105a6565b955050602086015167ffffffffffffffff8111156106f9576106f8610493565b5b610705888289016105a6565b9450506040610716888289016105f5565b935050606061072788828901610628565b925050608061073888828901610682565b9150509295509295909350565b5f81519050919050565b7f4e487b71000000000000000000000000000000000000000000000000000000005f52602260045260245ffd5b5f600282049050600182168061079357607f821691505b6020821081036107a6576107a561074f565b5b50919050565b5f819050815f5260205f209050919050565b5f6020601f8301049050919050565b5f82821b905092915050565b5f600883026108087fffffffffffffffffffffffffffffffffffffffffffffffffffffffffffffffff826107cd565b61081286836107cd565b95508019841693508086168417925050509392505050565b5f819050919050565b5f61084d61084861084384610609565b61082a565b610609565b9050919050565b5f819050919050565b61086683610833565b61087a61087282610854565b8484546107d9565b825550505050565b5f5f905090565b610891610882565b61089c81848461085d565b505050565b5b818110156108bf576108b45f82610889565b6001810190506108a2565b5050565b601f821115610904576108d5816107ac565b6108de846107be565b810160208510156108ed578190505b6109016108f9856107be565b8301826108a1565b50505b505050565b5f82821c905092915050565b5f6109245f1984600802610909565b1980831691505092915050565b5f61093c8383610915565b9150826002028217905092915050565b61095582610745565b67ffffffffffffffff81111561096e5761096d6104af565b5b610978825461077c565b6109838282856108c3565b5f60209050601f8311600181146109b4575f84156109a2578287015190505b6109ac8582610931565b865550610a13565b601f1984166109c2866107ac565b5f5b828110156109e9578489015182556001820191506020850194506020810190506109c4565b86831015610a065784890151610a02601f891682610915565b8355505b6001600288020188555050505b505050505050565b610a248161065b565b82525050565b5f602082019050610a3d5f830184610a1b565b92915050565b7f4e487b71000000000000000000000000000000000000000000000000000000005f52601160045260245ffd5b5f610a7a82610609565b9150610a8583610609565b9250828201905080821115610a9d57610a9c610a43565b5b92915050565b610aac81610609565b82525050565b5f606082019050610ac55f830186610a1b565b610ad26020830185610aa3565b610adf6040830184610aa3565b949350505050565b5f602082019050610afa5f830184610aa3565b92915050565b61158b80610b0d5f395ff3fe608060405234801561000f575f5ffd5b506004361061011f575f3560e01c8063827bf3f4116100ab578063bb6d5e3b1161006f578063bb6d5e3b146102f5578063dd62ed3e14610311578063e30443bc14610341578063f2fde38b1461035d578063ff187498146103795761011f565b8063827bf3f4146102515780638da5cb5b1461026d57806395d89b411461028b5780639dc29fac146102a9578063a9059cbb146102c55761011f565b806323b872dd116100f257806323b872dd146101ad578063313ce567146101dd57806340c10f19146101fb57806370a0823114610217578063715018a6146102475761011f565b806306fdde0314610123578063095ea7b3146101415780630fec76181461017157806318160ddd1461018f575b5f5ffd5b61012b610395565b60405161013891906110c3565b60405180910390f35b61015b60048036038101906101569190611174565b610425565b60405161016891906111cc565b60405180910390f35b610179610447565b60405161018691906111cc565b60405180910390f35b61019761045a565b6040516101a491906111f4565b60405180910390f35b6101c760048036038101906101c2919061120d565b610463565b6040516101d491906111cc565b60405180910390f35b6101e56104c8565b6040516101f29190611278565b60405180910390f35b61021560048036038101906102109190611174565b6104de565b005b610231600480360381019061022c9190611291565b6104f4565b60405161023e91906111f4565b60405180910390f35b61024f610539565b005b61026b60048036038101906102669190611174565b61054c565b005b610275610574565b60405161028291906112cb565b60405180910390f35b61029361059c565b6040516102a091906110c3565b60405180910390f35b6102c360048036038101906102be9190611174565b61062c565b005b6102df60048036038101906102da9190611174565b610642565b6040516102ec91906111cc565b60405180910390f35b61030f600480360381019061030a91906112e4565b6106a5565b005b61032b6004803603810190610326919061130f565b6106b2565b60405161033891906111f4565b60405180910390f35b61035b60048036038101906103569190611174565b610734565b005b61037760048036038101906103729190611291565b61078e565b005b610393600480360381019061038e9190611377565b610812565b005b6060600380546103a4906113cf565b80601f01602080910402602001604051908101604052809291908181526020018280546103d0906113cf565b801561041b5780601f106103f25761010080835404028352916020019161041b565b820191905f5260205f20905b8154815290600101906020018083116103fe57829003601f168201915b5050505050905090565b5f5f61042f610837565b905061043c81858561083e565b600191505092915050565b600560159054906101000a900460ff1681565b5f600254905090565b5f600560159054906101000a900460ff16156104b4576040517f08c379a00000000000000000000000000000000000000000000000000000000081526004016104ab9061146f565b60405180910390fd5b6104bf848484610850565b90509392505050565b5f600560149054906101000a900460ff16905090565b6104e661087e565b6104f08282610905565b5050565b5f5f5f8373ffffffffffffffffffffffffffffffffffffffff1673ffffffffffffffffffffffffffffffffffffffff1681526020019081526020015f20549050919050565b61054161087e565b61054a5f610984565b565b61055461087e565b5f811115610567576105668282610905565b5b61057082610984565b5050565b5f60055f9054906101000a900473ffffffffffffffffffffffffffffffffffffffff16905090565b6060600480546105ab906113cf565b80601f01602080910402602001604051908101604052809291908181526020018280546105d7906113cf565b80156106225780601f106105f957610100808354040283529160200191610622565b820191905f5260205f20905b81548152906001019060200180831161060557829003601f168201915b5050505050905090565b61063461087e565b61063e8282610a47565b5050565b5f600560159054906101000a900460ff1615610693576040517f08c379a000000000000000000000000000000000000000000000000000000000815260040161068a9061146f565b60405180910390fd5b61069d8383610ac6565b905092915050565b6106af3382610905565b50565b5f60015f8473ffffffffffffffffffffffffffffffffffffffff1673ffffffffffffffffffffffffffffffffffffffff1681526020019081526020015f205f8373ffffffffffffffffffffffffffffffffffffffff1673ffffffffffffffffffffffffffffffffffffffff1681526020019081526020015f2054905092915050565b61073c61087e565b5f610746836104f4565b90508181101561076a5761076583828461076091906114ba565b610905565b610789565b818111156107885761078783838361078291906114ba565b610a47565b5b5b505050565b61079661087e565b5f73ffffffffffffffffffffffffffffffffffffffff168173ffffffffffffffffffffffffffffffffffffffff1603610806575f6040517f1e4fbdf70000000000000000000000000000000000000000000000000000000081526004016107fd91906112cb565b60405180910390fd5b61080f81610984565b50565b61081a61087e565b80600560156101000a81548160ff02191690831515021790555050565b5f33905090565b61084b8383836001610ae8565b505050565b5f5f61085a610837565b9050610867858285610cb7565b610872858585610d4a565b60019150509392505050565b610886610837565b73ffffffffffffffffffffffffffffffffffffffff166108a4610574565b73ffffffffffffffffffffffffffffffffffffffff1614610903576108c7610837565b6040517f118cdaa70000000000000000000000000000000000000000000000000000000081526004016108fa91906112cb565b60405180910390fd5b565b5f73ffffffffffffffffffffffffffffffffffffffff168273ffffffffffffffffffffffffffffffffffffffff1603610975575f6040517fec442f0500000000000000000000000000000000000000000000000000000000815260040161096c91906112cb565b60405180910390fd5b6109805f8383610e3a565b5050565b5f60055f9054906101000a900473ffffffffffffffffffffffffffffffffffffffff1690508160055f6101000a81548173ffffffffffffffffffffffffffffffffffffffff021916908373ffffffffffffffffffffffffffffffffffffffff1602179055508173ffffffffffffffffffffffffffffffffffffffff168173ffffffffffffffffffffffffffffffffffffffff167f8be0079c531659141344cd1fd0a4f28419497f9722a3daafe3b4186f6b6457e060405160405180910390a35050565b5f73ffffffffffffffffffffffffffffffffffffffff168273ffffffffffffffffffffffffffffffffffffffff1603610ab7575f6040517f96c6fd1e000000000000000000000000000000000000000000000000000000008152600401610aae91906112cb565b60405180910390fd5b610ac2825f83610e3a565b5050565b5f5f610ad0610837565b9050610add818585610d4a565b600191505092915050565b5f73ffffffffffffffffffffffffffffffffffffffff168473ffffffffffffffffffffffffffffffffffffffff1603610b58575f6040517fe602df05000000000000000000000000000000000000000000000000000000008152600401610b4f91906112cb565b60405180910390fd5b5f73ffffffffffffffffffffffffffffffffffffffff168373ffffffffffffffffffffffffffffffffffffffff1603610bc8575f6040517f94280d62000000000000000000000000000000000000000000000000000000008152600401610bbf91906112cb565b60405180910390fd5b8160015f8673ffffffffffffffffffffffffffffffffffffffff1673ffffffffffffffffffffffffffffffffffffffff1681526020019081526020015f205f8573ffffffffffffffffffffffffffffffffffffffff1673ffffffffffffffffffffffffffffffffffffffff1681526020019081526020015f20819055508015610cb1578273ffffffffffffffffffffffffffffffffffffffff168473ffffffffffffffffffffffffffffffffffffffff167f8c5be1e5ebec7d5bd14f71427d1e84f3dd0314c0f7b2291e5b200ac8c7c3b92584604051610ca891906111f4565b60405180910390a35b50505050565b5f610cc284846106b2565b90507fffffffffffffffffffffffffffffffffffffffffffffffffffffffffffffffff811015610d445781811015610d35578281836040517ffb8f41b2000000000000000000000000000000000000000000000000000000008152600401610d2c939291906114ed565b60405180910390fd5b610d4384848484035f610ae8565b5b50505050565b5f73ffffffffffffffffffffffffffffffffffffffff168373ffffffffffffffffffffffffffffffffffffffff1603610dba575f6040517f96c6fd1e000000000000000000000000000000000000000000000000000000008152600401610db191906112cb565b60405180910390fd5b5f73ffffffffffffffffffffffffffffffffffffffff168273ffffffffffffffffffffffffffffffffffffffff1603610e2a575f6040517fec442f05000000000000000000000000000000000000000000000000000000008152600401610e2191906112cb565b60405180910390fd5b610e35838383610e3a565b505050565b5f73ffffffffffffffffffffffffffffffffffffffff168373ffffffffffffffffffffffffffffffffffffffff1603610e8a578060025f828254610e7e9190611522565b92505081905550610f58565b5f5f5f8573ffffffffffffffffffffffffffffffffffffffff1673ffffffffffffffffffffffffffffffffffffffff1681526020019081526020015f2054905081811015610f13578381836040517fe450d38c000000000000000000000000000000000000000000000000000000008152600401610f0a939291906114ed565b60405180910390fd5b8181035f5f8673ffffffffffffffffffffffffffffffffffffffff1673ffffffffffffffffffffffffffffffffffffffff1681526020019081526020015f2081905550505b5f73ffffffffffffffffffffffffffffffffffffffff168273ffffffffffffffffffffffffffffffffffffffff1603610f9f578060025f8282540392505081905550610fe9565b805f5f8473ffffffffffffffffffffffffffffffffffffffff1673ffffffffffffffffffffffffffffffffffffffff1681526020019081526020015f205f82825401925050819055505b8173ffffffffffffffffffffffffffffffffffffffff168373ffffffffffffffffffffffffffffffffffffffff167fddf252ad1be2c89b69c2b068fc378daa952ba7f163c4a11628f55a4df523b3ef8360405161104691906111f4565b60405180910390a3505050565b5f81519050919050565b5f82825260208201905092915050565b8281835e5f83830152505050565b5f601f19601f8301169050919050565b5f61109582611053565b61109f818561105d565b93506110af81856020860161106d565b6110b88161107b565b840191505092915050565b5f6020820190508181035f8301526110db818461108b565b905092915050565b5f5ffd5b5f73ffffffffffffffffffffffffffffffffffffffff82169050919050565b5f611110826110e7565b9050919050565b61112081611106565b811461112a575f5ffd5b50565b5f8135905061113b81611117565b92915050565b5f819050919050565b61115381611141565b811461115d575f5ffd5b50565b5f8135905061116e8161114a565b92915050565b5f5f6040838503121561118a576111896110e3565b5b5f6111978582860161112d565b92505060206111a885828601611160565b9150509250929050565b5f8115159050919050565b6111c6816111b2565b82525050565b5f6020820190506111df5f8301846111bd565b92915050565b6111ee81611141565b82525050565b5f6020820190506112075f8301846111e5565b92915050565b5f5f5f60608486031215611224576112236110e3565b5b5f6112318682870161112d565b93505060206112428682870161112d565b925050604061125386828701611160565b9150509250925092565b5f60ff82169050919050565b6112728161125d565b82525050565b5f60208201905061128b5f830184611269565b92915050565b5f602082840312156112a6576112a56110e3565b5b5f6112b38482850161112d565b91505092915050565b6112c581611106565b82525050565b5f6020820190506112de5f8301846112bc565b92915050565b5f602082840312156112f9576112f86110e3565b5b5f61130684828501611160565b91505092915050565b5f5f60408385031215611325576113246110e3565b5b5f6113328582860161112d565b92505060206113438582860161112d565b9150509250929050565b611356816111b2565b8114611360575f5ffd5b50565b5f813590506113718161134d565b92915050565b5f6020828403121561138c5761138b6110e3565b5b5f61139984828501611363565b91505092915050565b7f4e487b71000000000000000000000000000000000000000000000000000000005f52602260045260245ffd5b5f60028204905060018216806113e657607f821691505b6020821081036113f9576113f86113a2565b5b50919050565b7f4d6f636b45524332303a205472616e73666572732064697361626c656420666f5f8201527f722074657374696e670000000000000000000000000000000000000000000000602082015250565b5f61145960298361105d565b9150611464826113ff565b604082019050919050565b5f6020820190508181035f8301526114868161144d565b9050919050565b7f4e487b71000000000000000000000000000000000000000000000000000000005f52601160045260245ffd5b5f6114c482611141565b91506114cf83611141565b92508282039050818111156114e7576114e661148d565b5b92915050565b5f6060820190506115005f8301866112bc565b61150d60208301856111e5565b61151a60408301846111e5565b949350505050565b5f61152c82611141565b915061153783611141565b925082820190508082111561154f5761154e61148d565b5b9291505056fea2646970667358221220f64b8c2f092cd217cdce256364418861adcc4c862b2ecb3811cfb9d31cffe1a064736f6c634300081e0033","linkReferences":{}},"methodIdentifiers":{"allowance(address,address)":"dd62ed3e","approve(address,uint256)":"095ea7b3","balanceOf(address)":"70a08231","burn(address,uint256)":"9dc29fac","decimals()":"313ce567","mint(address,uint256)":"40c10f19","mintToSelf(uint256)":"bb6d5e3b","name()":"06fdde03","owner()":"8da5cb5b","renounceOwnership()":"715018a6","setBalance(address,uint256)":"e30443bc","setTransfersShouldFail(bool)":"ff187498","symbol()":"95d89b41","totalSupply()":"18160ddd","transfer(address,uint256)":"a9059cbb","transferFrom(address,address,uint256)":"23b872dd","transferOwnership(address)":"f2fde38b","transferOwnershipAndMint(address,uint256)":"827bf3f4","transfersShouldFail()":"0fec7618"},"id":4}